{
	"testApp/contracts/Pyramid.sol": {
		"Pyramid": {
			"abi": [
				{
					"constant": true,
					"inputs": [
						{
							"name": "l",
							"type": "uint256"
						}
					],
					"name": "pyramid",
					"outputs": [
						{
							"name": "",
							"type": "uint256"
						}
					],
					"payable": false,
					"stateMutability": "view",
					"type": "function"
				}
			],
			"devdoc": {
				"methods": {}
			},
			"evm": {
				"assembly": "    /* \"testApp/contracts/Pyramid.sol\":936:1311  contract Pyramid {... */\n  mstore(0x40, 0x80)\n  callvalue\n    /* \"--CODEGEN--\":8:17   */\n  dup1\n    /* \"--CODEGEN--\":5:7   */\n  iszero\n  tag_1\n  jumpi\n    /* \"--CODEGEN--\":30:31   */\n  0x0\n    /* \"--CODEGEN--\":27:28   */\n  dup1\n    /* \"--CODEGEN--\":20:32   */\n  revert\n    /* \"--CODEGEN--\":5:7   */\ntag_1:\n    /* \"testApp/contracts/Pyramid.sol\":936:1311  contract Pyramid {... */\n  pop\n  dataSize(sub_0)\n  dup1\n  dataOffset(sub_0)\n  0x0\n  codecopy\n  0x0\n  return\nstop\n\nsub_0: assembly {\n        /* \"testApp/contracts/Pyramid.sol\":936:1311  contract Pyramid {... */\n      mstore(0x40, 0x80)\n      jumpi(tag_1, lt(calldatasize, 0x4))\n      calldataload(0x0)\n      0x100000000000000000000000000000000000000000000000000000000\n      swap1\n      div\n      0xffffffff\n      and\n      dup1\n      0xa2eeb5d4\n      eq\n      tag_2\n      jumpi\n    tag_1:\n      0x0\n      dup1\n      revert\n        /* \"testApp/contracts/Pyramid.sol\":988:1113  function pyramid(uint256 l) public pure returns (uint256) {... */\n    tag_2:\n      callvalue\n        /* \"--CODEGEN--\":8:17   */\n      dup1\n        /* \"--CODEGEN--\":5:7   */\n      iszero\n      tag_3\n      jumpi\n        /* \"--CODEGEN--\":30:31   */\n      0x0\n        /* \"--CODEGEN--\":27:28   */\n      dup1\n        /* \"--CODEGEN--\":20:32   */\n      revert\n        /* \"--CODEGEN--\":5:7   */\n    tag_3:\n        /* \"testApp/contracts/Pyramid.sol\":988:1113  function pyramid(uint256 l) public pure returns (uint256) {... */\n      pop\n      tag_4\n      0x4\n      dup1\n      calldatasize\n      sub\n      dup2\n      add\n      swap1\n      dup1\n      dup1\n      calldataload\n      swap1\n      0x20\n      add\n      swap1\n      swap3\n      swap2\n      swap1\n      pop\n      pop\n      pop\n      jump(tag_5)\n    tag_4:\n      mload(0x40)\n      dup1\n      dup3\n      dup2\n      mstore\n      0x20\n      add\n      swap2\n      pop\n      pop\n      mload(0x40)\n      dup1\n      swap2\n      sub\n      swap1\n      return\n    tag_5:\n        /* \"testApp/contracts/Pyramid.sol\":1037:1044  uint256 */\n      0x0\n        /* \"testApp/contracts/Pyramid.sol\":1063:1106  ArrayUtils.range(l).map(square).reduce(sum) */\n      tag_7\n        /* \"testApp/contracts/Pyramid.sol\":1102:1105  sum */\n      tag_8\n        /* \"testApp/contracts/Pyramid.sol\":1063:1094  ArrayUtils.range(l).map(square) */\n      tag_9\n        /* \"testApp/contracts/Pyramid.sol\":1087:1093  square */\n      tag_10\n        /* \"testApp/contracts/Pyramid.sol\":1063:1082  ArrayUtils.range(l) */\n      tag_11\n        /* \"testApp/contracts/Pyramid.sol\":1080:1081  l */\n      dup7\n        /* \"testApp/contracts/Pyramid.sol\":1063:1079  ArrayUtils.range */\n      tag_12\n        /* \"testApp/contracts/Pyramid.sol\":1063:1082  ArrayUtils.range(l) */\n      jump\t// in\n    tag_11:\n        /* \"testApp/contracts/Pyramid.sol\":1063:1086  ArrayUtils.range(l).map */\n      tag_13\n      swap1\n        /* \"testApp/contracts/Pyramid.sol\":1063:1094  ArrayUtils.range(l).map(square) */\n      swap2\n      swap1\n      0xffffffff\n      and\n      jump\t// in\n    tag_9:\n        /* \"testApp/contracts/Pyramid.sol\":1063:1101  ArrayUtils.range(l).map(square).reduce */\n      tag_14\n      swap1\n        /* \"testApp/contracts/Pyramid.sol\":1063:1106  ArrayUtils.range(l).map(square).reduce(sum) */\n      swap2\n      swap1\n      0xffffffff\n      and\n      jump\t// in\n    tag_7:\n        /* \"testApp/contracts/Pyramid.sol\":1056:1106  return ArrayUtils.range(l).map(square).reduce(sum) */\n      swap1\n      pop\n        /* \"testApp/contracts/Pyramid.sol\":988:1113  function pyramid(uint256 l) public pure returns (uint256) {... */\n      swap2\n      swap1\n      pop\n      jump\t// out\n        /* \"testApp/contracts/Pyramid.sol\":1213:1309  function sum(uint256 x, uint256 y) internal pure returns (uint256) {... */\n    tag_8:\n        /* \"testApp/contracts/Pyramid.sol\":1271:1278  uint256 */\n      0x0\n        /* \"testApp/contracts/Pyramid.sol\":1301:1302  y */\n      dup2\n        /* \"testApp/contracts/Pyramid.sol\":1297:1298  x */\n      dup4\n        /* \"testApp/contracts/Pyramid.sol\":1297:1302  x + y */\n      add\n        /* \"testApp/contracts/Pyramid.sol\":1290:1302  return x + y */\n      swap1\n      pop\n        /* \"testApp/contracts/Pyramid.sol\":1213:1309  function sum(uint256 x, uint256 y) internal pure returns (uint256) {... */\n      swap3\n      swap2\n      pop\n      pop\n      jump\t// out\n        /* \"testApp/contracts/Pyramid.sol\":1119:1207  function square(uint256 x) internal pure returns (uint256) {... */\n    tag_10:\n        /* \"testApp/contracts/Pyramid.sol\":1169:1176  uint256 */\n      0x0\n        /* \"testApp/contracts/Pyramid.sol\":1199:1200  x */\n      dup2\n        /* \"testApp/contracts/Pyramid.sol\":1195:1196  x */\n      dup3\n        /* \"testApp/contracts/Pyramid.sol\":1195:1200  x * x */\n      mul\n        /* \"testApp/contracts/Pyramid.sol\":1188:1200  return x * x */\n      swap1\n      pop\n        /* \"testApp/contracts/Pyramid.sol\":1119:1207  function square(uint256 x) internal pure returns (uint256) {... */\n      swap2\n      swap1\n      pop\n      jump\t// out\n        /* \"testApp/contracts/Pyramid.sol\":735:932  function range(uint256 length) internal pure returns (uint256[] memory r) {... */\n    tag_12:\n        /* \"testApp/contracts/Pyramid.sol\":789:807  uint256[] memory r */\n      0x60\n        /* \"testApp/contracts/Pyramid.sol\":859:868  uint256 i */\n      0x0\n        /* \"testApp/contracts/Pyramid.sol\":837:843  length */\n      dup3\n        /* \"testApp/contracts/Pyramid.sol\":823:844  new uint256[](length) */\n      mload(0x40)\n      swap1\n      dup1\n      dup3\n      mstore\n      dup1\n      0x20\n      mul\n      0x20\n      add\n      dup3\n      add\n      0x40\n      mstore\n      dup1\n      iszero\n      tag_18\n      jumpi\n      dup2\n      0x20\n      add\n        /* \"--CODEGEN--\":29:31   */\n      0x20\n        /* \"--CODEGEN--\":21:27   */\n      dup3\n        /* \"--CODEGEN--\":17:32   */\n      mul\n        /* \"--CODEGEN--\":117:121   */\n      dup1\n        /* \"--CODEGEN--\":105:115   */\n      codesize\n        /* \"--CODEGEN--\":97:103   */\n      dup4\n        /* \"--CODEGEN--\":88:122   */\n      codecopy\n        /* \"--CODEGEN--\":148:152   */\n      dup1\n        /* \"--CODEGEN--\":140:146   */\n      dup3\n        /* \"--CODEGEN--\":136:153   */\n      add\n        /* \"--CODEGEN--\":126:153   */\n      swap2\n      pop\n        /* \"--CODEGEN--\":0:157   */\n      pop\n        /* \"testApp/contracts/Pyramid.sol\":823:844  new uint256[](length) */\n      swap1\n      pop\n    tag_18:\n      pop\n        /* \"testApp/contracts/Pyramid.sol\":819:844  r = new uint256[](length) */\n      swap2\n      pop\n        /* \"testApp/contracts/Pyramid.sol\":871:872  0 */\n      0x0\n        /* \"testApp/contracts/Pyramid.sol\":859:872  uint256 i = 0 */\n      swap1\n      pop\n        /* \"testApp/contracts/Pyramid.sol\":854:926  for (uint256 i = 0; i < r.length; i++) {... */\n    tag_19:\n        /* \"testApp/contracts/Pyramid.sol\":878:879  r */\n      dup2\n        /* \"testApp/contracts/Pyramid.sol\":878:886  r.length */\n      mload\n        /* \"testApp/contracts/Pyramid.sol\":874:875  i */\n      dup2\n        /* \"testApp/contracts/Pyramid.sol\":874:886  i < r.length */\n      lt\n        /* \"testApp/contracts/Pyramid.sol\":854:926  for (uint256 i = 0; i < r.length; i++) {... */\n      iszero\n      tag_20\n      jumpi\n        /* \"testApp/contracts/Pyramid.sol\":914:915  i */\n      dup1\n        /* \"testApp/contracts/Pyramid.sol\":907:908  r */\n      dup3\n        /* \"testApp/contracts/Pyramid.sol\":909:910  i */\n      dup3\n        /* \"testApp/contracts/Pyramid.sol\":907:911  r[i] */\n      dup2\n      mload\n      dup2\n      lt\n      iszero\n      iszero\n      tag_22\n      jumpi\n      invalid\n    tag_22:\n      swap1\n      0x20\n      add\n      swap1\n      0x20\n      mul\n      add\n        /* \"testApp/contracts/Pyramid.sol\":907:915  r[i] = i */\n      dup2\n      dup2\n      mstore\n      pop\n      pop\n        /* \"testApp/contracts/Pyramid.sol\":888:891  i++ */\n      dup1\n      dup1\n      0x1\n      add\n      swap2\n      pop\n      pop\n        /* \"testApp/contracts/Pyramid.sol\":854:926  for (uint256 i = 0; i < r.length; i++) {... */\n      jump(tag_19)\n    tag_20:\n        /* \"testApp/contracts/Pyramid.sol\":735:932  function range(uint256 length) internal pure returns (uint256[] memory r) {... */\n      pop\n      swap2\n      swap1\n      pop\n      jump\t// out\n        /* \"testApp/contracts/Pyramid.sol\":169:454  function map(... */\n    tag_13:\n        /* \"testApp/contracts/Pyramid.sol\":294:312  uint256[] memory r */\n      0x60\n        /* \"testApp/contracts/Pyramid.sol\":369:378  uint256 i */\n      0x0\n        /* \"testApp/contracts/Pyramid.sol\":342:346  self */\n      dup4\n        /* \"testApp/contracts/Pyramid.sol\":342:353  self.length */\n      mload\n        /* \"testApp/contracts/Pyramid.sol\":328:354  new uint256[](self.length) */\n      mload(0x40)\n      swap1\n      dup1\n      dup3\n      mstore\n      dup1\n      0x20\n      mul\n      0x20\n      add\n      dup3\n      add\n      0x40\n      mstore\n      dup1\n      iszero\n      tag_24\n      jumpi\n      dup2\n      0x20\n      add\n        /* \"--CODEGEN--\":29:31   */\n      0x20\n        /* \"--CODEGEN--\":21:27   */\n      dup3\n        /* \"--CODEGEN--\":17:32   */\n      mul\n        /* \"--CODEGEN--\":117:121   */\n      dup1\n        /* \"--CODEGEN--\":105:115   */\n      codesize\n        /* \"--CODEGEN--\":97:103   */\n      dup4\n        /* \"--CODEGEN--\":88:122   */\n      codecopy\n        /* \"--CODEGEN--\":148:152   */\n      dup1\n        /* \"--CODEGEN--\":140:146   */\n      dup3\n        /* \"--CODEGEN--\":136:153   */\n      add\n        /* \"--CODEGEN--\":126:153   */\n      swap2\n      pop\n        /* \"--CODEGEN--\":0:157   */\n      pop\n        /* \"testApp/contracts/Pyramid.sol\":328:354  new uint256[](self.length) */\n      swap1\n      pop\n    tag_24:\n      pop\n        /* \"testApp/contracts/Pyramid.sol\":324:354  r = new uint256[](self.length) */\n      swap2\n      pop\n        /* \"testApp/contracts/Pyramid.sol\":381:382  0 */\n      0x0\n        /* \"testApp/contracts/Pyramid.sol\":369:382  uint256 i = 0 */\n      swap1\n      pop\n        /* \"testApp/contracts/Pyramid.sol\":364:448  for (uint256 i = 0; i < self.length; i++) {... */\n    tag_25:\n        /* \"testApp/contracts/Pyramid.sol\":388:392  self */\n      dup4\n        /* \"testApp/contracts/Pyramid.sol\":388:399  self.length */\n      mload\n        /* \"testApp/contracts/Pyramid.sol\":384:385  i */\n      dup2\n        /* \"testApp/contracts/Pyramid.sol\":384:399  i < self.length */\n      lt\n        /* \"testApp/contracts/Pyramid.sol\":364:448  for (uint256 i = 0; i < self.length; i++) {... */\n      iszero\n      tag_26\n      jumpi\n        /* \"testApp/contracts/Pyramid.sol\":427:437  f(self[i]) */\n      tag_28\n        /* \"testApp/contracts/Pyramid.sol\":429:433  self */\n      dup5\n        /* \"testApp/contracts/Pyramid.sol\":434:435  i */\n      dup3\n        /* \"testApp/contracts/Pyramid.sol\":429:436  self[i] */\n      dup2\n      mload\n      dup2\n      lt\n      iszero\n      iszero\n      tag_29\n      jumpi\n      invalid\n    tag_29:\n      swap1\n      0x20\n      add\n      swap1\n      0x20\n      mul\n      add\n      mload\n        /* \"testApp/contracts/Pyramid.sol\":427:428  f */\n      dup5\n        /* \"testApp/contracts/Pyramid.sol\":427:437  f(self[i]) */\n      0xffffffff\n      and\n      jump\t// in\n    tag_28:\n        /* \"testApp/contracts/Pyramid.sol\":420:421  r */\n      dup3\n        /* \"testApp/contracts/Pyramid.sol\":422:423  i */\n      dup3\n        /* \"testApp/contracts/Pyramid.sol\":420:424  r[i] */\n      dup2\n      mload\n      dup2\n      lt\n      iszero\n      iszero\n      tag_30\n      jumpi\n      invalid\n    tag_30:\n      swap1\n      0x20\n      add\n      swap1\n      0x20\n      mul\n      add\n        /* \"testApp/contracts/Pyramid.sol\":420:437  r[i] = f(self[i]) */\n      dup2\n      dup2\n      mstore\n      pop\n      pop\n        /* \"testApp/contracts/Pyramid.sol\":401:404  i++ */\n      dup1\n      dup1\n      0x1\n      add\n      swap2\n      pop\n      pop\n        /* \"testApp/contracts/Pyramid.sol\":364:448  for (uint256 i = 0; i < self.length; i++) {... */\n      jump(tag_25)\n    tag_26:\n        /* \"testApp/contracts/Pyramid.sol\":169:454  function map(... */\n      pop\n      swap3\n      swap2\n      pop\n      pop\n      jump\t// out\n        /* \"testApp/contracts/Pyramid.sol\":460:729  function reduce(... */\n    tag_14:\n        /* \"testApp/contracts/Pyramid.sol\":597:606  uint256 r */\n      0x0\n        /* \"testApp/contracts/Pyramid.sol\":644:653  uint256 i */\n      dup1\n        /* \"testApp/contracts/Pyramid.sol\":622:626  self */\n      dup4\n        /* \"testApp/contracts/Pyramid.sol\":627:628  0 */\n      0x0\n        /* \"testApp/contracts/Pyramid.sol\":622:629  self[0] */\n      dup2\n      mload\n      dup2\n      lt\n      iszero\n      iszero\n      tag_32\n      jumpi\n      invalid\n    tag_32:\n      swap1\n      0x20\n      add\n      swap1\n      0x20\n      mul\n      add\n      mload\n        /* \"testApp/contracts/Pyramid.sol\":618:629  r = self[0] */\n      swap2\n      pop\n        /* \"testApp/contracts/Pyramid.sol\":656:657  1 */\n      0x1\n        /* \"testApp/contracts/Pyramid.sol\":644:657  uint256 i = 1 */\n      swap1\n      pop\n        /* \"testApp/contracts/Pyramid.sol\":639:723  for (uint256 i = 1; i < self.length; i++) {... */\n    tag_33:\n        /* \"testApp/contracts/Pyramid.sol\":663:667  self */\n      dup4\n        /* \"testApp/contracts/Pyramid.sol\":663:674  self.length */\n      mload\n        /* \"testApp/contracts/Pyramid.sol\":659:660  i */\n      dup2\n        /* \"testApp/contracts/Pyramid.sol\":659:674  i < self.length */\n      lt\n        /* \"testApp/contracts/Pyramid.sol\":639:723  for (uint256 i = 1; i < self.length; i++) {... */\n      iszero\n      tag_34\n      jumpi\n        /* \"testApp/contracts/Pyramid.sol\":699:712  f(r, self[i]) */\n      tag_36\n        /* \"testApp/contracts/Pyramid.sol\":701:702  r */\n      dup3\n        /* \"testApp/contracts/Pyramid.sol\":704:708  self */\n      dup6\n        /* \"testApp/contracts/Pyramid.sol\":709:710  i */\n      dup4\n        /* \"testApp/contracts/Pyramid.sol\":704:711  self[i] */\n      dup2\n      mload\n      dup2\n      lt\n      iszero\n      iszero\n      tag_37\n      jumpi\n      invalid\n    tag_37:\n      swap1\n      0x20\n      add\n      swap1\n      0x20\n      mul\n      add\n      mload\n        /* \"testApp/contracts/Pyramid.sol\":699:700  f */\n      dup6\n        /* \"testApp/contracts/Pyramid.sol\":699:712  f(r, self[i]) */\n      0xffffffff\n      and\n      jump\t// in\n    tag_36:\n        /* \"testApp/contracts/Pyramid.sol\":695:712  r = f(r, self[i]) */\n      swap2\n      pop\n        /* \"testApp/contracts/Pyramid.sol\":676:679  i++ */\n      dup1\n      dup1\n      0x1\n      add\n      swap2\n      pop\n      pop\n        /* \"testApp/contracts/Pyramid.sol\":639:723  for (uint256 i = 1; i < self.length; i++) {... */\n      jump(tag_33)\n    tag_34:\n        /* \"testApp/contracts/Pyramid.sol\":460:729  function reduce(... */\n      pop\n      swap3\n      swap2\n      pop\n      pop\n      jump\t// out\n\n    auxdata: 0xa165627a7a72305820e8a74a8ca4955896b5076b78bae6dfc52e1e38f5da4886b4e089c09b89a984ad0029\n}\n",
				"bytecode": {
					"linkReferences": {},
					"object": "608060405234801561001057600080fd5b5061027a806100206000396000f300608060405260043610610041576000357c0100000000000000000000000000000000000000000000000000000000900463ffffffff168063a2eeb5d414610046575b600080fd5b34801561005257600080fd5b5061007160048036038101908080359060200190929190505050610087565b6040518082815260200191505060405180910390f35b60006100ba6100c16100ac6100ce61009e866100da565b61014e90919063ffffffff16565b6101e790919063ffffffff16565b9050919050565b6000818301905092915050565b60008182029050919050565b606060008260405190808252806020026020018201604052801561010d5781602001602082028038833980820191505090505b509150600090505b81518110156101485780828281518110151561012d57fe5b90602001906020020181815250508080600101915050610115565b50919050565b6060600083516040519080825280602002602001820160405280156101825781602001602082028038833980820191505090505b509150600090505b83518110156101e0576101b784828151811015156101a457fe5b906020019060200201518463ffffffff16565b82828151811015156101c557fe5b9060200190602002018181525050808060010191505061018a565b5092915050565b6000808360008151811015156101f957fe5b906020019060200201519150600190505b83518110156102475761023882858381518110151561022557fe5b906020019060200201518563ffffffff16565b9150808060010191505061020a565b50929150505600a165627a7a72305820e8a74a8ca4955896b5076b78bae6dfc52e1e38f5da4886b4e089c09b89a984ad0029",
					"opcodes": "PUSH1 0x80 PUSH1 0x40 MSTORE CALLVALUE DUP1 ISZERO PUSH2 0x10 JUMPI PUSH1 0x0 DUP1 REVERT JUMPDEST POP PUSH2 0x27A DUP1 PUSH2 0x20 PUSH1 0x0 CODECOPY PUSH1 0x0 RETURN STOP PUSH1 0x80 PUSH1 0x40 MSTORE PUSH1 0x4 CALLDATASIZE LT PUSH2 0x41 JUMPI PUSH1 0x0 CALLDATALOAD PUSH29 0x100000000000000000000000000000000000000000000000000000000 SWAP1 DIV PUSH4 0xFFFFFFFF AND DUP1 PUSH4 0xA2EEB5D4 EQ PUSH2 0x46 JUMPI JUMPDEST PUSH1 0x0 DUP1 REVERT JUMPDEST CALLVALUE DUP1 ISZERO PUSH2 0x52 JUMPI PUSH1 0x0 DUP1 REVERT JUMPDEST POP PUSH2 0x71 PUSH1 0x4 DUP1 CALLDATASIZE SUB DUP2 ADD SWAP1 DUP1 DUP1 CALLDATALOAD SWAP1 PUSH1 0x20 ADD SWAP1 SWAP3 SWAP2 SWAP1 POP POP POP PUSH2 0x87 JUMP JUMPDEST PUSH1 0x40 MLOAD DUP1 DUP3 DUP2 MSTORE PUSH1 0x20 ADD SWAP2 POP POP PUSH1 0x40 MLOAD DUP1 SWAP2 SUB SWAP1 RETURN JUMPDEST PUSH1 0x0 PUSH2 0xBA PUSH2 0xC1 PUSH2 0xAC PUSH2 0xCE PUSH2 0x9E DUP7 PUSH2 0xDA JUMP JUMPDEST PUSH2 0x14E SWAP1 SWAP2 SWAP1 PUSH4 0xFFFFFFFF AND JUMP JUMPDEST PUSH2 0x1E7 SWAP1 SWAP2 SWAP1 PUSH4 0xFFFFFFFF AND JUMP JUMPDEST SWAP1 POP SWAP2 SWAP1 POP JUMP JUMPDEST PUSH1 0x0 DUP2 DUP4 ADD SWAP1 POP SWAP3 SWAP2 POP POP JUMP JUMPDEST PUSH1 0x0 DUP2 DUP3 MUL SWAP1 POP SWAP2 SWAP1 POP JUMP JUMPDEST PUSH1 0x60 PUSH1 0x0 DUP3 PUSH1 0x40 MLOAD SWAP1 DUP1 DUP3 MSTORE DUP1 PUSH1 0x20 MUL PUSH1 0x20 ADD DUP3 ADD PUSH1 0x40 MSTORE DUP1 ISZERO PUSH2 0x10D JUMPI DUP2 PUSH1 0x20 ADD PUSH1 0x20 DUP3 MUL DUP1 CODESIZE DUP4 CODECOPY DUP1 DUP3 ADD SWAP2 POP POP SWAP1 POP JUMPDEST POP SWAP2 POP PUSH1 0x0 SWAP1 POP JUMPDEST DUP2 MLOAD DUP2 LT ISZERO PUSH2 0x148 JUMPI DUP1 DUP3 DUP3 DUP2 MLOAD DUP2 LT ISZERO ISZERO PUSH2 0x12D JUMPI INVALID JUMPDEST SWAP1 PUSH1 0x20 ADD SWAP1 PUSH1 0x20 MUL ADD DUP2 DUP2 MSTORE POP POP DUP1 DUP1 PUSH1 0x1 ADD SWAP2 POP POP PUSH2 0x115 JUMP JUMPDEST POP SWAP2 SWAP1 POP JUMP JUMPDEST PUSH1 0x60 PUSH1 0x0 DUP4 MLOAD PUSH1 0x40 MLOAD SWAP1 DUP1 DUP3 MSTORE DUP1 PUSH1 0x20 MUL PUSH1 0x20 ADD DUP3 ADD PUSH1 0x40 MSTORE DUP1 ISZERO PUSH2 0x182 JUMPI DUP2 PUSH1 0x20 ADD PUSH1 0x20 DUP3 MUL DUP1 CODESIZE DUP4 CODECOPY DUP1 DUP3 ADD SWAP2 POP POP SWAP1 POP JUMPDEST POP SWAP2 POP PUSH1 0x0 SWAP1 POP JUMPDEST DUP4 MLOAD DUP2 LT ISZERO PUSH2 0x1E0 JUMPI PUSH2 0x1B7 DUP5 DUP3 DUP2 MLOAD DUP2 LT ISZERO ISZERO PUSH2 0x1A4 JUMPI INVALID JUMPDEST SWAP1 PUSH1 0x20 ADD SWAP1 PUSH1 0x20 MUL ADD MLOAD DUP5 PUSH4 0xFFFFFFFF AND JUMP JUMPDEST DUP3 DUP3 DUP2 MLOAD DUP2 LT ISZERO ISZERO PUSH2 0x1C5 JUMPI INVALID JUMPDEST SWAP1 PUSH1 0x20 ADD SWAP1 PUSH1 0x20 MUL ADD DUP2 DUP2 MSTORE POP POP DUP1 DUP1 PUSH1 0x1 ADD SWAP2 POP POP PUSH2 0x18A JUMP JUMPDEST POP SWAP3 SWAP2 POP POP JUMP JUMPDEST PUSH1 0x0 DUP1 DUP4 PUSH1 0x0 DUP2 MLOAD DUP2 LT ISZERO ISZERO PUSH2 0x1F9 JUMPI INVALID JUMPDEST SWAP1 PUSH1 0x20 ADD SWAP1 PUSH1 0x20 MUL ADD MLOAD SWAP2 POP PUSH1 0x1 SWAP1 POP JUMPDEST DUP4 MLOAD DUP2 LT ISZERO PUSH2 0x247 JUMPI PUSH2 0x238 DUP3 DUP6 DUP4 DUP2 MLOAD DUP2 LT ISZERO ISZERO PUSH2 0x225 JUMPI INVALID JUMPDEST SWAP1 PUSH1 0x20 ADD SWAP1 PUSH1 0x20 MUL ADD MLOAD DUP6 PUSH4 0xFFFFFFFF AND JUMP JUMPDEST SWAP2 POP DUP1 DUP1 PUSH1 0x1 ADD SWAP2 POP POP PUSH2 0x20A JUMP JUMPDEST POP SWAP3 SWAP2 POP POP JUMP STOP LOG1 PUSH6 0x627A7A723058 KECCAK256 0xe8 0xa7 0x4a DUP13 LOG4 SWAP6 PC SWAP7 0xb5 SMOD PUSH12 0x78BAE6DFC52E1E38F5DA4886 0xb4 0xe0 DUP10 0xc0 SWAP12 DUP10 0xa9 DUP5 0xad STOP 0x29 "
				},
				"gasEstimates": {
					"creation": {
						"codeDepositCost": "126800",
						"executionCost": "171",
						"totalCost": "126971"
					},
					"external": {
						"pyramid(uint256)": "infinite"
					},
					"internal": {
						"square(uint256)": "36",
						"sum(uint256,uint256)": "36"
					}
				},
				"methodIdentifiers": {
					"pyramid(uint256)": "a2eeb5d4"
				}
			},
			"userdoc": {
				"methods": {}
			}
		}
	}
}