{
	"testApp/contracts/BlindAuction.sol": {
		"BlindAuction": {
			"abi": [
				{
					"constant": true,
					"inputs": [
						{
							"name": "",
							"type": "address"
						},
						{
							"name": "",
							"type": "uint256"
						}
					],
					"name": "bids",
					"outputs": [
						{
							"name": "blindedBid",
							"type": "bytes32"
						},
						{
							"name": "deposit",
							"type": "uint256"
						}
					],
					"payable": false,
					"stateMutability": "view",
					"type": "function"
				},
				{
					"constant": true,
					"inputs": [],
					"name": "ended",
					"outputs": [
						{
							"name": "",
							"type": "bool"
						}
					],
					"payable": false,
					"stateMutability": "view",
					"type": "function"
				},
				{
					"constant": false,
					"inputs": [],
					"name": "auctionEnd",
					"outputs": [],
					"payable": false,
					"stateMutability": "nonpayable",
					"type": "function"
				},
				{
					"constant": true,
					"inputs": [],
					"name": "beneficiary",
					"outputs": [
						{
							"name": "",
							"type": "address"
						}
					],
					"payable": false,
					"stateMutability": "view",
					"type": "function"
				},
				{
					"constant": false,
					"inputs": [],
					"name": "withdraw",
					"outputs": [],
					"payable": false,
					"stateMutability": "nonpayable",
					"type": "function"
				},
				{
					"constant": true,
					"inputs": [],
					"name": "biddingEnd",
					"outputs": [
						{
							"name": "",
							"type": "uint256"
						}
					],
					"payable": false,
					"stateMutability": "view",
					"type": "function"
				},
				{
					"constant": false,
					"inputs": [
						{
							"name": "_values",
							"type": "uint256[]"
						},
						{
							"name": "_fake",
							"type": "bool[]"
						},
						{
							"name": "_secret",
							"type": "bytes32[]"
						}
					],
					"name": "reveal",
					"outputs": [],
					"payable": false,
					"stateMutability": "nonpayable",
					"type": "function"
				},
				{
					"constant": false,
					"inputs": [
						{
							"name": "value",
							"type": "uint256"
						},
						{
							"name": "fake",
							"type": "bool"
						},
						{
							"name": "secret",
							"type": "bytes32"
						}
					],
					"name": "bid",
					"outputs": [],
					"payable": true,
					"stateMutability": "payable",
					"type": "function"
				},
				{
					"constant": true,
					"inputs": [],
					"name": "highestBidder",
					"outputs": [
						{
							"name": "",
							"type": "address"
						}
					],
					"payable": false,
					"stateMutability": "view",
					"type": "function"
				},
				{
					"constant": true,
					"inputs": [],
					"name": "revealEnd",
					"outputs": [
						{
							"name": "",
							"type": "uint256"
						}
					],
					"payable": false,
					"stateMutability": "view",
					"type": "function"
				},
				{
					"constant": true,
					"inputs": [],
					"name": "highestBid",
					"outputs": [
						{
							"name": "",
							"type": "uint256"
						}
					],
					"payable": false,
					"stateMutability": "view",
					"type": "function"
				},
				{
					"inputs": [
						{
							"name": "_biddingTime",
							"type": "uint256"
						},
						{
							"name": "_revealTime",
							"type": "uint256"
						},
						{
							"name": "_beneficiary",
							"type": "address"
						}
					],
					"payable": false,
					"stateMutability": "nonpayable",
					"type": "constructor"
				},
				{
					"anonymous": false,
					"inputs": [
						{
							"indexed": false,
							"name": "winner",
							"type": "address"
						},
						{
							"indexed": false,
							"name": "highestBid",
							"type": "uint256"
						}
					],
					"name": "AuctionEnded",
					"type": "event"
				}
			],
			"devdoc": {
				"methods": {}
			},
			"evm": {
				"assembly": "    /* \"testApp/contracts/BlindAuction.sol\":35:4708  contract BlindAuction {\r... */\n  mstore(0x40, 0x80)\n    /* \"testApp/contracts/BlindAuction.sol\":892:1138  constructor(\r... */\n  callvalue\n    /* \"--CODEGEN--\":8:17   */\n  dup1\n    /* \"--CODEGEN--\":5:7   */\n  iszero\n  tag_1\n  jumpi\n    /* \"--CODEGEN--\":30:31   */\n  0x0\n    /* \"--CODEGEN--\":27:28   */\n  dup1\n    /* \"--CODEGEN--\":20:32   */\n  revert\n    /* \"--CODEGEN--\":5:7   */\ntag_1:\n    /* \"testApp/contracts/BlindAuction.sol\":892:1138  constructor(\r... */\n  pop\n  mload(0x40)\n  0x60\n  dup1\n  bytecodeSize\n  dup4\n  codecopy\n  dup2\n  add\n  dup1\n  0x40\n  mstore\n  dup2\n  add\n  swap1\n  dup1\n  dup1\n  mload\n  swap1\n  0x20\n  add\n  swap1\n  swap3\n  swap2\n  swap1\n  dup1\n  mload\n  swap1\n  0x20\n  add\n  swap1\n  swap3\n  swap2\n  swap1\n  dup1\n  mload\n  swap1\n  0x20\n  add\n  swap1\n  swap3\n  swap2\n  swap1\n  pop\n  pop\n  pop\n    /* \"testApp/contracts/BlindAuction.sol\":1029:1041  _beneficiary */\n  dup1\n    /* \"testApp/contracts/BlindAuction.sol\":1015:1026  beneficiary */\n  0x0\n  dup1\n    /* \"testApp/contracts/BlindAuction.sol\":1015:1041  beneficiary = _beneficiary */\n  0x100\n  exp\n  dup2\n  sload\n  dup2\n  0xffffffffffffffffffffffffffffffffffffffff\n  mul\n  not\n  and\n  swap1\n  dup4\n  0xffffffffffffffffffffffffffffffffffffffff\n  and\n  mul\n  or\n  swap1\n  sstore\n  pop\n    /* \"testApp/contracts/BlindAuction.sol\":1071:1083  _biddingTime */\n  dup3\n    /* \"testApp/contracts/BlindAuction.sol\":1065:1068  now */\n  timestamp\n    /* \"testApp/contracts/BlindAuction.sol\":1065:1083  now + _biddingTime */\n  add\n    /* \"testApp/contracts/BlindAuction.sol\":1052:1062  biddingEnd */\n  0x1\n    /* \"testApp/contracts/BlindAuction.sol\":1052:1083  biddingEnd = now + _biddingTime */\n  dup2\n  swap1\n  sstore\n  pop\n    /* \"testApp/contracts/BlindAuction.sol\":1119:1130  _revealTime */\n  dup2\n    /* \"testApp/contracts/BlindAuction.sol\":1106:1116  biddingEnd */\n  sload(0x1)\n    /* \"testApp/contracts/BlindAuction.sol\":1106:1130  biddingEnd + _revealTime */\n  add\n    /* \"testApp/contracts/BlindAuction.sol\":1094:1103  revealEnd */\n  0x2\n    /* \"testApp/contracts/BlindAuction.sol\":1094:1130  revealEnd = biddingEnd + _revealTime */\n  dup2\n  swap1\n  sstore\n  pop\n    /* \"testApp/contracts/BlindAuction.sol\":892:1138  constructor(\r... */\n  pop\n  pop\n  pop\n    /* \"testApp/contracts/BlindAuction.sol\":35:4708  contract BlindAuction {\r... */\n  dataSize(sub_0)\n  dup1\n  dataOffset(sub_0)\n  0x0\n  codecopy\n  0x0\n  return\nstop\n\nsub_0: assembly {\n        /* \"testApp/contracts/BlindAuction.sol\":35:4708  contract BlindAuction {\r... */\n      mstore(0x40, 0x80)\n      jumpi(tag_1, lt(calldatasize, 0x4))\n      calldataload(0x0)\n      0x100000000000000000000000000000000000000000000000000000000\n      swap1\n      div\n      0xffffffff\n      and\n      dup1\n      0x1495c1c\n      eq\n      tag_2\n      jumpi\n      dup1\n      0x12fa6feb\n      eq\n      tag_3\n      jumpi\n      dup1\n      0x2a24f46c\n      eq\n      tag_4\n      jumpi\n      dup1\n      0x38af3eed\n      eq\n      tag_5\n      jumpi\n      dup1\n      0x3ccfd60b\n      eq\n      tag_6\n      jumpi\n      dup1\n      0x423b217f\n      eq\n      tag_7\n      jumpi\n      dup1\n      0x900f080a\n      eq\n      tag_8\n      jumpi\n      dup1\n      0x90a723b4\n      eq\n      tag_9\n      jumpi\n      dup1\n      0x91f90157\n      eq\n      tag_10\n      jumpi\n      dup1\n      0xa6e66477\n      eq\n      tag_11\n      jumpi\n      dup1\n      0xd57bde79\n      eq\n      tag_12\n      jumpi\n    tag_1:\n      0x0\n      dup1\n      revert\n        /* \"testApp/contracts/BlindAuction.sol\":259:296  mapping(address => Bid[]) public bids */\n    tag_2:\n      callvalue\n        /* \"--CODEGEN--\":8:17   */\n      dup1\n        /* \"--CODEGEN--\":5:7   */\n      iszero\n      tag_13\n      jumpi\n        /* \"--CODEGEN--\":30:31   */\n      0x0\n        /* \"--CODEGEN--\":27:28   */\n      dup1\n        /* \"--CODEGEN--\":20:32   */\n      revert\n        /* \"--CODEGEN--\":5:7   */\n    tag_13:\n        /* \"testApp/contracts/BlindAuction.sol\":259:296  mapping(address => Bid[]) public bids */\n      pop\n      tag_14\n      0x4\n      dup1\n      calldatasize\n      sub\n      dup2\n      add\n      swap1\n      dup1\n      dup1\n      calldataload\n      0xffffffffffffffffffffffffffffffffffffffff\n      and\n      swap1\n      0x20\n      add\n      swap1\n      swap3\n      swap2\n      swap1\n      dup1\n      calldataload\n      swap1\n      0x20\n      add\n      swap1\n      swap3\n      swap2\n      swap1\n      pop\n      pop\n      pop\n      jump(tag_15)\n    tag_14:\n      mload(0x40)\n      dup1\n      dup4\n      not(0x0)\n      and\n      not(0x0)\n      and\n      dup2\n      mstore\n      0x20\n      add\n      dup3\n      dup2\n      mstore\n      0x20\n      add\n      swap3\n      pop\n      pop\n      pop\n      mload(0x40)\n      dup1\n      swap2\n      sub\n      swap1\n      return\n        /* \"testApp/contracts/BlindAuction.sol\":233:250  bool public ended */\n    tag_3:\n      callvalue\n        /* \"--CODEGEN--\":8:17   */\n      dup1\n        /* \"--CODEGEN--\":5:7   */\n      iszero\n      tag_16\n      jumpi\n        /* \"--CODEGEN--\":30:31   */\n      0x0\n        /* \"--CODEGEN--\":27:28   */\n      dup1\n        /* \"--CODEGEN--\":20:32   */\n      revert\n        /* \"--CODEGEN--\":5:7   */\n    tag_16:\n        /* \"testApp/contracts/BlindAuction.sol\":233:250  bool public ended */\n      pop\n      tag_17\n      jump(tag_18)\n    tag_17:\n      mload(0x40)\n      dup1\n      dup3\n      iszero\n      iszero\n      iszero\n      iszero\n      dup2\n      mstore\n      0x20\n      add\n      swap2\n      pop\n      pop\n      mload(0x40)\n      dup1\n      swap2\n      sub\n      swap1\n      return\n        /* \"testApp/contracts/BlindAuction.sol\":4477:4705  function auctionEnd()\r... */\n    tag_4:\n      callvalue\n        /* \"--CODEGEN--\":8:17   */\n      dup1\n        /* \"--CODEGEN--\":5:7   */\n      iszero\n      tag_19\n      jumpi\n        /* \"--CODEGEN--\":30:31   */\n      0x0\n        /* \"--CODEGEN--\":27:28   */\n      dup1\n        /* \"--CODEGEN--\":20:32   */\n      revert\n        /* \"--CODEGEN--\":5:7   */\n    tag_19:\n        /* \"testApp/contracts/BlindAuction.sol\":4477:4705  function auctionEnd()\r... */\n      pop\n      tag_20\n      jump(tag_21)\n    tag_20:\n      stop\n        /* \"testApp/contracts/BlindAuction.sol\":143:169  address public beneficiary */\n    tag_5:\n      callvalue\n        /* \"--CODEGEN--\":8:17   */\n      dup1\n        /* \"--CODEGEN--\":5:7   */\n      iszero\n      tag_22\n      jumpi\n        /* \"--CODEGEN--\":30:31   */\n      0x0\n        /* \"--CODEGEN--\":27:28   */\n      dup1\n        /* \"--CODEGEN--\":20:32   */\n      revert\n        /* \"--CODEGEN--\":5:7   */\n    tag_22:\n        /* \"testApp/contracts/BlindAuction.sol\":143:169  address public beneficiary */\n      pop\n      tag_23\n      jump(tag_24)\n    tag_23:\n      mload(0x40)\n      dup1\n      dup3\n      0xffffffffffffffffffffffffffffffffffffffff\n      and\n      0xffffffffffffffffffffffffffffffffffffffff\n      and\n      dup2\n      mstore\n      0x20\n      add\n      swap2\n      pop\n      pop\n      mload(0x40)\n      dup1\n      swap2\n      sub\n      swap1\n      return\n        /* \"testApp/contracts/BlindAuction.sol\":3926:4405  function withdraw() public {\r... */\n    tag_6:\n      callvalue\n        /* \"--CODEGEN--\":8:17   */\n      dup1\n        /* \"--CODEGEN--\":5:7   */\n      iszero\n      tag_25\n      jumpi\n        /* \"--CODEGEN--\":30:31   */\n      0x0\n        /* \"--CODEGEN--\":27:28   */\n      dup1\n        /* \"--CODEGEN--\":20:32   */\n      revert\n        /* \"--CODEGEN--\":5:7   */\n    tag_25:\n        /* \"testApp/contracts/BlindAuction.sol\":3926:4405  function withdraw() public {\r... */\n      pop\n      tag_26\n      jump(tag_27)\n    tag_26:\n      stop\n        /* \"testApp/contracts/BlindAuction.sol\":176:198  uint public biddingEnd */\n    tag_7:\n      callvalue\n        /* \"--CODEGEN--\":8:17   */\n      dup1\n        /* \"--CODEGEN--\":5:7   */\n      iszero\n      tag_28\n      jumpi\n        /* \"--CODEGEN--\":30:31   */\n      0x0\n        /* \"--CODEGEN--\":27:28   */\n      dup1\n        /* \"--CODEGEN--\":20:32   */\n      revert\n        /* \"--CODEGEN--\":5:7   */\n    tag_28:\n        /* \"testApp/contracts/BlindAuction.sol\":176:198  uint public biddingEnd */\n      pop\n      tag_29\n      jump(tag_30)\n    tag_29:\n      mload(0x40)\n      dup1\n      dup3\n      dup2\n      mstore\n      0x20\n      add\n      swap2\n      pop\n      pop\n      mload(0x40)\n      dup1\n      swap2\n      sub\n      swap1\n      return\n        /* \"testApp/contracts/BlindAuction.sol\":2195:3333  function reveal(\r... */\n    tag_8:\n      callvalue\n        /* \"--CODEGEN--\":8:17   */\n      dup1\n        /* \"--CODEGEN--\":5:7   */\n      iszero\n      tag_31\n      jumpi\n        /* \"--CODEGEN--\":30:31   */\n      0x0\n        /* \"--CODEGEN--\":27:28   */\n      dup1\n        /* \"--CODEGEN--\":20:32   */\n      revert\n        /* \"--CODEGEN--\":5:7   */\n    tag_31:\n        /* \"testApp/contracts/BlindAuction.sol\":2195:3333  function reveal(\r... */\n      pop\n      tag_32\n      0x4\n      dup1\n      calldatasize\n      sub\n      dup2\n      add\n      swap1\n      dup1\n      dup1\n      calldataload\n      swap1\n      0x20\n      add\n      swap1\n      dup3\n      add\n      dup1\n      calldataload\n      swap1\n      0x20\n      add\n      swap1\n      dup1\n      dup1\n      0x20\n      mul\n      0x20\n      add\n      mload(0x40)\n      swap1\n      dup2\n      add\n      0x40\n      mstore\n      dup1\n      swap4\n      swap3\n      swap2\n      swap1\n      dup2\n      dup2\n      mstore\n      0x20\n      add\n      dup4\n      dup4\n      0x20\n      mul\n      dup1\n      dup3\n      dup5\n      calldatacopy\n      dup3\n      add\n      swap2\n      pop\n      pop\n      pop\n      pop\n      pop\n      pop\n      swap2\n      swap3\n      swap2\n      swap3\n      swap1\n      dup1\n      calldataload\n      swap1\n      0x20\n      add\n      swap1\n      dup3\n      add\n      dup1\n      calldataload\n      swap1\n      0x20\n      add\n      swap1\n      dup1\n      dup1\n      0x20\n      mul\n      0x20\n      add\n      mload(0x40)\n      swap1\n      dup2\n      add\n      0x40\n      mstore\n      dup1\n      swap4\n      swap3\n      swap2\n      swap1\n      dup2\n      dup2\n      mstore\n      0x20\n      add\n      dup4\n      dup4\n      0x20\n      mul\n      dup1\n      dup3\n      dup5\n      calldatacopy\n      dup3\n      add\n      swap2\n      pop\n      pop\n      pop\n      pop\n      pop\n      pop\n      swap2\n      swap3\n      swap2\n      swap3\n      swap1\n      dup1\n      calldataload\n      swap1\n      0x20\n      add\n      swap1\n      dup3\n      add\n      dup1\n      calldataload\n      swap1\n      0x20\n      add\n      swap1\n      dup1\n      dup1\n      0x20\n      mul\n      0x20\n      add\n      mload(0x40)\n      swap1\n      dup2\n      add\n      0x40\n      mstore\n      dup1\n      swap4\n      swap3\n      swap2\n      swap1\n      dup2\n      dup2\n      mstore\n      0x20\n      add\n      dup4\n      dup4\n      0x20\n      mul\n      dup1\n      dup3\n      dup5\n      calldatacopy\n      dup3\n      add\n      swap2\n      pop\n      pop\n      pop\n      pop\n      pop\n      pop\n      swap2\n      swap3\n      swap2\n      swap3\n      swap1\n      pop\n      pop\n      pop\n      jump(tag_33)\n    tag_32:\n      stop\n        /* \"testApp/contracts/BlindAuction.sol\":1146:1329  function bid(uint value, bool fake, bytes32 secret)\r... */\n    tag_9:\n      tag_34\n      0x4\n      dup1\n      calldatasize\n      sub\n      dup2\n      add\n      swap1\n      dup1\n      dup1\n      calldataload\n      swap1\n      0x20\n      add\n      swap1\n      swap3\n      swap2\n      swap1\n      dup1\n      calldataload\n      iszero\n      iszero\n      swap1\n      0x20\n      add\n      swap1\n      swap3\n      swap2\n      swap1\n      dup1\n      calldataload\n      not(0x0)\n      and\n      swap1\n      0x20\n      add\n      swap1\n      swap3\n      swap2\n      swap1\n      pop\n      pop\n      pop\n      jump(tag_35)\n    tag_34:\n      stop\n        /* \"testApp/contracts/BlindAuction.sol\":305:333  address public highestBidder */\n    tag_10:\n      callvalue\n        /* \"--CODEGEN--\":8:17   */\n      dup1\n        /* \"--CODEGEN--\":5:7   */\n      iszero\n      tag_36\n      jumpi\n        /* \"--CODEGEN--\":30:31   */\n      0x0\n        /* \"--CODEGEN--\":27:28   */\n      dup1\n        /* \"--CODEGEN--\":20:32   */\n      revert\n        /* \"--CODEGEN--\":5:7   */\n    tag_36:\n        /* \"testApp/contracts/BlindAuction.sol\":305:333  address public highestBidder */\n      pop\n      tag_37\n      jump(tag_38)\n    tag_37:\n      mload(0x40)\n      dup1\n      dup3\n      0xffffffffffffffffffffffffffffffffffffffff\n      and\n      0xffffffffffffffffffffffffffffffffffffffff\n      and\n      dup2\n      mstore\n      0x20\n      add\n      swap2\n      pop\n      pop\n      mload(0x40)\n      dup1\n      swap2\n      sub\n      swap1\n      return\n        /* \"testApp/contracts/BlindAuction.sol\":205:226  uint public revealEnd */\n    tag_11:\n      callvalue\n        /* \"--CODEGEN--\":8:17   */\n      dup1\n        /* \"--CODEGEN--\":5:7   */\n      iszero\n      tag_39\n      jumpi\n        /* \"--CODEGEN--\":30:31   */\n      0x0\n        /* \"--CODEGEN--\":27:28   */\n      dup1\n        /* \"--CODEGEN--\":20:32   */\n      revert\n        /* \"--CODEGEN--\":5:7   */\n    tag_39:\n        /* \"testApp/contracts/BlindAuction.sol\":205:226  uint public revealEnd */\n      pop\n      tag_40\n      jump(tag_41)\n    tag_40:\n      mload(0x40)\n      dup1\n      dup3\n      dup2\n      mstore\n      0x20\n      add\n      swap2\n      pop\n      pop\n      mload(0x40)\n      dup1\n      swap2\n      sub\n      swap1\n      return\n        /* \"testApp/contracts/BlindAuction.sol\":340:362  uint public highestBid */\n    tag_12:\n      callvalue\n        /* \"--CODEGEN--\":8:17   */\n      dup1\n        /* \"--CODEGEN--\":5:7   */\n      iszero\n      tag_42\n      jumpi\n        /* \"--CODEGEN--\":30:31   */\n      0x0\n        /* \"--CODEGEN--\":27:28   */\n      dup1\n        /* \"--CODEGEN--\":20:32   */\n      revert\n        /* \"--CODEGEN--\":5:7   */\n    tag_42:\n        /* \"testApp/contracts/BlindAuction.sol\":340:362  uint public highestBid */\n      pop\n      tag_43\n      jump(tag_44)\n    tag_43:\n      mload(0x40)\n      dup1\n      dup3\n      dup2\n      mstore\n      0x20\n      add\n      swap2\n      pop\n      pop\n      mload(0x40)\n      dup1\n      swap2\n      sub\n      swap1\n      return\n        /* \"testApp/contracts/BlindAuction.sol\":259:296  mapping(address => Bid[]) public bids */\n    tag_15:\n      mstore(0x20, 0x4)\n      dup2\n      0x0\n      mstore\n      keccak256(0x0, 0x40)\n      dup2\n      dup2\n      sload\n      dup2\n      lt\n      iszero\n      iszero\n      tag_45\n      jumpi\n      invalid\n    tag_45:\n      swap1\n      0x0\n      mstore\n      keccak256(0x0, 0x20)\n      swap1\n      0x2\n      mul\n      add\n      0x0\n      swap2\n      pop\n      swap2\n      pop\n      pop\n      dup1\n      0x0\n      add\n      sload\n      swap1\n      dup1\n      0x1\n      add\n      sload\n      swap1\n      pop\n      dup3\n      jump\t// out\n        /* \"testApp/contracts/BlindAuction.sol\":233:250  bool public ended */\n    tag_18:\n      0x3\n      0x0\n      swap1\n      sload\n      swap1\n      0x100\n      exp\n      swap1\n      div\n      0xff\n      and\n      dup2\n      jump\t// out\n        /* \"testApp/contracts/BlindAuction.sol\":4477:4705  function auctionEnd()\r... */\n    tag_21:\n        /* \"testApp/contracts/BlindAuction.sol\":4534:4543  revealEnd */\n      sload(0x2)\n        /* \"testApp/contracts/BlindAuction.sol\":872:877  _time */\n      dup1\n        /* \"testApp/contracts/BlindAuction.sol\":866:869  now */\n      timestamp\n        /* \"testApp/contracts/BlindAuction.sol\":866:877  now > _time */\n      gt\n        /* \"testApp/contracts/BlindAuction.sol\":858:878  require(now > _time) */\n      iszero\n      iszero\n      tag_48\n      jumpi\n      0x0\n      dup1\n      revert\n    tag_48:\n        /* \"testApp/contracts/BlindAuction.sol\":4570:4575  ended */\n      0x3\n      0x0\n      swap1\n      sload\n      swap1\n      0x100\n      exp\n      swap1\n      div\n      0xff\n      and\n        /* \"testApp/contracts/BlindAuction.sol\":4569:4575  !ended */\n      iszero\n        /* \"testApp/contracts/BlindAuction.sol\":4561:4576  require(!ended) */\n      iszero\n      iszero\n      tag_50\n      jumpi\n      0x0\n      dup1\n      revert\n    tag_50:\n        /* \"testApp/contracts/BlindAuction.sol\":4592:4631  AuctionEnded(highestBidder, highestBid) */\n      0xdaec4582d5d9595688c8c98545fdd1c696d41c6aeaeb636737e84ed2f5c00eda\n        /* \"testApp/contracts/BlindAuction.sol\":4605:4618  highestBidder */\n      0x5\n      0x0\n      swap1\n      sload\n      swap1\n      0x100\n      exp\n      swap1\n      div\n      0xffffffffffffffffffffffffffffffffffffffff\n      and\n        /* \"testApp/contracts/BlindAuction.sol\":4620:4630  highestBid */\n      sload(0x6)\n        /* \"testApp/contracts/BlindAuction.sol\":4592:4631  AuctionEnded(highestBidder, highestBid) */\n      mload(0x40)\n      dup1\n      dup4\n      0xffffffffffffffffffffffffffffffffffffffff\n      and\n      0xffffffffffffffffffffffffffffffffffffffff\n      and\n      dup2\n      mstore\n      0x20\n      add\n      dup3\n      dup2\n      mstore\n      0x20\n      add\n      swap3\n      pop\n      pop\n      pop\n      mload(0x40)\n      dup1\n      swap2\n      sub\n      swap1\n      log1\n        /* \"testApp/contracts/BlindAuction.sol\":4650:4654  true */\n      0x1\n        /* \"testApp/contracts/BlindAuction.sol\":4642:4647  ended */\n      0x3\n      0x0\n        /* \"testApp/contracts/BlindAuction.sol\":4642:4654  ended = true */\n      0x100\n      exp\n      dup2\n      sload\n      dup2\n      0xff\n      mul\n      not\n      and\n      swap1\n      dup4\n      iszero\n      iszero\n      mul\n      or\n      swap1\n      sstore\n      pop\n        /* \"testApp/contracts/BlindAuction.sol\":4665:4676  beneficiary */\n      0x0\n      dup1\n      swap1\n      sload\n      swap1\n      0x100\n      exp\n      swap1\n      div\n      0xffffffffffffffffffffffffffffffffffffffff\n      and\n        /* \"testApp/contracts/BlindAuction.sol\":4665:4685  beneficiary.transfer */\n      0xffffffffffffffffffffffffffffffffffffffff\n      and\n        /* \"testApp/contracts/BlindAuction.sol\":4665:4697  beneficiary.transfer(highestBid) */\n      0x8fc\n        /* \"testApp/contracts/BlindAuction.sol\":4686:4696  highestBid */\n      sload(0x6)\n        /* \"testApp/contracts/BlindAuction.sol\":4665:4697  beneficiary.transfer(highestBid) */\n      swap1\n      dup2\n      iszero\n      mul\n      swap1\n      mload(0x40)\n      0x0\n      mload(0x40)\n      dup1\n      dup4\n      sub\n      dup2\n      dup6\n      dup9\n      dup9\n      call\n      swap4\n      pop\n      pop\n      pop\n      pop\n      iszero\n        /* \"--CODEGEN--\":8:17   */\n      dup1\n        /* \"--CODEGEN--\":5:7   */\n      iszero\n      tag_51\n      jumpi\n        /* \"--CODEGEN--\":45:61   */\n      returndatasize\n        /* \"--CODEGEN--\":42:43   */\n      0x0\n        /* \"--CODEGEN--\":39:40   */\n      dup1\n        /* \"--CODEGEN--\":24:62   */\n      returndatacopy\n        /* \"--CODEGEN--\":77:93   */\n      returndatasize\n        /* \"--CODEGEN--\":74:75   */\n      0x0\n        /* \"--CODEGEN--\":67:94   */\n      revert\n        /* \"--CODEGEN--\":5:7   */\n    tag_51:\n        /* \"testApp/contracts/BlindAuction.sol\":4665:4697  beneficiary.transfer(highestBid) */\n      pop\n        /* \"testApp/contracts/BlindAuction.sol\":4477:4705  function auctionEnd()\r... */\n      pop\n      jump\t// out\n        /* \"testApp/contracts/BlindAuction.sol\":143:169  address public beneficiary */\n    tag_24:\n      0x0\n      dup1\n      swap1\n      sload\n      swap1\n      0x100\n      exp\n      swap1\n      div\n      0xffffffffffffffffffffffffffffffffffffffff\n      and\n      dup2\n      jump\t// out\n        /* \"testApp/contracts/BlindAuction.sol\":3926:4405  function withdraw() public {\r... */\n    tag_27:\n        /* \"testApp/contracts/BlindAuction.sol\":3964:3975  uint amount */\n      0x0\n        /* \"testApp/contracts/BlindAuction.sol\":3978:3992  pendingReturns */\n      0x7\n        /* \"testApp/contracts/BlindAuction.sol\":3978:4004  pendingReturns[msg.sender] */\n      0x0\n        /* \"testApp/contracts/BlindAuction.sol\":3993:4003  msg.sender */\n      caller\n        /* \"testApp/contracts/BlindAuction.sol\":3978:4004  pendingReturns[msg.sender] */\n      0xffffffffffffffffffffffffffffffffffffffff\n      and\n      0xffffffffffffffffffffffffffffffffffffffff\n      and\n      dup2\n      mstore\n      0x20\n      add\n      swap1\n      dup2\n      mstore\n      0x20\n      add\n      0x0\n      keccak256\n      sload\n        /* \"testApp/contracts/BlindAuction.sol\":3964:4004  uint amount = pendingReturns[msg.sender] */\n      swap1\n      pop\n        /* \"testApp/contracts/BlindAuction.sol\":4028:4029  0 */\n      0x0\n        /* \"testApp/contracts/BlindAuction.sol\":4019:4025  amount */\n      dup2\n        /* \"testApp/contracts/BlindAuction.sol\":4019:4029  amount > 0 */\n      gt\n        /* \"testApp/contracts/BlindAuction.sol\":4015:4398  if (amount > 0) {\r... */\n      iszero\n      tag_53\n      jumpi\n        /* \"testApp/contracts/BlindAuction.sol\":4341:4342  0 */\n      0x0\n        /* \"testApp/contracts/BlindAuction.sol\":4312:4326  pendingReturns */\n      0x7\n        /* \"testApp/contracts/BlindAuction.sol\":4312:4338  pendingReturns[msg.sender] */\n      0x0\n        /* \"testApp/contracts/BlindAuction.sol\":4327:4337  msg.sender */\n      caller\n        /* \"testApp/contracts/BlindAuction.sol\":4312:4338  pendingReturns[msg.sender] */\n      0xffffffffffffffffffffffffffffffffffffffff\n      and\n      0xffffffffffffffffffffffffffffffffffffffff\n      and\n      dup2\n      mstore\n      0x20\n      add\n      swap1\n      dup2\n      mstore\n      0x20\n      add\n      0x0\n      keccak256\n        /* \"testApp/contracts/BlindAuction.sol\":4312:4342  pendingReturns[msg.sender] = 0 */\n      dup2\n      swap1\n      sstore\n      pop\n        /* \"testApp/contracts/BlindAuction.sol\":4359:4369  msg.sender */\n      caller\n        /* \"testApp/contracts/BlindAuction.sol\":4359:4378  msg.sender.transfer */\n      0xffffffffffffffffffffffffffffffffffffffff\n      and\n        /* \"testApp/contracts/BlindAuction.sol\":4359:4386  msg.sender.transfer(amount) */\n      0x8fc\n        /* \"testApp/contracts/BlindAuction.sol\":4379:4385  amount */\n      dup3\n        /* \"testApp/contracts/BlindAuction.sol\":4359:4386  msg.sender.transfer(amount) */\n      swap1\n      dup2\n      iszero\n      mul\n      swap1\n      mload(0x40)\n      0x0\n      mload(0x40)\n      dup1\n      dup4\n      sub\n      dup2\n      dup6\n      dup9\n      dup9\n      call\n      swap4\n      pop\n      pop\n      pop\n      pop\n      iszero\n        /* \"--CODEGEN--\":8:17   */\n      dup1\n        /* \"--CODEGEN--\":5:7   */\n      iszero\n      tag_54\n      jumpi\n        /* \"--CODEGEN--\":45:61   */\n      returndatasize\n        /* \"--CODEGEN--\":42:43   */\n      0x0\n        /* \"--CODEGEN--\":39:40   */\n      dup1\n        /* \"--CODEGEN--\":24:62   */\n      returndatacopy\n        /* \"--CODEGEN--\":77:93   */\n      returndatasize\n        /* \"--CODEGEN--\":74:75   */\n      0x0\n        /* \"--CODEGEN--\":67:94   */\n      revert\n        /* \"--CODEGEN--\":5:7   */\n    tag_54:\n        /* \"testApp/contracts/BlindAuction.sol\":4359:4386  msg.sender.transfer(amount) */\n      pop\n        /* \"testApp/contracts/BlindAuction.sol\":4015:4398  if (amount > 0) {\r... */\n    tag_53:\n        /* \"testApp/contracts/BlindAuction.sol\":3926:4405  function withdraw() public {\r... */\n      pop\n      jump\t// out\n        /* \"testApp/contracts/BlindAuction.sol\":176:198  uint public biddingEnd */\n    tag_30:\n      sload(0x1)\n      dup2\n      jump\t// out\n        /* \"testApp/contracts/BlindAuction.sol\":2195:3333  function reveal(\r... */\n    tag_33:\n        /* \"testApp/contracts/BlindAuction.sol\":2388:2399  uint length */\n      0x0\n        /* \"testApp/contracts/BlindAuction.sol\":2568:2579  uint refund */\n      dup1\n        /* \"testApp/contracts/BlindAuction.sol\":2595:2601  uint i */\n      0x0\n        /* \"testApp/contracts/BlindAuction.sol\":2639:2654  Bid storage bid */\n      dup1\n        /* \"testApp/contracts/BlindAuction.sol\":2692:2702  uint value */\n      0x0\n        /* \"testApp/contracts/BlindAuction.sol\":2704:2713  bool fake */\n      dup1\n        /* \"testApp/contracts/BlindAuction.sol\":2715:2729  bytes32 secret */\n      0x0\n        /* \"testApp/contracts/BlindAuction.sol\":2329:2339  biddingEnd */\n      sload(0x1)\n        /* \"testApp/contracts/BlindAuction.sol\":872:877  _time */\n      dup1\n        /* \"testApp/contracts/BlindAuction.sol\":866:869  now */\n      timestamp\n        /* \"testApp/contracts/BlindAuction.sol\":866:877  now > _time */\n      gt\n        /* \"testApp/contracts/BlindAuction.sol\":858:878  require(now > _time) */\n      iszero\n      iszero\n      tag_56\n      jumpi\n      0x0\n      dup1\n      revert\n    tag_56:\n        /* \"testApp/contracts/BlindAuction.sol\":2361:2370  revealEnd */\n      sload(0x2)\n        /* \"testApp/contracts/BlindAuction.sol\":807:812  _time */\n      dup1\n        /* \"testApp/contracts/BlindAuction.sol\":801:804  now */\n      timestamp\n        /* \"testApp/contracts/BlindAuction.sol\":801:812  now < _time */\n      lt\n        /* \"testApp/contracts/BlindAuction.sol\":793:813  require(now < _time) */\n      iszero\n      iszero\n      tag_58\n      jumpi\n      0x0\n      dup1\n      revert\n    tag_58:\n        /* \"testApp/contracts/BlindAuction.sol\":2402:2406  bids */\n      0x4\n        /* \"testApp/contracts/BlindAuction.sol\":2402:2418  bids[msg.sender] */\n      0x0\n        /* \"testApp/contracts/BlindAuction.sol\":2407:2417  msg.sender */\n      caller\n        /* \"testApp/contracts/BlindAuction.sol\":2402:2418  bids[msg.sender] */\n      0xffffffffffffffffffffffffffffffffffffffff\n      and\n      0xffffffffffffffffffffffffffffffffffffffff\n      and\n      dup2\n      mstore\n      0x20\n      add\n      swap1\n      dup2\n      mstore\n      0x20\n      add\n      0x0\n      keccak256\n        /* \"testApp/contracts/BlindAuction.sol\":2402:2425  bids[msg.sender].length */\n      dup1\n      sload\n      swap1\n      pop\n        /* \"testApp/contracts/BlindAuction.sol\":2388:2425  uint length = bids[msg.sender].length */\n      swap9\n      pop\n        /* \"testApp/contracts/BlindAuction.sol\":2462:2468  length */\n      dup9\n        /* \"testApp/contracts/BlindAuction.sol\":2444:2451  _values */\n      dup13\n        /* \"testApp/contracts/BlindAuction.sol\":2444:2458  _values.length */\n      mload\n        /* \"testApp/contracts/BlindAuction.sol\":2444:2468  _values.length == length */\n      eq\n        /* \"testApp/contracts/BlindAuction.sol\":2436:2469  require(_values.length == length) */\n      iszero\n      iszero\n      tag_60\n      jumpi\n      0x0\n      dup1\n      revert\n    tag_60:\n        /* \"testApp/contracts/BlindAuction.sol\":2504:2510  length */\n      dup9\n        /* \"testApp/contracts/BlindAuction.sol\":2488:2493  _fake */\n      dup12\n        /* \"testApp/contracts/BlindAuction.sol\":2488:2500  _fake.length */\n      mload\n        /* \"testApp/contracts/BlindAuction.sol\":2488:2510  _fake.length == length */\n      eq\n        /* \"testApp/contracts/BlindAuction.sol\":2480:2511  require(_fake.length == length) */\n      iszero\n      iszero\n      tag_61\n      jumpi\n      0x0\n      dup1\n      revert\n    tag_61:\n        /* \"testApp/contracts/BlindAuction.sol\":2548:2554  length */\n      dup9\n        /* \"testApp/contracts/BlindAuction.sol\":2530:2537  _secret */\n      dup11\n        /* \"testApp/contracts/BlindAuction.sol\":2530:2544  _secret.length */\n      mload\n        /* \"testApp/contracts/BlindAuction.sol\":2530:2554  _secret.length == length */\n      eq\n        /* \"testApp/contracts/BlindAuction.sol\":2522:2555  require(_secret.length == length) */\n      iszero\n      iszero\n      tag_62\n      jumpi\n      0x0\n      dup1\n      revert\n    tag_62:\n        /* \"testApp/contracts/BlindAuction.sol\":2604:2605  0 */\n      0x0\n        /* \"testApp/contracts/BlindAuction.sol\":2595:2605  uint i = 0 */\n      swap7\n      pop\n        /* \"testApp/contracts/BlindAuction.sol\":2590:3288  for (uint i = 0; i < length; i++) {\r... */\n    tag_63:\n        /* \"testApp/contracts/BlindAuction.sol\":2611:2617  length */\n      dup9\n        /* \"testApp/contracts/BlindAuction.sol\":2607:2608  i */\n      dup8\n        /* \"testApp/contracts/BlindAuction.sol\":2607:2617  i < length */\n      lt\n        /* \"testApp/contracts/BlindAuction.sol\":2590:3288  for (uint i = 0; i < length; i++) {\r... */\n      iszero\n      tag_64\n      jumpi\n        /* \"testApp/contracts/BlindAuction.sol\":2657:2661  bids */\n      0x4\n        /* \"testApp/contracts/BlindAuction.sol\":2657:2673  bids[msg.sender] */\n      0x0\n        /* \"testApp/contracts/BlindAuction.sol\":2662:2672  msg.sender */\n      caller\n        /* \"testApp/contracts/BlindAuction.sol\":2657:2673  bids[msg.sender] */\n      0xffffffffffffffffffffffffffffffffffffffff\n      and\n      0xffffffffffffffffffffffffffffffffffffffff\n      and\n      dup2\n      mstore\n      0x20\n      add\n      swap1\n      dup2\n      mstore\n      0x20\n      add\n      0x0\n      keccak256\n        /* \"testApp/contracts/BlindAuction.sol\":2674:2675  i */\n      dup8\n        /* \"testApp/contracts/BlindAuction.sol\":2657:2676  bids[msg.sender][i] */\n      dup2\n      sload\n      dup2\n      lt\n      iszero\n      iszero\n      tag_66\n      jumpi\n      invalid\n    tag_66:\n      swap1\n      0x0\n      mstore\n      keccak256(0x0, 0x20)\n      swap1\n      0x2\n      mul\n      add\n        /* \"testApp/contracts/BlindAuction.sol\":2639:2676  Bid storage bid = bids[msg.sender][i] */\n      swap6\n      pop\n        /* \"testApp/contracts/BlindAuction.sol\":2755:2762  _values */\n      dup12\n        /* \"testApp/contracts/BlindAuction.sol\":2763:2764  i */\n      dup8\n        /* \"testApp/contracts/BlindAuction.sol\":2755:2765  _values[i] */\n      dup2\n      mload\n      dup2\n      lt\n      iszero\n      iszero\n      tag_68\n      jumpi\n      invalid\n    tag_68:\n      swap1\n      0x20\n      add\n      swap1\n      0x20\n      mul\n      add\n      mload\n        /* \"testApp/contracts/BlindAuction.sol\":2767:2772  _fake */\n      dup12\n        /* \"testApp/contracts/BlindAuction.sol\":2773:2774  i */\n      dup9\n        /* \"testApp/contracts/BlindAuction.sol\":2767:2775  _fake[i] */\n      dup2\n      mload\n      dup2\n      lt\n      iszero\n      iszero\n      tag_69\n      jumpi\n      invalid\n    tag_69:\n      swap1\n      0x20\n      add\n      swap1\n      0x20\n      mul\n      add\n      mload\n        /* \"testApp/contracts/BlindAuction.sol\":2777:2784  _secret */\n      dup12\n        /* \"testApp/contracts/BlindAuction.sol\":2785:2786  i */\n      dup10\n        /* \"testApp/contracts/BlindAuction.sol\":2777:2787  _secret[i] */\n      dup2\n      mload\n      dup2\n      lt\n      iszero\n      iszero\n      tag_70\n      jumpi\n      invalid\n    tag_70:\n      swap1\n      0x20\n      add\n      swap1\n      0x20\n      mul\n      add\n      mload\n        /* \"testApp/contracts/BlindAuction.sol\":2691:2788  (uint value, bool fake, bytes32 secret) =\r... */\n      swap5\n      pop\n      swap5\n      pop\n      swap5\n      pop\n        /* \"testApp/contracts/BlindAuction.sol\":2835:2840  value */\n      dup5\n        /* \"testApp/contracts/BlindAuction.sol\":2842:2846  fake */\n      dup5\n        /* \"testApp/contracts/BlindAuction.sol\":2848:2854  secret */\n      dup5\n        /* \"testApp/contracts/BlindAuction.sol\":2825:2855  keccak256(value, fake, secret) */\n      mload(0x40)\n      dup1\n      dup5\n      dup2\n      mstore\n      0x20\n      add\n      dup4\n      iszero\n      iszero\n      iszero\n      iszero\n      0x100000000000000000000000000000000000000000000000000000000000000\n      mul\n      dup2\n      mstore\n      0x1\n      add\n      dup3\n      not(0x0)\n      and\n      not(0x0)\n      and\n      dup2\n      mstore\n      0x20\n      add\n      swap4\n      pop\n      pop\n      pop\n      pop\n      mload(0x40)\n      dup1\n      swap2\n      sub\n      swap1\n      keccak256\n        /* \"testApp/contracts/BlindAuction.sol\":2807:2855  bid.blindedBid != keccak256(value, fake, secret) */\n      not(0x0)\n      and\n        /* \"testApp/contracts/BlindAuction.sol\":2807:2810  bid */\n      dup7\n        /* \"testApp/contracts/BlindAuction.sol\":2807:2821  bid.blindedBid */\n      0x0\n      add\n      sload\n        /* \"testApp/contracts/BlindAuction.sol\":2807:2855  bid.blindedBid != keccak256(value, fake, secret) */\n      not(0x0)\n      and\n      eq\n      iszero\n        /* \"testApp/contracts/BlindAuction.sol\":2803:2981  if (bid.blindedBid != keccak256(value, fake, secret)) {\r... */\n      iszero\n      tag_71\n      jumpi\n        /* \"testApp/contracts/BlindAuction.sol\":2957:2965  continue */\n      jump(tag_65)\n        /* \"testApp/contracts/BlindAuction.sol\":2803:2981  if (bid.blindedBid != keccak256(value, fake, secret)) {\r... */\n    tag_71:\n        /* \"testApp/contracts/BlindAuction.sol\":3005:3008  bid */\n      dup6\n        /* \"testApp/contracts/BlindAuction.sol\":3005:3016  bid.deposit */\n      0x1\n      add\n      sload\n        /* \"testApp/contracts/BlindAuction.sol\":2995:3016  refund += bid.deposit */\n      dup9\n      add\n      swap8\n      pop\n        /* \"testApp/contracts/BlindAuction.sol\":3036:3040  fake */\n      dup4\n        /* \"testApp/contracts/BlindAuction.sol\":3035:3040  !fake */\n      iszero\n        /* \"testApp/contracts/BlindAuction.sol\":3035:3064  !fake && bid.deposit >= value */\n      dup1\n      iszero\n      tag_72\n      jumpi\n      pop\n        /* \"testApp/contracts/BlindAuction.sol\":3059:3064  value */\n      dup5\n        /* \"testApp/contracts/BlindAuction.sol\":3044:3047  bid */\n      dup7\n        /* \"testApp/contracts/BlindAuction.sol\":3044:3055  bid.deposit */\n      0x1\n      add\n      sload\n        /* \"testApp/contracts/BlindAuction.sol\":3044:3064  bid.deposit >= value */\n      lt\n      iszero\n        /* \"testApp/contracts/BlindAuction.sol\":3035:3064  !fake && bid.deposit >= value */\n    tag_72:\n        /* \"testApp/contracts/BlindAuction.sol\":3031:3170  if (!fake && bid.deposit >= value) {\r... */\n      iszero\n      tag_73\n      jumpi\n        /* \"testApp/contracts/BlindAuction.sol\":3089:3116  placeBid(msg.sender, value) */\n      tag_74\n        /* \"testApp/contracts/BlindAuction.sol\":3098:3108  msg.sender */\n      caller\n        /* \"testApp/contracts/BlindAuction.sol\":3110:3115  value */\n      dup7\n        /* \"testApp/contracts/BlindAuction.sol\":3089:3097  placeBid */\n      tag_75\n        /* \"testApp/contracts/BlindAuction.sol\":3089:3116  placeBid(msg.sender, value) */\n      jump\t// in\n    tag_74:\n        /* \"testApp/contracts/BlindAuction.sol\":3085:3154  if (placeBid(msg.sender, value))\r... */\n      iszero\n      tag_76\n      jumpi\n        /* \"testApp/contracts/BlindAuction.sol\":3149:3154  value */\n      dup5\n        /* \"testApp/contracts/BlindAuction.sol\":3139:3154  refund -= value */\n      dup9\n      sub\n      swap8\n      pop\n        /* \"testApp/contracts/BlindAuction.sol\":3085:3154  if (placeBid(msg.sender, value))\r... */\n    tag_76:\n        /* \"testApp/contracts/BlindAuction.sol\":3031:3170  if (!fake && bid.deposit >= value) {\r... */\n    tag_73:\n        /* \"testApp/contracts/BlindAuction.sol\":3274:3275  0 */\n      0x0\n        /* \"testApp/contracts/BlindAuction.sol\":3266:3276  bytes32(0) */\n      0x1\n      mul\n        /* \"testApp/contracts/BlindAuction.sol\":3249:3252  bid */\n      dup7\n        /* \"testApp/contracts/BlindAuction.sol\":3249:3263  bid.blindedBid */\n      0x0\n      add\n        /* \"testApp/contracts/BlindAuction.sol\":3249:3276  bid.blindedBid = bytes32(0) */\n      dup2\n      not(0x0)\n      and\n      swap1\n      sstore\n      pop\n        /* \"testApp/contracts/BlindAuction.sol\":2590:3288  for (uint i = 0; i < length; i++) {\r... */\n    tag_65:\n        /* \"testApp/contracts/BlindAuction.sol\":2619:2622  i++ */\n      dup7\n      dup1\n      0x1\n      add\n      swap8\n      pop\n      pop\n        /* \"testApp/contracts/BlindAuction.sol\":2590:3288  for (uint i = 0; i < length; i++) {\r... */\n      jump(tag_63)\n    tag_64:\n        /* \"testApp/contracts/BlindAuction.sol\":3298:3308  msg.sender */\n      caller\n        /* \"testApp/contracts/BlindAuction.sol\":3298:3317  msg.sender.transfer */\n      0xffffffffffffffffffffffffffffffffffffffff\n      and\n        /* \"testApp/contracts/BlindAuction.sol\":3298:3325  msg.sender.transfer(refund) */\n      0x8fc\n        /* \"testApp/contracts/BlindAuction.sol\":3318:3324  refund */\n      dup10\n        /* \"testApp/contracts/BlindAuction.sol\":3298:3325  msg.sender.transfer(refund) */\n      swap1\n      dup2\n      iszero\n      mul\n      swap1\n      mload(0x40)\n      0x0\n      mload(0x40)\n      dup1\n      dup4\n      sub\n      dup2\n      dup6\n      dup9\n      dup9\n      call\n      swap4\n      pop\n      pop\n      pop\n      pop\n      iszero\n        /* \"--CODEGEN--\":8:17   */\n      dup1\n        /* \"--CODEGEN--\":5:7   */\n      iszero\n      tag_77\n      jumpi\n        /* \"--CODEGEN--\":45:61   */\n      returndatasize\n        /* \"--CODEGEN--\":42:43   */\n      0x0\n        /* \"--CODEGEN--\":39:40   */\n      dup1\n        /* \"--CODEGEN--\":24:62   */\n      returndatacopy\n        /* \"--CODEGEN--\":77:93   */\n      returndatasize\n        /* \"--CODEGEN--\":74:75   */\n      0x0\n        /* \"--CODEGEN--\":67:94   */\n      revert\n        /* \"--CODEGEN--\":5:7   */\n    tag_77:\n        /* \"testApp/contracts/BlindAuction.sol\":3298:3325  msg.sender.transfer(refund) */\n      pop\n        /* \"testApp/contracts/BlindAuction.sol\":880:881  _ */\n      pop\n        /* \"testApp/contracts/BlindAuction.sol\":2195:3333  function reveal(\r... */\n      pop\n      pop\n      pop\n      pop\n      pop\n      pop\n      pop\n      pop\n      pop\n      pop\n      pop\n      jump\t// out\n        /* \"testApp/contracts/BlindAuction.sol\":1146:1329  function bid(uint value, bool fake, bytes32 secret)\r... */\n    tag_35:\n        /* \"testApp/contracts/BlindAuction.sol\":1251:1261  biddingEnd */\n      sload(0x1)\n        /* \"testApp/contracts/BlindAuction.sol\":807:812  _time */\n      dup1\n        /* \"testApp/contracts/BlindAuction.sol\":801:804  now */\n      timestamp\n        /* \"testApp/contracts/BlindAuction.sol\":801:812  now < _time */\n      lt\n        /* \"testApp/contracts/BlindAuction.sol\":793:813  require(now < _time) */\n      iszero\n      iszero\n      tag_79\n      jumpi\n      0x0\n      dup1\n      revert\n    tag_79:\n        /* \"testApp/contracts/BlindAuction.sol\":1281:1321  bidInter(keccak256(value, fake, secret)) */\n      tag_81\n        /* \"testApp/contracts/BlindAuction.sol\":1300:1305  value */\n      dup5\n        /* \"testApp/contracts/BlindAuction.sol\":1307:1311  fake */\n      dup5\n        /* \"testApp/contracts/BlindAuction.sol\":1313:1319  secret */\n      dup5\n        /* \"testApp/contracts/BlindAuction.sol\":1290:1320  keccak256(value, fake, secret) */\n      mload(0x40)\n      dup1\n      dup5\n      dup2\n      mstore\n      0x20\n      add\n      dup4\n      iszero\n      iszero\n      iszero\n      iszero\n      0x100000000000000000000000000000000000000000000000000000000000000\n      mul\n      dup2\n      mstore\n      0x1\n      add\n      dup3\n      not(0x0)\n      and\n      not(0x0)\n      and\n      dup2\n      mstore\n      0x20\n      add\n      swap4\n      pop\n      pop\n      pop\n      pop\n      mload(0x40)\n      dup1\n      swap2\n      sub\n      swap1\n      keccak256\n        /* \"testApp/contracts/BlindAuction.sol\":1281:1289  bidInter */\n      tag_82\n        /* \"testApp/contracts/BlindAuction.sol\":1281:1321  bidInter(keccak256(value, fake, secret)) */\n      jump\t// in\n    tag_81:\n        /* \"testApp/contracts/BlindAuction.sol\":1146:1329  function bid(uint value, bool fake, bytes32 secret)\r... */\n      pop\n      pop\n      pop\n      pop\n      jump\t// out\n        /* \"testApp/contracts/BlindAuction.sol\":305:333  address public highestBidder */\n    tag_38:\n      0x5\n      0x0\n      swap1\n      sload\n      swap1\n      0x100\n      exp\n      swap1\n      div\n      0xffffffffffffffffffffffffffffffffffffffff\n      and\n      dup2\n      jump\t// out\n        /* \"testApp/contracts/BlindAuction.sol\":205:226  uint public revealEnd */\n    tag_41:\n      sload(0x2)\n      dup2\n      jump\t// out\n        /* \"testApp/contracts/BlindAuction.sol\":340:362  uint public highestBid */\n    tag_44:\n      sload(0x6)\n      dup2\n      jump\t// out\n        /* \"testApp/contracts/BlindAuction.sol\":3447:3866  function placeBid(address bidder, uint value) internal\r... */\n    tag_75:\n        /* \"testApp/contracts/BlindAuction.sol\":3524:3536  bool success */\n      0x0\n        /* \"testApp/contracts/BlindAuction.sol\":3567:3577  highestBid */\n      sload(0x6)\n        /* \"testApp/contracts/BlindAuction.sol\":3558:3563  value */\n      dup3\n        /* \"testApp/contracts/BlindAuction.sol\":3558:3577  value <= highestBid */\n      gt\n      iszero\n        /* \"testApp/contracts/BlindAuction.sol\":3554:3618  if (value <= highestBid) {\r... */\n      iszero\n      tag_84\n      jumpi\n        /* \"testApp/contracts/BlindAuction.sol\":3601:3606  false */\n      0x0\n        /* \"testApp/contracts/BlindAuction.sol\":3594:3606  return false */\n      swap1\n      pop\n      jump(tag_83)\n        /* \"testApp/contracts/BlindAuction.sol\":3554:3618  if (value <= highestBid) {\r... */\n    tag_84:\n        /* \"testApp/contracts/BlindAuction.sol\":3657:3658  0 */\n      0x0\n        /* \"testApp/contracts/BlindAuction.sol\":3632:3659  highestBidder != address(0) */\n      0xffffffffffffffffffffffffffffffffffffffff\n      and\n        /* \"testApp/contracts/BlindAuction.sol\":3632:3645  highestBidder */\n      0x5\n      0x0\n      swap1\n      sload\n      swap1\n      0x100\n      exp\n      swap1\n      div\n      0xffffffffffffffffffffffffffffffffffffffff\n      and\n        /* \"testApp/contracts/BlindAuction.sol\":3632:3659  highestBidder != address(0) */\n      0xffffffffffffffffffffffffffffffffffffffff\n      and\n      eq\n      iszero\n        /* \"testApp/contracts/BlindAuction.sol\":3628:3775  if (highestBidder != address(0)) {\r... */\n      iszero\n      tag_85\n      jumpi\n        /* \"testApp/contracts/BlindAuction.sol\":3753:3763  highestBid */\n      sload(0x6)\n        /* \"testApp/contracts/BlindAuction.sol\":3720:3734  pendingReturns */\n      0x7\n        /* \"testApp/contracts/BlindAuction.sol\":3720:3749  pendingReturns[highestBidder] */\n      0x0\n        /* \"testApp/contracts/BlindAuction.sol\":3735:3748  highestBidder */\n      0x5\n      0x0\n      swap1\n      sload\n      swap1\n      0x100\n      exp\n      swap1\n      div\n      0xffffffffffffffffffffffffffffffffffffffff\n      and\n        /* \"testApp/contracts/BlindAuction.sol\":3720:3749  pendingReturns[highestBidder] */\n      0xffffffffffffffffffffffffffffffffffffffff\n      and\n      0xffffffffffffffffffffffffffffffffffffffff\n      and\n      dup2\n      mstore\n      0x20\n      add\n      swap1\n      dup2\n      mstore\n      0x20\n      add\n      0x0\n      keccak256\n      0x0\n        /* \"testApp/contracts/BlindAuction.sol\":3720:3763  pendingReturns[highestBidder] += highestBid */\n      dup3\n      dup3\n      sload\n      add\n      swap3\n      pop\n      pop\n      dup2\n      swap1\n      sstore\n      pop\n        /* \"testApp/contracts/BlindAuction.sol\":3628:3775  if (highestBidder != address(0)) {\r... */\n    tag_85:\n        /* \"testApp/contracts/BlindAuction.sol\":3798:3803  value */\n      dup2\n        /* \"testApp/contracts/BlindAuction.sol\":3785:3795  highestBid */\n      0x6\n        /* \"testApp/contracts/BlindAuction.sol\":3785:3803  highestBid = value */\n      dup2\n      swap1\n      sstore\n      pop\n        /* \"testApp/contracts/BlindAuction.sol\":3830:3836  bidder */\n      dup3\n        /* \"testApp/contracts/BlindAuction.sol\":3814:3827  highestBidder */\n      0x5\n      0x0\n        /* \"testApp/contracts/BlindAuction.sol\":3814:3836  highestBidder = bidder */\n      0x100\n      exp\n      dup2\n      sload\n      dup2\n      0xffffffffffffffffffffffffffffffffffffffff\n      mul\n      not\n      and\n      swap1\n      dup4\n      0xffffffffffffffffffffffffffffffffffffffff\n      and\n      mul\n      or\n      swap1\n      sstore\n      pop\n        /* \"testApp/contracts/BlindAuction.sol\":3854:3858  true */\n      0x1\n        /* \"testApp/contracts/BlindAuction.sol\":3847:3858  return true */\n      swap1\n      pop\n        /* \"testApp/contracts/BlindAuction.sol\":3447:3866  function placeBid(address bidder, uint value) internal\r... */\n    tag_83:\n      swap3\n      swap2\n      pop\n      pop\n      jump\t// out\n        /* \"testApp/contracts/BlindAuction.sol\":1844:2026  function bidInter(bytes32 _blindedBid) internal\r... */\n    tag_82:\n        /* \"testApp/contracts/BlindAuction.sol\":1908:1912  bids */\n      0x4\n        /* \"testApp/contracts/BlindAuction.sol\":1908:1924  bids[msg.sender] */\n      0x0\n        /* \"testApp/contracts/BlindAuction.sol\":1913:1923  msg.sender */\n      caller\n        /* \"testApp/contracts/BlindAuction.sol\":1908:1924  bids[msg.sender] */\n      0xffffffffffffffffffffffffffffffffffffffff\n      and\n      0xffffffffffffffffffffffffffffffffffffffff\n      and\n      dup2\n      mstore\n      0x20\n      add\n      swap1\n      dup2\n      mstore\n      0x20\n      add\n      0x0\n      keccak256\n        /* \"testApp/contracts/BlindAuction.sol\":1930:2017  Bid({\r... */\n      0x40\n      dup1\n      mload\n      swap1\n      dup2\n      add\n      0x40\n      mstore\n      dup1\n        /* \"testApp/contracts/BlindAuction.sol\":1961:1972  _blindedBid */\n      dup4\n        /* \"testApp/contracts/BlindAuction.sol\":1930:2017  Bid({\r... */\n      not(0x0)\n      and\n      dup2\n      mstore\n      0x20\n      add\n        /* \"testApp/contracts/BlindAuction.sol\":1996:2005  msg.value */\n      callvalue\n        /* \"testApp/contracts/BlindAuction.sol\":1930:2017  Bid({\r... */\n      dup2\n      mstore\n      pop\n        /* \"testApp/contracts/BlindAuction.sol\":1908:2018  bids[msg.sender].push(Bid({\r... */\n      swap1\n      dup1\n        /* \"--CODEGEN--\":39:40   */\n      0x1\n        /* \"--CODEGEN--\":33:36   */\n      dup2\n        /* \"--CODEGEN--\":27:37   */\n      sload\n        /* \"--CODEGEN--\":23:41   */\n      add\n        /* \"--CODEGEN--\":57:67   */\n      dup1\n        /* \"--CODEGEN--\":52:55   */\n      dup3\n        /* \"--CODEGEN--\":45:68   */\n      sstore\n        /* \"--CODEGEN--\":79:89   */\n      dup1\n        /* \"--CODEGEN--\":72:89   */\n      swap2\n      pop\n        /* \"--CODEGEN--\":0:93   */\n      pop\n        /* \"testApp/contracts/BlindAuction.sol\":1908:2018  bids[msg.sender].push(Bid({\r... */\n      swap1\n      0x1\n      dup3\n      sub\n      swap1\n      0x0\n      mstore\n      keccak256(0x0, 0x20)\n      swap1\n      0x2\n      mul\n      add\n      0x0\n      swap1\n      swap2\n      swap3\n      swap1\n      swap2\n      swap1\n      swap2\n      pop\n      0x0\n      dup3\n      add\n      mload\n      dup2\n      0x0\n      add\n      swap1\n      not(0x0)\n      and\n      swap1\n      sstore\n      0x20\n      dup3\n      add\n      mload\n      dup2\n      0x1\n      add\n      sstore\n      pop\n      pop\n      pop\n        /* \"testApp/contracts/BlindAuction.sol\":1844:2026  function bidInter(bytes32 _blindedBid) internal\r... */\n      pop\n      jump\t// out\n\n    auxdata: 0xa165627a7a72305820770831c2d0fd404c2277392929e6a0ad0ec76ec134d008f2f0396176bffd88390029\n}\n",
				"bytecode": {
					"linkReferences": {},
					"object": "608060405234801561001057600080fd5b50604051606080610c36833981018060405281019080805190602001909291908051906020019092919080519060200190929190505050806000806101000a81548173ffffffffffffffffffffffffffffffffffffffff021916908373ffffffffffffffffffffffffffffffffffffffff1602179055508242016001819055508160015401600281905550505050610b89806100ad6000396000f3006080604052600436106100af576000357c0100000000000000000000000000000000000000000000000000000000900463ffffffff16806301495c1c146100b457806312fa6feb146101245780632a24f46c1461015357806338af3eed1461016a5780633ccfd60b146101c1578063423b217f146101d8578063900f080a1461020357806390a723b4146102ef57806391f9015714610329578063a6e6647714610380578063d57bde79146103ab575b600080fd5b3480156100c057600080fd5b506100ff600480360381019080803573ffffffffffffffffffffffffffffffffffffffff169060200190929190803590602001909291905050506103d6565b6040518083600019166000191681526020018281526020019250505060405180910390f35b34801561013057600080fd5b50610139610416565b604051808215151515815260200191505060405180910390f35b34801561015f57600080fd5b50610168610429565b005b34801561017657600080fd5b5061017f61056d565b604051808273ffffffffffffffffffffffffffffffffffffffff1673ffffffffffffffffffffffffffffffffffffffff16815260200191505060405180910390f35b3480156101cd57600080fd5b506101d6610592565b005b3480156101e457600080fd5b506101ed61066f565b6040518082815260200191505060405180910390f35b34801561020f57600080fd5b506102ed600480360381019080803590602001908201803590602001908080602002602001604051908101604052809392919081815260200183836020028082843782019150505050505091929192908035906020019082018035906020019080806020026020016040519081016040528093929190818152602001838360200280828437820191505050505050919291929080359060200190820180359060200190808060200260200160405190810160405280939291908181526020018383602002808284378201915050505050509192919290505050610675565b005b6103276004803603810190808035906020019092919080351515906020019092919080356000191690602001909291905050506108e2565b005b34801561033557600080fd5b5061033e610955565b604051808273ffffffffffffffffffffffffffffffffffffffff1673ffffffffffffffffffffffffffffffffffffffff16815260200191505060405180910390f35b34801561038c57600080fd5b5061039561097b565b6040518082815260200191505060405180910390f35b3480156103b757600080fd5b506103c0610981565b6040518082815260200191505060405180910390f35b6004602052816000526040600020818154811015156103f157fe5b9060005260206000209060020201600091509150508060000154908060010154905082565b600360009054906101000a900460ff1681565b600254804211151561043a57600080fd5b600360009054906101000a900460ff1615151561045657600080fd5b7fdaec4582d5d9595688c8c98545fdd1c696d41c6aeaeb636737e84ed2f5c00eda600560009054906101000a900473ffffffffffffffffffffffffffffffffffffffff16600654604051808373ffffffffffffffffffffffffffffffffffffffff1673ffffffffffffffffffffffffffffffffffffffff1681526020018281526020019250505060405180910390a16001600360006101000a81548160ff0219169083151502179055506000809054906101000a900473ffffffffffffffffffffffffffffffffffffffff1673ffffffffffffffffffffffffffffffffffffffff166108fc6006549081150290604051600060405180830381858888f19350505050158015610569573d6000803e3d6000fd5b5050565b6000809054906101000a900473ffffffffffffffffffffffffffffffffffffffff1681565b6000600760003373ffffffffffffffffffffffffffffffffffffffff1673ffffffffffffffffffffffffffffffffffffffff168152602001908152602001600020549050600081111561066c576000600760003373ffffffffffffffffffffffffffffffffffffffff1673ffffffffffffffffffffffffffffffffffffffff168152602001908152602001600020819055503373ffffffffffffffffffffffffffffffffffffffff166108fc829081150290604051600060405180830381858888f1935050505015801561066a573d6000803e3d6000fd5b505b50565b60015481565b6000806000806000806000600154804211151561069157600080fd5b60025480421015156106a257600080fd5b600460003373ffffffffffffffffffffffffffffffffffffffff1673ffffffffffffffffffffffffffffffffffffffff168152602001908152602001600020805490509850888c511415156106f657600080fd5b888b5114151561070557600080fd5b888a5114151561071457600080fd5b600096505b8887101561088d57600460003373ffffffffffffffffffffffffffffffffffffffff1673ffffffffffffffffffffffffffffffffffffffff1681526020019081526020016000208781548110151561076d57fe5b906000526020600020906002020195508b8781518110151561078b57fe5b906020019060200201518b888151811015156107a357fe5b906020019060200201518b898151811015156107bb57fe5b906020019060200201519450945094508484846040518084815260200183151515157f01000000000000000000000000000000000000000000000000000000000000000281526001018260001916600019168152602001935050505060405180910390206000191686600001546000191614151561083857610880565b85600101548801975083158015610853575084866001015410155b1561086e576108623386610987565b1561086d5784880397505b5b60006001028660000181600019169055505b8680600101975050610719565b3373ffffffffffffffffffffffffffffffffffffffff166108fc899081150290604051600060405180830381858888f193505050501580156108d3573d6000803e3d6000fd5b50505050505050505050505050565b60015480421015156108f357600080fd5b61094f8484846040518084815260200183151515157f0100000000000000000000000000000000000000000000000000000000000000028152600101826000191660001916815260200193505050506040518091039020610aba565b50505050565b600560009054906101000a900473ffffffffffffffffffffffffffffffffffffffff1681565b60025481565b60065481565b60006006548211151561099d5760009050610ab4565b600073ffffffffffffffffffffffffffffffffffffffff16600560009054906101000a900473ffffffffffffffffffffffffffffffffffffffff1673ffffffffffffffffffffffffffffffffffffffff16141515610a675760065460076000600560009054906101000a900473ffffffffffffffffffffffffffffffffffffffff1673ffffffffffffffffffffffffffffffffffffffff1673ffffffffffffffffffffffffffffffffffffffff168152602001908152602001600020600082825401925050819055505b8160068190555082600560006101000a81548173ffffffffffffffffffffffffffffffffffffffff021916908373ffffffffffffffffffffffffffffffffffffffff160217905550600190505b92915050565b600460003373ffffffffffffffffffffffffffffffffffffffff1673ffffffffffffffffffffffffffffffffffffffff16815260200190815260200160002060408051908101604052808360001916815260200134815250908060018154018082558091505090600182039060005260206000209060020201600090919290919091506000820151816000019060001916905560208201518160010155505050505600a165627a7a72305820770831c2d0fd404c2277392929e6a0ad0ec76ec134d008f2f0396176bffd88390029",
					"opcodes": "PUSH1 0x80 PUSH1 0x40 MSTORE CALLVALUE DUP1 ISZERO PUSH2 0x10 JUMPI PUSH1 0x0 DUP1 REVERT JUMPDEST POP PUSH1 0x40 MLOAD PUSH1 0x60 DUP1 PUSH2 0xC36 DUP4 CODECOPY DUP2 ADD DUP1 PUSH1 0x40 MSTORE DUP2 ADD SWAP1 DUP1 DUP1 MLOAD SWAP1 PUSH1 0x20 ADD SWAP1 SWAP3 SWAP2 SWAP1 DUP1 MLOAD SWAP1 PUSH1 0x20 ADD SWAP1 SWAP3 SWAP2 SWAP1 DUP1 MLOAD SWAP1 PUSH1 0x20 ADD SWAP1 SWAP3 SWAP2 SWAP1 POP POP POP DUP1 PUSH1 0x0 DUP1 PUSH2 0x100 EXP DUP2 SLOAD DUP2 PUSH20 0xFFFFFFFFFFFFFFFFFFFFFFFFFFFFFFFFFFFFFFFF MUL NOT AND SWAP1 DUP4 PUSH20 0xFFFFFFFFFFFFFFFFFFFFFFFFFFFFFFFFFFFFFFFF AND MUL OR SWAP1 SSTORE POP DUP3 TIMESTAMP ADD PUSH1 0x1 DUP2 SWAP1 SSTORE POP DUP2 PUSH1 0x1 SLOAD ADD PUSH1 0x2 DUP2 SWAP1 SSTORE POP POP POP POP PUSH2 0xB89 DUP1 PUSH2 0xAD PUSH1 0x0 CODECOPY PUSH1 0x0 RETURN STOP PUSH1 0x80 PUSH1 0x40 MSTORE PUSH1 0x4 CALLDATASIZE LT PUSH2 0xAF JUMPI PUSH1 0x0 CALLDATALOAD PUSH29 0x100000000000000000000000000000000000000000000000000000000 SWAP1 DIV PUSH4 0xFFFFFFFF AND DUP1 PUSH4 0x1495C1C EQ PUSH2 0xB4 JUMPI DUP1 PUSH4 0x12FA6FEB EQ PUSH2 0x124 JUMPI DUP1 PUSH4 0x2A24F46C EQ PUSH2 0x153 JUMPI DUP1 PUSH4 0x38AF3EED EQ PUSH2 0x16A JUMPI DUP1 PUSH4 0x3CCFD60B EQ PUSH2 0x1C1 JUMPI DUP1 PUSH4 0x423B217F EQ PUSH2 0x1D8 JUMPI DUP1 PUSH4 0x900F080A EQ PUSH2 0x203 JUMPI DUP1 PUSH4 0x90A723B4 EQ PUSH2 0x2EF JUMPI DUP1 PUSH4 0x91F90157 EQ PUSH2 0x329 JUMPI DUP1 PUSH4 0xA6E66477 EQ PUSH2 0x380 JUMPI DUP1 PUSH4 0xD57BDE79 EQ PUSH2 0x3AB JUMPI JUMPDEST PUSH1 0x0 DUP1 REVERT JUMPDEST CALLVALUE DUP1 ISZERO PUSH2 0xC0 JUMPI PUSH1 0x0 DUP1 REVERT JUMPDEST POP PUSH2 0xFF PUSH1 0x4 DUP1 CALLDATASIZE SUB DUP2 ADD SWAP1 DUP1 DUP1 CALLDATALOAD PUSH20 0xFFFFFFFFFFFFFFFFFFFFFFFFFFFFFFFFFFFFFFFF AND SWAP1 PUSH1 0x20 ADD SWAP1 SWAP3 SWAP2 SWAP1 DUP1 CALLDATALOAD SWAP1 PUSH1 0x20 ADD SWAP1 SWAP3 SWAP2 SWAP1 POP POP POP PUSH2 0x3D6 JUMP JUMPDEST PUSH1 0x40 MLOAD DUP1 DUP4 PUSH1 0x0 NOT AND PUSH1 0x0 NOT AND DUP2 MSTORE PUSH1 0x20 ADD DUP3 DUP2 MSTORE PUSH1 0x20 ADD SWAP3 POP POP POP PUSH1 0x40 MLOAD DUP1 SWAP2 SUB SWAP1 RETURN JUMPDEST CALLVALUE DUP1 ISZERO PUSH2 0x130 JUMPI PUSH1 0x0 DUP1 REVERT JUMPDEST POP PUSH2 0x139 PUSH2 0x416 JUMP JUMPDEST PUSH1 0x40 MLOAD DUP1 DUP3 ISZERO ISZERO ISZERO ISZERO DUP2 MSTORE PUSH1 0x20 ADD SWAP2 POP POP PUSH1 0x40 MLOAD DUP1 SWAP2 SUB SWAP1 RETURN JUMPDEST CALLVALUE DUP1 ISZERO PUSH2 0x15F JUMPI PUSH1 0x0 DUP1 REVERT JUMPDEST POP PUSH2 0x168 PUSH2 0x429 JUMP JUMPDEST STOP JUMPDEST CALLVALUE DUP1 ISZERO PUSH2 0x176 JUMPI PUSH1 0x0 DUP1 REVERT JUMPDEST POP PUSH2 0x17F PUSH2 0x56D JUMP JUMPDEST PUSH1 0x40 MLOAD DUP1 DUP3 PUSH20 0xFFFFFFFFFFFFFFFFFFFFFFFFFFFFFFFFFFFFFFFF AND PUSH20 0xFFFFFFFFFFFFFFFFFFFFFFFFFFFFFFFFFFFFFFFF AND DUP2 MSTORE PUSH1 0x20 ADD SWAP2 POP POP PUSH1 0x40 MLOAD DUP1 SWAP2 SUB SWAP1 RETURN JUMPDEST CALLVALUE DUP1 ISZERO PUSH2 0x1CD JUMPI PUSH1 0x0 DUP1 REVERT JUMPDEST POP PUSH2 0x1D6 PUSH2 0x592 JUMP JUMPDEST STOP JUMPDEST CALLVALUE DUP1 ISZERO PUSH2 0x1E4 JUMPI PUSH1 0x0 DUP1 REVERT JUMPDEST POP PUSH2 0x1ED PUSH2 0x66F JUMP JUMPDEST PUSH1 0x40 MLOAD DUP1 DUP3 DUP2 MSTORE PUSH1 0x20 ADD SWAP2 POP POP PUSH1 0x40 MLOAD DUP1 SWAP2 SUB SWAP1 RETURN JUMPDEST CALLVALUE DUP1 ISZERO PUSH2 0x20F JUMPI PUSH1 0x0 DUP1 REVERT JUMPDEST POP PUSH2 0x2ED PUSH1 0x4 DUP1 CALLDATASIZE SUB DUP2 ADD SWAP1 DUP1 DUP1 CALLDATALOAD SWAP1 PUSH1 0x20 ADD SWAP1 DUP3 ADD DUP1 CALLDATALOAD SWAP1 PUSH1 0x20 ADD SWAP1 DUP1 DUP1 PUSH1 0x20 MUL PUSH1 0x20 ADD PUSH1 0x40 MLOAD SWAP1 DUP2 ADD PUSH1 0x40 MSTORE DUP1 SWAP4 SWAP3 SWAP2 SWAP1 DUP2 DUP2 MSTORE PUSH1 0x20 ADD DUP4 DUP4 PUSH1 0x20 MUL DUP1 DUP3 DUP5 CALLDATACOPY DUP3 ADD SWAP2 POP POP POP POP POP POP SWAP2 SWAP3 SWAP2 SWAP3 SWAP1 DUP1 CALLDATALOAD SWAP1 PUSH1 0x20 ADD SWAP1 DUP3 ADD DUP1 CALLDATALOAD SWAP1 PUSH1 0x20 ADD SWAP1 DUP1 DUP1 PUSH1 0x20 MUL PUSH1 0x20 ADD PUSH1 0x40 MLOAD SWAP1 DUP2 ADD PUSH1 0x40 MSTORE DUP1 SWAP4 SWAP3 SWAP2 SWAP1 DUP2 DUP2 MSTORE PUSH1 0x20 ADD DUP4 DUP4 PUSH1 0x20 MUL DUP1 DUP3 DUP5 CALLDATACOPY DUP3 ADD SWAP2 POP POP POP POP POP POP SWAP2 SWAP3 SWAP2 SWAP3 SWAP1 DUP1 CALLDATALOAD SWAP1 PUSH1 0x20 ADD SWAP1 DUP3 ADD DUP1 CALLDATALOAD SWAP1 PUSH1 0x20 ADD SWAP1 DUP1 DUP1 PUSH1 0x20 MUL PUSH1 0x20 ADD PUSH1 0x40 MLOAD SWAP1 DUP2 ADD PUSH1 0x40 MSTORE DUP1 SWAP4 SWAP3 SWAP2 SWAP1 DUP2 DUP2 MSTORE PUSH1 0x20 ADD DUP4 DUP4 PUSH1 0x20 MUL DUP1 DUP3 DUP5 CALLDATACOPY DUP3 ADD SWAP2 POP POP POP POP POP POP SWAP2 SWAP3 SWAP2 SWAP3 SWAP1 POP POP POP PUSH2 0x675 JUMP JUMPDEST STOP JUMPDEST PUSH2 0x327 PUSH1 0x4 DUP1 CALLDATASIZE SUB DUP2 ADD SWAP1 DUP1 DUP1 CALLDATALOAD SWAP1 PUSH1 0x20 ADD SWAP1 SWAP3 SWAP2 SWAP1 DUP1 CALLDATALOAD ISZERO ISZERO SWAP1 PUSH1 0x20 ADD SWAP1 SWAP3 SWAP2 SWAP1 DUP1 CALLDATALOAD PUSH1 0x0 NOT AND SWAP1 PUSH1 0x20 ADD SWAP1 SWAP3 SWAP2 SWAP1 POP POP POP PUSH2 0x8E2 JUMP JUMPDEST STOP JUMPDEST CALLVALUE DUP1 ISZERO PUSH2 0x335 JUMPI PUSH1 0x0 DUP1 REVERT JUMPDEST POP PUSH2 0x33E PUSH2 0x955 JUMP JUMPDEST PUSH1 0x40 MLOAD DUP1 DUP3 PUSH20 0xFFFFFFFFFFFFFFFFFFFFFFFFFFFFFFFFFFFFFFFF AND PUSH20 0xFFFFFFFFFFFFFFFFFFFFFFFFFFFFFFFFFFFFFFFF AND DUP2 MSTORE PUSH1 0x20 ADD SWAP2 POP POP PUSH1 0x40 MLOAD DUP1 SWAP2 SUB SWAP1 RETURN JUMPDEST CALLVALUE DUP1 ISZERO PUSH2 0x38C JUMPI PUSH1 0x0 DUP1 REVERT JUMPDEST POP PUSH2 0x395 PUSH2 0x97B JUMP JUMPDEST PUSH1 0x40 MLOAD DUP1 DUP3 DUP2 MSTORE PUSH1 0x20 ADD SWAP2 POP POP PUSH1 0x40 MLOAD DUP1 SWAP2 SUB SWAP1 RETURN JUMPDEST CALLVALUE DUP1 ISZERO PUSH2 0x3B7 JUMPI PUSH1 0x0 DUP1 REVERT JUMPDEST POP PUSH2 0x3C0 PUSH2 0x981 JUMP JUMPDEST PUSH1 0x40 MLOAD DUP1 DUP3 DUP2 MSTORE PUSH1 0x20 ADD SWAP2 POP POP PUSH1 0x40 MLOAD DUP1 SWAP2 SUB SWAP1 RETURN JUMPDEST PUSH1 0x4 PUSH1 0x20 MSTORE DUP2 PUSH1 0x0 MSTORE PUSH1 0x40 PUSH1 0x0 KECCAK256 DUP2 DUP2 SLOAD DUP2 LT ISZERO ISZERO PUSH2 0x3F1 JUMPI INVALID JUMPDEST SWAP1 PUSH1 0x0 MSTORE PUSH1 0x20 PUSH1 0x0 KECCAK256 SWAP1 PUSH1 0x2 MUL ADD PUSH1 0x0 SWAP2 POP SWAP2 POP POP DUP1 PUSH1 0x0 ADD SLOAD SWAP1 DUP1 PUSH1 0x1 ADD SLOAD SWAP1 POP DUP3 JUMP JUMPDEST PUSH1 0x3 PUSH1 0x0 SWAP1 SLOAD SWAP1 PUSH2 0x100 EXP SWAP1 DIV PUSH1 0xFF AND DUP2 JUMP JUMPDEST PUSH1 0x2 SLOAD DUP1 TIMESTAMP GT ISZERO ISZERO PUSH2 0x43A JUMPI PUSH1 0x0 DUP1 REVERT JUMPDEST PUSH1 0x3 PUSH1 0x0 SWAP1 SLOAD SWAP1 PUSH2 0x100 EXP SWAP1 DIV PUSH1 0xFF AND ISZERO ISZERO ISZERO PUSH2 0x456 JUMPI PUSH1 0x0 DUP1 REVERT JUMPDEST PUSH32 0xDAEC4582D5D9595688C8C98545FDD1C696D41C6AEAEB636737E84ED2F5C00EDA PUSH1 0x5 PUSH1 0x0 SWAP1 SLOAD SWAP1 PUSH2 0x100 EXP SWAP1 DIV PUSH20 0xFFFFFFFFFFFFFFFFFFFFFFFFFFFFFFFFFFFFFFFF AND PUSH1 0x6 SLOAD PUSH1 0x40 MLOAD DUP1 DUP4 PUSH20 0xFFFFFFFFFFFFFFFFFFFFFFFFFFFFFFFFFFFFFFFF AND PUSH20 0xFFFFFFFFFFFFFFFFFFFFFFFFFFFFFFFFFFFFFFFF AND DUP2 MSTORE PUSH1 0x20 ADD DUP3 DUP2 MSTORE PUSH1 0x20 ADD SWAP3 POP POP POP PUSH1 0x40 MLOAD DUP1 SWAP2 SUB SWAP1 LOG1 PUSH1 0x1 PUSH1 0x3 PUSH1 0x0 PUSH2 0x100 EXP DUP2 SLOAD DUP2 PUSH1 0xFF MUL NOT AND SWAP1 DUP4 ISZERO ISZERO MUL OR SWAP1 SSTORE POP PUSH1 0x0 DUP1 SWAP1 SLOAD SWAP1 PUSH2 0x100 EXP SWAP1 DIV PUSH20 0xFFFFFFFFFFFFFFFFFFFFFFFFFFFFFFFFFFFFFFFF AND PUSH20 0xFFFFFFFFFFFFFFFFFFFFFFFFFFFFFFFFFFFFFFFF AND PUSH2 0x8FC PUSH1 0x6 SLOAD SWAP1 DUP2 ISZERO MUL SWAP1 PUSH1 0x40 MLOAD PUSH1 0x0 PUSH1 0x40 MLOAD DUP1 DUP4 SUB DUP2 DUP6 DUP9 DUP9 CALL SWAP4 POP POP POP POP ISZERO DUP1 ISZERO PUSH2 0x569 JUMPI RETURNDATASIZE PUSH1 0x0 DUP1 RETURNDATACOPY RETURNDATASIZE PUSH1 0x0 REVERT JUMPDEST POP POP JUMP JUMPDEST PUSH1 0x0 DUP1 SWAP1 SLOAD SWAP1 PUSH2 0x100 EXP SWAP1 DIV PUSH20 0xFFFFFFFFFFFFFFFFFFFFFFFFFFFFFFFFFFFFFFFF AND DUP2 JUMP JUMPDEST PUSH1 0x0 PUSH1 0x7 PUSH1 0x0 CALLER PUSH20 0xFFFFFFFFFFFFFFFFFFFFFFFFFFFFFFFFFFFFFFFF AND PUSH20 0xFFFFFFFFFFFFFFFFFFFFFFFFFFFFFFFFFFFFFFFF AND DUP2 MSTORE PUSH1 0x20 ADD SWAP1 DUP2 MSTORE PUSH1 0x20 ADD PUSH1 0x0 KECCAK256 SLOAD SWAP1 POP PUSH1 0x0 DUP2 GT ISZERO PUSH2 0x66C JUMPI PUSH1 0x0 PUSH1 0x7 PUSH1 0x0 CALLER PUSH20 0xFFFFFFFFFFFFFFFFFFFFFFFFFFFFFFFFFFFFFFFF AND PUSH20 0xFFFFFFFFFFFFFFFFFFFFFFFFFFFFFFFFFFFFFFFF AND DUP2 MSTORE PUSH1 0x20 ADD SWAP1 DUP2 MSTORE PUSH1 0x20 ADD PUSH1 0x0 KECCAK256 DUP2 SWAP1 SSTORE POP CALLER PUSH20 0xFFFFFFFFFFFFFFFFFFFFFFFFFFFFFFFFFFFFFFFF AND PUSH2 0x8FC DUP3 SWAP1 DUP2 ISZERO MUL SWAP1 PUSH1 0x40 MLOAD PUSH1 0x0 PUSH1 0x40 MLOAD DUP1 DUP4 SUB DUP2 DUP6 DUP9 DUP9 CALL SWAP4 POP POP POP POP ISZERO DUP1 ISZERO PUSH2 0x66A JUMPI RETURNDATASIZE PUSH1 0x0 DUP1 RETURNDATACOPY RETURNDATASIZE PUSH1 0x0 REVERT JUMPDEST POP JUMPDEST POP JUMP JUMPDEST PUSH1 0x1 SLOAD DUP2 JUMP JUMPDEST PUSH1 0x0 DUP1 PUSH1 0x0 DUP1 PUSH1 0x0 DUP1 PUSH1 0x0 PUSH1 0x1 SLOAD DUP1 TIMESTAMP GT ISZERO ISZERO PUSH2 0x691 JUMPI PUSH1 0x0 DUP1 REVERT JUMPDEST PUSH1 0x2 SLOAD DUP1 TIMESTAMP LT ISZERO ISZERO PUSH2 0x6A2 JUMPI PUSH1 0x0 DUP1 REVERT JUMPDEST PUSH1 0x4 PUSH1 0x0 CALLER PUSH20 0xFFFFFFFFFFFFFFFFFFFFFFFFFFFFFFFFFFFFFFFF AND PUSH20 0xFFFFFFFFFFFFFFFFFFFFFFFFFFFFFFFFFFFFFFFF AND DUP2 MSTORE PUSH1 0x20 ADD SWAP1 DUP2 MSTORE PUSH1 0x20 ADD PUSH1 0x0 KECCAK256 DUP1 SLOAD SWAP1 POP SWAP9 POP DUP9 DUP13 MLOAD EQ ISZERO ISZERO PUSH2 0x6F6 JUMPI PUSH1 0x0 DUP1 REVERT JUMPDEST DUP9 DUP12 MLOAD EQ ISZERO ISZERO PUSH2 0x705 JUMPI PUSH1 0x0 DUP1 REVERT JUMPDEST DUP9 DUP11 MLOAD EQ ISZERO ISZERO PUSH2 0x714 JUMPI PUSH1 0x0 DUP1 REVERT JUMPDEST PUSH1 0x0 SWAP7 POP JUMPDEST DUP9 DUP8 LT ISZERO PUSH2 0x88D JUMPI PUSH1 0x4 PUSH1 0x0 CALLER PUSH20 0xFFFFFFFFFFFFFFFFFFFFFFFFFFFFFFFFFFFFFFFF AND PUSH20 0xFFFFFFFFFFFFFFFFFFFFFFFFFFFFFFFFFFFFFFFF AND DUP2 MSTORE PUSH1 0x20 ADD SWAP1 DUP2 MSTORE PUSH1 0x20 ADD PUSH1 0x0 KECCAK256 DUP8 DUP2 SLOAD DUP2 LT ISZERO ISZERO PUSH2 0x76D JUMPI INVALID JUMPDEST SWAP1 PUSH1 0x0 MSTORE PUSH1 0x20 PUSH1 0x0 KECCAK256 SWAP1 PUSH1 0x2 MUL ADD SWAP6 POP DUP12 DUP8 DUP2 MLOAD DUP2 LT ISZERO ISZERO PUSH2 0x78B JUMPI INVALID JUMPDEST SWAP1 PUSH1 0x20 ADD SWAP1 PUSH1 0x20 MUL ADD MLOAD DUP12 DUP9 DUP2 MLOAD DUP2 LT ISZERO ISZERO PUSH2 0x7A3 JUMPI INVALID JUMPDEST SWAP1 PUSH1 0x20 ADD SWAP1 PUSH1 0x20 MUL ADD MLOAD DUP12 DUP10 DUP2 MLOAD DUP2 LT ISZERO ISZERO PUSH2 0x7BB JUMPI INVALID JUMPDEST SWAP1 PUSH1 0x20 ADD SWAP1 PUSH1 0x20 MUL ADD MLOAD SWAP5 POP SWAP5 POP SWAP5 POP DUP5 DUP5 DUP5 PUSH1 0x40 MLOAD DUP1 DUP5 DUP2 MSTORE PUSH1 0x20 ADD DUP4 ISZERO ISZERO ISZERO ISZERO PUSH32 0x100000000000000000000000000000000000000000000000000000000000000 MUL DUP2 MSTORE PUSH1 0x1 ADD DUP3 PUSH1 0x0 NOT AND PUSH1 0x0 NOT AND DUP2 MSTORE PUSH1 0x20 ADD SWAP4 POP POP POP POP PUSH1 0x40 MLOAD DUP1 SWAP2 SUB SWAP1 KECCAK256 PUSH1 0x0 NOT AND DUP7 PUSH1 0x0 ADD SLOAD PUSH1 0x0 NOT AND EQ ISZERO ISZERO PUSH2 0x838 JUMPI PUSH2 0x880 JUMP JUMPDEST DUP6 PUSH1 0x1 ADD SLOAD DUP9 ADD SWAP8 POP DUP4 ISZERO DUP1 ISZERO PUSH2 0x853 JUMPI POP DUP5 DUP7 PUSH1 0x1 ADD SLOAD LT ISZERO JUMPDEST ISZERO PUSH2 0x86E JUMPI PUSH2 0x862 CALLER DUP7 PUSH2 0x987 JUMP JUMPDEST ISZERO PUSH2 0x86D JUMPI DUP5 DUP9 SUB SWAP8 POP JUMPDEST JUMPDEST PUSH1 0x0 PUSH1 0x1 MUL DUP7 PUSH1 0x0 ADD DUP2 PUSH1 0x0 NOT AND SWAP1 SSTORE POP JUMPDEST DUP7 DUP1 PUSH1 0x1 ADD SWAP8 POP POP PUSH2 0x719 JUMP JUMPDEST CALLER PUSH20 0xFFFFFFFFFFFFFFFFFFFFFFFFFFFFFFFFFFFFFFFF AND PUSH2 0x8FC DUP10 SWAP1 DUP2 ISZERO MUL SWAP1 PUSH1 0x40 MLOAD PUSH1 0x0 PUSH1 0x40 MLOAD DUP1 DUP4 SUB DUP2 DUP6 DUP9 DUP9 CALL SWAP4 POP POP POP POP ISZERO DUP1 ISZERO PUSH2 0x8D3 JUMPI RETURNDATASIZE PUSH1 0x0 DUP1 RETURNDATACOPY RETURNDATASIZE PUSH1 0x0 REVERT JUMPDEST POP POP POP POP POP POP POP POP POP POP POP POP POP JUMP JUMPDEST PUSH1 0x1 SLOAD DUP1 TIMESTAMP LT ISZERO ISZERO PUSH2 0x8F3 JUMPI PUSH1 0x0 DUP1 REVERT JUMPDEST PUSH2 0x94F DUP5 DUP5 DUP5 PUSH1 0x40 MLOAD DUP1 DUP5 DUP2 MSTORE PUSH1 0x20 ADD DUP4 ISZERO ISZERO ISZERO ISZERO PUSH32 0x100000000000000000000000000000000000000000000000000000000000000 MUL DUP2 MSTORE PUSH1 0x1 ADD DUP3 PUSH1 0x0 NOT AND PUSH1 0x0 NOT AND DUP2 MSTORE PUSH1 0x20 ADD SWAP4 POP POP POP POP PUSH1 0x40 MLOAD DUP1 SWAP2 SUB SWAP1 KECCAK256 PUSH2 0xABA JUMP JUMPDEST POP POP POP POP JUMP JUMPDEST PUSH1 0x5 PUSH1 0x0 SWAP1 SLOAD SWAP1 PUSH2 0x100 EXP SWAP1 DIV PUSH20 0xFFFFFFFFFFFFFFFFFFFFFFFFFFFFFFFFFFFFFFFF AND DUP2 JUMP JUMPDEST PUSH1 0x2 SLOAD DUP2 JUMP JUMPDEST PUSH1 0x6 SLOAD DUP2 JUMP JUMPDEST PUSH1 0x0 PUSH1 0x6 SLOAD DUP3 GT ISZERO ISZERO PUSH2 0x99D JUMPI PUSH1 0x0 SWAP1 POP PUSH2 0xAB4 JUMP JUMPDEST PUSH1 0x0 PUSH20 0xFFFFFFFFFFFFFFFFFFFFFFFFFFFFFFFFFFFFFFFF AND PUSH1 0x5 PUSH1 0x0 SWAP1 SLOAD SWAP1 PUSH2 0x100 EXP SWAP1 DIV PUSH20 0xFFFFFFFFFFFFFFFFFFFFFFFFFFFFFFFFFFFFFFFF AND PUSH20 0xFFFFFFFFFFFFFFFFFFFFFFFFFFFFFFFFFFFFFFFF AND EQ ISZERO ISZERO PUSH2 0xA67 JUMPI PUSH1 0x6 SLOAD PUSH1 0x7 PUSH1 0x0 PUSH1 0x5 PUSH1 0x0 SWAP1 SLOAD SWAP1 PUSH2 0x100 EXP SWAP1 DIV PUSH20 0xFFFFFFFFFFFFFFFFFFFFFFFFFFFFFFFFFFFFFFFF AND PUSH20 0xFFFFFFFFFFFFFFFFFFFFFFFFFFFFFFFFFFFFFFFF AND PUSH20 0xFFFFFFFFFFFFFFFFFFFFFFFFFFFFFFFFFFFFFFFF AND DUP2 MSTORE PUSH1 0x20 ADD SWAP1 DUP2 MSTORE PUSH1 0x20 ADD PUSH1 0x0 KECCAK256 PUSH1 0x0 DUP3 DUP3 SLOAD ADD SWAP3 POP POP DUP2 SWAP1 SSTORE POP JUMPDEST DUP2 PUSH1 0x6 DUP2 SWAP1 SSTORE POP DUP3 PUSH1 0x5 PUSH1 0x0 PUSH2 0x100 EXP DUP2 SLOAD DUP2 PUSH20 0xFFFFFFFFFFFFFFFFFFFFFFFFFFFFFFFFFFFFFFFF MUL NOT AND SWAP1 DUP4 PUSH20 0xFFFFFFFFFFFFFFFFFFFFFFFFFFFFFFFFFFFFFFFF AND MUL OR SWAP1 SSTORE POP PUSH1 0x1 SWAP1 POP JUMPDEST SWAP3 SWAP2 POP POP JUMP JUMPDEST PUSH1 0x4 PUSH1 0x0 CALLER PUSH20 0xFFFFFFFFFFFFFFFFFFFFFFFFFFFFFFFFFFFFFFFF AND PUSH20 0xFFFFFFFFFFFFFFFFFFFFFFFFFFFFFFFFFFFFFFFF AND DUP2 MSTORE PUSH1 0x20 ADD SWAP1 DUP2 MSTORE PUSH1 0x20 ADD PUSH1 0x0 KECCAK256 PUSH1 0x40 DUP1 MLOAD SWAP1 DUP2 ADD PUSH1 0x40 MSTORE DUP1 DUP4 PUSH1 0x0 NOT AND DUP2 MSTORE PUSH1 0x20 ADD CALLVALUE DUP2 MSTORE POP SWAP1 DUP1 PUSH1 0x1 DUP2 SLOAD ADD DUP1 DUP3 SSTORE DUP1 SWAP2 POP POP SWAP1 PUSH1 0x1 DUP3 SUB SWAP1 PUSH1 0x0 MSTORE PUSH1 0x20 PUSH1 0x0 KECCAK256 SWAP1 PUSH1 0x2 MUL ADD PUSH1 0x0 SWAP1 SWAP2 SWAP3 SWAP1 SWAP2 SWAP1 SWAP2 POP PUSH1 0x0 DUP3 ADD MLOAD DUP2 PUSH1 0x0 ADD SWAP1 PUSH1 0x0 NOT AND SWAP1 SSTORE PUSH1 0x20 DUP3 ADD MLOAD DUP2 PUSH1 0x1 ADD SSTORE POP POP POP POP JUMP STOP LOG1 PUSH6 0x627A7A723058 KECCAK256 PUSH24 0x831C2D0FD404C2277392929E6A0AD0EC76EC134D008F2F0 CODECOPY PUSH2 0x76BF REVERT DUP9 CODECOPY STOP 0x29 "
				},
				"gasEstimates": {
					"creation": {
						"codeDepositCost": "590600",
						"executionCost": "61281",
						"totalCost": "651881"
					},
					"external": {
						"auctionEnd()": "infinite",
						"beneficiary()": "508",
						"bid(uint256,bool,bytes32)": "61393",
						"biddingEnd()": "504",
						"bids(address,uint256)": "1122",
						"ended()": "464",
						"highestBid()": "614",
						"highestBidder()": "618",
						"reveal(uint256[],bool[],bytes32[])": "infinite",
						"revealEnd()": "592",
						"withdraw()": "infinite"
					},
					"internal": {
						"bidInter(bytes32)": "infinite",
						"placeBid(address,uint256)": "61583"
					}
				},
				"methodIdentifiers": {
					"auctionEnd()": "2a24f46c",
					"beneficiary()": "38af3eed",
					"bid(uint256,bool,bytes32)": "90a723b4",
					"biddingEnd()": "423b217f",
					"bids(address,uint256)": "01495c1c",
					"ended()": "12fa6feb",
					"highestBid()": "d57bde79",
					"highestBidder()": "91f90157",
					"reveal(uint256[],bool[],bytes32[])": "900f080a",
					"revealEnd()": "a6e66477",
					"withdraw()": "3ccfd60b"
				}
			},
			"userdoc": {
				"methods": {
					"auctionEnd()": {
						"notice": "结束拍卖，并把最高的出价发送给受益人"
					},
					"reveal(uint256[],bool[],bytes32[])": {
						"notice": "对于所有正确披露的无效出价以及除最高出价以外的所有出价，你都将获得退款。"
					},
					"withdraw()": {
						"notice": "取回出价（当该出价已被超越）"
					}
				}
			}
		}
	}
}