{
	"testApp/contracts/BlindAuction.sol": {
		"BlindAuction": {
			"abi": [
				{
					"constant": true,
					"inputs": [
						{
							"name": "",
							"type": "address"
						},
						{
							"name": "",
							"type": "uint256"
						}
					],
					"name": "bids",
					"outputs": [
						{
							"name": "blindedBid",
							"type": "bytes32"
						},
						{
							"name": "deposit",
							"type": "uint256"
						}
					],
					"payable": false,
					"stateMutability": "view",
					"type": "function"
				},
				{
					"constant": true,
					"inputs": [],
					"name": "ended",
					"outputs": [
						{
							"name": "",
							"type": "bool"
						}
					],
					"payable": false,
					"stateMutability": "view",
					"type": "function"
				},
				{
					"constant": false,
					"inputs": [],
					"name": "auctionEnd",
					"outputs": [],
					"payable": false,
					"stateMutability": "nonpayable",
					"type": "function"
				},
				{
					"constant": true,
					"inputs": [],
					"name": "beneficiary",
					"outputs": [
						{
							"name": "",
							"type": "address"
						}
					],
					"payable": false,
					"stateMutability": "view",
					"type": "function"
				},
				{
					"constant": false,
					"inputs": [],
					"name": "withdraw",
					"outputs": [],
					"payable": false,
					"stateMutability": "nonpayable",
					"type": "function"
				},
				{
					"constant": true,
					"inputs": [],
					"name": "biddingEnd",
					"outputs": [
						{
							"name": "",
							"type": "uint256"
						}
					],
					"payable": false,
					"stateMutability": "view",
					"type": "function"
				},
				{
					"constant": false,
					"inputs": [
						{
							"name": "_values",
							"type": "uint256[]"
						},
						{
							"name": "_fake",
							"type": "bool[]"
						},
						{
							"name": "_secret",
							"type": "bytes32[]"
						}
					],
					"name": "reveal",
					"outputs": [],
					"payable": false,
					"stateMutability": "nonpayable",
					"type": "function"
				},
				{
					"constant": true,
					"inputs": [],
					"name": "highestBidder",
					"outputs": [
						{
							"name": "",
							"type": "address"
						}
					],
					"payable": false,
					"stateMutability": "view",
					"type": "function"
				},
				{
					"constant": false,
					"inputs": [
						{
							"name": "_blindedBid",
							"type": "bytes32"
						}
					],
					"name": "bid",
					"outputs": [],
					"payable": true,
					"stateMutability": "payable",
					"type": "function"
				},
				{
					"constant": true,
					"inputs": [],
					"name": "revealEnd",
					"outputs": [
						{
							"name": "",
							"type": "uint256"
						}
					],
					"payable": false,
					"stateMutability": "view",
					"type": "function"
				},
				{
					"constant": true,
					"inputs": [],
					"name": "highestBid",
					"outputs": [
						{
							"name": "",
							"type": "uint256"
						}
					],
					"payable": false,
					"stateMutability": "view",
					"type": "function"
				},
				{
					"inputs": [
						{
							"name": "_biddingTime",
							"type": "uint256"
						},
						{
							"name": "_revealTime",
							"type": "uint256"
						},
						{
							"name": "_beneficiary",
							"type": "address"
						}
					],
					"payable": false,
					"stateMutability": "nonpayable",
					"type": "constructor"
				},
				{
					"anonymous": false,
					"inputs": [
						{
							"indexed": false,
							"name": "winner",
							"type": "address"
						},
						{
							"indexed": false,
							"name": "highestBid",
							"type": "uint256"
						}
					],
					"name": "AuctionEnded",
					"type": "event"
				}
			],
			"devdoc": {
				"methods": {}
			},
			"evm": {
				"assembly": "    /* \"testApp/contracts/BlindAuction.sol\":35:4568  contract BlindAuction {\r... */\n  mstore(0x40, 0x80)\n    /* \"testApp/contracts/BlindAuction.sol\":892:1138  constructor(\r... */\n  callvalue\n    /* \"--CODEGEN--\":8:17   */\n  dup1\n    /* \"--CODEGEN--\":5:7   */\n  iszero\n  tag_1\n  jumpi\n    /* \"--CODEGEN--\":30:31   */\n  0x0\n    /* \"--CODEGEN--\":27:28   */\n  dup1\n    /* \"--CODEGEN--\":20:32   */\n  revert\n    /* \"--CODEGEN--\":5:7   */\ntag_1:\n    /* \"testApp/contracts/BlindAuction.sol\":892:1138  constructor(\r... */\n  pop\n  mload(0x40)\n  0x60\n  dup1\n  bytecodeSize\n  dup4\n  codecopy\n  dup2\n  add\n  dup1\n  0x40\n  mstore\n  dup2\n  add\n  swap1\n  dup1\n  dup1\n  mload\n  swap1\n  0x20\n  add\n  swap1\n  swap3\n  swap2\n  swap1\n  dup1\n  mload\n  swap1\n  0x20\n  add\n  swap1\n  swap3\n  swap2\n  swap1\n  dup1\n  mload\n  swap1\n  0x20\n  add\n  swap1\n  swap3\n  swap2\n  swap1\n  pop\n  pop\n  pop\n    /* \"testApp/contracts/BlindAuction.sol\":1029:1041  _beneficiary */\n  dup1\n    /* \"testApp/contracts/BlindAuction.sol\":1015:1026  beneficiary */\n  0x0\n  dup1\n    /* \"testApp/contracts/BlindAuction.sol\":1015:1041  beneficiary = _beneficiary */\n  0x100\n  exp\n  dup2\n  sload\n  dup2\n  0xffffffffffffffffffffffffffffffffffffffff\n  mul\n  not\n  and\n  swap1\n  dup4\n  0xffffffffffffffffffffffffffffffffffffffff\n  and\n  mul\n  or\n  swap1\n  sstore\n  pop\n    /* \"testApp/contracts/BlindAuction.sol\":1071:1083  _biddingTime */\n  dup3\n    /* \"testApp/contracts/BlindAuction.sol\":1065:1068  now */\n  timestamp\n    /* \"testApp/contracts/BlindAuction.sol\":1065:1083  now + _biddingTime */\n  add\n    /* \"testApp/contracts/BlindAuction.sol\":1052:1062  biddingEnd */\n  0x1\n    /* \"testApp/contracts/BlindAuction.sol\":1052:1083  biddingEnd = now + _biddingTime */\n  dup2\n  swap1\n  sstore\n  pop\n    /* \"testApp/contracts/BlindAuction.sol\":1119:1130  _revealTime */\n  dup2\n    /* \"testApp/contracts/BlindAuction.sol\":1106:1116  biddingEnd */\n  sload(0x1)\n    /* \"testApp/contracts/BlindAuction.sol\":1106:1130  biddingEnd + _revealTime */\n  add\n    /* \"testApp/contracts/BlindAuction.sol\":1094:1103  revealEnd */\n  0x2\n    /* \"testApp/contracts/BlindAuction.sol\":1094:1130  revealEnd = biddingEnd + _revealTime */\n  dup2\n  swap1\n  sstore\n  pop\n    /* \"testApp/contracts/BlindAuction.sol\":892:1138  constructor(\r... */\n  pop\n  pop\n  pop\n    /* \"testApp/contracts/BlindAuction.sol\":35:4568  contract BlindAuction {\r... */\n  dataSize(sub_0)\n  dup1\n  dataOffset(sub_0)\n  0x0\n  codecopy\n  0x0\n  return\nstop\n\nsub_0: assembly {\n        /* \"testApp/contracts/BlindAuction.sol\":35:4568  contract BlindAuction {\r... */\n      mstore(0x40, 0x80)\n      jumpi(tag_1, lt(calldatasize, 0x4))\n      calldataload(0x0)\n      0x100000000000000000000000000000000000000000000000000000000\n      swap1\n      div\n      0xffffffff\n      and\n      dup1\n      0x1495c1c\n      eq\n      tag_2\n      jumpi\n      dup1\n      0x12fa6feb\n      eq\n      tag_3\n      jumpi\n      dup1\n      0x2a24f46c\n      eq\n      tag_4\n      jumpi\n      dup1\n      0x38af3eed\n      eq\n      tag_5\n      jumpi\n      dup1\n      0x3ccfd60b\n      eq\n      tag_6\n      jumpi\n      dup1\n      0x423b217f\n      eq\n      tag_7\n      jumpi\n      dup1\n      0x900f080a\n      eq\n      tag_8\n      jumpi\n      dup1\n      0x91f90157\n      eq\n      tag_9\n      jumpi\n      dup1\n      0x957bb1e0\n      eq\n      tag_10\n      jumpi\n      dup1\n      0xa6e66477\n      eq\n      tag_11\n      jumpi\n      dup1\n      0xd57bde79\n      eq\n      tag_12\n      jumpi\n    tag_1:\n      0x0\n      dup1\n      revert\n        /* \"testApp/contracts/BlindAuction.sol\":259:296  mapping(address => Bid[]) public bids */\n    tag_2:\n      callvalue\n        /* \"--CODEGEN--\":8:17   */\n      dup1\n        /* \"--CODEGEN--\":5:7   */\n      iszero\n      tag_13\n      jumpi\n        /* \"--CODEGEN--\":30:31   */\n      0x0\n        /* \"--CODEGEN--\":27:28   */\n      dup1\n        /* \"--CODEGEN--\":20:32   */\n      revert\n        /* \"--CODEGEN--\":5:7   */\n    tag_13:\n        /* \"testApp/contracts/BlindAuction.sol\":259:296  mapping(address => Bid[]) public bids */\n      pop\n      tag_14\n      0x4\n      dup1\n      calldatasize\n      sub\n      dup2\n      add\n      swap1\n      dup1\n      dup1\n      calldataload\n      0xffffffffffffffffffffffffffffffffffffffff\n      and\n      swap1\n      0x20\n      add\n      swap1\n      swap3\n      swap2\n      swap1\n      dup1\n      calldataload\n      swap1\n      0x20\n      add\n      swap1\n      swap3\n      swap2\n      swap1\n      pop\n      pop\n      pop\n      jump(tag_15)\n    tag_14:\n      mload(0x40)\n      dup1\n      dup4\n      not(0x0)\n      and\n      not(0x0)\n      and\n      dup2\n      mstore\n      0x20\n      add\n      dup3\n      dup2\n      mstore\n      0x20\n      add\n      swap3\n      pop\n      pop\n      pop\n      mload(0x40)\n      dup1\n      swap2\n      sub\n      swap1\n      return\n        /* \"testApp/contracts/BlindAuction.sol\":233:250  bool public ended */\n    tag_3:\n      callvalue\n        /* \"--CODEGEN--\":8:17   */\n      dup1\n        /* \"--CODEGEN--\":5:7   */\n      iszero\n      tag_16\n      jumpi\n        /* \"--CODEGEN--\":30:31   */\n      0x0\n        /* \"--CODEGEN--\":27:28   */\n      dup1\n        /* \"--CODEGEN--\":20:32   */\n      revert\n        /* \"--CODEGEN--\":5:7   */\n    tag_16:\n        /* \"testApp/contracts/BlindAuction.sol\":233:250  bool public ended */\n      pop\n      tag_17\n      jump(tag_18)\n    tag_17:\n      mload(0x40)\n      dup1\n      dup3\n      iszero\n      iszero\n      iszero\n      iszero\n      dup2\n      mstore\n      0x20\n      add\n      swap2\n      pop\n      pop\n      mload(0x40)\n      dup1\n      swap2\n      sub\n      swap1\n      return\n        /* \"testApp/contracts/BlindAuction.sol\":4337:4565  function auctionEnd()\r... */\n    tag_4:\n      callvalue\n        /* \"--CODEGEN--\":8:17   */\n      dup1\n        /* \"--CODEGEN--\":5:7   */\n      iszero\n      tag_19\n      jumpi\n        /* \"--CODEGEN--\":30:31   */\n      0x0\n        /* \"--CODEGEN--\":27:28   */\n      dup1\n        /* \"--CODEGEN--\":20:32   */\n      revert\n        /* \"--CODEGEN--\":5:7   */\n    tag_19:\n        /* \"testApp/contracts/BlindAuction.sol\":4337:4565  function auctionEnd()\r... */\n      pop\n      tag_20\n      jump(tag_21)\n    tag_20:\n      stop\n        /* \"testApp/contracts/BlindAuction.sol\":143:169  address public beneficiary */\n    tag_5:\n      callvalue\n        /* \"--CODEGEN--\":8:17   */\n      dup1\n        /* \"--CODEGEN--\":5:7   */\n      iszero\n      tag_22\n      jumpi\n        /* \"--CODEGEN--\":30:31   */\n      0x0\n        /* \"--CODEGEN--\":27:28   */\n      dup1\n        /* \"--CODEGEN--\":20:32   */\n      revert\n        /* \"--CODEGEN--\":5:7   */\n    tag_22:\n        /* \"testApp/contracts/BlindAuction.sol\":143:169  address public beneficiary */\n      pop\n      tag_23\n      jump(tag_24)\n    tag_23:\n      mload(0x40)\n      dup1\n      dup3\n      0xffffffffffffffffffffffffffffffffffffffff\n      and\n      0xffffffffffffffffffffffffffffffffffffffff\n      and\n      dup2\n      mstore\n      0x20\n      add\n      swap2\n      pop\n      pop\n      mload(0x40)\n      dup1\n      swap2\n      sub\n      swap1\n      return\n        /* \"testApp/contracts/BlindAuction.sol\":3786:4265  function withdraw() public {\r... */\n    tag_6:\n      callvalue\n        /* \"--CODEGEN--\":8:17   */\n      dup1\n        /* \"--CODEGEN--\":5:7   */\n      iszero\n      tag_25\n      jumpi\n        /* \"--CODEGEN--\":30:31   */\n      0x0\n        /* \"--CODEGEN--\":27:28   */\n      dup1\n        /* \"--CODEGEN--\":20:32   */\n      revert\n        /* \"--CODEGEN--\":5:7   */\n    tag_25:\n        /* \"testApp/contracts/BlindAuction.sol\":3786:4265  function withdraw() public {\r... */\n      pop\n      tag_26\n      jump(tag_27)\n    tag_26:\n      stop\n        /* \"testApp/contracts/BlindAuction.sol\":176:198  uint public biddingEnd */\n    tag_7:\n      callvalue\n        /* \"--CODEGEN--\":8:17   */\n      dup1\n        /* \"--CODEGEN--\":5:7   */\n      iszero\n      tag_28\n      jumpi\n        /* \"--CODEGEN--\":30:31   */\n      0x0\n        /* \"--CODEGEN--\":27:28   */\n      dup1\n        /* \"--CODEGEN--\":20:32   */\n      revert\n        /* \"--CODEGEN--\":5:7   */\n    tag_28:\n        /* \"testApp/contracts/BlindAuction.sol\":176:198  uint public biddingEnd */\n      pop\n      tag_29\n      jump(tag_30)\n    tag_29:\n      mload(0x40)\n      dup1\n      dup3\n      dup2\n      mstore\n      0x20\n      add\n      swap2\n      pop\n      pop\n      mload(0x40)\n      dup1\n      swap2\n      sub\n      swap1\n      return\n        /* \"testApp/contracts/BlindAuction.sol\":2055:3193  function reveal(\r... */\n    tag_8:\n      callvalue\n        /* \"--CODEGEN--\":8:17   */\n      dup1\n        /* \"--CODEGEN--\":5:7   */\n      iszero\n      tag_31\n      jumpi\n        /* \"--CODEGEN--\":30:31   */\n      0x0\n        /* \"--CODEGEN--\":27:28   */\n      dup1\n        /* \"--CODEGEN--\":20:32   */\n      revert\n        /* \"--CODEGEN--\":5:7   */\n    tag_31:\n        /* \"testApp/contracts/BlindAuction.sol\":2055:3193  function reveal(\r... */\n      pop\n      tag_32\n      0x4\n      dup1\n      calldatasize\n      sub\n      dup2\n      add\n      swap1\n      dup1\n      dup1\n      calldataload\n      swap1\n      0x20\n      add\n      swap1\n      dup3\n      add\n      dup1\n      calldataload\n      swap1\n      0x20\n      add\n      swap1\n      dup1\n      dup1\n      0x20\n      mul\n      0x20\n      add\n      mload(0x40)\n      swap1\n      dup2\n      add\n      0x40\n      mstore\n      dup1\n      swap4\n      swap3\n      swap2\n      swap1\n      dup2\n      dup2\n      mstore\n      0x20\n      add\n      dup4\n      dup4\n      0x20\n      mul\n      dup1\n      dup3\n      dup5\n      calldatacopy\n      dup3\n      add\n      swap2\n      pop\n      pop\n      pop\n      pop\n      pop\n      pop\n      swap2\n      swap3\n      swap2\n      swap3\n      swap1\n      dup1\n      calldataload\n      swap1\n      0x20\n      add\n      swap1\n      dup3\n      add\n      dup1\n      calldataload\n      swap1\n      0x20\n      add\n      swap1\n      dup1\n      dup1\n      0x20\n      mul\n      0x20\n      add\n      mload(0x40)\n      swap1\n      dup2\n      add\n      0x40\n      mstore\n      dup1\n      swap4\n      swap3\n      swap2\n      swap1\n      dup2\n      dup2\n      mstore\n      0x20\n      add\n      dup4\n      dup4\n      0x20\n      mul\n      dup1\n      dup3\n      dup5\n      calldatacopy\n      dup3\n      add\n      swap2\n      pop\n      pop\n      pop\n      pop\n      pop\n      pop\n      swap2\n      swap3\n      swap2\n      swap3\n      swap1\n      dup1\n      calldataload\n      swap1\n      0x20\n      add\n      swap1\n      dup3\n      add\n      dup1\n      calldataload\n      swap1\n      0x20\n      add\n      swap1\n      dup1\n      dup1\n      0x20\n      mul\n      0x20\n      add\n      mload(0x40)\n      swap1\n      dup2\n      add\n      0x40\n      mstore\n      dup1\n      swap4\n      swap3\n      swap2\n      swap1\n      dup2\n      dup2\n      mstore\n      0x20\n      add\n      dup4\n      dup4\n      0x20\n      mul\n      dup1\n      dup3\n      dup5\n      calldatacopy\n      dup3\n      add\n      swap2\n      pop\n      pop\n      pop\n      pop\n      pop\n      pop\n      swap2\n      swap3\n      swap2\n      swap3\n      swap1\n      pop\n      pop\n      pop\n      jump(tag_33)\n    tag_32:\n      stop\n        /* \"testApp/contracts/BlindAuction.sol\":305:333  address public highestBidder */\n    tag_9:\n      callvalue\n        /* \"--CODEGEN--\":8:17   */\n      dup1\n        /* \"--CODEGEN--\":5:7   */\n      iszero\n      tag_34\n      jumpi\n        /* \"--CODEGEN--\":30:31   */\n      0x0\n        /* \"--CODEGEN--\":27:28   */\n      dup1\n        /* \"--CODEGEN--\":20:32   */\n      revert\n        /* \"--CODEGEN--\":5:7   */\n    tag_34:\n        /* \"testApp/contracts/BlindAuction.sol\":305:333  address public highestBidder */\n      pop\n      tag_35\n      jump(tag_36)\n    tag_35:\n      mload(0x40)\n      dup1\n      dup3\n      0xffffffffffffffffffffffffffffffffffffffff\n      and\n      0xffffffffffffffffffffffffffffffffffffffff\n      and\n      dup2\n      mstore\n      0x20\n      add\n      swap2\n      pop\n      pop\n      mload(0x40)\n      dup1\n      swap2\n      sub\n      swap1\n      return\n        /* \"testApp/contracts/BlindAuction.sol\":1653:1886  function bid(bytes32 _blindedBid)\r... */\n    tag_10:\n      tag_37\n      0x4\n      dup1\n      calldatasize\n      sub\n      dup2\n      add\n      swap1\n      dup1\n      dup1\n      calldataload\n      not(0x0)\n      and\n      swap1\n      0x20\n      add\n      swap1\n      swap3\n      swap2\n      swap1\n      pop\n      pop\n      pop\n      jump(tag_38)\n    tag_37:\n      stop\n        /* \"testApp/contracts/BlindAuction.sol\":205:226  uint public revealEnd */\n    tag_11:\n      callvalue\n        /* \"--CODEGEN--\":8:17   */\n      dup1\n        /* \"--CODEGEN--\":5:7   */\n      iszero\n      tag_39\n      jumpi\n        /* \"--CODEGEN--\":30:31   */\n      0x0\n        /* \"--CODEGEN--\":27:28   */\n      dup1\n        /* \"--CODEGEN--\":20:32   */\n      revert\n        /* \"--CODEGEN--\":5:7   */\n    tag_39:\n        /* \"testApp/contracts/BlindAuction.sol\":205:226  uint public revealEnd */\n      pop\n      tag_40\n      jump(tag_41)\n    tag_40:\n      mload(0x40)\n      dup1\n      dup3\n      dup2\n      mstore\n      0x20\n      add\n      swap2\n      pop\n      pop\n      mload(0x40)\n      dup1\n      swap2\n      sub\n      swap1\n      return\n        /* \"testApp/contracts/BlindAuction.sol\":340:362  uint public highestBid */\n    tag_12:\n      callvalue\n        /* \"--CODEGEN--\":8:17   */\n      dup1\n        /* \"--CODEGEN--\":5:7   */\n      iszero\n      tag_42\n      jumpi\n        /* \"--CODEGEN--\":30:31   */\n      0x0\n        /* \"--CODEGEN--\":27:28   */\n      dup1\n        /* \"--CODEGEN--\":20:32   */\n      revert\n        /* \"--CODEGEN--\":5:7   */\n    tag_42:\n        /* \"testApp/contracts/BlindAuction.sol\":340:362  uint public highestBid */\n      pop\n      tag_43\n      jump(tag_44)\n    tag_43:\n      mload(0x40)\n      dup1\n      dup3\n      dup2\n      mstore\n      0x20\n      add\n      swap2\n      pop\n      pop\n      mload(0x40)\n      dup1\n      swap2\n      sub\n      swap1\n      return\n        /* \"testApp/contracts/BlindAuction.sol\":259:296  mapping(address => Bid[]) public bids */\n    tag_15:\n      mstore(0x20, 0x4)\n      dup2\n      0x0\n      mstore\n      keccak256(0x0, 0x40)\n      dup2\n      dup2\n      sload\n      dup2\n      lt\n      iszero\n      iszero\n      tag_45\n      jumpi\n      invalid\n    tag_45:\n      swap1\n      0x0\n      mstore\n      keccak256(0x0, 0x20)\n      swap1\n      0x2\n      mul\n      add\n      0x0\n      swap2\n      pop\n      swap2\n      pop\n      pop\n      dup1\n      0x0\n      add\n      sload\n      swap1\n      dup1\n      0x1\n      add\n      sload\n      swap1\n      pop\n      dup3\n      jump\t// out\n        /* \"testApp/contracts/BlindAuction.sol\":233:250  bool public ended */\n    tag_18:\n      0x3\n      0x0\n      swap1\n      sload\n      swap1\n      0x100\n      exp\n      swap1\n      div\n      0xff\n      and\n      dup2\n      jump\t// out\n        /* \"testApp/contracts/BlindAuction.sol\":4337:4565  function auctionEnd()\r... */\n    tag_21:\n        /* \"testApp/contracts/BlindAuction.sol\":4394:4403  revealEnd */\n      sload(0x2)\n        /* \"testApp/contracts/BlindAuction.sol\":872:877  _time */\n      dup1\n        /* \"testApp/contracts/BlindAuction.sol\":866:869  now */\n      timestamp\n        /* \"testApp/contracts/BlindAuction.sol\":866:877  now > _time */\n      gt\n        /* \"testApp/contracts/BlindAuction.sol\":858:878  require(now > _time) */\n      iszero\n      iszero\n      tag_48\n      jumpi\n      0x0\n      dup1\n      revert\n    tag_48:\n        /* \"testApp/contracts/BlindAuction.sol\":4430:4435  ended */\n      0x3\n      0x0\n      swap1\n      sload\n      swap1\n      0x100\n      exp\n      swap1\n      div\n      0xff\n      and\n        /* \"testApp/contracts/BlindAuction.sol\":4429:4435  !ended */\n      iszero\n        /* \"testApp/contracts/BlindAuction.sol\":4421:4436  require(!ended) */\n      iszero\n      iszero\n      tag_50\n      jumpi\n      0x0\n      dup1\n      revert\n    tag_50:\n        /* \"testApp/contracts/BlindAuction.sol\":4452:4491  AuctionEnded(highestBidder, highestBid) */\n      0xdaec4582d5d9595688c8c98545fdd1c696d41c6aeaeb636737e84ed2f5c00eda\n        /* \"testApp/contracts/BlindAuction.sol\":4465:4478  highestBidder */\n      0x5\n      0x0\n      swap1\n      sload\n      swap1\n      0x100\n      exp\n      swap1\n      div\n      0xffffffffffffffffffffffffffffffffffffffff\n      and\n        /* \"testApp/contracts/BlindAuction.sol\":4480:4490  highestBid */\n      sload(0x6)\n        /* \"testApp/contracts/BlindAuction.sol\":4452:4491  AuctionEnded(highestBidder, highestBid) */\n      mload(0x40)\n      dup1\n      dup4\n      0xffffffffffffffffffffffffffffffffffffffff\n      and\n      0xffffffffffffffffffffffffffffffffffffffff\n      and\n      dup2\n      mstore\n      0x20\n      add\n      dup3\n      dup2\n      mstore\n      0x20\n      add\n      swap3\n      pop\n      pop\n      pop\n      mload(0x40)\n      dup1\n      swap2\n      sub\n      swap1\n      log1\n        /* \"testApp/contracts/BlindAuction.sol\":4510:4514  true */\n      0x1\n        /* \"testApp/contracts/BlindAuction.sol\":4502:4507  ended */\n      0x3\n      0x0\n        /* \"testApp/contracts/BlindAuction.sol\":4502:4514  ended = true */\n      0x100\n      exp\n      dup2\n      sload\n      dup2\n      0xff\n      mul\n      not\n      and\n      swap1\n      dup4\n      iszero\n      iszero\n      mul\n      or\n      swap1\n      sstore\n      pop\n        /* \"testApp/contracts/BlindAuction.sol\":4525:4536  beneficiary */\n      0x0\n      dup1\n      swap1\n      sload\n      swap1\n      0x100\n      exp\n      swap1\n      div\n      0xffffffffffffffffffffffffffffffffffffffff\n      and\n        /* \"testApp/contracts/BlindAuction.sol\":4525:4545  beneficiary.transfer */\n      0xffffffffffffffffffffffffffffffffffffffff\n      and\n        /* \"testApp/contracts/BlindAuction.sol\":4525:4557  beneficiary.transfer(highestBid) */\n      0x8fc\n        /* \"testApp/contracts/BlindAuction.sol\":4546:4556  highestBid */\n      sload(0x6)\n        /* \"testApp/contracts/BlindAuction.sol\":4525:4557  beneficiary.transfer(highestBid) */\n      swap1\n      dup2\n      iszero\n      mul\n      swap1\n      mload(0x40)\n      0x0\n      mload(0x40)\n      dup1\n      dup4\n      sub\n      dup2\n      dup6\n      dup9\n      dup9\n      call\n      swap4\n      pop\n      pop\n      pop\n      pop\n      iszero\n        /* \"--CODEGEN--\":8:17   */\n      dup1\n        /* \"--CODEGEN--\":5:7   */\n      iszero\n      tag_51\n      jumpi\n        /* \"--CODEGEN--\":45:61   */\n      returndatasize\n        /* \"--CODEGEN--\":42:43   */\n      0x0\n        /* \"--CODEGEN--\":39:40   */\n      dup1\n        /* \"--CODEGEN--\":24:62   */\n      returndatacopy\n        /* \"--CODEGEN--\":77:93   */\n      returndatasize\n        /* \"--CODEGEN--\":74:75   */\n      0x0\n        /* \"--CODEGEN--\":67:94   */\n      revert\n        /* \"--CODEGEN--\":5:7   */\n    tag_51:\n        /* \"testApp/contracts/BlindAuction.sol\":4525:4557  beneficiary.transfer(highestBid) */\n      pop\n        /* \"testApp/contracts/BlindAuction.sol\":4337:4565  function auctionEnd()\r... */\n      pop\n      jump\t// out\n        /* \"testApp/contracts/BlindAuction.sol\":143:169  address public beneficiary */\n    tag_24:\n      0x0\n      dup1\n      swap1\n      sload\n      swap1\n      0x100\n      exp\n      swap1\n      div\n      0xffffffffffffffffffffffffffffffffffffffff\n      and\n      dup2\n      jump\t// out\n        /* \"testApp/contracts/BlindAuction.sol\":3786:4265  function withdraw() public {\r... */\n    tag_27:\n        /* \"testApp/contracts/BlindAuction.sol\":3824:3835  uint amount */\n      0x0\n        /* \"testApp/contracts/BlindAuction.sol\":3838:3852  pendingReturns */\n      0x7\n        /* \"testApp/contracts/BlindAuction.sol\":3838:3864  pendingReturns[msg.sender] */\n      0x0\n        /* \"testApp/contracts/BlindAuction.sol\":3853:3863  msg.sender */\n      caller\n        /* \"testApp/contracts/BlindAuction.sol\":3838:3864  pendingReturns[msg.sender] */\n      0xffffffffffffffffffffffffffffffffffffffff\n      and\n      0xffffffffffffffffffffffffffffffffffffffff\n      and\n      dup2\n      mstore\n      0x20\n      add\n      swap1\n      dup2\n      mstore\n      0x20\n      add\n      0x0\n      keccak256\n      sload\n        /* \"testApp/contracts/BlindAuction.sol\":3824:3864  uint amount = pendingReturns[msg.sender] */\n      swap1\n      pop\n        /* \"testApp/contracts/BlindAuction.sol\":3888:3889  0 */\n      0x0\n        /* \"testApp/contracts/BlindAuction.sol\":3879:3885  amount */\n      dup2\n        /* \"testApp/contracts/BlindAuction.sol\":3879:3889  amount > 0 */\n      gt\n        /* \"testApp/contracts/BlindAuction.sol\":3875:4258  if (amount > 0) {\r... */\n      iszero\n      tag_53\n      jumpi\n        /* \"testApp/contracts/BlindAuction.sol\":4201:4202  0 */\n      0x0\n        /* \"testApp/contracts/BlindAuction.sol\":4172:4186  pendingReturns */\n      0x7\n        /* \"testApp/contracts/BlindAuction.sol\":4172:4198  pendingReturns[msg.sender] */\n      0x0\n        /* \"testApp/contracts/BlindAuction.sol\":4187:4197  msg.sender */\n      caller\n        /* \"testApp/contracts/BlindAuction.sol\":4172:4198  pendingReturns[msg.sender] */\n      0xffffffffffffffffffffffffffffffffffffffff\n      and\n      0xffffffffffffffffffffffffffffffffffffffff\n      and\n      dup2\n      mstore\n      0x20\n      add\n      swap1\n      dup2\n      mstore\n      0x20\n      add\n      0x0\n      keccak256\n        /* \"testApp/contracts/BlindAuction.sol\":4172:4202  pendingReturns[msg.sender] = 0 */\n      dup2\n      swap1\n      sstore\n      pop\n        /* \"testApp/contracts/BlindAuction.sol\":4219:4229  msg.sender */\n      caller\n        /* \"testApp/contracts/BlindAuction.sol\":4219:4238  msg.sender.transfer */\n      0xffffffffffffffffffffffffffffffffffffffff\n      and\n        /* \"testApp/contracts/BlindAuction.sol\":4219:4246  msg.sender.transfer(amount) */\n      0x8fc\n        /* \"testApp/contracts/BlindAuction.sol\":4239:4245  amount */\n      dup3\n        /* \"testApp/contracts/BlindAuction.sol\":4219:4246  msg.sender.transfer(amount) */\n      swap1\n      dup2\n      iszero\n      mul\n      swap1\n      mload(0x40)\n      0x0\n      mload(0x40)\n      dup1\n      dup4\n      sub\n      dup2\n      dup6\n      dup9\n      dup9\n      call\n      swap4\n      pop\n      pop\n      pop\n      pop\n      iszero\n        /* \"--CODEGEN--\":8:17   */\n      dup1\n        /* \"--CODEGEN--\":5:7   */\n      iszero\n      tag_54\n      jumpi\n        /* \"--CODEGEN--\":45:61   */\n      returndatasize\n        /* \"--CODEGEN--\":42:43   */\n      0x0\n        /* \"--CODEGEN--\":39:40   */\n      dup1\n        /* \"--CODEGEN--\":24:62   */\n      returndatacopy\n        /* \"--CODEGEN--\":77:93   */\n      returndatasize\n        /* \"--CODEGEN--\":74:75   */\n      0x0\n        /* \"--CODEGEN--\":67:94   */\n      revert\n        /* \"--CODEGEN--\":5:7   */\n    tag_54:\n        /* \"testApp/contracts/BlindAuction.sol\":4219:4246  msg.sender.transfer(amount) */\n      pop\n        /* \"testApp/contracts/BlindAuction.sol\":3875:4258  if (amount > 0) {\r... */\n    tag_53:\n        /* \"testApp/contracts/BlindAuction.sol\":3786:4265  function withdraw() public {\r... */\n      pop\n      jump\t// out\n        /* \"testApp/contracts/BlindAuction.sol\":176:198  uint public biddingEnd */\n    tag_30:\n      sload(0x1)\n      dup2\n      jump\t// out\n        /* \"testApp/contracts/BlindAuction.sol\":2055:3193  function reveal(\r... */\n    tag_33:\n        /* \"testApp/contracts/BlindAuction.sol\":2248:2259  uint length */\n      0x0\n        /* \"testApp/contracts/BlindAuction.sol\":2428:2439  uint refund */\n      dup1\n        /* \"testApp/contracts/BlindAuction.sol\":2455:2461  uint i */\n      0x0\n        /* \"testApp/contracts/BlindAuction.sol\":2499:2514  Bid storage bid */\n      dup1\n        /* \"testApp/contracts/BlindAuction.sol\":2552:2562  uint value */\n      0x0\n        /* \"testApp/contracts/BlindAuction.sol\":2564:2573  bool fake */\n      dup1\n        /* \"testApp/contracts/BlindAuction.sol\":2575:2589  bytes32 secret */\n      0x0\n        /* \"testApp/contracts/BlindAuction.sol\":2189:2199  biddingEnd */\n      sload(0x1)\n        /* \"testApp/contracts/BlindAuction.sol\":872:877  _time */\n      dup1\n        /* \"testApp/contracts/BlindAuction.sol\":866:869  now */\n      timestamp\n        /* \"testApp/contracts/BlindAuction.sol\":866:877  now > _time */\n      gt\n        /* \"testApp/contracts/BlindAuction.sol\":858:878  require(now > _time) */\n      iszero\n      iszero\n      tag_56\n      jumpi\n      0x0\n      dup1\n      revert\n    tag_56:\n        /* \"testApp/contracts/BlindAuction.sol\":2221:2230  revealEnd */\n      sload(0x2)\n        /* \"testApp/contracts/BlindAuction.sol\":807:812  _time */\n      dup1\n        /* \"testApp/contracts/BlindAuction.sol\":801:804  now */\n      timestamp\n        /* \"testApp/contracts/BlindAuction.sol\":801:812  now < _time */\n      lt\n        /* \"testApp/contracts/BlindAuction.sol\":793:813  require(now < _time) */\n      iszero\n      iszero\n      tag_58\n      jumpi\n      0x0\n      dup1\n      revert\n    tag_58:\n        /* \"testApp/contracts/BlindAuction.sol\":2262:2266  bids */\n      0x4\n        /* \"testApp/contracts/BlindAuction.sol\":2262:2278  bids[msg.sender] */\n      0x0\n        /* \"testApp/contracts/BlindAuction.sol\":2267:2277  msg.sender */\n      caller\n        /* \"testApp/contracts/BlindAuction.sol\":2262:2278  bids[msg.sender] */\n      0xffffffffffffffffffffffffffffffffffffffff\n      and\n      0xffffffffffffffffffffffffffffffffffffffff\n      and\n      dup2\n      mstore\n      0x20\n      add\n      swap1\n      dup2\n      mstore\n      0x20\n      add\n      0x0\n      keccak256\n        /* \"testApp/contracts/BlindAuction.sol\":2262:2285  bids[msg.sender].length */\n      dup1\n      sload\n      swap1\n      pop\n        /* \"testApp/contracts/BlindAuction.sol\":2248:2285  uint length = bids[msg.sender].length */\n      swap9\n      pop\n        /* \"testApp/contracts/BlindAuction.sol\":2322:2328  length */\n      dup9\n        /* \"testApp/contracts/BlindAuction.sol\":2304:2311  _values */\n      dup13\n        /* \"testApp/contracts/BlindAuction.sol\":2304:2318  _values.length */\n      mload\n        /* \"testApp/contracts/BlindAuction.sol\":2304:2328  _values.length == length */\n      eq\n        /* \"testApp/contracts/BlindAuction.sol\":2296:2329  require(_values.length == length) */\n      iszero\n      iszero\n      tag_60\n      jumpi\n      0x0\n      dup1\n      revert\n    tag_60:\n        /* \"testApp/contracts/BlindAuction.sol\":2364:2370  length */\n      dup9\n        /* \"testApp/contracts/BlindAuction.sol\":2348:2353  _fake */\n      dup12\n        /* \"testApp/contracts/BlindAuction.sol\":2348:2360  _fake.length */\n      mload\n        /* \"testApp/contracts/BlindAuction.sol\":2348:2370  _fake.length == length */\n      eq\n        /* \"testApp/contracts/BlindAuction.sol\":2340:2371  require(_fake.length == length) */\n      iszero\n      iszero\n      tag_61\n      jumpi\n      0x0\n      dup1\n      revert\n    tag_61:\n        /* \"testApp/contracts/BlindAuction.sol\":2408:2414  length */\n      dup9\n        /* \"testApp/contracts/BlindAuction.sol\":2390:2397  _secret */\n      dup11\n        /* \"testApp/contracts/BlindAuction.sol\":2390:2404  _secret.length */\n      mload\n        /* \"testApp/contracts/BlindAuction.sol\":2390:2414  _secret.length == length */\n      eq\n        /* \"testApp/contracts/BlindAuction.sol\":2382:2415  require(_secret.length == length) */\n      iszero\n      iszero\n      tag_62\n      jumpi\n      0x0\n      dup1\n      revert\n    tag_62:\n        /* \"testApp/contracts/BlindAuction.sol\":2464:2465  0 */\n      0x0\n        /* \"testApp/contracts/BlindAuction.sol\":2455:2465  uint i = 0 */\n      swap7\n      pop\n        /* \"testApp/contracts/BlindAuction.sol\":2450:3148  for (uint i = 0; i < length; i++) {\r... */\n    tag_63:\n        /* \"testApp/contracts/BlindAuction.sol\":2471:2477  length */\n      dup9\n        /* \"testApp/contracts/BlindAuction.sol\":2467:2468  i */\n      dup8\n        /* \"testApp/contracts/BlindAuction.sol\":2467:2477  i < length */\n      lt\n        /* \"testApp/contracts/BlindAuction.sol\":2450:3148  for (uint i = 0; i < length; i++) {\r... */\n      iszero\n      tag_64\n      jumpi\n        /* \"testApp/contracts/BlindAuction.sol\":2517:2521  bids */\n      0x4\n        /* \"testApp/contracts/BlindAuction.sol\":2517:2533  bids[msg.sender] */\n      0x0\n        /* \"testApp/contracts/BlindAuction.sol\":2522:2532  msg.sender */\n      caller\n        /* \"testApp/contracts/BlindAuction.sol\":2517:2533  bids[msg.sender] */\n      0xffffffffffffffffffffffffffffffffffffffff\n      and\n      0xffffffffffffffffffffffffffffffffffffffff\n      and\n      dup2\n      mstore\n      0x20\n      add\n      swap1\n      dup2\n      mstore\n      0x20\n      add\n      0x0\n      keccak256\n        /* \"testApp/contracts/BlindAuction.sol\":2534:2535  i */\n      dup8\n        /* \"testApp/contracts/BlindAuction.sol\":2517:2536  bids[msg.sender][i] */\n      dup2\n      sload\n      dup2\n      lt\n      iszero\n      iszero\n      tag_66\n      jumpi\n      invalid\n    tag_66:\n      swap1\n      0x0\n      mstore\n      keccak256(0x0, 0x20)\n      swap1\n      0x2\n      mul\n      add\n        /* \"testApp/contracts/BlindAuction.sol\":2499:2536  Bid storage bid = bids[msg.sender][i] */\n      swap6\n      pop\n        /* \"testApp/contracts/BlindAuction.sol\":2615:2622  _values */\n      dup12\n        /* \"testApp/contracts/BlindAuction.sol\":2623:2624  i */\n      dup8\n        /* \"testApp/contracts/BlindAuction.sol\":2615:2625  _values[i] */\n      dup2\n      mload\n      dup2\n      lt\n      iszero\n      iszero\n      tag_68\n      jumpi\n      invalid\n    tag_68:\n      swap1\n      0x20\n      add\n      swap1\n      0x20\n      mul\n      add\n      mload\n        /* \"testApp/contracts/BlindAuction.sol\":2627:2632  _fake */\n      dup12\n        /* \"testApp/contracts/BlindAuction.sol\":2633:2634  i */\n      dup9\n        /* \"testApp/contracts/BlindAuction.sol\":2627:2635  _fake[i] */\n      dup2\n      mload\n      dup2\n      lt\n      iszero\n      iszero\n      tag_69\n      jumpi\n      invalid\n    tag_69:\n      swap1\n      0x20\n      add\n      swap1\n      0x20\n      mul\n      add\n      mload\n        /* \"testApp/contracts/BlindAuction.sol\":2637:2644  _secret */\n      dup12\n        /* \"testApp/contracts/BlindAuction.sol\":2645:2646  i */\n      dup10\n        /* \"testApp/contracts/BlindAuction.sol\":2637:2647  _secret[i] */\n      dup2\n      mload\n      dup2\n      lt\n      iszero\n      iszero\n      tag_70\n      jumpi\n      invalid\n    tag_70:\n      swap1\n      0x20\n      add\n      swap1\n      0x20\n      mul\n      add\n      mload\n        /* \"testApp/contracts/BlindAuction.sol\":2551:2648  (uint value, bool fake, bytes32 secret) =\r... */\n      swap5\n      pop\n      swap5\n      pop\n      swap5\n      pop\n        /* \"testApp/contracts/BlindAuction.sol\":2695:2700  value */\n      dup5\n        /* \"testApp/contracts/BlindAuction.sol\":2702:2706  fake */\n      dup5\n        /* \"testApp/contracts/BlindAuction.sol\":2708:2714  secret */\n      dup5\n        /* \"testApp/contracts/BlindAuction.sol\":2685:2715  keccak256(value, fake, secret) */\n      mload(0x40)\n      dup1\n      dup5\n      dup2\n      mstore\n      0x20\n      add\n      dup4\n      iszero\n      iszero\n      iszero\n      iszero\n      0x100000000000000000000000000000000000000000000000000000000000000\n      mul\n      dup2\n      mstore\n      0x1\n      add\n      dup3\n      not(0x0)\n      and\n      not(0x0)\n      and\n      dup2\n      mstore\n      0x20\n      add\n      swap4\n      pop\n      pop\n      pop\n      pop\n      mload(0x40)\n      dup1\n      swap2\n      sub\n      swap1\n      keccak256\n        /* \"testApp/contracts/BlindAuction.sol\":2667:2715  bid.blindedBid != keccak256(value, fake, secret) */\n      not(0x0)\n      and\n        /* \"testApp/contracts/BlindAuction.sol\":2667:2670  bid */\n      dup7\n        /* \"testApp/contracts/BlindAuction.sol\":2667:2681  bid.blindedBid */\n      0x0\n      add\n      sload\n        /* \"testApp/contracts/BlindAuction.sol\":2667:2715  bid.blindedBid != keccak256(value, fake, secret) */\n      not(0x0)\n      and\n      eq\n      iszero\n        /* \"testApp/contracts/BlindAuction.sol\":2663:2841  if (bid.blindedBid != keccak256(value, fake, secret)) {\r... */\n      iszero\n      tag_71\n      jumpi\n        /* \"testApp/contracts/BlindAuction.sol\":2817:2825  continue */\n      jump(tag_65)\n        /* \"testApp/contracts/BlindAuction.sol\":2663:2841  if (bid.blindedBid != keccak256(value, fake, secret)) {\r... */\n    tag_71:\n        /* \"testApp/contracts/BlindAuction.sol\":2865:2868  bid */\n      dup6\n        /* \"testApp/contracts/BlindAuction.sol\":2865:2876  bid.deposit */\n      0x1\n      add\n      sload\n        /* \"testApp/contracts/BlindAuction.sol\":2855:2876  refund += bid.deposit */\n      dup9\n      add\n      swap8\n      pop\n        /* \"testApp/contracts/BlindAuction.sol\":2896:2900  fake */\n      dup4\n        /* \"testApp/contracts/BlindAuction.sol\":2895:2900  !fake */\n      iszero\n        /* \"testApp/contracts/BlindAuction.sol\":2895:2924  !fake && bid.deposit >= value */\n      dup1\n      iszero\n      tag_72\n      jumpi\n      pop\n        /* \"testApp/contracts/BlindAuction.sol\":2919:2924  value */\n      dup5\n        /* \"testApp/contracts/BlindAuction.sol\":2904:2907  bid */\n      dup7\n        /* \"testApp/contracts/BlindAuction.sol\":2904:2915  bid.deposit */\n      0x1\n      add\n      sload\n        /* \"testApp/contracts/BlindAuction.sol\":2904:2924  bid.deposit >= value */\n      lt\n      iszero\n        /* \"testApp/contracts/BlindAuction.sol\":2895:2924  !fake && bid.deposit >= value */\n    tag_72:\n        /* \"testApp/contracts/BlindAuction.sol\":2891:3030  if (!fake && bid.deposit >= value) {\r... */\n      iszero\n      tag_73\n      jumpi\n        /* \"testApp/contracts/BlindAuction.sol\":2949:2976  placeBid(msg.sender, value) */\n      tag_74\n        /* \"testApp/contracts/BlindAuction.sol\":2958:2968  msg.sender */\n      caller\n        /* \"testApp/contracts/BlindAuction.sol\":2970:2975  value */\n      dup7\n        /* \"testApp/contracts/BlindAuction.sol\":2949:2957  placeBid */\n      tag_75\n        /* \"testApp/contracts/BlindAuction.sol\":2949:2976  placeBid(msg.sender, value) */\n      jump\t// in\n    tag_74:\n        /* \"testApp/contracts/BlindAuction.sol\":2945:3014  if (placeBid(msg.sender, value))\r... */\n      iszero\n      tag_76\n      jumpi\n        /* \"testApp/contracts/BlindAuction.sol\":3009:3014  value */\n      dup5\n        /* \"testApp/contracts/BlindAuction.sol\":2999:3014  refund -= value */\n      dup9\n      sub\n      swap8\n      pop\n        /* \"testApp/contracts/BlindAuction.sol\":2945:3014  if (placeBid(msg.sender, value))\r... */\n    tag_76:\n        /* \"testApp/contracts/BlindAuction.sol\":2891:3030  if (!fake && bid.deposit >= value) {\r... */\n    tag_73:\n        /* \"testApp/contracts/BlindAuction.sol\":3134:3135  0 */\n      0x0\n        /* \"testApp/contracts/BlindAuction.sol\":3126:3136  bytes32(0) */\n      0x1\n      mul\n        /* \"testApp/contracts/BlindAuction.sol\":3109:3112  bid */\n      dup7\n        /* \"testApp/contracts/BlindAuction.sol\":3109:3123  bid.blindedBid */\n      0x0\n      add\n        /* \"testApp/contracts/BlindAuction.sol\":3109:3136  bid.blindedBid = bytes32(0) */\n      dup2\n      not(0x0)\n      and\n      swap1\n      sstore\n      pop\n        /* \"testApp/contracts/BlindAuction.sol\":2450:3148  for (uint i = 0; i < length; i++) {\r... */\n    tag_65:\n        /* \"testApp/contracts/BlindAuction.sol\":2479:2482  i++ */\n      dup7\n      dup1\n      0x1\n      add\n      swap8\n      pop\n      pop\n        /* \"testApp/contracts/BlindAuction.sol\":2450:3148  for (uint i = 0; i < length; i++) {\r... */\n      jump(tag_63)\n    tag_64:\n        /* \"testApp/contracts/BlindAuction.sol\":3158:3168  msg.sender */\n      caller\n        /* \"testApp/contracts/BlindAuction.sol\":3158:3177  msg.sender.transfer */\n      0xffffffffffffffffffffffffffffffffffffffff\n      and\n        /* \"testApp/contracts/BlindAuction.sol\":3158:3185  msg.sender.transfer(refund) */\n      0x8fc\n        /* \"testApp/contracts/BlindAuction.sol\":3178:3184  refund */\n      dup10\n        /* \"testApp/contracts/BlindAuction.sol\":3158:3185  msg.sender.transfer(refund) */\n      swap1\n      dup2\n      iszero\n      mul\n      swap1\n      mload(0x40)\n      0x0\n      mload(0x40)\n      dup1\n      dup4\n      sub\n      dup2\n      dup6\n      dup9\n      dup9\n      call\n      swap4\n      pop\n      pop\n      pop\n      pop\n      iszero\n        /* \"--CODEGEN--\":8:17   */\n      dup1\n        /* \"--CODEGEN--\":5:7   */\n      iszero\n      tag_77\n      jumpi\n        /* \"--CODEGEN--\":45:61   */\n      returndatasize\n        /* \"--CODEGEN--\":42:43   */\n      0x0\n        /* \"--CODEGEN--\":39:40   */\n      dup1\n        /* \"--CODEGEN--\":24:62   */\n      returndatacopy\n        /* \"--CODEGEN--\":77:93   */\n      returndatasize\n        /* \"--CODEGEN--\":74:75   */\n      0x0\n        /* \"--CODEGEN--\":67:94   */\n      revert\n        /* \"--CODEGEN--\":5:7   */\n    tag_77:\n        /* \"testApp/contracts/BlindAuction.sol\":3158:3185  msg.sender.transfer(refund) */\n      pop\n        /* \"testApp/contracts/BlindAuction.sol\":880:881  _ */\n      pop\n        /* \"testApp/contracts/BlindAuction.sol\":2055:3193  function reveal(\r... */\n      pop\n      pop\n      pop\n      pop\n      pop\n      pop\n      pop\n      pop\n      pop\n      pop\n      pop\n      jump\t// out\n        /* \"testApp/contracts/BlindAuction.sol\":305:333  address public highestBidder */\n    tag_36:\n      0x5\n      0x0\n      swap1\n      sload\n      swap1\n      0x100\n      exp\n      swap1\n      div\n      0xffffffffffffffffffffffffffffffffffffffff\n      and\n      dup2\n      jump\t// out\n        /* \"testApp/contracts/BlindAuction.sol\":1653:1886  function bid(bytes32 _blindedBid)\r... */\n    tag_38:\n        /* \"testApp/contracts/BlindAuction.sol\":1740:1750  biddingEnd */\n      sload(0x1)\n        /* \"testApp/contracts/BlindAuction.sol\":807:812  _time */\n      dup1\n        /* \"testApp/contracts/BlindAuction.sol\":801:804  now */\n      timestamp\n        /* \"testApp/contracts/BlindAuction.sol\":801:812  now < _time */\n      lt\n        /* \"testApp/contracts/BlindAuction.sol\":793:813  require(now < _time) */\n      iszero\n      iszero\n      tag_79\n      jumpi\n      0x0\n      dup1\n      revert\n    tag_79:\n        /* \"testApp/contracts/BlindAuction.sol\":1768:1772  bids */\n      0x4\n        /* \"testApp/contracts/BlindAuction.sol\":1768:1784  bids[msg.sender] */\n      0x0\n        /* \"testApp/contracts/BlindAuction.sol\":1773:1783  msg.sender */\n      caller\n        /* \"testApp/contracts/BlindAuction.sol\":1768:1784  bids[msg.sender] */\n      0xffffffffffffffffffffffffffffffffffffffff\n      and\n      0xffffffffffffffffffffffffffffffffffffffff\n      and\n      dup2\n      mstore\n      0x20\n      add\n      swap1\n      dup2\n      mstore\n      0x20\n      add\n      0x0\n      keccak256\n        /* \"testApp/contracts/BlindAuction.sol\":1790:1877  Bid({\r... */\n      0x40\n      dup1\n      mload\n      swap1\n      dup2\n      add\n      0x40\n      mstore\n      dup1\n        /* \"testApp/contracts/BlindAuction.sol\":1821:1832  _blindedBid */\n      dup5\n        /* \"testApp/contracts/BlindAuction.sol\":1790:1877  Bid({\r... */\n      not(0x0)\n      and\n      dup2\n      mstore\n      0x20\n      add\n        /* \"testApp/contracts/BlindAuction.sol\":1856:1865  msg.value */\n      callvalue\n        /* \"testApp/contracts/BlindAuction.sol\":1790:1877  Bid({\r... */\n      dup2\n      mstore\n      pop\n        /* \"testApp/contracts/BlindAuction.sol\":1768:1878  bids[msg.sender].push(Bid({\r... */\n      swap1\n      dup1\n        /* \"--CODEGEN--\":39:40   */\n      0x1\n        /* \"--CODEGEN--\":33:36   */\n      dup2\n        /* \"--CODEGEN--\":27:37   */\n      sload\n        /* \"--CODEGEN--\":23:41   */\n      add\n        /* \"--CODEGEN--\":57:67   */\n      dup1\n        /* \"--CODEGEN--\":52:55   */\n      dup3\n        /* \"--CODEGEN--\":45:68   */\n      sstore\n        /* \"--CODEGEN--\":79:89   */\n      dup1\n        /* \"--CODEGEN--\":72:89   */\n      swap2\n      pop\n        /* \"--CODEGEN--\":0:93   */\n      pop\n        /* \"testApp/contracts/BlindAuction.sol\":1768:1878  bids[msg.sender].push(Bid({\r... */\n      swap1\n      0x1\n      dup3\n      sub\n      swap1\n      0x0\n      mstore\n      keccak256(0x0, 0x20)\n      swap1\n      0x2\n      mul\n      add\n      0x0\n      swap1\n      swap2\n      swap3\n      swap1\n      swap2\n      swap1\n      swap2\n      pop\n      0x0\n      dup3\n      add\n      mload\n      dup2\n      0x0\n      add\n      swap1\n      not(0x0)\n      and\n      swap1\n      sstore\n      0x20\n      dup3\n      add\n      mload\n      dup2\n      0x1\n      add\n      sstore\n      pop\n      pop\n      pop\n        /* \"testApp/contracts/BlindAuction.sol\":1653:1886  function bid(bytes32 _blindedBid)\r... */\n      pop\n      pop\n      jump\t// out\n        /* \"testApp/contracts/BlindAuction.sol\":205:226  uint public revealEnd */\n    tag_41:\n      sload(0x2)\n      dup2\n      jump\t// out\n        /* \"testApp/contracts/BlindAuction.sol\":340:362  uint public highestBid */\n    tag_44:\n      sload(0x6)\n      dup2\n      jump\t// out\n        /* \"testApp/contracts/BlindAuction.sol\":3307:3726  function placeBid(address bidder, uint value) internal\r... */\n    tag_75:\n        /* \"testApp/contracts/BlindAuction.sol\":3384:3396  bool success */\n      0x0\n        /* \"testApp/contracts/BlindAuction.sol\":3427:3437  highestBid */\n      sload(0x6)\n        /* \"testApp/contracts/BlindAuction.sol\":3418:3423  value */\n      dup3\n        /* \"testApp/contracts/BlindAuction.sol\":3418:3437  value <= highestBid */\n      gt\n      iszero\n        /* \"testApp/contracts/BlindAuction.sol\":3414:3478  if (value <= highestBid) {\r... */\n      iszero\n      tag_83\n      jumpi\n        /* \"testApp/contracts/BlindAuction.sol\":3461:3466  false */\n      0x0\n        /* \"testApp/contracts/BlindAuction.sol\":3454:3466  return false */\n      swap1\n      pop\n      jump(tag_82)\n        /* \"testApp/contracts/BlindAuction.sol\":3414:3478  if (value <= highestBid) {\r... */\n    tag_83:\n        /* \"testApp/contracts/BlindAuction.sol\":3517:3518  0 */\n      0x0\n        /* \"testApp/contracts/BlindAuction.sol\":3492:3519  highestBidder != address(0) */\n      0xffffffffffffffffffffffffffffffffffffffff\n      and\n        /* \"testApp/contracts/BlindAuction.sol\":3492:3505  highestBidder */\n      0x5\n      0x0\n      swap1\n      sload\n      swap1\n      0x100\n      exp\n      swap1\n      div\n      0xffffffffffffffffffffffffffffffffffffffff\n      and\n        /* \"testApp/contracts/BlindAuction.sol\":3492:3519  highestBidder != address(0) */\n      0xffffffffffffffffffffffffffffffffffffffff\n      and\n      eq\n      iszero\n        /* \"testApp/contracts/BlindAuction.sol\":3488:3635  if (highestBidder != address(0)) {\r... */\n      iszero\n      tag_84\n      jumpi\n        /* \"testApp/contracts/BlindAuction.sol\":3613:3623  highestBid */\n      sload(0x6)\n        /* \"testApp/contracts/BlindAuction.sol\":3580:3594  pendingReturns */\n      0x7\n        /* \"testApp/contracts/BlindAuction.sol\":3580:3609  pendingReturns[highestBidder] */\n      0x0\n        /* \"testApp/contracts/BlindAuction.sol\":3595:3608  highestBidder */\n      0x5\n      0x0\n      swap1\n      sload\n      swap1\n      0x100\n      exp\n      swap1\n      div\n      0xffffffffffffffffffffffffffffffffffffffff\n      and\n        /* \"testApp/contracts/BlindAuction.sol\":3580:3609  pendingReturns[highestBidder] */\n      0xffffffffffffffffffffffffffffffffffffffff\n      and\n      0xffffffffffffffffffffffffffffffffffffffff\n      and\n      dup2\n      mstore\n      0x20\n      add\n      swap1\n      dup2\n      mstore\n      0x20\n      add\n      0x0\n      keccak256\n      0x0\n        /* \"testApp/contracts/BlindAuction.sol\":3580:3623  pendingReturns[highestBidder] += highestBid */\n      dup3\n      dup3\n      sload\n      add\n      swap3\n      pop\n      pop\n      dup2\n      swap1\n      sstore\n      pop\n        /* \"testApp/contracts/BlindAuction.sol\":3488:3635  if (highestBidder != address(0)) {\r... */\n    tag_84:\n        /* \"testApp/contracts/BlindAuction.sol\":3658:3663  value */\n      dup2\n        /* \"testApp/contracts/BlindAuction.sol\":3645:3655  highestBid */\n      0x6\n        /* \"testApp/contracts/BlindAuction.sol\":3645:3663  highestBid = value */\n      dup2\n      swap1\n      sstore\n      pop\n        /* \"testApp/contracts/BlindAuction.sol\":3690:3696  bidder */\n      dup3\n        /* \"testApp/contracts/BlindAuction.sol\":3674:3687  highestBidder */\n      0x5\n      0x0\n        /* \"testApp/contracts/BlindAuction.sol\":3674:3696  highestBidder = bidder */\n      0x100\n      exp\n      dup2\n      sload\n      dup2\n      0xffffffffffffffffffffffffffffffffffffffff\n      mul\n      not\n      and\n      swap1\n      dup4\n      0xffffffffffffffffffffffffffffffffffffffff\n      and\n      mul\n      or\n      swap1\n      sstore\n      pop\n        /* \"testApp/contracts/BlindAuction.sol\":3714:3718  true */\n      0x1\n        /* \"testApp/contracts/BlindAuction.sol\":3707:3718  return true */\n      swap1\n      pop\n        /* \"testApp/contracts/BlindAuction.sol\":3307:3726  function placeBid(address bidder, uint value) internal\r... */\n    tag_82:\n      swap3\n      swap2\n      pop\n      pop\n      jump\t// out\n\n    auxdata: 0xa165627a7a72305820c2bb7dd3f4c2c30cdcbbd1ddfcc05658f4f3c42a55f8b959006ab309f8ce81fb0029\n}\n",
				"bytecode": {
					"linkReferences": {},
					"object": "608060405234801561001057600080fd5b50604051606080610bbf833981018060405281019080805190602001909291908051906020019092919080519060200190929190505050806000806101000a81548173ffffffffffffffffffffffffffffffffffffffff021916908373ffffffffffffffffffffffffffffffffffffffff1602179055508242016001819055508160015401600281905550505050610b12806100ad6000396000f3006080604052600436106100af576000357c0100000000000000000000000000000000000000000000000000000000900463ffffffff16806301495c1c146100b457806312fa6feb146101245780632a24f46c1461015357806338af3eed1461016a5780633ccfd60b146101c1578063423b217f146101d8578063900f080a1461020357806391f90157146102ef578063957bb1e014610346578063a6e664771461036a578063d57bde7914610395575b600080fd5b3480156100c057600080fd5b506100ff600480360381019080803573ffffffffffffffffffffffffffffffffffffffff169060200190929190803590602001909291905050506103c0565b6040518083600019166000191681526020018281526020019250505060405180910390f35b34801561013057600080fd5b50610139610400565b604051808215151515815260200191505060405180910390f35b34801561015f57600080fd5b50610168610413565b005b34801561017657600080fd5b5061017f610557565b604051808273ffffffffffffffffffffffffffffffffffffffff1673ffffffffffffffffffffffffffffffffffffffff16815260200191505060405180910390f35b3480156101cd57600080fd5b506101d661057c565b005b3480156101e457600080fd5b506101ed610659565b6040518082815260200191505060405180910390f35b34801561020f57600080fd5b506102ed60048036038101908080359060200190820180359060200190808060200260200160405190810160405280939291908181526020018383602002808284378201915050505050509192919290803590602001908201803590602001908080602002602001604051908101604052809392919081815260200183836020028082843782019150505050505091929192908035906020019082018035906020019080806020026020016040519081016040528093929190818152602001838360200280828437820191505050505050919291929050505061065f565b005b3480156102fb57600080fd5b506103046108cc565b604051808273ffffffffffffffffffffffffffffffffffffffff1673ffffffffffffffffffffffffffffffffffffffff16815260200191505060405180910390f35b61036860048036038101908080356000191690602001909291905050506108f2565b005b34801561037657600080fd5b5061037f6109a7565b6040518082815260200191505060405180910390f35b3480156103a157600080fd5b506103aa6109ad565b6040518082815260200191505060405180910390f35b6004602052816000526040600020818154811015156103db57fe5b9060005260206000209060020201600091509150508060000154908060010154905082565b600360009054906101000a900460ff1681565b600254804211151561042457600080fd5b600360009054906101000a900460ff1615151561044057600080fd5b7fdaec4582d5d9595688c8c98545fdd1c696d41c6aeaeb636737e84ed2f5c00eda600560009054906101000a900473ffffffffffffffffffffffffffffffffffffffff16600654604051808373ffffffffffffffffffffffffffffffffffffffff1673ffffffffffffffffffffffffffffffffffffffff1681526020018281526020019250505060405180910390a16001600360006101000a81548160ff0219169083151502179055506000809054906101000a900473ffffffffffffffffffffffffffffffffffffffff1673ffffffffffffffffffffffffffffffffffffffff166108fc6006549081150290604051600060405180830381858888f19350505050158015610553573d6000803e3d6000fd5b5050565b6000809054906101000a900473ffffffffffffffffffffffffffffffffffffffff1681565b6000600760003373ffffffffffffffffffffffffffffffffffffffff1673ffffffffffffffffffffffffffffffffffffffff1681526020019081526020016000205490506000811115610656576000600760003373ffffffffffffffffffffffffffffffffffffffff1673ffffffffffffffffffffffffffffffffffffffff168152602001908152602001600020819055503373ffffffffffffffffffffffffffffffffffffffff166108fc829081150290604051600060405180830381858888f19350505050158015610654573d6000803e3d6000fd5b505b50565b60015481565b6000806000806000806000600154804211151561067b57600080fd5b600254804210151561068c57600080fd5b600460003373ffffffffffffffffffffffffffffffffffffffff1673ffffffffffffffffffffffffffffffffffffffff168152602001908152602001600020805490509850888c511415156106e057600080fd5b888b511415156106ef57600080fd5b888a511415156106fe57600080fd5b600096505b8887101561087757600460003373ffffffffffffffffffffffffffffffffffffffff1673ffffffffffffffffffffffffffffffffffffffff1681526020019081526020016000208781548110151561075757fe5b906000526020600020906002020195508b8781518110151561077557fe5b906020019060200201518b8881518110151561078d57fe5b906020019060200201518b898151811015156107a557fe5b906020019060200201519450945094508484846040518084815260200183151515157f0100000000000000000000000000000000000000000000000000000000000000028152600101826000191660001916815260200193505050506040518091039020600019168660000154600019161415156108225761086a565b8560010154880197508315801561083d575084866001015410155b156108585761084c33866109b3565b156108575784880397505b5b60006001028660000181600019169055505b8680600101975050610703565b3373ffffffffffffffffffffffffffffffffffffffff166108fc899081150290604051600060405180830381858888f193505050501580156108bd573d6000803e3d6000fd5b50505050505050505050505050565b600560009054906101000a900473ffffffffffffffffffffffffffffffffffffffff1681565b600154804210151561090357600080fd5b600460003373ffffffffffffffffffffffffffffffffffffffff1673ffffffffffffffffffffffffffffffffffffffff168152602001908152602001600020604080519081016040528084600019168152602001348152509080600181540180825580915050906001820390600052602060002090600202016000909192909190915060008201518160000190600019169055602082015181600101555050505050565b60025481565b60065481565b6000600654821115156109c95760009050610ae0565b600073ffffffffffffffffffffffffffffffffffffffff16600560009054906101000a900473ffffffffffffffffffffffffffffffffffffffff1673ffffffffffffffffffffffffffffffffffffffff16141515610a935760065460076000600560009054906101000a900473ffffffffffffffffffffffffffffffffffffffff1673ffffffffffffffffffffffffffffffffffffffff1673ffffffffffffffffffffffffffffffffffffffff168152602001908152602001600020600082825401925050819055505b8160068190555082600560006101000a81548173ffffffffffffffffffffffffffffffffffffffff021916908373ffffffffffffffffffffffffffffffffffffffff160217905550600190505b929150505600a165627a7a72305820c2bb7dd3f4c2c30cdcbbd1ddfcc05658f4f3c42a55f8b959006ab309f8ce81fb0029",
					"opcodes": "PUSH1 0x80 PUSH1 0x40 MSTORE CALLVALUE DUP1 ISZERO PUSH2 0x10 JUMPI PUSH1 0x0 DUP1 REVERT JUMPDEST POP PUSH1 0x40 MLOAD PUSH1 0x60 DUP1 PUSH2 0xBBF DUP4 CODECOPY DUP2 ADD DUP1 PUSH1 0x40 MSTORE DUP2 ADD SWAP1 DUP1 DUP1 MLOAD SWAP1 PUSH1 0x20 ADD SWAP1 SWAP3 SWAP2 SWAP1 DUP1 MLOAD SWAP1 PUSH1 0x20 ADD SWAP1 SWAP3 SWAP2 SWAP1 DUP1 MLOAD SWAP1 PUSH1 0x20 ADD SWAP1 SWAP3 SWAP2 SWAP1 POP POP POP DUP1 PUSH1 0x0 DUP1 PUSH2 0x100 EXP DUP2 SLOAD DUP2 PUSH20 0xFFFFFFFFFFFFFFFFFFFFFFFFFFFFFFFFFFFFFFFF MUL NOT AND SWAP1 DUP4 PUSH20 0xFFFFFFFFFFFFFFFFFFFFFFFFFFFFFFFFFFFFFFFF AND MUL OR SWAP1 SSTORE POP DUP3 TIMESTAMP ADD PUSH1 0x1 DUP2 SWAP1 SSTORE POP DUP2 PUSH1 0x1 SLOAD ADD PUSH1 0x2 DUP2 SWAP1 SSTORE POP POP POP POP PUSH2 0xB12 DUP1 PUSH2 0xAD PUSH1 0x0 CODECOPY PUSH1 0x0 RETURN STOP PUSH1 0x80 PUSH1 0x40 MSTORE PUSH1 0x4 CALLDATASIZE LT PUSH2 0xAF JUMPI PUSH1 0x0 CALLDATALOAD PUSH29 0x100000000000000000000000000000000000000000000000000000000 SWAP1 DIV PUSH4 0xFFFFFFFF AND DUP1 PUSH4 0x1495C1C EQ PUSH2 0xB4 JUMPI DUP1 PUSH4 0x12FA6FEB EQ PUSH2 0x124 JUMPI DUP1 PUSH4 0x2A24F46C EQ PUSH2 0x153 JUMPI DUP1 PUSH4 0x38AF3EED EQ PUSH2 0x16A JUMPI DUP1 PUSH4 0x3CCFD60B EQ PUSH2 0x1C1 JUMPI DUP1 PUSH4 0x423B217F EQ PUSH2 0x1D8 JUMPI DUP1 PUSH4 0x900F080A EQ PUSH2 0x203 JUMPI DUP1 PUSH4 0x91F90157 EQ PUSH2 0x2EF JUMPI DUP1 PUSH4 0x957BB1E0 EQ PUSH2 0x346 JUMPI DUP1 PUSH4 0xA6E66477 EQ PUSH2 0x36A JUMPI DUP1 PUSH4 0xD57BDE79 EQ PUSH2 0x395 JUMPI JUMPDEST PUSH1 0x0 DUP1 REVERT JUMPDEST CALLVALUE DUP1 ISZERO PUSH2 0xC0 JUMPI PUSH1 0x0 DUP1 REVERT JUMPDEST POP PUSH2 0xFF PUSH1 0x4 DUP1 CALLDATASIZE SUB DUP2 ADD SWAP1 DUP1 DUP1 CALLDATALOAD PUSH20 0xFFFFFFFFFFFFFFFFFFFFFFFFFFFFFFFFFFFFFFFF AND SWAP1 PUSH1 0x20 ADD SWAP1 SWAP3 SWAP2 SWAP1 DUP1 CALLDATALOAD SWAP1 PUSH1 0x20 ADD SWAP1 SWAP3 SWAP2 SWAP1 POP POP POP PUSH2 0x3C0 JUMP JUMPDEST PUSH1 0x40 MLOAD DUP1 DUP4 PUSH1 0x0 NOT AND PUSH1 0x0 NOT AND DUP2 MSTORE PUSH1 0x20 ADD DUP3 DUP2 MSTORE PUSH1 0x20 ADD SWAP3 POP POP POP PUSH1 0x40 MLOAD DUP1 SWAP2 SUB SWAP1 RETURN JUMPDEST CALLVALUE DUP1 ISZERO PUSH2 0x130 JUMPI PUSH1 0x0 DUP1 REVERT JUMPDEST POP PUSH2 0x139 PUSH2 0x400 JUMP JUMPDEST PUSH1 0x40 MLOAD DUP1 DUP3 ISZERO ISZERO ISZERO ISZERO DUP2 MSTORE PUSH1 0x20 ADD SWAP2 POP POP PUSH1 0x40 MLOAD DUP1 SWAP2 SUB SWAP1 RETURN JUMPDEST CALLVALUE DUP1 ISZERO PUSH2 0x15F JUMPI PUSH1 0x0 DUP1 REVERT JUMPDEST POP PUSH2 0x168 PUSH2 0x413 JUMP JUMPDEST STOP JUMPDEST CALLVALUE DUP1 ISZERO PUSH2 0x176 JUMPI PUSH1 0x0 DUP1 REVERT JUMPDEST POP PUSH2 0x17F PUSH2 0x557 JUMP JUMPDEST PUSH1 0x40 MLOAD DUP1 DUP3 PUSH20 0xFFFFFFFFFFFFFFFFFFFFFFFFFFFFFFFFFFFFFFFF AND PUSH20 0xFFFFFFFFFFFFFFFFFFFFFFFFFFFFFFFFFFFFFFFF AND DUP2 MSTORE PUSH1 0x20 ADD SWAP2 POP POP PUSH1 0x40 MLOAD DUP1 SWAP2 SUB SWAP1 RETURN JUMPDEST CALLVALUE DUP1 ISZERO PUSH2 0x1CD JUMPI PUSH1 0x0 DUP1 REVERT JUMPDEST POP PUSH2 0x1D6 PUSH2 0x57C JUMP JUMPDEST STOP JUMPDEST CALLVALUE DUP1 ISZERO PUSH2 0x1E4 JUMPI PUSH1 0x0 DUP1 REVERT JUMPDEST POP PUSH2 0x1ED PUSH2 0x659 JUMP JUMPDEST PUSH1 0x40 MLOAD DUP1 DUP3 DUP2 MSTORE PUSH1 0x20 ADD SWAP2 POP POP PUSH1 0x40 MLOAD DUP1 SWAP2 SUB SWAP1 RETURN JUMPDEST CALLVALUE DUP1 ISZERO PUSH2 0x20F JUMPI PUSH1 0x0 DUP1 REVERT JUMPDEST POP PUSH2 0x2ED PUSH1 0x4 DUP1 CALLDATASIZE SUB DUP2 ADD SWAP1 DUP1 DUP1 CALLDATALOAD SWAP1 PUSH1 0x20 ADD SWAP1 DUP3 ADD DUP1 CALLDATALOAD SWAP1 PUSH1 0x20 ADD SWAP1 DUP1 DUP1 PUSH1 0x20 MUL PUSH1 0x20 ADD PUSH1 0x40 MLOAD SWAP1 DUP2 ADD PUSH1 0x40 MSTORE DUP1 SWAP4 SWAP3 SWAP2 SWAP1 DUP2 DUP2 MSTORE PUSH1 0x20 ADD DUP4 DUP4 PUSH1 0x20 MUL DUP1 DUP3 DUP5 CALLDATACOPY DUP3 ADD SWAP2 POP POP POP POP POP POP SWAP2 SWAP3 SWAP2 SWAP3 SWAP1 DUP1 CALLDATALOAD SWAP1 PUSH1 0x20 ADD SWAP1 DUP3 ADD DUP1 CALLDATALOAD SWAP1 PUSH1 0x20 ADD SWAP1 DUP1 DUP1 PUSH1 0x20 MUL PUSH1 0x20 ADD PUSH1 0x40 MLOAD SWAP1 DUP2 ADD PUSH1 0x40 MSTORE DUP1 SWAP4 SWAP3 SWAP2 SWAP1 DUP2 DUP2 MSTORE PUSH1 0x20 ADD DUP4 DUP4 PUSH1 0x20 MUL DUP1 DUP3 DUP5 CALLDATACOPY DUP3 ADD SWAP2 POP POP POP POP POP POP SWAP2 SWAP3 SWAP2 SWAP3 SWAP1 DUP1 CALLDATALOAD SWAP1 PUSH1 0x20 ADD SWAP1 DUP3 ADD DUP1 CALLDATALOAD SWAP1 PUSH1 0x20 ADD SWAP1 DUP1 DUP1 PUSH1 0x20 MUL PUSH1 0x20 ADD PUSH1 0x40 MLOAD SWAP1 DUP2 ADD PUSH1 0x40 MSTORE DUP1 SWAP4 SWAP3 SWAP2 SWAP1 DUP2 DUP2 MSTORE PUSH1 0x20 ADD DUP4 DUP4 PUSH1 0x20 MUL DUP1 DUP3 DUP5 CALLDATACOPY DUP3 ADD SWAP2 POP POP POP POP POP POP SWAP2 SWAP3 SWAP2 SWAP3 SWAP1 POP POP POP PUSH2 0x65F JUMP JUMPDEST STOP JUMPDEST CALLVALUE DUP1 ISZERO PUSH2 0x2FB JUMPI PUSH1 0x0 DUP1 REVERT JUMPDEST POP PUSH2 0x304 PUSH2 0x8CC JUMP JUMPDEST PUSH1 0x40 MLOAD DUP1 DUP3 PUSH20 0xFFFFFFFFFFFFFFFFFFFFFFFFFFFFFFFFFFFFFFFF AND PUSH20 0xFFFFFFFFFFFFFFFFFFFFFFFFFFFFFFFFFFFFFFFF AND DUP2 MSTORE PUSH1 0x20 ADD SWAP2 POP POP PUSH1 0x40 MLOAD DUP1 SWAP2 SUB SWAP1 RETURN JUMPDEST PUSH2 0x368 PUSH1 0x4 DUP1 CALLDATASIZE SUB DUP2 ADD SWAP1 DUP1 DUP1 CALLDATALOAD PUSH1 0x0 NOT AND SWAP1 PUSH1 0x20 ADD SWAP1 SWAP3 SWAP2 SWAP1 POP POP POP PUSH2 0x8F2 JUMP JUMPDEST STOP JUMPDEST CALLVALUE DUP1 ISZERO PUSH2 0x376 JUMPI PUSH1 0x0 DUP1 REVERT JUMPDEST POP PUSH2 0x37F PUSH2 0x9A7 JUMP JUMPDEST PUSH1 0x40 MLOAD DUP1 DUP3 DUP2 MSTORE PUSH1 0x20 ADD SWAP2 POP POP PUSH1 0x40 MLOAD DUP1 SWAP2 SUB SWAP1 RETURN JUMPDEST CALLVALUE DUP1 ISZERO PUSH2 0x3A1 JUMPI PUSH1 0x0 DUP1 REVERT JUMPDEST POP PUSH2 0x3AA PUSH2 0x9AD JUMP JUMPDEST PUSH1 0x40 MLOAD DUP1 DUP3 DUP2 MSTORE PUSH1 0x20 ADD SWAP2 POP POP PUSH1 0x40 MLOAD DUP1 SWAP2 SUB SWAP1 RETURN JUMPDEST PUSH1 0x4 PUSH1 0x20 MSTORE DUP2 PUSH1 0x0 MSTORE PUSH1 0x40 PUSH1 0x0 KECCAK256 DUP2 DUP2 SLOAD DUP2 LT ISZERO ISZERO PUSH2 0x3DB JUMPI INVALID JUMPDEST SWAP1 PUSH1 0x0 MSTORE PUSH1 0x20 PUSH1 0x0 KECCAK256 SWAP1 PUSH1 0x2 MUL ADD PUSH1 0x0 SWAP2 POP SWAP2 POP POP DUP1 PUSH1 0x0 ADD SLOAD SWAP1 DUP1 PUSH1 0x1 ADD SLOAD SWAP1 POP DUP3 JUMP JUMPDEST PUSH1 0x3 PUSH1 0x0 SWAP1 SLOAD SWAP1 PUSH2 0x100 EXP SWAP1 DIV PUSH1 0xFF AND DUP2 JUMP JUMPDEST PUSH1 0x2 SLOAD DUP1 TIMESTAMP GT ISZERO ISZERO PUSH2 0x424 JUMPI PUSH1 0x0 DUP1 REVERT JUMPDEST PUSH1 0x3 PUSH1 0x0 SWAP1 SLOAD SWAP1 PUSH2 0x100 EXP SWAP1 DIV PUSH1 0xFF AND ISZERO ISZERO ISZERO PUSH2 0x440 JUMPI PUSH1 0x0 DUP1 REVERT JUMPDEST PUSH32 0xDAEC4582D5D9595688C8C98545FDD1C696D41C6AEAEB636737E84ED2F5C00EDA PUSH1 0x5 PUSH1 0x0 SWAP1 SLOAD SWAP1 PUSH2 0x100 EXP SWAP1 DIV PUSH20 0xFFFFFFFFFFFFFFFFFFFFFFFFFFFFFFFFFFFFFFFF AND PUSH1 0x6 SLOAD PUSH1 0x40 MLOAD DUP1 DUP4 PUSH20 0xFFFFFFFFFFFFFFFFFFFFFFFFFFFFFFFFFFFFFFFF AND PUSH20 0xFFFFFFFFFFFFFFFFFFFFFFFFFFFFFFFFFFFFFFFF AND DUP2 MSTORE PUSH1 0x20 ADD DUP3 DUP2 MSTORE PUSH1 0x20 ADD SWAP3 POP POP POP PUSH1 0x40 MLOAD DUP1 SWAP2 SUB SWAP1 LOG1 PUSH1 0x1 PUSH1 0x3 PUSH1 0x0 PUSH2 0x100 EXP DUP2 SLOAD DUP2 PUSH1 0xFF MUL NOT AND SWAP1 DUP4 ISZERO ISZERO MUL OR SWAP1 SSTORE POP PUSH1 0x0 DUP1 SWAP1 SLOAD SWAP1 PUSH2 0x100 EXP SWAP1 DIV PUSH20 0xFFFFFFFFFFFFFFFFFFFFFFFFFFFFFFFFFFFFFFFF AND PUSH20 0xFFFFFFFFFFFFFFFFFFFFFFFFFFFFFFFFFFFFFFFF AND PUSH2 0x8FC PUSH1 0x6 SLOAD SWAP1 DUP2 ISZERO MUL SWAP1 PUSH1 0x40 MLOAD PUSH1 0x0 PUSH1 0x40 MLOAD DUP1 DUP4 SUB DUP2 DUP6 DUP9 DUP9 CALL SWAP4 POP POP POP POP ISZERO DUP1 ISZERO PUSH2 0x553 JUMPI RETURNDATASIZE PUSH1 0x0 DUP1 RETURNDATACOPY RETURNDATASIZE PUSH1 0x0 REVERT JUMPDEST POP POP JUMP JUMPDEST PUSH1 0x0 DUP1 SWAP1 SLOAD SWAP1 PUSH2 0x100 EXP SWAP1 DIV PUSH20 0xFFFFFFFFFFFFFFFFFFFFFFFFFFFFFFFFFFFFFFFF AND DUP2 JUMP JUMPDEST PUSH1 0x0 PUSH1 0x7 PUSH1 0x0 CALLER PUSH20 0xFFFFFFFFFFFFFFFFFFFFFFFFFFFFFFFFFFFFFFFF AND PUSH20 0xFFFFFFFFFFFFFFFFFFFFFFFFFFFFFFFFFFFFFFFF AND DUP2 MSTORE PUSH1 0x20 ADD SWAP1 DUP2 MSTORE PUSH1 0x20 ADD PUSH1 0x0 KECCAK256 SLOAD SWAP1 POP PUSH1 0x0 DUP2 GT ISZERO PUSH2 0x656 JUMPI PUSH1 0x0 PUSH1 0x7 PUSH1 0x0 CALLER PUSH20 0xFFFFFFFFFFFFFFFFFFFFFFFFFFFFFFFFFFFFFFFF AND PUSH20 0xFFFFFFFFFFFFFFFFFFFFFFFFFFFFFFFFFFFFFFFF AND DUP2 MSTORE PUSH1 0x20 ADD SWAP1 DUP2 MSTORE PUSH1 0x20 ADD PUSH1 0x0 KECCAK256 DUP2 SWAP1 SSTORE POP CALLER PUSH20 0xFFFFFFFFFFFFFFFFFFFFFFFFFFFFFFFFFFFFFFFF AND PUSH2 0x8FC DUP3 SWAP1 DUP2 ISZERO MUL SWAP1 PUSH1 0x40 MLOAD PUSH1 0x0 PUSH1 0x40 MLOAD DUP1 DUP4 SUB DUP2 DUP6 DUP9 DUP9 CALL SWAP4 POP POP POP POP ISZERO DUP1 ISZERO PUSH2 0x654 JUMPI RETURNDATASIZE PUSH1 0x0 DUP1 RETURNDATACOPY RETURNDATASIZE PUSH1 0x0 REVERT JUMPDEST POP JUMPDEST POP JUMP JUMPDEST PUSH1 0x1 SLOAD DUP2 JUMP JUMPDEST PUSH1 0x0 DUP1 PUSH1 0x0 DUP1 PUSH1 0x0 DUP1 PUSH1 0x0 PUSH1 0x1 SLOAD DUP1 TIMESTAMP GT ISZERO ISZERO PUSH2 0x67B JUMPI PUSH1 0x0 DUP1 REVERT JUMPDEST PUSH1 0x2 SLOAD DUP1 TIMESTAMP LT ISZERO ISZERO PUSH2 0x68C JUMPI PUSH1 0x0 DUP1 REVERT JUMPDEST PUSH1 0x4 PUSH1 0x0 CALLER PUSH20 0xFFFFFFFFFFFFFFFFFFFFFFFFFFFFFFFFFFFFFFFF AND PUSH20 0xFFFFFFFFFFFFFFFFFFFFFFFFFFFFFFFFFFFFFFFF AND DUP2 MSTORE PUSH1 0x20 ADD SWAP1 DUP2 MSTORE PUSH1 0x20 ADD PUSH1 0x0 KECCAK256 DUP1 SLOAD SWAP1 POP SWAP9 POP DUP9 DUP13 MLOAD EQ ISZERO ISZERO PUSH2 0x6E0 JUMPI PUSH1 0x0 DUP1 REVERT JUMPDEST DUP9 DUP12 MLOAD EQ ISZERO ISZERO PUSH2 0x6EF JUMPI PUSH1 0x0 DUP1 REVERT JUMPDEST DUP9 DUP11 MLOAD EQ ISZERO ISZERO PUSH2 0x6FE JUMPI PUSH1 0x0 DUP1 REVERT JUMPDEST PUSH1 0x0 SWAP7 POP JUMPDEST DUP9 DUP8 LT ISZERO PUSH2 0x877 JUMPI PUSH1 0x4 PUSH1 0x0 CALLER PUSH20 0xFFFFFFFFFFFFFFFFFFFFFFFFFFFFFFFFFFFFFFFF AND PUSH20 0xFFFFFFFFFFFFFFFFFFFFFFFFFFFFFFFFFFFFFFFF AND DUP2 MSTORE PUSH1 0x20 ADD SWAP1 DUP2 MSTORE PUSH1 0x20 ADD PUSH1 0x0 KECCAK256 DUP8 DUP2 SLOAD DUP2 LT ISZERO ISZERO PUSH2 0x757 JUMPI INVALID JUMPDEST SWAP1 PUSH1 0x0 MSTORE PUSH1 0x20 PUSH1 0x0 KECCAK256 SWAP1 PUSH1 0x2 MUL ADD SWAP6 POP DUP12 DUP8 DUP2 MLOAD DUP2 LT ISZERO ISZERO PUSH2 0x775 JUMPI INVALID JUMPDEST SWAP1 PUSH1 0x20 ADD SWAP1 PUSH1 0x20 MUL ADD MLOAD DUP12 DUP9 DUP2 MLOAD DUP2 LT ISZERO ISZERO PUSH2 0x78D JUMPI INVALID JUMPDEST SWAP1 PUSH1 0x20 ADD SWAP1 PUSH1 0x20 MUL ADD MLOAD DUP12 DUP10 DUP2 MLOAD DUP2 LT ISZERO ISZERO PUSH2 0x7A5 JUMPI INVALID JUMPDEST SWAP1 PUSH1 0x20 ADD SWAP1 PUSH1 0x20 MUL ADD MLOAD SWAP5 POP SWAP5 POP SWAP5 POP DUP5 DUP5 DUP5 PUSH1 0x40 MLOAD DUP1 DUP5 DUP2 MSTORE PUSH1 0x20 ADD DUP4 ISZERO ISZERO ISZERO ISZERO PUSH32 0x100000000000000000000000000000000000000000000000000000000000000 MUL DUP2 MSTORE PUSH1 0x1 ADD DUP3 PUSH1 0x0 NOT AND PUSH1 0x0 NOT AND DUP2 MSTORE PUSH1 0x20 ADD SWAP4 POP POP POP POP PUSH1 0x40 MLOAD DUP1 SWAP2 SUB SWAP1 KECCAK256 PUSH1 0x0 NOT AND DUP7 PUSH1 0x0 ADD SLOAD PUSH1 0x0 NOT AND EQ ISZERO ISZERO PUSH2 0x822 JUMPI PUSH2 0x86A JUMP JUMPDEST DUP6 PUSH1 0x1 ADD SLOAD DUP9 ADD SWAP8 POP DUP4 ISZERO DUP1 ISZERO PUSH2 0x83D JUMPI POP DUP5 DUP7 PUSH1 0x1 ADD SLOAD LT ISZERO JUMPDEST ISZERO PUSH2 0x858 JUMPI PUSH2 0x84C CALLER DUP7 PUSH2 0x9B3 JUMP JUMPDEST ISZERO PUSH2 0x857 JUMPI DUP5 DUP9 SUB SWAP8 POP JUMPDEST JUMPDEST PUSH1 0x0 PUSH1 0x1 MUL DUP7 PUSH1 0x0 ADD DUP2 PUSH1 0x0 NOT AND SWAP1 SSTORE POP JUMPDEST DUP7 DUP1 PUSH1 0x1 ADD SWAP8 POP POP PUSH2 0x703 JUMP JUMPDEST CALLER PUSH20 0xFFFFFFFFFFFFFFFFFFFFFFFFFFFFFFFFFFFFFFFF AND PUSH2 0x8FC DUP10 SWAP1 DUP2 ISZERO MUL SWAP1 PUSH1 0x40 MLOAD PUSH1 0x0 PUSH1 0x40 MLOAD DUP1 DUP4 SUB DUP2 DUP6 DUP9 DUP9 CALL SWAP4 POP POP POP POP ISZERO DUP1 ISZERO PUSH2 0x8BD JUMPI RETURNDATASIZE PUSH1 0x0 DUP1 RETURNDATACOPY RETURNDATASIZE PUSH1 0x0 REVERT JUMPDEST POP POP POP POP POP POP POP POP POP POP POP POP POP JUMP JUMPDEST PUSH1 0x5 PUSH1 0x0 SWAP1 SLOAD SWAP1 PUSH2 0x100 EXP SWAP1 DIV PUSH20 0xFFFFFFFFFFFFFFFFFFFFFFFFFFFFFFFFFFFFFFFF AND DUP2 JUMP JUMPDEST PUSH1 0x1 SLOAD DUP1 TIMESTAMP LT ISZERO ISZERO PUSH2 0x903 JUMPI PUSH1 0x0 DUP1 REVERT JUMPDEST PUSH1 0x4 PUSH1 0x0 CALLER PUSH20 0xFFFFFFFFFFFFFFFFFFFFFFFFFFFFFFFFFFFFFFFF AND PUSH20 0xFFFFFFFFFFFFFFFFFFFFFFFFFFFFFFFFFFFFFFFF AND DUP2 MSTORE PUSH1 0x20 ADD SWAP1 DUP2 MSTORE PUSH1 0x20 ADD PUSH1 0x0 KECCAK256 PUSH1 0x40 DUP1 MLOAD SWAP1 DUP2 ADD PUSH1 0x40 MSTORE DUP1 DUP5 PUSH1 0x0 NOT AND DUP2 MSTORE PUSH1 0x20 ADD CALLVALUE DUP2 MSTORE POP SWAP1 DUP1 PUSH1 0x1 DUP2 SLOAD ADD DUP1 DUP3 SSTORE DUP1 SWAP2 POP POP SWAP1 PUSH1 0x1 DUP3 SUB SWAP1 PUSH1 0x0 MSTORE PUSH1 0x20 PUSH1 0x0 KECCAK256 SWAP1 PUSH1 0x2 MUL ADD PUSH1 0x0 SWAP1 SWAP2 SWAP3 SWAP1 SWAP2 SWAP1 SWAP2 POP PUSH1 0x0 DUP3 ADD MLOAD DUP2 PUSH1 0x0 ADD SWAP1 PUSH1 0x0 NOT AND SWAP1 SSTORE PUSH1 0x20 DUP3 ADD MLOAD DUP2 PUSH1 0x1 ADD SSTORE POP POP POP POP POP JUMP JUMPDEST PUSH1 0x2 SLOAD DUP2 JUMP JUMPDEST PUSH1 0x6 SLOAD DUP2 JUMP JUMPDEST PUSH1 0x0 PUSH1 0x6 SLOAD DUP3 GT ISZERO ISZERO PUSH2 0x9C9 JUMPI PUSH1 0x0 SWAP1 POP PUSH2 0xAE0 JUMP JUMPDEST PUSH1 0x0 PUSH20 0xFFFFFFFFFFFFFFFFFFFFFFFFFFFFFFFFFFFFFFFF AND PUSH1 0x5 PUSH1 0x0 SWAP1 SLOAD SWAP1 PUSH2 0x100 EXP SWAP1 DIV PUSH20 0xFFFFFFFFFFFFFFFFFFFFFFFFFFFFFFFFFFFFFFFF AND PUSH20 0xFFFFFFFFFFFFFFFFFFFFFFFFFFFFFFFFFFFFFFFF AND EQ ISZERO ISZERO PUSH2 0xA93 JUMPI PUSH1 0x6 SLOAD PUSH1 0x7 PUSH1 0x0 PUSH1 0x5 PUSH1 0x0 SWAP1 SLOAD SWAP1 PUSH2 0x100 EXP SWAP1 DIV PUSH20 0xFFFFFFFFFFFFFFFFFFFFFFFFFFFFFFFFFFFFFFFF AND PUSH20 0xFFFFFFFFFFFFFFFFFFFFFFFFFFFFFFFFFFFFFFFF AND PUSH20 0xFFFFFFFFFFFFFFFFFFFFFFFFFFFFFFFFFFFFFFFF AND DUP2 MSTORE PUSH1 0x20 ADD SWAP1 DUP2 MSTORE PUSH1 0x20 ADD PUSH1 0x0 KECCAK256 PUSH1 0x0 DUP3 DUP3 SLOAD ADD SWAP3 POP POP DUP2 SWAP1 SSTORE POP JUMPDEST DUP2 PUSH1 0x6 DUP2 SWAP1 SSTORE POP DUP3 PUSH1 0x5 PUSH1 0x0 PUSH2 0x100 EXP DUP2 SLOAD DUP2 PUSH20 0xFFFFFFFFFFFFFFFFFFFFFFFFFFFFFFFFFFFFFFFF MUL NOT AND SWAP1 DUP4 PUSH20 0xFFFFFFFFFFFFFFFFFFFFFFFFFFFFFFFFFFFFFFFF AND MUL OR SWAP1 SSTORE POP PUSH1 0x1 SWAP1 POP JUMPDEST SWAP3 SWAP2 POP POP JUMP STOP LOG1 PUSH6 0x627A7A723058 KECCAK256 0xc2 0xbb PUSH30 0xD3F4C2C30CDCBBD1DDFCC05658F4F3C42A55F8B959006AB309F8CE81FB00 0x29 "
				},
				"gasEstimates": {
					"creation": {
						"codeDepositCost": "566800",
						"executionCost": "61256",
						"totalCost": "628056"
					},
					"external": {
						"auctionEnd()": "infinite",
						"beneficiary()": "508",
						"bid(bytes32)": "61144",
						"biddingEnd()": "504",
						"bids(address,uint256)": "1122",
						"ended()": "464",
						"highestBid()": "614",
						"highestBidder()": "596",
						"reveal(uint256[],bool[],bytes32[])": "infinite",
						"revealEnd()": "592",
						"withdraw()": "infinite"
					},
					"internal": {
						"placeBid(address,uint256)": "61583"
					}
				},
				"methodIdentifiers": {
					"auctionEnd()": "2a24f46c",
					"beneficiary()": "38af3eed",
					"bid(bytes32)": "957bb1e0",
					"biddingEnd()": "423b217f",
					"bids(address,uint256)": "01495c1c",
					"ended()": "12fa6feb",
					"highestBid()": "d57bde79",
					"highestBidder()": "91f90157",
					"reveal(uint256[],bool[],bytes32[])": "900f080a",
					"revealEnd()": "a6e66477",
					"withdraw()": "3ccfd60b"
				}
			},
			"userdoc": {
				"methods": {
					"auctionEnd()": {
						"notice": "结束拍卖，并把最高的出价发送给受益人"
					},
					"bid(bytes32)": {
						"notice": "同一个地址可以放置多个出价。"
					},
					"reveal(uint256[],bool[],bytes32[])": {
						"notice": "对于所有正确披露的无效出价以及除最高出价以外的所有出价，你都将获得退款。"
					},
					"withdraw()": {
						"notice": "取回出价（当该出价已被超越）"
					}
				}
			}
		}
	}
}