{
	"data": {
		"bytecode": {
			"linkReferences": {},
			"object": "608060405234801561001057600080fd5b506102c8806100206000396000f30060806040526004361061004c576000357c0100000000000000000000000000000000000000000000000000000000900463ffffffff16806340dcbb08146100515780637bc5bbbf146100b7575b600080fd5b34801561005d57600080fd5b506100b56004803603810190808035906020019082018035906020019080806020026020016040519081016040528093929190818152602001838360200280828437820191505050505050919291929050505061011d565b005b3480156100c357600080fd5b5061011b60048036038101908080359060200190820180359060200190808060200260200160405190810160405280939291908181526020018383602002808284378201915050505050509192919290505050610120565b005b50565b600081600090805190602001906101389291906101dd565b506000905080600781548110151561014c57fe5b906000526020600020505060028181610165919061022a565b506000806101739190610256565b61017d60006101da565b6101d660008054806020026020016040519081016040528092919081815260200182805480156101cc57602002820191906000526020600020905b8154815260200190600101908083116101b8575b505050505061011d565b5050565b50565b828054828255906000526020600020908101928215610219579160200282015b828111156102185782518255916020019190600101906101fd565b5b5090506102269190610277565b5090565b815481835581811115610251578183600052602060002091820191016102509190610277565b5b505050565b50805460008255906000526020600020908101906102749190610277565b50565b61029991905b8082111561029557600081600090555060010161027d565b5090565b905600a165627a7a7230582076593a3071e27b5ad82557151c6ca2f8c6e65e5c80aec94e5391a4bdff66c6fb0029",
			"opcodes": "PUSH1 0x80 PUSH1 0x40 MSTORE CALLVALUE DUP1 ISZERO PUSH2 0x10 JUMPI PUSH1 0x0 DUP1 REVERT JUMPDEST POP PUSH2 0x2C8 DUP1 PUSH2 0x20 PUSH1 0x0 CODECOPY PUSH1 0x0 RETURN STOP PUSH1 0x80 PUSH1 0x40 MSTORE PUSH1 0x4 CALLDATASIZE LT PUSH2 0x4C JUMPI PUSH1 0x0 CALLDATALOAD PUSH29 0x100000000000000000000000000000000000000000000000000000000 SWAP1 DIV PUSH4 0xFFFFFFFF AND DUP1 PUSH4 0x40DCBB08 EQ PUSH2 0x51 JUMPI DUP1 PUSH4 0x7BC5BBBF EQ PUSH2 0xB7 JUMPI JUMPDEST PUSH1 0x0 DUP1 REVERT JUMPDEST CALLVALUE DUP1 ISZERO PUSH2 0x5D JUMPI PUSH1 0x0 DUP1 REVERT JUMPDEST POP PUSH2 0xB5 PUSH1 0x4 DUP1 CALLDATASIZE SUB DUP2 ADD SWAP1 DUP1 DUP1 CALLDATALOAD SWAP1 PUSH1 0x20 ADD SWAP1 DUP3 ADD DUP1 CALLDATALOAD SWAP1 PUSH1 0x20 ADD SWAP1 DUP1 DUP1 PUSH1 0x20 MUL PUSH1 0x20 ADD PUSH1 0x40 MLOAD SWAP1 DUP2 ADD PUSH1 0x40 MSTORE DUP1 SWAP4 SWAP3 SWAP2 SWAP1 DUP2 DUP2 MSTORE PUSH1 0x20 ADD DUP4 DUP4 PUSH1 0x20 MUL DUP1 DUP3 DUP5 CALLDATACOPY DUP3 ADD SWAP2 POP POP POP POP POP POP SWAP2 SWAP3 SWAP2 SWAP3 SWAP1 POP POP POP PUSH2 0x11D JUMP JUMPDEST STOP JUMPDEST CALLVALUE DUP1 ISZERO PUSH2 0xC3 JUMPI PUSH1 0x0 DUP1 REVERT JUMPDEST POP PUSH2 0x11B PUSH1 0x4 DUP1 CALLDATASIZE SUB DUP2 ADD SWAP1 DUP1 DUP1 CALLDATALOAD SWAP1 PUSH1 0x20 ADD SWAP1 DUP3 ADD DUP1 CALLDATALOAD SWAP1 PUSH1 0x20 ADD SWAP1 DUP1 DUP1 PUSH1 0x20 MUL PUSH1 0x20 ADD PUSH1 0x40 MLOAD SWAP1 DUP2 ADD PUSH1 0x40 MSTORE DUP1 SWAP4 SWAP3 SWAP2 SWAP1 DUP2 DUP2 MSTORE PUSH1 0x20 ADD DUP4 DUP4 PUSH1 0x20 MUL DUP1 DUP3 DUP5 CALLDATACOPY DUP3 ADD SWAP2 POP POP POP POP POP POP SWAP2 SWAP3 SWAP2 SWAP3 SWAP1 POP POP POP PUSH2 0x120 JUMP JUMPDEST STOP JUMPDEST POP JUMP JUMPDEST PUSH1 0x0 DUP2 PUSH1 0x0 SWAP1 DUP1 MLOAD SWAP1 PUSH1 0x20 ADD SWAP1 PUSH2 0x138 SWAP3 SWAP2 SWAP1 PUSH2 0x1DD JUMP JUMPDEST POP PUSH1 0x0 SWAP1 POP DUP1 PUSH1 0x7 DUP2 SLOAD DUP2 LT ISZERO ISZERO PUSH2 0x14C JUMPI INVALID JUMPDEST SWAP1 PUSH1 0x0 MSTORE PUSH1 0x20 PUSH1 0x0 KECCAK256 POP POP PUSH1 0x2 DUP2 DUP2 PUSH2 0x165 SWAP2 SWAP1 PUSH2 0x22A JUMP JUMPDEST POP PUSH1 0x0 DUP1 PUSH2 0x173 SWAP2 SWAP1 PUSH2 0x256 JUMP JUMPDEST PUSH2 0x17D PUSH1 0x0 PUSH2 0x1DA JUMP JUMPDEST PUSH2 0x1D6 PUSH1 0x0 DUP1 SLOAD DUP1 PUSH1 0x20 MUL PUSH1 0x20 ADD PUSH1 0x40 MLOAD SWAP1 DUP2 ADD PUSH1 0x40 MSTORE DUP1 SWAP3 SWAP2 SWAP1 DUP2 DUP2 MSTORE PUSH1 0x20 ADD DUP3 DUP1 SLOAD DUP1 ISZERO PUSH2 0x1CC JUMPI PUSH1 0x20 MUL DUP3 ADD SWAP2 SWAP1 PUSH1 0x0 MSTORE PUSH1 0x20 PUSH1 0x0 KECCAK256 SWAP1 JUMPDEST DUP2 SLOAD DUP2 MSTORE PUSH1 0x20 ADD SWAP1 PUSH1 0x1 ADD SWAP1 DUP1 DUP4 GT PUSH2 0x1B8 JUMPI JUMPDEST POP POP POP POP POP PUSH2 0x11D JUMP JUMPDEST POP POP JUMP JUMPDEST POP JUMP JUMPDEST DUP3 DUP1 SLOAD DUP3 DUP3 SSTORE SWAP1 PUSH1 0x0 MSTORE PUSH1 0x20 PUSH1 0x0 KECCAK256 SWAP1 DUP2 ADD SWAP3 DUP3 ISZERO PUSH2 0x219 JUMPI SWAP2 PUSH1 0x20 MUL DUP3 ADD JUMPDEST DUP3 DUP2 GT ISZERO PUSH2 0x218 JUMPI DUP3 MLOAD DUP3 SSTORE SWAP2 PUSH1 0x20 ADD SWAP2 SWAP1 PUSH1 0x1 ADD SWAP1 PUSH2 0x1FD JUMP JUMPDEST JUMPDEST POP SWAP1 POP PUSH2 0x226 SWAP2 SWAP1 PUSH2 0x277 JUMP JUMPDEST POP SWAP1 JUMP JUMPDEST DUP2 SLOAD DUP2 DUP4 SSTORE DUP2 DUP2 GT ISZERO PUSH2 0x251 JUMPI DUP2 DUP4 PUSH1 0x0 MSTORE PUSH1 0x20 PUSH1 0x0 KECCAK256 SWAP2 DUP3 ADD SWAP2 ADD PUSH2 0x250 SWAP2 SWAP1 PUSH2 0x277 JUMP JUMPDEST JUMPDEST POP POP POP JUMP JUMPDEST POP DUP1 SLOAD PUSH1 0x0 DUP3 SSTORE SWAP1 PUSH1 0x0 MSTORE PUSH1 0x20 PUSH1 0x0 KECCAK256 SWAP1 DUP2 ADD SWAP1 PUSH2 0x274 SWAP2 SWAP1 PUSH2 0x277 JUMP JUMPDEST POP JUMP JUMPDEST PUSH2 0x299 SWAP2 SWAP1 JUMPDEST DUP1 DUP3 GT ISZERO PUSH2 0x295 JUMPI PUSH1 0x0 DUP2 PUSH1 0x0 SWAP1 SSTORE POP PUSH1 0x1 ADD PUSH2 0x27D JUMP JUMPDEST POP SWAP1 JUMP JUMPDEST SWAP1 JUMP STOP LOG1 PUSH6 0x627A7A723058 KECCAK256 PUSH23 0x593A3071E27B5AD82557151C6CA2F8C6E65E5C80AEC94E MSTORE8 SWAP2 LOG4 0xbd SELFDESTRUCT PUSH7 0xC6FB0029000000 "
		},
		"gasEstimates": {
			"creation": {
				"codeDepositCost": "142400",
				"executionCost": "190",
				"totalCost": "142590"
			},
			"external": {
				"f(uint256[])": "infinite",
				"h(uint256[])": "infinite"
			},
			"internal": {
				"g(uint256[] storage pointer)": "11"
			}
		},
		"methodIdentifiers": {
			"f(uint256[])": "7bc5bbbf",
			"h(uint256[])": "40dcbb08"
		}
	},
	"abi": [
		{
			"constant": false,
			"inputs": [
				{
					"name": "memoryArray",
					"type": "uint256[]"
				}
			],
			"name": "h",
			"outputs": [],
			"payable": false,
			"stateMutability": "nonpayable",
			"type": "function"
		},
		{
			"constant": false,
			"inputs": [
				{
					"name": "memoryArray",
					"type": "uint256[]"
				}
			],
			"name": "f",
			"outputs": [],
			"payable": false,
			"stateMutability": "nonpayable",
			"type": "function"
		}
	]
}