{
	"testApp/contracts/CrowdFunding.sol": {
		"CrowdFunding": {
			"abi": [
				{
					"constant": false,
					"inputs": [
						{
							"name": "campaignID",
							"type": "uint256"
						}
					],
					"name": "checkGoalReached",
					"outputs": [
						{
							"name": "reached",
							"type": "bool"
						}
					],
					"payable": false,
					"stateMutability": "nonpayable",
					"type": "function"
				},
				{
					"constant": false,
					"inputs": [
						{
							"name": "campaignID",
							"type": "uint256"
						}
					],
					"name": "contribute",
					"outputs": [],
					"payable": true,
					"stateMutability": "payable",
					"type": "function"
				},
				{
					"constant": false,
					"inputs": [
						{
							"name": "beneficiary",
							"type": "address"
						},
						{
							"name": "goal",
							"type": "uint256"
						}
					],
					"name": "newCampaign",
					"outputs": [
						{
							"name": "campaignID",
							"type": "uint256"
						}
					],
					"payable": false,
					"stateMutability": "nonpayable",
					"type": "function"
				}
			],
			"devdoc": {
				"methods": {}
			},
			"evm": {
				"assembly": "    /* \"testApp/contracts/CrowdFunding.sol\":28:1548  contract CrowdFunding {\r... */\n  mstore(0x40, 0x80)\n  callvalue\n    /* \"--CODEGEN--\":8:17   */\n  dup1\n    /* \"--CODEGEN--\":5:7   */\n  iszero\n  tag_1\n  jumpi\n    /* \"--CODEGEN--\":30:31   */\n  0x0\n    /* \"--CODEGEN--\":27:28   */\n  dup1\n    /* \"--CODEGEN--\":20:32   */\n  revert\n    /* \"--CODEGEN--\":5:7   */\ntag_1:\n    /* \"testApp/contracts/CrowdFunding.sol\":28:1548  contract CrowdFunding {\r... */\n  pop\n  dataSize(sub_0)\n  dup1\n  dataOffset(sub_0)\n  0x0\n  codecopy\n  0x0\n  return\nstop\n\nsub_0: assembly {\n        /* \"testApp/contracts/CrowdFunding.sol\":28:1548  contract CrowdFunding {\r... */\n      mstore(0x40, 0x80)\n      jumpi(tag_1, lt(calldatasize, 0x4))\n      calldataload(0x0)\n      0x100000000000000000000000000000000000000000000000000000000\n      swap1\n      div\n      0xffffffff\n      and\n      dup1\n      0x5b2329d4\n      eq\n      tag_2\n      jumpi\n      dup1\n      0xc1cbbca7\n      eq\n      tag_3\n      jumpi\n      dup1\n      0xf7572cf3\n      eq\n      tag_4\n      jumpi\n    tag_1:\n      0x0\n      dup1\n      revert\n        /* \"testApp/contracts/CrowdFunding.sol\":1226:1545  function checkGoalReached(uint campaignID) public returns (bool reached) {\r... */\n    tag_2:\n      callvalue\n        /* \"--CODEGEN--\":8:17   */\n      dup1\n        /* \"--CODEGEN--\":5:7   */\n      iszero\n      tag_5\n      jumpi\n        /* \"--CODEGEN--\":30:31   */\n      0x0\n        /* \"--CODEGEN--\":27:28   */\n      dup1\n        /* \"--CODEGEN--\":20:32   */\n      revert\n        /* \"--CODEGEN--\":5:7   */\n    tag_5:\n        /* \"testApp/contracts/CrowdFunding.sol\":1226:1545  function checkGoalReached(uint campaignID) public returns (bool reached) {\r... */\n      pop\n      tag_6\n      0x4\n      dup1\n      calldatasize\n      sub\n      dup2\n      add\n      swap1\n      dup1\n      dup1\n      calldataload\n      swap1\n      0x20\n      add\n      swap1\n      swap3\n      swap2\n      swap1\n      pop\n      pop\n      pop\n      jump(tag_7)\n    tag_6:\n      mload(0x40)\n      dup1\n      dup3\n      iszero\n      iszero\n      iszero\n      iszero\n      dup2\n      mstore\n      0x20\n      add\n      swap2\n      pop\n      pop\n      mload(0x40)\n      dup1\n      swap2\n      sub\n      swap1\n      return\n        /* \"testApp/contracts/CrowdFunding.sol\":776:1218  function contribute(uint campaignID) public payable {\r... */\n    tag_3:\n      tag_8\n      0x4\n      dup1\n      calldatasize\n      sub\n      dup2\n      add\n      swap1\n      dup1\n      dup1\n      calldataload\n      swap1\n      0x20\n      add\n      swap1\n      swap3\n      swap2\n      swap1\n      pop\n      pop\n      pop\n      jump(tag_9)\n    tag_8:\n      stop\n        /* \"testApp/contracts/CrowdFunding.sol\":429:768  function newCampaign(address beneficiary, uint goal) public returns (uint campaignID) {\r... */\n    tag_4:\n      callvalue\n        /* \"--CODEGEN--\":8:17   */\n      dup1\n        /* \"--CODEGEN--\":5:7   */\n      iszero\n      tag_10\n      jumpi\n        /* \"--CODEGEN--\":30:31   */\n      0x0\n        /* \"--CODEGEN--\":27:28   */\n      dup1\n        /* \"--CODEGEN--\":20:32   */\n      revert\n        /* \"--CODEGEN--\":5:7   */\n    tag_10:\n        /* \"testApp/contracts/CrowdFunding.sol\":429:768  function newCampaign(address beneficiary, uint goal) public returns (uint campaignID) {\r... */\n      pop\n      tag_11\n      0x4\n      dup1\n      calldatasize\n      sub\n      dup2\n      add\n      swap1\n      dup1\n      dup1\n      calldataload\n      0xffffffffffffffffffffffffffffffffffffffff\n      and\n      swap1\n      0x20\n      add\n      swap1\n      swap3\n      swap2\n      swap1\n      dup1\n      calldataload\n      swap1\n      0x20\n      add\n      swap1\n      swap3\n      swap2\n      swap1\n      pop\n      pop\n      pop\n      jump(tag_12)\n    tag_11:\n      mload(0x40)\n      dup1\n      dup3\n      dup2\n      mstore\n      0x20\n      add\n      swap2\n      pop\n      pop\n      mload(0x40)\n      dup1\n      swap2\n      sub\n      swap1\n      return\n        /* \"testApp/contracts/CrowdFunding.sol\":1226:1545  function checkGoalReached(uint campaignID) public returns (bool reached) {\r... */\n    tag_7:\n        /* \"testApp/contracts/CrowdFunding.sol\":1285:1297  bool reached */\n      0x0\n        /* \"testApp/contracts/CrowdFunding.sol\":1310:1328  Campaign storage c */\n      dup1\n        /* \"testApp/contracts/CrowdFunding.sol\":1429:1440  uint amount */\n      0x0\n        /* \"testApp/contracts/CrowdFunding.sol\":1331:1340  campaigns */\n      0x1\n        /* \"testApp/contracts/CrowdFunding.sol\":1331:1352  campaigns[campaignID] */\n      0x0\n        /* \"testApp/contracts/CrowdFunding.sol\":1341:1351  campaignID */\n      dup6\n        /* \"testApp/contracts/CrowdFunding.sol\":1331:1352  campaigns[campaignID] */\n      dup2\n      mstore\n      0x20\n      add\n      swap1\n      dup2\n      mstore\n      0x20\n      add\n      0x0\n      keccak256\n        /* \"testApp/contracts/CrowdFunding.sol\":1310:1352  Campaign storage c = campaigns[campaignID] */\n      swap2\n      pop\n        /* \"testApp/contracts/CrowdFunding.sol\":1378:1379  c */\n      dup2\n        /* \"testApp/contracts/CrowdFunding.sol\":1378:1391  c.fundingGoal */\n      0x1\n      add\n      sload\n        /* \"testApp/contracts/CrowdFunding.sol\":1367:1368  c */\n      dup3\n        /* \"testApp/contracts/CrowdFunding.sol\":1367:1375  c.amount */\n      0x3\n      add\n      sload\n        /* \"testApp/contracts/CrowdFunding.sol\":1367:1391  c.amount < c.fundingGoal */\n      lt\n        /* \"testApp/contracts/CrowdFunding.sol\":1363:1418  if (c.amount < c.fundingGoal)\r... */\n      iszero\n      tag_14\n      jumpi\n        /* \"testApp/contracts/CrowdFunding.sol\":1413:1418  false */\n      0x0\n        /* \"testApp/contracts/CrowdFunding.sol\":1406:1418  return false */\n      swap3\n      pop\n      jump(tag_13)\n        /* \"testApp/contracts/CrowdFunding.sol\":1363:1418  if (c.amount < c.fundingGoal)\r... */\n    tag_14:\n        /* \"testApp/contracts/CrowdFunding.sol\":1443:1444  c */\n      dup2\n        /* \"testApp/contracts/CrowdFunding.sol\":1443:1451  c.amount */\n      0x3\n      add\n      sload\n        /* \"testApp/contracts/CrowdFunding.sol\":1429:1451  uint amount = c.amount */\n      swap1\n      pop\n        /* \"testApp/contracts/CrowdFunding.sol\":1473:1474  0 */\n      0x0\n        /* \"testApp/contracts/CrowdFunding.sol\":1462:1463  c */\n      dup3\n        /* \"testApp/contracts/CrowdFunding.sol\":1462:1470  c.amount */\n      0x3\n      add\n        /* \"testApp/contracts/CrowdFunding.sol\":1462:1474  c.amount = 0 */\n      dup2\n      swap1\n      sstore\n      pop\n        /* \"testApp/contracts/CrowdFunding.sol\":1485:1486  c */\n      dup2\n        /* \"testApp/contracts/CrowdFunding.sol\":1485:1498  c.beneficiary */\n      0x0\n      add\n      0x0\n      swap1\n      sload\n      swap1\n      0x100\n      exp\n      swap1\n      div\n      0xffffffffffffffffffffffffffffffffffffffff\n      and\n        /* \"testApp/contracts/CrowdFunding.sol\":1485:1507  c.beneficiary.transfer */\n      0xffffffffffffffffffffffffffffffffffffffff\n      and\n        /* \"testApp/contracts/CrowdFunding.sol\":1485:1515  c.beneficiary.transfer(amount) */\n      0x8fc\n        /* \"testApp/contracts/CrowdFunding.sol\":1508:1514  amount */\n      dup3\n        /* \"testApp/contracts/CrowdFunding.sol\":1485:1515  c.beneficiary.transfer(amount) */\n      swap1\n      dup2\n      iszero\n      mul\n      swap1\n      mload(0x40)\n      0x0\n      mload(0x40)\n      dup1\n      dup4\n      sub\n      dup2\n      dup6\n      dup9\n      dup9\n      call\n      swap4\n      pop\n      pop\n      pop\n      pop\n      iszero\n        /* \"--CODEGEN--\":8:17   */\n      dup1\n        /* \"--CODEGEN--\":5:7   */\n      iszero\n      tag_15\n      jumpi\n        /* \"--CODEGEN--\":45:61   */\n      returndatasize\n        /* \"--CODEGEN--\":42:43   */\n      0x0\n        /* \"--CODEGEN--\":39:40   */\n      dup1\n        /* \"--CODEGEN--\":24:62   */\n      returndatacopy\n        /* \"--CODEGEN--\":77:93   */\n      returndatasize\n        /* \"--CODEGEN--\":74:75   */\n      0x0\n        /* \"--CODEGEN--\":67:94   */\n      revert\n        /* \"--CODEGEN--\":5:7   */\n    tag_15:\n        /* \"testApp/contracts/CrowdFunding.sol\":1485:1515  c.beneficiary.transfer(amount) */\n      pop\n        /* \"testApp/contracts/CrowdFunding.sol\":1533:1537  true */\n      0x1\n        /* \"testApp/contracts/CrowdFunding.sol\":1526:1537  return true */\n      swap3\n      pop\n        /* \"testApp/contracts/CrowdFunding.sol\":1226:1545  function checkGoalReached(uint campaignID) public returns (bool reached) {\r... */\n    tag_13:\n      pop\n      pop\n      swap2\n      swap1\n      pop\n      jump\t// out\n        /* \"testApp/contracts/CrowdFunding.sol\":776:1218  function contribute(uint campaignID) public payable {\r... */\n    tag_9:\n        /* \"testApp/contracts/CrowdFunding.sol\":839:857  Campaign storage c */\n      0x0\n        /* \"testApp/contracts/CrowdFunding.sol\":860:869  campaigns */\n      0x1\n        /* \"testApp/contracts/CrowdFunding.sol\":860:881  campaigns[campaignID] */\n      0x0\n        /* \"testApp/contracts/CrowdFunding.sol\":870:880  campaignID */\n      dup4\n        /* \"testApp/contracts/CrowdFunding.sol\":860:881  campaigns[campaignID] */\n      dup2\n      mstore\n      0x20\n      add\n      swap1\n      dup2\n      mstore\n      0x20\n      add\n      0x0\n      keccak256\n        /* \"testApp/contracts/CrowdFunding.sol\":839:881  Campaign storage c = campaigns[campaignID] */\n      swap1\n      pop\n        /* \"testApp/contracts/CrowdFunding.sol\":1133:1178  Funder({addr: msg.sender, amount: msg.value}) */\n      0x40\n      dup1\n      mload\n      swap1\n      dup2\n      add\n      0x40\n      mstore\n      dup1\n        /* \"testApp/contracts/CrowdFunding.sol\":1147:1157  msg.sender */\n      caller\n        /* \"testApp/contracts/CrowdFunding.sol\":1133:1178  Funder({addr: msg.sender, amount: msg.value}) */\n      0xffffffffffffffffffffffffffffffffffffffff\n      and\n      dup2\n      mstore\n      0x20\n      add\n        /* \"testApp/contracts/CrowdFunding.sol\":1167:1176  msg.value */\n      callvalue\n        /* \"testApp/contracts/CrowdFunding.sol\":1133:1178  Funder({addr: msg.sender, amount: msg.value}) */\n      dup2\n      mstore\n      pop\n        /* \"testApp/contracts/CrowdFunding.sol\":1105:1106  c */\n      dup2\n        /* \"testApp/contracts/CrowdFunding.sol\":1105:1114  c.funders */\n      0x4\n      add\n        /* \"testApp/contracts/CrowdFunding.sol\":1105:1130  c.funders[c.numFunders++] */\n      0x0\n        /* \"testApp/contracts/CrowdFunding.sol\":1115:1116  c */\n      dup4\n        /* \"testApp/contracts/CrowdFunding.sol\":1115:1127  c.numFunders */\n      0x2\n      add\n      0x0\n        /* \"testApp/contracts/CrowdFunding.sol\":1115:1129  c.numFunders++ */\n      dup2\n      sload\n      dup1\n      swap3\n      swap2\n      swap1\n      0x1\n      add\n      swap2\n      swap1\n      pop\n      sstore\n        /* \"testApp/contracts/CrowdFunding.sol\":1105:1130  c.funders[c.numFunders++] */\n      dup2\n      mstore\n      0x20\n      add\n      swap1\n      dup2\n      mstore\n      0x20\n      add\n      0x0\n      keccak256\n        /* \"testApp/contracts/CrowdFunding.sol\":1105:1178  c.funders[c.numFunders++] = Funder({addr: msg.sender, amount: msg.value}) */\n      0x0\n      dup3\n      add\n      mload\n      dup2\n      0x0\n      add\n      exp(0x100, 0x0)\n      dup2\n      sload\n      dup2\n      0xffffffffffffffffffffffffffffffffffffffff\n      mul\n      not\n      and\n      swap1\n      dup4\n      0xffffffffffffffffffffffffffffffffffffffff\n      and\n      mul\n      or\n      swap1\n      sstore\n      pop\n      0x20\n      dup3\n      add\n      mload\n      dup2\n      0x1\n      add\n      sstore\n      swap1\n      pop\n      pop\n        /* \"testApp/contracts/CrowdFunding.sol\":1201:1210  msg.value */\n      callvalue\n        /* \"testApp/contracts/CrowdFunding.sol\":1189:1190  c */\n      dup2\n        /* \"testApp/contracts/CrowdFunding.sol\":1189:1197  c.amount */\n      0x3\n      add\n      0x0\n        /* \"testApp/contracts/CrowdFunding.sol\":1189:1210  c.amount += msg.value */\n      dup3\n      dup3\n      sload\n      add\n      swap3\n      pop\n      pop\n      dup2\n      swap1\n      sstore\n      pop\n        /* \"testApp/contracts/CrowdFunding.sol\":776:1218  function contribute(uint campaignID) public payable {\r... */\n      pop\n      pop\n      jump\t// out\n        /* \"testApp/contracts/CrowdFunding.sol\":429:768  function newCampaign(address beneficiary, uint goal) public returns (uint campaignID) {\r... */\n    tag_12:\n        /* \"testApp/contracts/CrowdFunding.sol\":498:513  uint campaignID */\n      0x0\n        /* \"testApp/contracts/CrowdFunding.sol\":539:551  numCampaigns */\n      dup1\n      0x0\n        /* \"testApp/contracts/CrowdFunding.sol\":539:553  numCampaigns++ */\n      dup2\n      sload\n      dup1\n      swap3\n      swap2\n      swap1\n      0x1\n      add\n      swap2\n      swap1\n      pop\n      sstore\n        /* \"testApp/contracts/CrowdFunding.sol\":526:553  campaignID = numCampaigns++ */\n      swap1\n      pop\n        /* \"testApp/contracts/CrowdFunding.sol\":727:760  Campaign(beneficiary, goal, 0, 0) */\n      0x80\n      mload(0x40)\n      swap1\n      dup2\n      add\n      0x40\n      mstore\n      dup1\n        /* \"testApp/contracts/CrowdFunding.sol\":736:747  beneficiary */\n      dup5\n        /* \"testApp/contracts/CrowdFunding.sol\":727:760  Campaign(beneficiary, goal, 0, 0) */\n      0xffffffffffffffffffffffffffffffffffffffff\n      and\n      dup2\n      mstore\n      0x20\n      add\n        /* \"testApp/contracts/CrowdFunding.sol\":749:753  goal */\n      dup4\n        /* \"testApp/contracts/CrowdFunding.sol\":727:760  Campaign(beneficiary, goal, 0, 0) */\n      dup2\n      mstore\n      0x20\n      add\n        /* \"testApp/contracts/CrowdFunding.sol\":755:756  0 */\n      0x0\n        /* \"testApp/contracts/CrowdFunding.sol\":727:760  Campaign(beneficiary, goal, 0, 0) */\n      dup2\n      mstore\n      0x20\n      add\n        /* \"testApp/contracts/CrowdFunding.sol\":758:759  0 */\n      0x0\n        /* \"testApp/contracts/CrowdFunding.sol\":727:760  Campaign(beneficiary, goal, 0, 0) */\n      dup2\n      mstore\n      pop\n        /* \"testApp/contracts/CrowdFunding.sol\":703:712  campaigns */\n      0x1\n        /* \"testApp/contracts/CrowdFunding.sol\":703:724  campaigns[campaignID] */\n      0x0\n        /* \"testApp/contracts/CrowdFunding.sol\":713:723  campaignID */\n      dup4\n        /* \"testApp/contracts/CrowdFunding.sol\":703:724  campaigns[campaignID] */\n      dup2\n      mstore\n      0x20\n      add\n      swap1\n      dup2\n      mstore\n      0x20\n      add\n      0x0\n      keccak256\n        /* \"testApp/contracts/CrowdFunding.sol\":703:760  campaigns[campaignID] = Campaign(beneficiary, goal, 0, 0) */\n      0x0\n      dup3\n      add\n      mload\n      dup2\n      0x0\n      add\n      exp(0x100, 0x0)\n      dup2\n      sload\n      dup2\n      0xffffffffffffffffffffffffffffffffffffffff\n      mul\n      not\n      and\n      swap1\n      dup4\n      0xffffffffffffffffffffffffffffffffffffffff\n      and\n      mul\n      or\n      swap1\n      sstore\n      pop\n      0x20\n      dup3\n      add\n      mload\n      dup2\n      0x1\n      add\n      sstore\n      0x40\n      dup3\n      add\n      mload\n      dup2\n      0x2\n      add\n      sstore\n      0x60\n      dup3\n      add\n      mload\n      dup2\n      0x3\n      add\n      sstore\n      swap1\n      pop\n      pop\n        /* \"testApp/contracts/CrowdFunding.sol\":429:768  function newCampaign(address beneficiary, uint goal) public returns (uint campaignID) {\r... */\n      swap3\n      swap2\n      pop\n      pop\n      jump\t// out\n\n    auxdata: 0xa165627a7a723058206eade65f3474eec80cfbbc3ac41cec120dbd8075f5957bf8adf45fb18b2685020029\n}\n",
				"bytecode": {
					"linkReferences": {},
					"object": "608060405234801561001057600080fd5b506103ab806100206000396000f300608060405260043610610057576000357c0100000000000000000000000000000000000000000000000000000000900463ffffffff1680635b2329d41461005c578063c1cbbca7146100a1578063f7572cf3146100c1575b600080fd5b34801561006857600080fd5b5061008760048036038101908080359060200190929190505050610122565b604051808215151515815260200191505060405180910390f35b6100bf600480360381019080803590602001909291905050506101dd565b005b3480156100cd57600080fd5b5061010c600480360381019080803573ffffffffffffffffffffffffffffffffffffffff169060200190929190803590602001909291905050506102b0565b6040518082815260200191505060405180910390f35b600080600060016000858152602001908152602001600020915081600101548260030154101561015557600092506101d6565b81600301549050600082600301819055508160000160009054906101000a900473ffffffffffffffffffffffffffffffffffffffff1673ffffffffffffffffffffffffffffffffffffffff166108fc829081150290604051600060405180830381858888f193505050501580156101d0573d6000803e3d6000fd5b50600192505b5050919050565b600060016000838152602001908152602001600020905060408051908101604052803373ffffffffffffffffffffffffffffffffffffffff1681526020013481525081600401600083600201600081548092919060010191905055815260200190815260200160002060008201518160000160006101000a81548173ffffffffffffffffffffffffffffffffffffffff021916908373ffffffffffffffffffffffffffffffffffffffff160217905550602082015181600101559050503481600301600082825401925050819055505050565b60008060008154809291906001019190505590506080604051908101604052808473ffffffffffffffffffffffffffffffffffffffff1681526020018381526020016000815260200160008152506001600083815260200190815260200160002060008201518160000160006101000a81548173ffffffffffffffffffffffffffffffffffffffff021916908373ffffffffffffffffffffffffffffffffffffffff160217905550602082015181600101556040820151816002015560608201518160030155905050929150505600a165627a7a723058206eade65f3474eec80cfbbc3ac41cec120dbd8075f5957bf8adf45fb18b2685020029",
					"opcodes": "PUSH1 0x80 PUSH1 0x40 MSTORE CALLVALUE DUP1 ISZERO PUSH2 0x10 JUMPI PUSH1 0x0 DUP1 REVERT JUMPDEST POP PUSH2 0x3AB DUP1 PUSH2 0x20 PUSH1 0x0 CODECOPY PUSH1 0x0 RETURN STOP PUSH1 0x80 PUSH1 0x40 MSTORE PUSH1 0x4 CALLDATASIZE LT PUSH2 0x57 JUMPI PUSH1 0x0 CALLDATALOAD PUSH29 0x100000000000000000000000000000000000000000000000000000000 SWAP1 DIV PUSH4 0xFFFFFFFF AND DUP1 PUSH4 0x5B2329D4 EQ PUSH2 0x5C JUMPI DUP1 PUSH4 0xC1CBBCA7 EQ PUSH2 0xA1 JUMPI DUP1 PUSH4 0xF7572CF3 EQ PUSH2 0xC1 JUMPI JUMPDEST PUSH1 0x0 DUP1 REVERT JUMPDEST CALLVALUE DUP1 ISZERO PUSH2 0x68 JUMPI PUSH1 0x0 DUP1 REVERT JUMPDEST POP PUSH2 0x87 PUSH1 0x4 DUP1 CALLDATASIZE SUB DUP2 ADD SWAP1 DUP1 DUP1 CALLDATALOAD SWAP1 PUSH1 0x20 ADD SWAP1 SWAP3 SWAP2 SWAP1 POP POP POP PUSH2 0x122 JUMP JUMPDEST PUSH1 0x40 MLOAD DUP1 DUP3 ISZERO ISZERO ISZERO ISZERO DUP2 MSTORE PUSH1 0x20 ADD SWAP2 POP POP PUSH1 0x40 MLOAD DUP1 SWAP2 SUB SWAP1 RETURN JUMPDEST PUSH2 0xBF PUSH1 0x4 DUP1 CALLDATASIZE SUB DUP2 ADD SWAP1 DUP1 DUP1 CALLDATALOAD SWAP1 PUSH1 0x20 ADD SWAP1 SWAP3 SWAP2 SWAP1 POP POP POP PUSH2 0x1DD JUMP JUMPDEST STOP JUMPDEST CALLVALUE DUP1 ISZERO PUSH2 0xCD JUMPI PUSH1 0x0 DUP1 REVERT JUMPDEST POP PUSH2 0x10C PUSH1 0x4 DUP1 CALLDATASIZE SUB DUP2 ADD SWAP1 DUP1 DUP1 CALLDATALOAD PUSH20 0xFFFFFFFFFFFFFFFFFFFFFFFFFFFFFFFFFFFFFFFF AND SWAP1 PUSH1 0x20 ADD SWAP1 SWAP3 SWAP2 SWAP1 DUP1 CALLDATALOAD SWAP1 PUSH1 0x20 ADD SWAP1 SWAP3 SWAP2 SWAP1 POP POP POP PUSH2 0x2B0 JUMP JUMPDEST PUSH1 0x40 MLOAD DUP1 DUP3 DUP2 MSTORE PUSH1 0x20 ADD SWAP2 POP POP PUSH1 0x40 MLOAD DUP1 SWAP2 SUB SWAP1 RETURN JUMPDEST PUSH1 0x0 DUP1 PUSH1 0x0 PUSH1 0x1 PUSH1 0x0 DUP6 DUP2 MSTORE PUSH1 0x20 ADD SWAP1 DUP2 MSTORE PUSH1 0x20 ADD PUSH1 0x0 KECCAK256 SWAP2 POP DUP2 PUSH1 0x1 ADD SLOAD DUP3 PUSH1 0x3 ADD SLOAD LT ISZERO PUSH2 0x155 JUMPI PUSH1 0x0 SWAP3 POP PUSH2 0x1D6 JUMP JUMPDEST DUP2 PUSH1 0x3 ADD SLOAD SWAP1 POP PUSH1 0x0 DUP3 PUSH1 0x3 ADD DUP2 SWAP1 SSTORE POP DUP2 PUSH1 0x0 ADD PUSH1 0x0 SWAP1 SLOAD SWAP1 PUSH2 0x100 EXP SWAP1 DIV PUSH20 0xFFFFFFFFFFFFFFFFFFFFFFFFFFFFFFFFFFFFFFFF AND PUSH20 0xFFFFFFFFFFFFFFFFFFFFFFFFFFFFFFFFFFFFFFFF AND PUSH2 0x8FC DUP3 SWAP1 DUP2 ISZERO MUL SWAP1 PUSH1 0x40 MLOAD PUSH1 0x0 PUSH1 0x40 MLOAD DUP1 DUP4 SUB DUP2 DUP6 DUP9 DUP9 CALL SWAP4 POP POP POP POP ISZERO DUP1 ISZERO PUSH2 0x1D0 JUMPI RETURNDATASIZE PUSH1 0x0 DUP1 RETURNDATACOPY RETURNDATASIZE PUSH1 0x0 REVERT JUMPDEST POP PUSH1 0x1 SWAP3 POP JUMPDEST POP POP SWAP2 SWAP1 POP JUMP JUMPDEST PUSH1 0x0 PUSH1 0x1 PUSH1 0x0 DUP4 DUP2 MSTORE PUSH1 0x20 ADD SWAP1 DUP2 MSTORE PUSH1 0x20 ADD PUSH1 0x0 KECCAK256 SWAP1 POP PUSH1 0x40 DUP1 MLOAD SWAP1 DUP2 ADD PUSH1 0x40 MSTORE DUP1 CALLER PUSH20 0xFFFFFFFFFFFFFFFFFFFFFFFFFFFFFFFFFFFFFFFF AND DUP2 MSTORE PUSH1 0x20 ADD CALLVALUE DUP2 MSTORE POP DUP2 PUSH1 0x4 ADD PUSH1 0x0 DUP4 PUSH1 0x2 ADD PUSH1 0x0 DUP2 SLOAD DUP1 SWAP3 SWAP2 SWAP1 PUSH1 0x1 ADD SWAP2 SWAP1 POP SSTORE DUP2 MSTORE PUSH1 0x20 ADD SWAP1 DUP2 MSTORE PUSH1 0x20 ADD PUSH1 0x0 KECCAK256 PUSH1 0x0 DUP3 ADD MLOAD DUP2 PUSH1 0x0 ADD PUSH1 0x0 PUSH2 0x100 EXP DUP2 SLOAD DUP2 PUSH20 0xFFFFFFFFFFFFFFFFFFFFFFFFFFFFFFFFFFFFFFFF MUL NOT AND SWAP1 DUP4 PUSH20 0xFFFFFFFFFFFFFFFFFFFFFFFFFFFFFFFFFFFFFFFF AND MUL OR SWAP1 SSTORE POP PUSH1 0x20 DUP3 ADD MLOAD DUP2 PUSH1 0x1 ADD SSTORE SWAP1 POP POP CALLVALUE DUP2 PUSH1 0x3 ADD PUSH1 0x0 DUP3 DUP3 SLOAD ADD SWAP3 POP POP DUP2 SWAP1 SSTORE POP POP POP JUMP JUMPDEST PUSH1 0x0 DUP1 PUSH1 0x0 DUP2 SLOAD DUP1 SWAP3 SWAP2 SWAP1 PUSH1 0x1 ADD SWAP2 SWAP1 POP SSTORE SWAP1 POP PUSH1 0x80 PUSH1 0x40 MLOAD SWAP1 DUP2 ADD PUSH1 0x40 MSTORE DUP1 DUP5 PUSH20 0xFFFFFFFFFFFFFFFFFFFFFFFFFFFFFFFFFFFFFFFF AND DUP2 MSTORE PUSH1 0x20 ADD DUP4 DUP2 MSTORE PUSH1 0x20 ADD PUSH1 0x0 DUP2 MSTORE PUSH1 0x20 ADD PUSH1 0x0 DUP2 MSTORE POP PUSH1 0x1 PUSH1 0x0 DUP4 DUP2 MSTORE PUSH1 0x20 ADD SWAP1 DUP2 MSTORE PUSH1 0x20 ADD PUSH1 0x0 KECCAK256 PUSH1 0x0 DUP3 ADD MLOAD DUP2 PUSH1 0x0 ADD PUSH1 0x0 PUSH2 0x100 EXP DUP2 SLOAD DUP2 PUSH20 0xFFFFFFFFFFFFFFFFFFFFFFFFFFFFFFFFFFFFFFFF MUL NOT AND SWAP1 DUP4 PUSH20 0xFFFFFFFFFFFFFFFFFFFFFFFFFFFFFFFFFFFFFFFF AND MUL OR SWAP1 SSTORE POP PUSH1 0x20 DUP3 ADD MLOAD DUP2 PUSH1 0x1 ADD SSTORE PUSH1 0x40 DUP3 ADD MLOAD DUP2 PUSH1 0x2 ADD SSTORE PUSH1 0x60 DUP3 ADD MLOAD DUP2 PUSH1 0x3 ADD SSTORE SWAP1 POP POP SWAP3 SWAP2 POP POP JUMP STOP LOG1 PUSH6 0x627A7A723058 KECCAK256 PUSH15 0xADE65F3474EEC80CFBBC3AC41CEC12 0xd 0xbd DUP1 PUSH22 0xF5957BF8ADF45FB18B26850200290000000000000000 "
				},
				"gasEstimates": {
					"creation": {
						"codeDepositCost": "187800",
						"executionCost": "232",
						"totalCost": "188032"
					},
					"external": {
						"checkGoalReached(uint256)": "infinite",
						"contribute(uint256)": "81219",
						"newCampaign(address,uint256)": "71108"
					}
				},
				"methodIdentifiers": {
					"checkGoalReached(uint256)": "5b2329d4",
					"contribute(uint256)": "c1cbbca7",
					"newCampaign(address,uint256)": "f7572cf3"
				}
			},
			"userdoc": {
				"methods": {}
			}
		}
	}
}