{
	"mintable-token/mintable-token.sol": {
		"MintableToken": {
			"abi": [
				{
					"inputs": [
						{
							"internalType": "string",
							"name": "name",
							"type": "string"
						},
						{
							"internalType": "string",
							"name": "symbol",
							"type": "string"
						},
						{
							"internalType": "uint256",
							"name": "initialSupply",
							"type": "uint256"
						}
					],
					"stateMutability": "payable",
					"type": "constructor"
				},
				{
					"anonymous": false,
					"inputs": [
						{
							"indexed": true,
							"internalType": "address",
							"name": "owner",
							"type": "address"
						},
						{
							"indexed": true,
							"internalType": "address",
							"name": "spender",
							"type": "address"
						},
						{
							"indexed": false,
							"internalType": "uint256",
							"name": "value",
							"type": "uint256"
						}
					],
					"name": "Approval",
					"type": "event"
				},
				{
					"anonymous": false,
					"inputs": [
						{
							"indexed": true,
							"internalType": "address",
							"name": "previousOwner",
							"type": "address"
						},
						{
							"indexed": true,
							"internalType": "address",
							"name": "newOwner",
							"type": "address"
						}
					],
					"name": "OwnershipTransferred",
					"type": "event"
				},
				{
					"anonymous": false,
					"inputs": [
						{
							"indexed": true,
							"internalType": "address",
							"name": "from",
							"type": "address"
						},
						{
							"indexed": true,
							"internalType": "address",
							"name": "to",
							"type": "address"
						},
						{
							"indexed": false,
							"internalType": "uint256",
							"name": "value",
							"type": "uint256"
						}
					],
					"name": "Transfer",
					"type": "event"
				},
				{
					"inputs": [
						{
							"internalType": "address",
							"name": "owner",
							"type": "address"
						},
						{
							"internalType": "address",
							"name": "spender",
							"type": "address"
						}
					],
					"name": "allowance",
					"outputs": [
						{
							"internalType": "uint256",
							"name": "",
							"type": "uint256"
						}
					],
					"stateMutability": "view",
					"type": "function"
				},
				{
					"inputs": [
						{
							"internalType": "address",
							"name": "spender",
							"type": "address"
						},
						{
							"internalType": "uint256",
							"name": "amount",
							"type": "uint256"
						}
					],
					"name": "approve",
					"outputs": [
						{
							"internalType": "bool",
							"name": "",
							"type": "bool"
						}
					],
					"stateMutability": "nonpayable",
					"type": "function"
				},
				{
					"inputs": [
						{
							"internalType": "address",
							"name": "account",
							"type": "address"
						}
					],
					"name": "balanceOf",
					"outputs": [
						{
							"internalType": "uint256",
							"name": "",
							"type": "uint256"
						}
					],
					"stateMutability": "view",
					"type": "function"
				},
				{
					"inputs": [],
					"name": "decimals",
					"outputs": [
						{
							"internalType": "uint8",
							"name": "",
							"type": "uint8"
						}
					],
					"stateMutability": "view",
					"type": "function"
				},
				{
					"inputs": [
						{
							"internalType": "address",
							"name": "spender",
							"type": "address"
						},
						{
							"internalType": "uint256",
							"name": "subtractedValue",
							"type": "uint256"
						}
					],
					"name": "decreaseAllowance",
					"outputs": [
						{
							"internalType": "bool",
							"name": "",
							"type": "bool"
						}
					],
					"stateMutability": "nonpayable",
					"type": "function"
				},
				{
					"inputs": [
						{
							"internalType": "address",
							"name": "spender",
							"type": "address"
						},
						{
							"internalType": "uint256",
							"name": "addedValue",
							"type": "uint256"
						}
					],
					"name": "increaseAllowance",
					"outputs": [
						{
							"internalType": "bool",
							"name": "",
							"type": "bool"
						}
					],
					"stateMutability": "nonpayable",
					"type": "function"
				},
				{
					"inputs": [
						{
							"internalType": "uint256",
							"name": "amount",
							"type": "uint256"
						},
						{
							"internalType": "address",
							"name": "to",
							"type": "address"
						}
					],
					"name": "mint",
					"outputs": [],
					"stateMutability": "nonpayable",
					"type": "function"
				},
				{
					"inputs": [],
					"name": "name",
					"outputs": [
						{
							"internalType": "string",
							"name": "",
							"type": "string"
						}
					],
					"stateMutability": "view",
					"type": "function"
				},
				{
					"inputs": [],
					"name": "owner",
					"outputs": [
						{
							"internalType": "address",
							"name": "",
							"type": "address"
						}
					],
					"stateMutability": "view",
					"type": "function"
				},
				{
					"inputs": [],
					"name": "renounceOwnership",
					"outputs": [],
					"stateMutability": "nonpayable",
					"type": "function"
				},
				{
					"inputs": [],
					"name": "symbol",
					"outputs": [
						{
							"internalType": "string",
							"name": "",
							"type": "string"
						}
					],
					"stateMutability": "view",
					"type": "function"
				},
				{
					"inputs": [],
					"name": "totalSupply",
					"outputs": [
						{
							"internalType": "uint256",
							"name": "",
							"type": "uint256"
						}
					],
					"stateMutability": "view",
					"type": "function"
				},
				{
					"inputs": [
						{
							"internalType": "address",
							"name": "to",
							"type": "address"
						},
						{
							"internalType": "uint256",
							"name": "amount",
							"type": "uint256"
						}
					],
					"name": "transfer",
					"outputs": [
						{
							"internalType": "bool",
							"name": "",
							"type": "bool"
						}
					],
					"stateMutability": "nonpayable",
					"type": "function"
				},
				{
					"inputs": [
						{
							"internalType": "address",
							"name": "from",
							"type": "address"
						},
						{
							"internalType": "address",
							"name": "to",
							"type": "address"
						},
						{
							"internalType": "uint256",
							"name": "amount",
							"type": "uint256"
						}
					],
					"name": "transferFrom",
					"outputs": [
						{
							"internalType": "bool",
							"name": "",
							"type": "bool"
						}
					],
					"stateMutability": "nonpayable",
					"type": "function"
				},
				{
					"inputs": [
						{
							"internalType": "address",
							"name": "newOwner",
							"type": "address"
						}
					],
					"name": "transferOwnership",
					"outputs": [],
					"stateMutability": "nonpayable",
					"type": "function"
				}
			],
			"devdoc": {
				"author": "Breakthrough Labs Inc.",
				"custom:address": "5",
				"custom:default-precision": "18",
				"custom:simple-description": "Token that allows the owner to mint as many tokens as desired.",
				"custom:version": "1.0.7",
				"details": "ERC20 token with the following features:  - Premint your initial supply.  - Mint as many tokens as you want with no cap.  - Only the contract owner can mint new tokens.",
				"events": {
					"Approval(address,address,uint256)": {
						"details": "Emitted when the allowance of a `spender` for an `owner` is set by a call to {approve}. `value` is the new allowance."
					},
					"Transfer(address,address,uint256)": {
						"details": "Emitted when `value` tokens are moved from one account (`from`) to another (`to`). Note that `value` may be zero."
					}
				},
				"kind": "dev",
				"methods": {
					"allowance(address,address)": {
						"details": "See {IERC20-allowance}."
					},
					"approve(address,uint256)": {
						"details": "See {IERC20-approve}. NOTE: If `amount` is the maximum `uint256`, the allowance is not updated on `transferFrom`. This is semantically equivalent to an infinite approval. Requirements: - `spender` cannot be the zero address."
					},
					"balanceOf(address)": {
						"details": "See {IERC20-balanceOf}."
					},
					"constructor": {
						"params": {
							"initialSupply": "Initial Supply",
							"name": "Token Name",
							"symbol": "Token Symbol"
						}
					},
					"decimals()": {
						"details": "Returns the number of decimals used to get its user representation. For example, if `decimals` equals `2`, a balance of `505` tokens should be displayed to a user as `5.05` (`505 / 10 ** 2`). Tokens usually opt for a value of 18, imitating the relationship between Ether and Wei. This is the value {ERC20} uses, unless this function is overridden; NOTE: This information is only used for _display_ purposes: it in no way affects any of the arithmetic of the contract, including {IERC20-balanceOf} and {IERC20-transfer}."
					},
					"decreaseAllowance(address,uint256)": {
						"details": "Atomically decreases the allowance granted to `spender` by the caller. This is an alternative to {approve} that can be used as a mitigation for problems described in {IERC20-approve}. Emits an {Approval} event indicating the updated allowance. Requirements: - `spender` cannot be the zero address. - `spender` must have allowance for the caller of at least `subtractedValue`."
					},
					"increaseAllowance(address,uint256)": {
						"details": "Atomically increases the allowance granted to `spender` by the caller. This is an alternative to {approve} that can be used as a mitigation for problems described in {IERC20-approve}. Emits an {Approval} event indicating the updated allowance. Requirements: - `spender` cannot be the zero address."
					},
					"mint(uint256,address)": {
						"details": "Creates `amount` tokens and assigns them to `to`, increasing the total supply. Only accessible by the contract owner."
					},
					"name()": {
						"details": "Returns the name of the token."
					},
					"owner()": {
						"details": "Returns the address of the current owner."
					},
					"renounceOwnership()": {
						"details": "Leaves the contract without owner. It will not be possible to call `onlyOwner` functions anymore. Can only be called by the current owner. NOTE: Renouncing ownership will leave the contract without an owner, thereby removing any functionality that is only available to the owner."
					},
					"symbol()": {
						"details": "Returns the symbol of the token, usually a shorter version of the name."
					},
					"totalSupply()": {
						"details": "See {IERC20-totalSupply}."
					},
					"transfer(address,uint256)": {
						"details": "See {IERC20-transfer}. Requirements: - `to` cannot be the zero address. - the caller must have a balance of at least `amount`."
					},
					"transferFrom(address,address,uint256)": {
						"details": "See {IERC20-transferFrom}. Emits an {Approval} event indicating the updated allowance. This is not required by the EIP. See the note at the beginning of {ERC20}. NOTE: Does not update the allowance if the current allowance is the maximum `uint256`. Requirements: - `from` and `to` cannot be the zero address. - `from` must have a balance of at least `amount`. - the caller must have allowance for ``from``'s tokens of at least `amount`."
					},
					"transferOwnership(address)": {
						"details": "Transfers ownership of the contract to a new account (`newOwner`). Can only be called by the current owner."
					}
				},
				"title": "Mintable Token",
				"version": 1
			},
			"evm": {
				"assembly": "    /* \"mintable-token/mintable-token.sol\":1946:2556  contract MintableToken is ERC20, Ownable {... */\n  mstore(0x40, 0x80)\n    /* \"mintable-token/mintable-token.sol\":2116:2300  constructor(... */\n  mload(0x40)\n  sub(codesize, bytecodeSize)\n  dup1\n  bytecodeSize\n  dup4\n  codecopy\n  dup2\n  dup2\n  add\n  0x40\n  mstore\n  dup2\n  add\n  swap1\n  tag_1\n  swap2\n  swap1\n  tag_2\n  jump\t// in\ntag_1:\n    /* \"mintable-token/mintable-token.sol\":2237:2241  name */\n  dup3\n    /* \"mintable-token/mintable-token.sol\":2243:2249  symbol */\n  dup3\n    /* \"mintable-token/@openzeppelin/contracts/token/ERC20/ERC20.sol\":3327:3332  name_ */\n  dup2\n    /* \"mintable-token/@openzeppelin/contracts/token/ERC20/ERC20.sol\":3319:3324  _name */\n  0x03\n    /* \"mintable-token/@openzeppelin/contracts/token/ERC20/ERC20.sol\":3319:3332  _name = name_ */\n  swap1\n  dup2\n  tag_7\n  swap2\n  swap1\n  tag_8\n  jump\t// in\ntag_7:\n  pop\n    /* \"mintable-token/@openzeppelin/contracts/token/ERC20/ERC20.sol\":3352:3359  symbol_ */\n  dup1\n    /* \"mintable-token/@openzeppelin/contracts/token/ERC20/ERC20.sol\":3342:3349  _symbol */\n  0x04\n    /* \"mintable-token/@openzeppelin/contracts/token/ERC20/ERC20.sol\":3342:3359  _symbol = symbol_ */\n  swap1\n  dup2\n  tag_9\n  swap2\n  swap1\n  tag_8\n  jump\t// in\ntag_9:\n  pop\n    /* \"mintable-token/@openzeppelin/contracts/token/ERC20/ERC20.sol\":3253:3366  constructor(string memory name_, string memory symbol_) {... */\n  pop\n  pop\n    /* \"mintable-token/@openzeppelin/contracts/access/Ownable.sol\":2211:2243  _transferOwnership(_msgSender()) */\n  tag_11\n    /* \"mintable-token/@openzeppelin/contracts/access/Ownable.sol\":2230:2242  _msgSender() */\n  tag_12\n    /* \"mintable-token/@openzeppelin/contracts/access/Ownable.sol\":2230:2240  _msgSender */\n  shl(0x20, tag_13)\n    /* \"mintable-token/@openzeppelin/contracts/access/Ownable.sol\":2230:2242  _msgSender() */\n  0x20\n  shr\n  jump\t// in\ntag_12:\n    /* \"mintable-token/@openzeppelin/contracts/access/Ownable.sol\":2211:2229  _transferOwnership */\n  shl(0x20, tag_14)\n    /* \"mintable-token/@openzeppelin/contracts/access/Ownable.sol\":2211:2243  _transferOwnership(_msgSender()) */\n  0x20\n  shr\n  jump\t// in\ntag_11:\n    /* \"mintable-token/mintable-token.sol\":2261:2293  _mint(msg.sender, initialSupply) */\n  tag_16\n    /* \"mintable-token/mintable-token.sol\":2267:2277  msg.sender */\n  caller\n    /* \"mintable-token/mintable-token.sol\":2279:2292  initialSupply */\n  dup3\n    /* \"mintable-token/mintable-token.sol\":2261:2266  _mint */\n  shl(0x20, tag_17)\n    /* \"mintable-token/mintable-token.sol\":2261:2293  _mint(msg.sender, initialSupply) */\n  0x20\n  shr\n  jump\t// in\ntag_16:\n    /* \"mintable-token/mintable-token.sol\":2116:2300  constructor(... */\n  pop\n  pop\n  pop\n    /* \"mintable-token/mintable-token.sol\":1946:2556  contract MintableToken is ERC20, Ownable {... */\n  jump(tag_18)\n    /* \"mintable-token/@openzeppelin/contracts/utils/Context.sol\":1915:2011  function _msgSender() internal view virtual returns (address) {... */\ntag_13:\n    /* \"mintable-token/@openzeppelin/contracts/utils/Context.sol\":1968:1975  address */\n  0x00\n    /* \"mintable-token/@openzeppelin/contracts/utils/Context.sol\":1994:2004  msg.sender */\n  caller\n    /* \"mintable-token/@openzeppelin/contracts/utils/Context.sol\":1987:2004  return msg.sender */\n  swap1\n  pop\n    /* \"mintable-token/@openzeppelin/contracts/utils/Context.sol\":1915:2011  function _msgSender() internal view virtual returns (address) {... */\n  swap1\n  jump\t// out\n    /* \"mintable-token/@openzeppelin/contracts/access/Ownable.sol\":3708:3895  function _transferOwnership(address newOwner) internal virtual {... */\ntag_14:\n    /* \"mintable-token/@openzeppelin/contracts/access/Ownable.sol\":3781:3797  address oldOwner */\n  0x00\n    /* \"mintable-token/@openzeppelin/contracts/access/Ownable.sol\":3800:3806  _owner */\n  0x05\n  0x00\n  swap1\n  sload\n  swap1\n  0x0100\n  exp\n  swap1\n  div\n  0xffffffffffffffffffffffffffffffffffffffff\n  and\n    /* \"mintable-token/@openzeppelin/contracts/access/Ownable.sol\":3781:3806  address oldOwner = _owner */\n  swap1\n  pop\n    /* \"mintable-token/@openzeppelin/contracts/access/Ownable.sol\":3825:3833  newOwner */\n  dup2\n    /* \"mintable-token/@openzeppelin/contracts/access/Ownable.sol\":3816:3822  _owner */\n  0x05\n  0x00\n    /* \"mintable-token/@openzeppelin/contracts/access/Ownable.sol\":3816:3833  _owner = newOwner */\n  0x0100\n  exp\n  dup2\n  sload\n  dup2\n  0xffffffffffffffffffffffffffffffffffffffff\n  mul\n  not\n  and\n  swap1\n  dup4\n  0xffffffffffffffffffffffffffffffffffffffff\n  and\n  mul\n  or\n  swap1\n  sstore\n  pop\n    /* \"mintable-token/@openzeppelin/contracts/access/Ownable.sol\":3879:3887  newOwner */\n  dup2\n    /* \"mintable-token/@openzeppelin/contracts/access/Ownable.sol\":3848:3888  OwnershipTransferred(oldOwner, newOwner) */\n  0xffffffffffffffffffffffffffffffffffffffff\n  and\n    /* \"mintable-token/@openzeppelin/contracts/access/Ownable.sol\":3869:3877  oldOwner */\n  dup2\n    /* \"mintable-token/@openzeppelin/contracts/access/Ownable.sol\":3848:3888  OwnershipTransferred(oldOwner, newOwner) */\n  0xffffffffffffffffffffffffffffffffffffffff\n  and\n  0x8be0079c531659141344cd1fd0a4f28419497f9722a3daafe3b4186f6b6457e0\n  mload(0x40)\n  mload(0x40)\n  dup1\n  swap2\n  sub\n  swap1\n  log3\n    /* \"mintable-token/@openzeppelin/contracts/access/Ownable.sol\":3771:3895  {... */\n  pop\n    /* \"mintable-token/@openzeppelin/contracts/access/Ownable.sol\":3708:3895  function _transferOwnership(address newOwner) internal virtual {... */\n  pop\n  jump\t// out\n    /* \"mintable-token/@openzeppelin/contracts/token/ERC20/ERC20.sol\":9677:10066  function _mint(address account, uint256 amount) internal virtual {... */\ntag_17:\n    /* \"mintable-token/@openzeppelin/contracts/token/ERC20/ERC20.sol\":9779:9780  0 */\n  0x00\n    /* \"mintable-token/@openzeppelin/contracts/token/ERC20/ERC20.sol\":9760:9781  account != address(0) */\n  0xffffffffffffffffffffffffffffffffffffffff\n  and\n    /* \"mintable-token/@openzeppelin/contracts/token/ERC20/ERC20.sol\":9760:9767  account */\n  dup3\n    /* \"mintable-token/@openzeppelin/contracts/token/ERC20/ERC20.sol\":9760:9781  account != address(0) */\n  0xffffffffffffffffffffffffffffffffffffffff\n  and\n  sub\n    /* \"mintable-token/@openzeppelin/contracts/token/ERC20/ERC20.sol\":9752:9817  require(account != address(0), \"ERC20: mint to the zero address\") */\n  tag_22\n  jumpi\n  mload(0x40)\n  0x08c379a000000000000000000000000000000000000000000000000000000000\n  dup2\n  mstore\n  0x04\n  add\n  tag_23\n  swap1\n  tag_24\n  jump\t// in\ntag_23:\n  mload(0x40)\n  dup1\n  swap2\n  sub\n  swap1\n  revert\ntag_22:\n    /* \"mintable-token/@openzeppelin/contracts/token/ERC20/ERC20.sol\":9828:9877  _beforeTokenTransfer(address(0), account, amount) */\n  tag_25\n    /* \"mintable-token/@openzeppelin/contracts/token/ERC20/ERC20.sol\":9857:9858  0 */\n  0x00\n    /* \"mintable-token/@openzeppelin/contracts/token/ERC20/ERC20.sol\":9861:9868  account */\n  dup4\n    /* \"mintable-token/@openzeppelin/contracts/token/ERC20/ERC20.sol\":9870:9876  amount */\n  dup4\n    /* \"mintable-token/@openzeppelin/contracts/token/ERC20/ERC20.sol\":9828:9848  _beforeTokenTransfer */\n  shl(0x20, tag_26)\n    /* \"mintable-token/@openzeppelin/contracts/token/ERC20/ERC20.sol\":9828:9877  _beforeTokenTransfer(address(0), account, amount) */\n  0x20\n  shr\n  jump\t// in\ntag_25:\n    /* \"mintable-token/@openzeppelin/contracts/token/ERC20/ERC20.sol\":9904:9910  amount */\n  dup1\n    /* \"mintable-token/@openzeppelin/contracts/token/ERC20/ERC20.sol\":9888:9900  _totalSupply */\n  0x02\n  0x00\n    /* \"mintable-token/@openzeppelin/contracts/token/ERC20/ERC20.sol\":9888:9910  _totalSupply += amount */\n  dup3\n  dup3\n  sload\n  tag_27\n  swap2\n  swap1\n  tag_28\n  jump\t// in\ntag_27:\n  swap3\n  pop\n  pop\n  dup2\n  swap1\n  sstore\n  pop\n    /* \"mintable-token/@openzeppelin/contracts/token/ERC20/ERC20.sol\":9942:9948  amount */\n  dup1\n    /* \"mintable-token/@openzeppelin/contracts/token/ERC20/ERC20.sol\":9920:9929  _balances */\n  0x00\n    /* \"mintable-token/@openzeppelin/contracts/token/ERC20/ERC20.sol\":9920:9938  _balances[account] */\n  dup1\n    /* \"mintable-token/@openzeppelin/contracts/token/ERC20/ERC20.sol\":9930:9937  account */\n  dup5\n    /* \"mintable-token/@openzeppelin/contracts/token/ERC20/ERC20.sol\":9920:9938  _balances[account] */\n  0xffffffffffffffffffffffffffffffffffffffff\n  and\n  0xffffffffffffffffffffffffffffffffffffffff\n  and\n  dup2\n  mstore\n  0x20\n  add\n  swap1\n  dup2\n  mstore\n  0x20\n  add\n  0x00\n  keccak256\n  0x00\n    /* \"mintable-token/@openzeppelin/contracts/token/ERC20/ERC20.sol\":9920:9948  _balances[account] += amount */\n  dup3\n  dup3\n  sload\n  tag_29\n  swap2\n  swap1\n  tag_28\n  jump\t// in\ntag_29:\n  swap3\n  pop\n  pop\n  dup2\n  swap1\n  sstore\n  pop\n    /* \"mintable-token/@openzeppelin/contracts/token/ERC20/ERC20.sol\":9984:9991  account */\n  dup2\n    /* \"mintable-token/@openzeppelin/contracts/token/ERC20/ERC20.sol\":9963:10000  Transfer(address(0), account, amount) */\n  0xffffffffffffffffffffffffffffffffffffffff\n  and\n    /* \"mintable-token/@openzeppelin/contracts/token/ERC20/ERC20.sol\":9980:9981  0 */\n  0x00\n    /* \"mintable-token/@openzeppelin/contracts/token/ERC20/ERC20.sol\":9963:10000  Transfer(address(0), account, amount) */\n  0xffffffffffffffffffffffffffffffffffffffff\n  and\n  0xddf252ad1be2c89b69c2b068fc378daa952ba7f163c4a11628f55a4df523b3ef\n    /* \"mintable-token/@openzeppelin/contracts/token/ERC20/ERC20.sol\":9993:9999  amount */\n  dup4\n    /* \"mintable-token/@openzeppelin/contracts/token/ERC20/ERC20.sol\":9963:10000  Transfer(address(0), account, amount) */\n  mload(0x40)\n  tag_30\n  swap2\n  swap1\n  tag_31\n  jump\t// in\ntag_30:\n  mload(0x40)\n  dup1\n  swap2\n  sub\n  swap1\n  log3\n    /* \"mintable-token/@openzeppelin/contracts/token/ERC20/ERC20.sol\":10011:10059  _afterTokenTransfer(address(0), account, amount) */\n  tag_32\n    /* \"mintable-token/@openzeppelin/contracts/token/ERC20/ERC20.sol\":10039:10040  0 */\n  0x00\n    /* \"mintable-token/@openzeppelin/contracts/token/ERC20/ERC20.sol\":10043:10050  account */\n  dup4\n    /* \"mintable-token/@openzeppelin/contracts/token/ERC20/ERC20.sol\":10052:10058  amount */\n  dup4\n    /* \"mintable-token/@openzeppelin/contracts/token/ERC20/ERC20.sol\":10011:10030  _afterTokenTransfer */\n  shl(0x20, tag_33)\n    /* \"mintable-token/@openzeppelin/contracts/token/ERC20/ERC20.sol\":10011:10059  _afterTokenTransfer(address(0), account, amount) */\n  0x20\n  shr\n  jump\t// in\ntag_32:\n    /* \"mintable-token/@openzeppelin/contracts/token/ERC20/ERC20.sol\":9677:10066  function _mint(address account, uint256 amount) internal virtual {... */\n  pop\n  pop\n  jump\t// out\n    /* \"mintable-token/@openzeppelin/contracts/token/ERC20/ERC20.sol\":13061:13182  function _beforeTokenTransfer(... */\ntag_26:\n  pop\n  pop\n  pop\n  jump\t// out\n    /* \"mintable-token/@openzeppelin/contracts/token/ERC20/ERC20.sol\":13770:13890  function _afterTokenTransfer(... */\ntag_33:\n  pop\n  pop\n  pop\n  jump\t// out\n    /* \"#utility.yul\":7:82   */\ntag_36:\n    /* \"#utility.yul\":40:46   */\n  0x00\n    /* \"#utility.yul\":73:75   */\n  0x40\n    /* \"#utility.yul\":67:76   */\n  mload\n    /* \"#utility.yul\":57:76   */\n  swap1\n  pop\n    /* \"#utility.yul\":7:82   */\n  swap1\n  jump\t// out\n    /* \"#utility.yul\":88:205   */\ntag_37:\n    /* \"#utility.yul\":197:198   */\n  0x00\n    /* \"#utility.yul\":194:195   */\n  dup1\n    /* \"#utility.yul\":187:199   */\n  revert\n    /* \"#utility.yul\":211:328   */\ntag_38:\n    /* \"#utility.yul\":320:321   */\n  0x00\n    /* \"#utility.yul\":317:318   */\n  dup1\n    /* \"#utility.yul\":310:322   */\n  revert\n    /* \"#utility.yul\":334:451   */\ntag_39:\n    /* \"#utility.yul\":443:444   */\n  0x00\n    /* \"#utility.yul\":440:441   */\n  dup1\n    /* \"#utility.yul\":433:445   */\n  revert\n    /* \"#utility.yul\":457:574   */\ntag_40:\n    /* \"#utility.yul\":566:567   */\n  0x00\n    /* \"#utility.yul\":563:564   */\n  dup1\n    /* \"#utility.yul\":556:568   */\n  revert\n    /* \"#utility.yul\":580:682   */\ntag_41:\n    /* \"#utility.yul\":621:627   */\n  0x00\n    /* \"#utility.yul\":672:674   */\n  0x1f\n    /* \"#utility.yul\":668:675   */\n  not\n    /* \"#utility.yul\":663:665   */\n  0x1f\n    /* \"#utility.yul\":656:661   */\n  dup4\n    /* \"#utility.yul\":652:666   */\n  add\n    /* \"#utility.yul\":648:676   */\n  and\n    /* \"#utility.yul\":638:676   */\n  swap1\n  pop\n    /* \"#utility.yul\":580:682   */\n  swap2\n  swap1\n  pop\n  jump\t// out\n    /* \"#utility.yul\":688:868   */\ntag_42:\n    /* \"#utility.yul\":736:813   */\n  0x4e487b7100000000000000000000000000000000000000000000000000000000\n    /* \"#utility.yul\":733:734   */\n  0x00\n    /* \"#utility.yul\":726:814   */\n  mstore\n    /* \"#utility.yul\":833:837   */\n  0x41\n    /* \"#utility.yul\":830:831   */\n  0x04\n    /* \"#utility.yul\":823:838   */\n  mstore\n    /* \"#utility.yul\":857:861   */\n  0x24\n    /* \"#utility.yul\":854:855   */\n  0x00\n    /* \"#utility.yul\":847:862   */\n  revert\n    /* \"#utility.yul\":874:1155   */\ntag_43:\n    /* \"#utility.yul\":957:984   */\n  tag_84\n    /* \"#utility.yul\":979:983   */\n  dup3\n    /* \"#utility.yul\":957:984   */\n  tag_41\n  jump\t// in\ntag_84:\n    /* \"#utility.yul\":949:955   */\n  dup2\n    /* \"#utility.yul\":945:985   */\n  add\n    /* \"#utility.yul\":1087:1093   */\n  dup2\n    /* \"#utility.yul\":1075:1085   */\n  dup2\n    /* \"#utility.yul\":1072:1094   */\n  lt\n    /* \"#utility.yul\":1051:1069   */\n  0xffffffffffffffff\n    /* \"#utility.yul\":1039:1049   */\n  dup3\n    /* \"#utility.yul\":1036:1070   */\n  gt\n    /* \"#utility.yul\":1033:1095   */\n  or\n    /* \"#utility.yul\":1030:1118   */\n  iszero\n  tag_85\n  jumpi\n    /* \"#utility.yul\":1098:1116   */\n  tag_86\n  tag_42\n  jump\t// in\ntag_86:\n    /* \"#utility.yul\":1030:1118   */\ntag_85:\n    /* \"#utility.yul\":1138:1148   */\n  dup1\n    /* \"#utility.yul\":1134:1136   */\n  0x40\n    /* \"#utility.yul\":1127:1149   */\n  mstore\n    /* \"#utility.yul\":917:1155   */\n  pop\n    /* \"#utility.yul\":874:1155   */\n  pop\n  pop\n  jump\t// out\n    /* \"#utility.yul\":1161:1290   */\ntag_44:\n    /* \"#utility.yul\":1195:1201   */\n  0x00\n    /* \"#utility.yul\":1222:1242   */\n  tag_88\n  tag_36\n  jump\t// in\ntag_88:\n    /* \"#utility.yul\":1212:1242   */\n  swap1\n  pop\n    /* \"#utility.yul\":1251:1284   */\n  tag_89\n    /* \"#utility.yul\":1279:1283   */\n  dup3\n    /* \"#utility.yul\":1271:1277   */\n  dup3\n    /* \"#utility.yul\":1251:1284   */\n  tag_43\n  jump\t// in\ntag_89:\n    /* \"#utility.yul\":1161:1290   */\n  swap2\n  swap1\n  pop\n  jump\t// out\n    /* \"#utility.yul\":1296:1604   */\ntag_45:\n    /* \"#utility.yul\":1358:1362   */\n  0x00\n    /* \"#utility.yul\":1448:1466   */\n  0xffffffffffffffff\n    /* \"#utility.yul\":1440:1446   */\n  dup3\n    /* \"#utility.yul\":1437:1467   */\n  gt\n    /* \"#utility.yul\":1434:1490   */\n  iszero\n  tag_91\n  jumpi\n    /* \"#utility.yul\":1470:1488   */\n  tag_92\n  tag_42\n  jump\t// in\ntag_92:\n    /* \"#utility.yul\":1434:1490   */\ntag_91:\n    /* \"#utility.yul\":1508:1537   */\n  tag_93\n    /* \"#utility.yul\":1530:1536   */\n  dup3\n    /* \"#utility.yul\":1508:1537   */\n  tag_41\n  jump\t// in\ntag_93:\n    /* \"#utility.yul\":1500:1537   */\n  swap1\n  pop\n    /* \"#utility.yul\":1592:1596   */\n  0x20\n    /* \"#utility.yul\":1586:1590   */\n  dup2\n    /* \"#utility.yul\":1582:1597   */\n  add\n    /* \"#utility.yul\":1574:1597   */\n  swap1\n  pop\n    /* \"#utility.yul\":1296:1604   */\n  swap2\n  swap1\n  pop\n  jump\t// out\n    /* \"#utility.yul\":1610:1749   */\ntag_46:\n    /* \"#utility.yul\":1699:1705   */\n  dup3\n    /* \"#utility.yul\":1694:1697   */\n  dup2\n    /* \"#utility.yul\":1689:1692   */\n  dup4\n    /* \"#utility.yul\":1683:1706   */\n  mcopy\n    /* \"#utility.yul\":1740:1741   */\n  0x00\n    /* \"#utility.yul\":1731:1737   */\n  dup4\n    /* \"#utility.yul\":1726:1729   */\n  dup4\n    /* \"#utility.yul\":1722:1738   */\n  add\n    /* \"#utility.yul\":1715:1742   */\n  mstore\n    /* \"#utility.yul\":1610:1749   */\n  pop\n  pop\n  pop\n  jump\t// out\n    /* \"#utility.yul\":1755:2189   */\ntag_47:\n    /* \"#utility.yul\":1844:1849   */\n  0x00\n    /* \"#utility.yul\":1869:1935   */\n  tag_96\n    /* \"#utility.yul\":1885:1934   */\n  tag_97\n    /* \"#utility.yul\":1927:1933   */\n  dup5\n    /* \"#utility.yul\":1885:1934   */\n  tag_45\n  jump\t// in\ntag_97:\n    /* \"#utility.yul\":1869:1935   */\n  tag_44\n  jump\t// in\ntag_96:\n    /* \"#utility.yul\":1860:1935   */\n  swap1\n  pop\n    /* \"#utility.yul\":1958:1964   */\n  dup3\n    /* \"#utility.yul\":1951:1956   */\n  dup2\n    /* \"#utility.yul\":1944:1965   */\n  mstore\n    /* \"#utility.yul\":1996:2000   */\n  0x20\n    /* \"#utility.yul\":1989:1994   */\n  dup2\n    /* \"#utility.yul\":1985:2001   */\n  add\n    /* \"#utility.yul\":2034:2037   */\n  dup5\n    /* \"#utility.yul\":2025:2031   */\n  dup5\n    /* \"#utility.yul\":2020:2023   */\n  dup5\n    /* \"#utility.yul\":2016:2032   */\n  add\n    /* \"#utility.yul\":2013:2038   */\n  gt\n    /* \"#utility.yul\":2010:2122   */\n  iszero\n  tag_98\n  jumpi\n    /* \"#utility.yul\":2041:2120   */\n  tag_99\n  tag_40\n  jump\t// in\ntag_99:\n    /* \"#utility.yul\":2010:2122   */\ntag_98:\n    /* \"#utility.yul\":2131:2183   */\n  tag_100\n    /* \"#utility.yul\":2176:2182   */\n  dup5\n    /* \"#utility.yul\":2171:2174   */\n  dup3\n    /* \"#utility.yul\":2166:2169   */\n  dup6\n    /* \"#utility.yul\":2131:2183   */\n  tag_46\n  jump\t// in\ntag_100:\n    /* \"#utility.yul\":1850:2189   */\n  pop\n    /* \"#utility.yul\":1755:2189   */\n  swap4\n  swap3\n  pop\n  pop\n  pop\n  jump\t// out\n    /* \"#utility.yul\":2209:2564   */\ntag_48:\n    /* \"#utility.yul\":2276:2281   */\n  0x00\n    /* \"#utility.yul\":2325:2328   */\n  dup3\n    /* \"#utility.yul\":2318:2322   */\n  0x1f\n    /* \"#utility.yul\":2310:2316   */\n  dup4\n    /* \"#utility.yul\":2306:2323   */\n  add\n    /* \"#utility.yul\":2302:2329   */\n  slt\n    /* \"#utility.yul\":2292:2414   */\n  tag_102\n  jumpi\n    /* \"#utility.yul\":2333:2412   */\n  tag_103\n  tag_39\n  jump\t// in\ntag_103:\n    /* \"#utility.yul\":2292:2414   */\ntag_102:\n    /* \"#utility.yul\":2443:2449   */\n  dup2\n    /* \"#utility.yul\":2437:2450   */\n  mload\n    /* \"#utility.yul\":2468:2558   */\n  tag_104\n    /* \"#utility.yul\":2554:2557   */\n  dup5\n    /* \"#utility.yul\":2546:2552   */\n  dup3\n    /* \"#utility.yul\":2539:2543   */\n  0x20\n    /* \"#utility.yul\":2531:2537   */\n  dup7\n    /* \"#utility.yul\":2527:2544   */\n  add\n    /* \"#utility.yul\":2468:2558   */\n  tag_47\n  jump\t// in\ntag_104:\n    /* \"#utility.yul\":2459:2558   */\n  swap2\n  pop\n    /* \"#utility.yul\":2282:2564   */\n  pop\n    /* \"#utility.yul\":2209:2564   */\n  swap3\n  swap2\n  pop\n  pop\n  jump\t// out\n    /* \"#utility.yul\":2570:2647   */\ntag_49:\n    /* \"#utility.yul\":2607:2614   */\n  0x00\n    /* \"#utility.yul\":2636:2641   */\n  dup2\n    /* \"#utility.yul\":2625:2641   */\n  swap1\n  pop\n    /* \"#utility.yul\":2570:2647   */\n  swap2\n  swap1\n  pop\n  jump\t// out\n    /* \"#utility.yul\":2653:2775   */\ntag_50:\n    /* \"#utility.yul\":2726:2750   */\n  tag_107\n    /* \"#utility.yul\":2744:2749   */\n  dup2\n    /* \"#utility.yul\":2726:2750   */\n  tag_49\n  jump\t// in\ntag_107:\n    /* \"#utility.yul\":2719:2724   */\n  dup2\n    /* \"#utility.yul\":2716:2751   */\n  eq\n    /* \"#utility.yul\":2706:2769   */\n  tag_108\n  jumpi\n    /* \"#utility.yul\":2765:2766   */\n  0x00\n    /* \"#utility.yul\":2762:2763   */\n  dup1\n    /* \"#utility.yul\":2755:2767   */\n  revert\n    /* \"#utility.yul\":2706:2769   */\ntag_108:\n    /* \"#utility.yul\":2653:2775   */\n  pop\n  jump\t// out\n    /* \"#utility.yul\":2781:2924   */\ntag_51:\n    /* \"#utility.yul\":2838:2843   */\n  0x00\n    /* \"#utility.yul\":2869:2875   */\n  dup2\n    /* \"#utility.yul\":2863:2876   */\n  mload\n    /* \"#utility.yul\":2854:2876   */\n  swap1\n  pop\n    /* \"#utility.yul\":2885:2918   */\n  tag_110\n    /* \"#utility.yul\":2912:2917   */\n  dup2\n    /* \"#utility.yul\":2885:2918   */\n  tag_50\n  jump\t// in\ntag_110:\n    /* \"#utility.yul\":2781:2924   */\n  swap3\n  swap2\n  pop\n  pop\n  jump\t// out\n    /* \"#utility.yul\":2930:3939   */\ntag_2:\n    /* \"#utility.yul\":3038:3044   */\n  0x00\n    /* \"#utility.yul\":3046:3052   */\n  dup1\n    /* \"#utility.yul\":3054:3060   */\n  0x00\n    /* \"#utility.yul\":3103:3105   */\n  0x60\n    /* \"#utility.yul\":3091:3100   */\n  dup5\n    /* \"#utility.yul\":3082:3089   */\n  dup7\n    /* \"#utility.yul\":3078:3101   */\n  sub\n    /* \"#utility.yul\":3074:3106   */\n  slt\n    /* \"#utility.yul\":3071:3190   */\n  iszero\n  tag_112\n  jumpi\n    /* \"#utility.yul\":3109:3188   */\n  tag_113\n  tag_37\n  jump\t// in\ntag_113:\n    /* \"#utility.yul\":3071:3190   */\ntag_112:\n    /* \"#utility.yul\":3250:3251   */\n  0x00\n    /* \"#utility.yul\":3239:3248   */\n  dup5\n    /* \"#utility.yul\":3235:3252   */\n  add\n    /* \"#utility.yul\":3229:3253   */\n  mload\n    /* \"#utility.yul\":3280:3298   */\n  0xffffffffffffffff\n    /* \"#utility.yul\":3272:3278   */\n  dup2\n    /* \"#utility.yul\":3269:3299   */\n  gt\n    /* \"#utility.yul\":3266:3383   */\n  iszero\n  tag_114\n  jumpi\n    /* \"#utility.yul\":3302:3381   */\n  tag_115\n  tag_38\n  jump\t// in\ntag_115:\n    /* \"#utility.yul\":3266:3383   */\ntag_114:\n    /* \"#utility.yul\":3407:3481   */\n  tag_116\n    /* \"#utility.yul\":3473:3480   */\n  dup7\n    /* \"#utility.yul\":3464:3470   */\n  dup3\n    /* \"#utility.yul\":3453:3462   */\n  dup8\n    /* \"#utility.yul\":3449:3471   */\n  add\n    /* \"#utility.yul\":3407:3481   */\n  tag_48\n  jump\t// in\ntag_116:\n    /* \"#utility.yul\":3397:3481   */\n  swap4\n  pop\n    /* \"#utility.yul\":3200:3491   */\n  pop\n    /* \"#utility.yul\":3551:3553   */\n  0x20\n    /* \"#utility.yul\":3540:3549   */\n  dup5\n    /* \"#utility.yul\":3536:3554   */\n  add\n    /* \"#utility.yul\":3530:3555   */\n  mload\n    /* \"#utility.yul\":3582:3600   */\n  0xffffffffffffffff\n    /* \"#utility.yul\":3574:3580   */\n  dup2\n    /* \"#utility.yul\":3571:3601   */\n  gt\n    /* \"#utility.yul\":3568:3685   */\n  iszero\n  tag_117\n  jumpi\n    /* \"#utility.yul\":3604:3683   */\n  tag_118\n  tag_38\n  jump\t// in\ntag_118:\n    /* \"#utility.yul\":3568:3685   */\ntag_117:\n    /* \"#utility.yul\":3709:3783   */\n  tag_119\n    /* \"#utility.yul\":3775:3782   */\n  dup7\n    /* \"#utility.yul\":3766:3772   */\n  dup3\n    /* \"#utility.yul\":3755:3764   */\n  dup8\n    /* \"#utility.yul\":3751:3773   */\n  add\n    /* \"#utility.yul\":3709:3783   */\n  tag_48\n  jump\t// in\ntag_119:\n    /* \"#utility.yul\":3699:3783   */\n  swap3\n  pop\n    /* \"#utility.yul\":3501:3793   */\n  pop\n    /* \"#utility.yul\":3832:3834   */\n  0x40\n    /* \"#utility.yul\":3858:3922   */\n  tag_120\n    /* \"#utility.yul\":3914:3921   */\n  dup7\n    /* \"#utility.yul\":3905:3911   */\n  dup3\n    /* \"#utility.yul\":3894:3903   */\n  dup8\n    /* \"#utility.yul\":3890:3912   */\n  add\n    /* \"#utility.yul\":3858:3922   */\n  tag_51\n  jump\t// in\ntag_120:\n    /* \"#utility.yul\":3848:3922   */\n  swap2\n  pop\n    /* \"#utility.yul\":3803:3932   */\n  pop\n    /* \"#utility.yul\":2930:3939   */\n  swap3\n  pop\n  swap3\n  pop\n  swap3\n  jump\t// out\n    /* \"#utility.yul\":3945:4044   */\ntag_52:\n    /* \"#utility.yul\":3997:4003   */\n  0x00\n    /* \"#utility.yul\":4031:4036   */\n  dup2\n    /* \"#utility.yul\":4025:4037   */\n  mload\n    /* \"#utility.yul\":4015:4037   */\n  swap1\n  pop\n    /* \"#utility.yul\":3945:4044   */\n  swap2\n  swap1\n  pop\n  jump\t// out\n    /* \"#utility.yul\":4050:4230   */\ntag_53:\n    /* \"#utility.yul\":4098:4175   */\n  0x4e487b7100000000000000000000000000000000000000000000000000000000\n    /* \"#utility.yul\":4095:4096   */\n  0x00\n    /* \"#utility.yul\":4088:4176   */\n  mstore\n    /* \"#utility.yul\":4195:4199   */\n  0x22\n    /* \"#utility.yul\":4192:4193   */\n  0x04\n    /* \"#utility.yul\":4185:4200   */\n  mstore\n    /* \"#utility.yul\":4219:4223   */\n  0x24\n    /* \"#utility.yul\":4216:4217   */\n  0x00\n    /* \"#utility.yul\":4209:4224   */\n  revert\n    /* \"#utility.yul\":4236:4556   */\ntag_54:\n    /* \"#utility.yul\":4280:4286   */\n  0x00\n    /* \"#utility.yul\":4317:4318   */\n  0x02\n    /* \"#utility.yul\":4311:4315   */\n  dup3\n    /* \"#utility.yul\":4307:4319   */\n  div\n    /* \"#utility.yul\":4297:4319   */\n  swap1\n  pop\n    /* \"#utility.yul\":4364:4365   */\n  0x01\n    /* \"#utility.yul\":4358:4362   */\n  dup3\n    /* \"#utility.yul\":4354:4366   */\n  and\n    /* \"#utility.yul\":4385:4403   */\n  dup1\n    /* \"#utility.yul\":4375:4456   */\n  tag_124\n  jumpi\n    /* \"#utility.yul\":4441:4445   */\n  0x7f\n    /* \"#utility.yul\":4433:4439   */\n  dup3\n    /* \"#utility.yul\":4429:4446   */\n  and\n    /* \"#utility.yul\":4419:4446   */\n  swap2\n  pop\n    /* \"#utility.yul\":4375:4456   */\ntag_124:\n    /* \"#utility.yul\":4503:4505   */\n  0x20\n    /* \"#utility.yul\":4495:4501   */\n  dup3\n    /* \"#utility.yul\":4492:4506   */\n  lt\n    /* \"#utility.yul\":4472:4490   */\n  dup2\n    /* \"#utility.yul\":4469:4507   */\n  sub\n    /* \"#utility.yul\":4466:4550   */\n  tag_125\n  jumpi\n    /* \"#utility.yul\":4522:4540   */\n  tag_126\n  tag_53\n  jump\t// in\ntag_126:\n    /* \"#utility.yul\":4466:4550   */\ntag_125:\n    /* \"#utility.yul\":4287:4556   */\n  pop\n    /* \"#utility.yul\":4236:4556   */\n  swap2\n  swap1\n  pop\n  jump\t// out\n    /* \"#utility.yul\":4562:4703   */\ntag_55:\n    /* \"#utility.yul\":4611:4615   */\n  0x00\n    /* \"#utility.yul\":4634:4637   */\n  dup2\n    /* \"#utility.yul\":4626:4637   */\n  swap1\n  pop\n    /* \"#utility.yul\":4657:4660   */\n  dup2\n    /* \"#utility.yul\":4654:4655   */\n  0x00\n    /* \"#utility.yul\":4647:4661   */\n  mstore\n    /* \"#utility.yul\":4691:4695   */\n  0x20\n    /* \"#utility.yul\":4688:4689   */\n  0x00\n    /* \"#utility.yul\":4678:4696   */\n  keccak256\n    /* \"#utility.yul\":4670:4696   */\n  swap1\n  pop\n    /* \"#utility.yul\":4562:4703   */\n  swap2\n  swap1\n  pop\n  jump\t// out\n    /* \"#utility.yul\":4709:4802   */\ntag_56:\n    /* \"#utility.yul\":4746:4752   */\n  0x00\n    /* \"#utility.yul\":4793:4795   */\n  0x20\n    /* \"#utility.yul\":4788:4790   */\n  0x1f\n    /* \"#utility.yul\":4781:4786   */\n  dup4\n    /* \"#utility.yul\":4777:4791   */\n  add\n    /* \"#utility.yul\":4773:4796   */\n  div\n    /* \"#utility.yul\":4763:4796   */\n  swap1\n  pop\n    /* \"#utility.yul\":4709:4802   */\n  swap2\n  swap1\n  pop\n  jump\t// out\n    /* \"#utility.yul\":4808:4915   */\ntag_57:\n    /* \"#utility.yul\":4852:4860   */\n  0x00\n    /* \"#utility.yul\":4902:4907   */\n  dup3\n    /* \"#utility.yul\":4896:4900   */\n  dup3\n    /* \"#utility.yul\":4892:4908   */\n  shl\n    /* \"#utility.yul\":4871:4908   */\n  swap1\n  pop\n    /* \"#utility.yul\":4808:4915   */\n  swap3\n  swap2\n  pop\n  pop\n  jump\t// out\n    /* \"#utility.yul\":4921:5314   */\ntag_58:\n    /* \"#utility.yul\":4990:4996   */\n  0x00\n    /* \"#utility.yul\":5040:5041   */\n  0x08\n    /* \"#utility.yul\":5028:5038   */\n  dup4\n    /* \"#utility.yul\":5024:5042   */\n  mul\n    /* \"#utility.yul\":5063:5160   */\n  tag_131\n    /* \"#utility.yul\":5093:5159   */\n  0xffffffffffffffffffffffffffffffffffffffffffffffffffffffffffffffff\n    /* \"#utility.yul\":5082:5091   */\n  dup3\n    /* \"#utility.yul\":5063:5160   */\n  tag_57\n  jump\t// in\ntag_131:\n    /* \"#utility.yul\":5181:5220   */\n  tag_132\n    /* \"#utility.yul\":5211:5219   */\n  dup7\n    /* \"#utility.yul\":5200:5209   */\n  dup4\n    /* \"#utility.yul\":5181:5220   */\n  tag_57\n  jump\t// in\ntag_132:\n    /* \"#utility.yul\":5169:5220   */\n  swap6\n  pop\n    /* \"#utility.yul\":5253:5257   */\n  dup1\n    /* \"#utility.yul\":5249:5258   */\n  not\n    /* \"#utility.yul\":5242:5247   */\n  dup5\n    /* \"#utility.yul\":5238:5259   */\n  and\n    /* \"#utility.yul\":5229:5259   */\n  swap4\n  pop\n    /* \"#utility.yul\":5302:5306   */\n  dup1\n    /* \"#utility.yul\":5292:5300   */\n  dup7\n    /* \"#utility.yul\":5288:5307   */\n  and\n    /* \"#utility.yul\":5281:5286   */\n  dup5\n    /* \"#utility.yul\":5278:5308   */\n  or\n    /* \"#utility.yul\":5268:5308   */\n  swap3\n  pop\n    /* \"#utility.yul\":4997:5314   */\n  pop\n  pop\n    /* \"#utility.yul\":4921:5314   */\n  swap4\n  swap3\n  pop\n  pop\n  pop\n  jump\t// out\n    /* \"#utility.yul\":5320:5380   */\ntag_59:\n    /* \"#utility.yul\":5348:5351   */\n  0x00\n    /* \"#utility.yul\":5369:5374   */\n  dup2\n    /* \"#utility.yul\":5362:5374   */\n  swap1\n  pop\n    /* \"#utility.yul\":5320:5380   */\n  swap2\n  swap1\n  pop\n  jump\t// out\n    /* \"#utility.yul\":5386:5528   */\ntag_60:\n    /* \"#utility.yul\":5436:5445   */\n  0x00\n    /* \"#utility.yul\":5469:5522   */\n  tag_135\n    /* \"#utility.yul\":5487:5521   */\n  tag_136\n    /* \"#utility.yul\":5496:5520   */\n  tag_137\n    /* \"#utility.yul\":5514:5519   */\n  dup5\n    /* \"#utility.yul\":5496:5520   */\n  tag_49\n  jump\t// in\ntag_137:\n    /* \"#utility.yul\":5487:5521   */\n  tag_59\n  jump\t// in\ntag_136:\n    /* \"#utility.yul\":5469:5522   */\n  tag_49\n  jump\t// in\ntag_135:\n    /* \"#utility.yul\":5456:5522   */\n  swap1\n  pop\n    /* \"#utility.yul\":5386:5528   */\n  swap2\n  swap1\n  pop\n  jump\t// out\n    /* \"#utility.yul\":5534:5609   */\ntag_61:\n    /* \"#utility.yul\":5577:5580   */\n  0x00\n    /* \"#utility.yul\":5598:5603   */\n  dup2\n    /* \"#utility.yul\":5591:5603   */\n  swap1\n  pop\n    /* \"#utility.yul\":5534:5609   */\n  swap2\n  swap1\n  pop\n  jump\t// out\n    /* \"#utility.yul\":5615:5884   */\ntag_62:\n    /* \"#utility.yul\":5725:5764   */\n  tag_140\n    /* \"#utility.yul\":5756:5763   */\n  dup4\n    /* \"#utility.yul\":5725:5764   */\n  tag_60\n  jump\t// in\ntag_140:\n    /* \"#utility.yul\":5786:5877   */\n  tag_141\n    /* \"#utility.yul\":5835:5876   */\n  tag_142\n    /* \"#utility.yul\":5859:5875   */\n  dup3\n    /* \"#utility.yul\":5835:5876   */\n  tag_61\n  jump\t// in\ntag_142:\n    /* \"#utility.yul\":5827:5833   */\n  dup5\n    /* \"#utility.yul\":5820:5824   */\n  dup5\n    /* \"#utility.yul\":5814:5825   */\n  sload\n    /* \"#utility.yul\":5786:5877   */\n  tag_58\n  jump\t// in\ntag_141:\n    /* \"#utility.yul\":5780:5784   */\n  dup3\n    /* \"#utility.yul\":5773:5878   */\n  sstore\n    /* \"#utility.yul\":5691:5884   */\n  pop\n    /* \"#utility.yul\":5615:5884   */\n  pop\n  pop\n  pop\n  jump\t// out\n    /* \"#utility.yul\":5890:5963   */\ntag_63:\n    /* \"#utility.yul\":5935:5938   */\n  0x00\n    /* \"#utility.yul\":5890:5963   */\n  swap1\n  jump\t// out\n    /* \"#utility.yul\":5969:6158   */\ntag_64:\n    /* \"#utility.yul\":6046:6078   */\n  tag_145\n  tag_63\n  jump\t// in\ntag_145:\n    /* \"#utility.yul\":6087:6152   */\n  tag_146\n    /* \"#utility.yul\":6145:6151   */\n  dup2\n    /* \"#utility.yul\":6137:6143   */\n  dup5\n    /* \"#utility.yul\":6131:6135   */\n  dup5\n    /* \"#utility.yul\":6087:6152   */\n  tag_62\n  jump\t// in\ntag_146:\n    /* \"#utility.yul\":6022:6158   */\n  pop\n    /* \"#utility.yul\":5969:6158   */\n  pop\n  pop\n  jump\t// out\n    /* \"#utility.yul\":6164:6350   */\ntag_65:\n    /* \"#utility.yul\":6224:6344   */\ntag_148:\n    /* \"#utility.yul\":6241:6244   */\n  dup2\n    /* \"#utility.yul\":6234:6239   */\n  dup2\n    /* \"#utility.yul\":6231:6245   */\n  lt\n    /* \"#utility.yul\":6224:6344   */\n  iszero\n  tag_150\n  jumpi\n    /* \"#utility.yul\":6295:6334   */\n  tag_151\n    /* \"#utility.yul\":6332:6333   */\n  0x00\n    /* \"#utility.yul\":6325:6330   */\n  dup3\n    /* \"#utility.yul\":6295:6334   */\n  tag_64\n  jump\t// in\ntag_151:\n    /* \"#utility.yul\":6268:6269   */\n  0x01\n    /* \"#utility.yul\":6261:6266   */\n  dup2\n    /* \"#utility.yul\":6257:6270   */\n  add\n    /* \"#utility.yul\":6248:6270   */\n  swap1\n  pop\n    /* \"#utility.yul\":6224:6344   */\n  jump(tag_148)\ntag_150:\n    /* \"#utility.yul\":6164:6350   */\n  pop\n  pop\n  jump\t// out\n    /* \"#utility.yul\":6356:6899   */\ntag_66:\n    /* \"#utility.yul\":6457:6459   */\n  0x1f\n    /* \"#utility.yul\":6452:6455   */\n  dup3\n    /* \"#utility.yul\":6449:6460   */\n  gt\n    /* \"#utility.yul\":6446:6892   */\n  iszero\n  tag_153\n  jumpi\n    /* \"#utility.yul\":6491:6529   */\n  tag_154\n    /* \"#utility.yul\":6523:6528   */\n  dup2\n    /* \"#utility.yul\":6491:6529   */\n  tag_55\n  jump\t// in\ntag_154:\n    /* \"#utility.yul\":6575:6604   */\n  tag_155\n    /* \"#utility.yul\":6593:6603   */\n  dup5\n    /* \"#utility.yul\":6575:6604   */\n  tag_56\n  jump\t// in\ntag_155:\n    /* \"#utility.yul\":6565:6573   */\n  dup2\n    /* \"#utility.yul\":6561:6605   */\n  add\n    /* \"#utility.yul\":6758:6760   */\n  0x20\n    /* \"#utility.yul\":6746:6756   */\n  dup6\n    /* \"#utility.yul\":6743:6761   */\n  lt\n    /* \"#utility.yul\":6740:6789   */\n  iszero\n  tag_156\n  jumpi\n    /* \"#utility.yul\":6779:6787   */\n  dup2\n    /* \"#utility.yul\":6764:6787   */\n  swap1\n  pop\n    /* \"#utility.yul\":6740:6789   */\ntag_156:\n    /* \"#utility.yul\":6802:6882   */\n  tag_157\n    /* \"#utility.yul\":6858:6880   */\n  tag_158\n    /* \"#utility.yul\":6876:6879   */\n  dup6\n    /* \"#utility.yul\":6858:6880   */\n  tag_56\n  jump\t// in\ntag_158:\n    /* \"#utility.yul\":6848:6856   */\n  dup4\n    /* \"#utility.yul\":6844:6881   */\n  add\n    /* \"#utility.yul\":6831:6842   */\n  dup3\n    /* \"#utility.yul\":6802:6882   */\n  tag_65\n  jump\t// in\ntag_157:\n    /* \"#utility.yul\":6461:6892   */\n  pop\n  pop\n    /* \"#utility.yul\":6446:6892   */\ntag_153:\n    /* \"#utility.yul\":6356:6899   */\n  pop\n  pop\n  pop\n  jump\t// out\n    /* \"#utility.yul\":6905:7022   */\ntag_67:\n    /* \"#utility.yul\":6959:6967   */\n  0x00\n    /* \"#utility.yul\":7009:7014   */\n  dup3\n    /* \"#utility.yul\":7003:7007   */\n  dup3\n    /* \"#utility.yul\":6999:7015   */\n  shr\n    /* \"#utility.yul\":6978:7015   */\n  swap1\n  pop\n    /* \"#utility.yul\":6905:7022   */\n  swap3\n  swap2\n  pop\n  pop\n  jump\t// out\n    /* \"#utility.yul\":7028:7197   */\ntag_68:\n    /* \"#utility.yul\":7072:7078   */\n  0x00\n    /* \"#utility.yul\":7105:7156   */\n  tag_161\n    /* \"#utility.yul\":7153:7154   */\n  0x00\n    /* \"#utility.yul\":7149:7155   */\n  not\n    /* \"#utility.yul\":7141:7146   */\n  dup5\n    /* \"#utility.yul\":7138:7139   */\n  0x08\n    /* \"#utility.yul\":7134:7147   */\n  mul\n    /* \"#utility.yul\":7105:7156   */\n  tag_67\n  jump\t// in\ntag_161:\n    /* \"#utility.yul\":7101:7157   */\n  not\n    /* \"#utility.yul\":7186:7190   */\n  dup1\n    /* \"#utility.yul\":7180:7184   */\n  dup4\n    /* \"#utility.yul\":7176:7191   */\n  and\n    /* \"#utility.yul\":7166:7191   */\n  swap2\n  pop\n    /* \"#utility.yul\":7079:7197   */\n  pop\n    /* \"#utility.yul\":7028:7197   */\n  swap3\n  swap2\n  pop\n  pop\n  jump\t// out\n    /* \"#utility.yul\":7202:7497   */\ntag_69:\n    /* \"#utility.yul\":7278:7282   */\n  0x00\n    /* \"#utility.yul\":7424:7453   */\n  tag_163\n    /* \"#utility.yul\":7449:7452   */\n  dup4\n    /* \"#utility.yul\":7443:7447   */\n  dup4\n    /* \"#utility.yul\":7424:7453   */\n  tag_68\n  jump\t// in\ntag_163:\n    /* \"#utility.yul\":7416:7453   */\n  swap2\n  pop\n    /* \"#utility.yul\":7486:7489   */\n  dup3\n    /* \"#utility.yul\":7483:7484   */\n  0x02\n    /* \"#utility.yul\":7479:7490   */\n  mul\n    /* \"#utility.yul\":7473:7477   */\n  dup3\n    /* \"#utility.yul\":7470:7491   */\n  or\n    /* \"#utility.yul\":7462:7491   */\n  swap1\n  pop\n    /* \"#utility.yul\":7202:7497   */\n  swap3\n  swap2\n  pop\n  pop\n  jump\t// out\n    /* \"#utility.yul\":7502:8897   */\ntag_8:\n    /* \"#utility.yul\":7619:7656   */\n  tag_165\n    /* \"#utility.yul\":7652:7655   */\n  dup3\n    /* \"#utility.yul\":7619:7656   */\n  tag_52\n  jump\t// in\ntag_165:\n    /* \"#utility.yul\":7721:7739   */\n  0xffffffffffffffff\n    /* \"#utility.yul\":7713:7719   */\n  dup2\n    /* \"#utility.yul\":7710:7740   */\n  gt\n    /* \"#utility.yul\":7707:7763   */\n  iszero\n  tag_166\n  jumpi\n    /* \"#utility.yul\":7743:7761   */\n  tag_167\n  tag_42\n  jump\t// in\ntag_167:\n    /* \"#utility.yul\":7707:7763   */\ntag_166:\n    /* \"#utility.yul\":7787:7825   */\n  tag_168\n    /* \"#utility.yul\":7819:7823   */\n  dup3\n    /* \"#utility.yul\":7813:7824   */\n  sload\n    /* \"#utility.yul\":7787:7825   */\n  tag_54\n  jump\t// in\ntag_168:\n    /* \"#utility.yul\":7872:7939   */\n  tag_169\n    /* \"#utility.yul\":7932:7938   */\n  dup3\n    /* \"#utility.yul\":7924:7930   */\n  dup3\n    /* \"#utility.yul\":7918:7922   */\n  dup6\n    /* \"#utility.yul\":7872:7939   */\n  tag_66\n  jump\t// in\ntag_169:\n    /* \"#utility.yul\":7966:7967   */\n  0x00\n    /* \"#utility.yul\":7990:7994   */\n  0x20\n    /* \"#utility.yul\":7977:7994   */\n  swap1\n  pop\n    /* \"#utility.yul\":8022:8024   */\n  0x1f\n    /* \"#utility.yul\":8014:8020   */\n  dup4\n    /* \"#utility.yul\":8011:8025   */\n  gt\n    /* \"#utility.yul\":8039:8040   */\n  0x01\n    /* \"#utility.yul\":8034:8652   */\n  dup2\n  eq\n  tag_171\n  jumpi\n    /* \"#utility.yul\":8696:8697   */\n  0x00\n    /* \"#utility.yul\":8713:8719   */\n  dup5\n    /* \"#utility.yul\":8710:8787   */\n  iszero\n  tag_172\n  jumpi\n    /* \"#utility.yul\":8762:8771   */\n  dup3\n    /* \"#utility.yul\":8757:8760   */\n  dup8\n    /* \"#utility.yul\":8753:8772   */\n  add\n    /* \"#utility.yul\":8747:8773   */\n  mload\n    /* \"#utility.yul\":8738:8773   */\n  swap1\n  pop\n    /* \"#utility.yul\":8710:8787   */\ntag_172:\n    /* \"#utility.yul\":8813:8880   */\n  tag_173\n    /* \"#utility.yul\":8873:8879   */\n  dup6\n    /* \"#utility.yul\":8866:8871   */\n  dup3\n    /* \"#utility.yul\":8813:8880   */\n  tag_69\n  jump\t// in\ntag_173:\n    /* \"#utility.yul\":8807:8811   */\n  dup7\n    /* \"#utility.yul\":8800:8881   */\n  sstore\n    /* \"#utility.yul\":8669:8891   */\n  pop\n    /* \"#utility.yul\":8004:8891   */\n  jump(tag_170)\n    /* \"#utility.yul\":8034:8652   */\ntag_171:\n    /* \"#utility.yul\":8086:8090   */\n  0x1f\n    /* \"#utility.yul\":8082:8091   */\n  not\n    /* \"#utility.yul\":8074:8080   */\n  dup5\n    /* \"#utility.yul\":8070:8092   */\n  and\n    /* \"#utility.yul\":8120:8157   */\n  tag_174\n    /* \"#utility.yul\":8152:8156   */\n  dup7\n    /* \"#utility.yul\":8120:8157   */\n  tag_55\n  jump\t// in\ntag_174:\n    /* \"#utility.yul\":8179:8180   */\n  0x00\n    /* \"#utility.yul\":8193:8401   */\ntag_175:\n    /* \"#utility.yul\":8207:8214   */\n  dup3\n    /* \"#utility.yul\":8204:8205   */\n  dup2\n    /* \"#utility.yul\":8201:8215   */\n  lt\n    /* \"#utility.yul\":8193:8401   */\n  iszero\n  tag_177\n  jumpi\n    /* \"#utility.yul\":8286:8295   */\n  dup5\n    /* \"#utility.yul\":8281:8284   */\n  dup10\n    /* \"#utility.yul\":8277:8296   */\n  add\n    /* \"#utility.yul\":8271:8297   */\n  mload\n    /* \"#utility.yul\":8263:8269   */\n  dup3\n    /* \"#utility.yul\":8256:8298   */\n  sstore\n    /* \"#utility.yul\":8337:8338   */\n  0x01\n    /* \"#utility.yul\":8329:8335   */\n  dup3\n    /* \"#utility.yul\":8325:8339   */\n  add\n    /* \"#utility.yul\":8315:8339   */\n  swap2\n  pop\n    /* \"#utility.yul\":8384:8386   */\n  0x20\n    /* \"#utility.yul\":8373:8382   */\n  dup6\n    /* \"#utility.yul\":8369:8387   */\n  add\n    /* \"#utility.yul\":8356:8387   */\n  swap5\n  pop\n    /* \"#utility.yul\":8230:8234   */\n  0x20\n    /* \"#utility.yul\":8227:8228   */\n  dup2\n    /* \"#utility.yul\":8223:8235   */\n  add\n    /* \"#utility.yul\":8218:8235   */\n  swap1\n  pop\n    /* \"#utility.yul\":8193:8401   */\n  jump(tag_175)\ntag_177:\n    /* \"#utility.yul\":8429:8435   */\n  dup7\n    /* \"#utility.yul\":8420:8427   */\n  dup4\n    /* \"#utility.yul\":8417:8436   */\n  lt\n    /* \"#utility.yul\":8414:8593   */\n  iszero\n  tag_178\n  jumpi\n    /* \"#utility.yul\":8487:8496   */\n  dup5\n    /* \"#utility.yul\":8482:8485   */\n  dup10\n    /* \"#utility.yul\":8478:8497   */\n  add\n    /* \"#utility.yul\":8472:8498   */\n  mload\n    /* \"#utility.yul\":8530:8578   */\n  tag_179\n    /* \"#utility.yul\":8572:8576   */\n  0x1f\n    /* \"#utility.yul\":8564:8570   */\n  dup10\n    /* \"#utility.yul\":8560:8577   */\n  and\n    /* \"#utility.yul\":8549:8558   */\n  dup3\n    /* \"#utility.yul\":8530:8578   */\n  tag_68\n  jump\t// in\ntag_179:\n    /* \"#utility.yul\":8522:8528   */\n  dup4\n    /* \"#utility.yul\":8515:8579   */\n  sstore\n    /* \"#utility.yul\":8437:8593   */\n  pop\n    /* \"#utility.yul\":8414:8593   */\ntag_178:\n    /* \"#utility.yul\":8639:8640   */\n  0x01\n    /* \"#utility.yul\":8635:8636   */\n  0x02\n    /* \"#utility.yul\":8627:8633   */\n  dup9\n    /* \"#utility.yul\":8623:8637   */\n  mul\n    /* \"#utility.yul\":8619:8641   */\n  add\n    /* \"#utility.yul\":8613:8617   */\n  dup9\n    /* \"#utility.yul\":8606:8642   */\n  sstore\n    /* \"#utility.yul\":8041:8652   */\n  pop\n  pop\n  pop\n    /* \"#utility.yul\":8004:8891   */\ntag_170:\n  pop\n    /* \"#utility.yul\":7594:8897   */\n  pop\n  pop\n  pop\n    /* \"#utility.yul\":7502:8897   */\n  pop\n  pop\n  jump\t// out\n    /* \"#utility.yul\":8903:9072   */\ntag_70:\n    /* \"#utility.yul\":8987:8998   */\n  0x00\n    /* \"#utility.yul\":9021:9027   */\n  dup3\n    /* \"#utility.yul\":9016:9019   */\n  dup3\n    /* \"#utility.yul\":9009:9028   */\n  mstore\n    /* \"#utility.yul\":9061:9065   */\n  0x20\n    /* \"#utility.yul\":9056:9059   */\n  dup3\n    /* \"#utility.yul\":9052:9066   */\n  add\n    /* \"#utility.yul\":9037:9066   */\n  swap1\n  pop\n    /* \"#utility.yul\":8903:9072   */\n  swap3\n  swap2\n  pop\n  pop\n  jump\t// out\n    /* \"#utility.yul\":9078:9259   */\ntag_71:\n    /* \"#utility.yul\":9218:9251   */\n  0x45524332303a206d696e7420746f20746865207a65726f206164647265737300\n    /* \"#utility.yul\":9214:9215   */\n  0x00\n    /* \"#utility.yul\":9206:9212   */\n  dup3\n    /* \"#utility.yul\":9202:9216   */\n  add\n    /* \"#utility.yul\":9195:9252   */\n  mstore\n    /* \"#utility.yul\":9078:9259   */\n  pop\n  jump\t// out\n    /* \"#utility.yul\":9265:9631   */\ntag_72:\n    /* \"#utility.yul\":9407:9410   */\n  0x00\n    /* \"#utility.yul\":9428:9495   */\n  tag_183\n    /* \"#utility.yul\":9492:9494   */\n  0x1f\n    /* \"#utility.yul\":9487:9490   */\n  dup4\n    /* \"#utility.yul\":9428:9495   */\n  tag_70\n  jump\t// in\ntag_183:\n    /* \"#utility.yul\":9421:9495   */\n  swap2\n  pop\n    /* \"#utility.yul\":9504:9597   */\n  tag_184\n    /* \"#utility.yul\":9593:9596   */\n  dup3\n    /* \"#utility.yul\":9504:9597   */\n  tag_71\n  jump\t// in\ntag_184:\n    /* \"#utility.yul\":9622:9624   */\n  0x20\n    /* \"#utility.yul\":9617:9620   */\n  dup3\n    /* \"#utility.yul\":9613:9625   */\n  add\n    /* \"#utility.yul\":9606:9625   */\n  swap1\n  pop\n    /* \"#utility.yul\":9265:9631   */\n  swap2\n  swap1\n  pop\n  jump\t// out\n    /* \"#utility.yul\":9637:10056   */\ntag_24:\n    /* \"#utility.yul\":9803:9807   */\n  0x00\n    /* \"#utility.yul\":9841:9843   */\n  0x20\n    /* \"#utility.yul\":9830:9839   */\n  dup3\n    /* \"#utility.yul\":9826:9844   */\n  add\n    /* \"#utility.yul\":9818:9844   */\n  swap1\n  pop\n    /* \"#utility.yul\":9890:9899   */\n  dup2\n    /* \"#utility.yul\":9884:9888   */\n  dup2\n    /* \"#utility.yul\":9880:9900   */\n  sub\n    /* \"#utility.yul\":9876:9877   */\n  0x00\n    /* \"#utility.yul\":9865:9874   */\n  dup4\n    /* \"#utility.yul\":9861:9878   */\n  add\n    /* \"#utility.yul\":9854:9901   */\n  mstore\n    /* \"#utility.yul\":9918:10049   */\n  tag_186\n    /* \"#utility.yul\":10044:10048   */\n  dup2\n    /* \"#utility.yul\":9918:10049   */\n  tag_72\n  jump\t// in\ntag_186:\n    /* \"#utility.yul\":9910:10049   */\n  swap1\n  pop\n    /* \"#utility.yul\":9637:10056   */\n  swap2\n  swap1\n  pop\n  jump\t// out\n    /* \"#utility.yul\":10062:10242   */\ntag_73:\n    /* \"#utility.yul\":10110:10187   */\n  0x4e487b7100000000000000000000000000000000000000000000000000000000\n    /* \"#utility.yul\":10107:10108   */\n  0x00\n    /* \"#utility.yul\":10100:10188   */\n  mstore\n    /* \"#utility.yul\":10207:10211   */\n  0x11\n    /* \"#utility.yul\":10204:10205   */\n  0x04\n    /* \"#utility.yul\":10197:10212   */\n  mstore\n    /* \"#utility.yul\":10231:10235   */\n  0x24\n    /* \"#utility.yul\":10228:10229   */\n  0x00\n    /* \"#utility.yul\":10221:10236   */\n  revert\n    /* \"#utility.yul\":10248:10439   */\ntag_28:\n    /* \"#utility.yul\":10288:10291   */\n  0x00\n    /* \"#utility.yul\":10307:10327   */\n  tag_189\n    /* \"#utility.yul\":10325:10326   */\n  dup3\n    /* \"#utility.yul\":10307:10327   */\n  tag_49\n  jump\t// in\ntag_189:\n    /* \"#utility.yul\":10302:10327   */\n  swap2\n  pop\n    /* \"#utility.yul\":10341:10361   */\n  tag_190\n    /* \"#utility.yul\":10359:10360   */\n  dup4\n    /* \"#utility.yul\":10341:10361   */\n  tag_49\n  jump\t// in\ntag_190:\n    /* \"#utility.yul\":10336:10361   */\n  swap3\n  pop\n    /* \"#utility.yul\":10384:10385   */\n  dup3\n    /* \"#utility.yul\":10381:10382   */\n  dup3\n    /* \"#utility.yul\":10377:10386   */\n  add\n    /* \"#utility.yul\":10370:10386   */\n  swap1\n  pop\n    /* \"#utility.yul\":10405:10408   */\n  dup1\n    /* \"#utility.yul\":10402:10403   */\n  dup3\n    /* \"#utility.yul\":10399:10409   */\n  gt\n    /* \"#utility.yul\":10396:10432   */\n  iszero\n  tag_191\n  jumpi\n    /* \"#utility.yul\":10412:10430   */\n  tag_192\n  tag_73\n  jump\t// in\ntag_192:\n    /* \"#utility.yul\":10396:10432   */\ntag_191:\n    /* \"#utility.yul\":10248:10439   */\n  swap3\n  swap2\n  pop\n  pop\n  jump\t// out\n    /* \"#utility.yul\":10445:10563   */\ntag_74:\n    /* \"#utility.yul\":10532:10556   */\n  tag_194\n    /* \"#utility.yul\":10550:10555   */\n  dup2\n    /* \"#utility.yul\":10532:10556   */\n  tag_49\n  jump\t// in\ntag_194:\n    /* \"#utility.yul\":10527:10530   */\n  dup3\n    /* \"#utility.yul\":10520:10557   */\n  mstore\n    /* \"#utility.yul\":10445:10563   */\n  pop\n  pop\n  jump\t// out\n    /* \"#utility.yul\":10569:10791   */\ntag_31:\n    /* \"#utility.yul\":10662:10666   */\n  0x00\n    /* \"#utility.yul\":10700:10702   */\n  0x20\n    /* \"#utility.yul\":10689:10698   */\n  dup3\n    /* \"#utility.yul\":10685:10703   */\n  add\n    /* \"#utility.yul\":10677:10703   */\n  swap1\n  pop\n    /* \"#utility.yul\":10713:10784   */\n  tag_196\n    /* \"#utility.yul\":10781:10782   */\n  0x00\n    /* \"#utility.yul\":10770:10779   */\n  dup4\n    /* \"#utility.yul\":10766:10783   */\n  add\n    /* \"#utility.yul\":10757:10763   */\n  dup5\n    /* \"#utility.yul\":10713:10784   */\n  tag_74\n  jump\t// in\ntag_196:\n    /* \"#utility.yul\":10569:10791   */\n  swap3\n  swap2\n  pop\n  pop\n  jump\t// out\n    /* \"mintable-token/mintable-token.sol\":1946:2556  contract MintableToken is ERC20, Ownable {... */\ntag_18:\n  dataSize(sub_0)\n  dup1\n  dataOffset(sub_0)\n  0x00\n  codecopy\n  0x00\n  return\nstop\n\nsub_0: assembly {\n        /* \"mintable-token/mintable-token.sol\":1946:2556  contract MintableToken is ERC20, Ownable {... */\n      mstore(0x40, 0x80)\n      callvalue\n      dup1\n      iszero\n      tag_1\n      jumpi\n      0x00\n      dup1\n      revert\n    tag_1:\n      pop\n      jumpi(tag_2, lt(calldatasize, 0x04))\n      shr(0xe0, calldataload(0x00))\n      dup1\n      0x715018a6\n      gt\n      tag_18\n      jumpi\n      dup1\n      0xa457c2d7\n      gt\n      tag_19\n      jumpi\n      dup1\n      0xa457c2d7\n      eq\n      tag_14\n      jumpi\n      dup1\n      0xa9059cbb\n      eq\n      tag_15\n      jumpi\n      dup1\n      0xdd62ed3e\n      eq\n      tag_16\n      jumpi\n      dup1\n      0xf2fde38b\n      eq\n      tag_17\n      jumpi\n      jump(tag_2)\n    tag_19:\n      dup1\n      0x715018a6\n      eq\n      tag_10\n      jumpi\n      dup1\n      0x8da5cb5b\n      eq\n      tag_11\n      jumpi\n      dup1\n      0x94bf804d\n      eq\n      tag_12\n      jumpi\n      dup1\n      0x95d89b41\n      eq\n      tag_13\n      jumpi\n      jump(tag_2)\n    tag_18:\n      dup1\n      0x23b872dd\n      gt\n      tag_20\n      jumpi\n      dup1\n      0x23b872dd\n      eq\n      tag_6\n      jumpi\n      dup1\n      0x313ce567\n      eq\n      tag_7\n      jumpi\n      dup1\n      0x39509351\n      eq\n      tag_8\n      jumpi\n      dup1\n      0x70a08231\n      eq\n      tag_9\n      jumpi\n      jump(tag_2)\n    tag_20:\n      dup1\n      0x06fdde03\n      eq\n      tag_3\n      jumpi\n      dup1\n      0x095ea7b3\n      eq\n      tag_4\n      jumpi\n      dup1\n      0x18160ddd\n      eq\n      tag_5\n      jumpi\n    tag_2:\n      0x00\n      dup1\n      revert\n        /* \"mintable-token/@openzeppelin/contracts/token/ERC20/ERC20.sol\":3431:3529  function name() public view virtual override returns (string memory) {... */\n    tag_3:\n      tag_21\n      tag_22\n      jump\t// in\n    tag_21:\n      mload(0x40)\n      tag_23\n      swap2\n      swap1\n      tag_24\n      jump\t// in\n    tag_23:\n      mload(0x40)\n      dup1\n      swap2\n      sub\n      swap1\n      return\n        /* \"mintable-token/@openzeppelin/contracts/token/ERC20/ERC20.sol\":5708:5905  function approve(address spender, uint256 amount) public virtual override returns (bool) {... */\n    tag_4:\n      tag_25\n      0x04\n      dup1\n      calldatasize\n      sub\n      dup2\n      add\n      swap1\n      tag_26\n      swap2\n      swap1\n      tag_27\n      jump\t// in\n    tag_26:\n      tag_28\n      jump\t// in\n    tag_25:\n      mload(0x40)\n      tag_29\n      swap2\n      swap1\n      tag_30\n      jump\t// in\n    tag_29:\n      mload(0x40)\n      dup1\n      swap2\n      sub\n      swap1\n      return\n        /* \"mintable-token/@openzeppelin/contracts/token/ERC20/ERC20.sol\":4519:4625  function totalSupply() public view virtual override returns (uint256) {... */\n    tag_5:\n      tag_31\n      tag_32\n      jump\t// in\n    tag_31:\n      mload(0x40)\n      tag_33\n      swap2\n      swap1\n      tag_34\n      jump\t// in\n    tag_33:\n      mload(0x40)\n      dup1\n      swap2\n      sub\n      swap1\n      return\n        /* \"mintable-token/@openzeppelin/contracts/token/ERC20/ERC20.sol\":6467:6753  function transferFrom(... */\n    tag_6:\n      tag_35\n      0x04\n      dup1\n      calldatasize\n      sub\n      dup2\n      add\n      swap1\n      tag_36\n      swap2\n      swap1\n      tag_37\n      jump\t// in\n    tag_36:\n      tag_38\n      jump\t// in\n    tag_35:\n      mload(0x40)\n      tag_39\n      swap2\n      swap1\n      tag_30\n      jump\t// in\n    tag_39:\n      mload(0x40)\n      dup1\n      swap2\n      sub\n      swap1\n      return\n        /* \"mintable-token/@openzeppelin/contracts/token/ERC20/ERC20.sol\":4368:4459  function decimals() public view virtual override returns (uint8) {... */\n    tag_7:\n      tag_40\n      tag_41\n      jump\t// in\n    tag_40:\n      mload(0x40)\n      tag_42\n      swap2\n      swap1\n      tag_43\n      jump\t// in\n    tag_42:\n      mload(0x40)\n      dup1\n      swap2\n      sub\n      swap1\n      return\n        /* \"mintable-token/@openzeppelin/contracts/token/ERC20/ERC20.sol\":7148:7382  function increaseAllowance(address spender, uint256 addedValue) public virtual returns (bool) {... */\n    tag_8:\n      tag_44\n      0x04\n      dup1\n      calldatasize\n      sub\n      dup2\n      add\n      swap1\n      tag_45\n      swap2\n      swap1\n      tag_27\n      jump\t// in\n    tag_45:\n      tag_46\n      jump\t// in\n    tag_44:\n      mload(0x40)\n      tag_47\n      swap2\n      swap1\n      tag_30\n      jump\t// in\n    tag_47:\n      mload(0x40)\n      dup1\n      swap2\n      sub\n      swap1\n      return\n        /* \"mintable-token/@openzeppelin/contracts/token/ERC20/ERC20.sol\":4683:4808  function balanceOf(address account) public view virtual override returns (uint256) {... */\n    tag_9:\n      tag_48\n      0x04\n      dup1\n      calldatasize\n      sub\n      dup2\n      add\n      swap1\n      tag_49\n      swap2\n      swap1\n      tag_50\n      jump\t// in\n    tag_49:\n      tag_51\n      jump\t// in\n    tag_48:\n      mload(0x40)\n      tag_52\n      swap2\n      swap1\n      tag_34\n      jump\t// in\n    tag_52:\n      mload(0x40)\n      dup1\n      swap2\n      sub\n      swap1\n      return\n        /* \"mintable-token/@openzeppelin/contracts/access/Ownable.sol\":3106:3207  function renounceOwnership() public virtual onlyOwner {... */\n    tag_10:\n      tag_53\n      tag_54\n      jump\t// in\n    tag_53:\n      stop\n        /* \"mintable-token/@openzeppelin/contracts/access/Ownable.sol\":2476:2561  function owner() public view virtual returns (address) {... */\n    tag_11:\n      tag_55\n      tag_56\n      jump\t// in\n    tag_55:\n      mload(0x40)\n      tag_57\n      swap2\n      swap1\n      tag_58\n      jump\t// in\n    tag_57:\n      mload(0x40)\n      dup1\n      swap2\n      sub\n      swap1\n      return\n        /* \"mintable-token/mintable-token.sol\":2459:2554  function mint(uint256 amount, address to) external onlyOwner {... */\n    tag_12:\n      tag_59\n      0x04\n      dup1\n      calldatasize\n      sub\n      dup2\n      add\n      swap1\n      tag_60\n      swap2\n      swap1\n      tag_61\n      jump\t// in\n    tag_60:\n      tag_62\n      jump\t// in\n    tag_59:\n      stop\n        /* \"mintable-token/@openzeppelin/contracts/token/ERC20/ERC20.sol\":3642:3744  function symbol() public view virtual override returns (string memory) {... */\n    tag_13:\n      tag_63\n      tag_64\n      jump\t// in\n    tag_63:\n      mload(0x40)\n      tag_65\n      swap2\n      swap1\n      tag_24\n      jump\t// in\n    tag_65:\n      mload(0x40)\n      dup1\n      swap2\n      sub\n      swap1\n      return\n        /* \"mintable-token/@openzeppelin/contracts/token/ERC20/ERC20.sol\":7869:8296  function decreaseAllowance(address spender, uint256 subtractedValue) public virtual returns (bool) {... */\n    tag_14:\n      tag_66\n      0x04\n      dup1\n      calldatasize\n      sub\n      dup2\n      add\n      swap1\n      tag_67\n      swap2\n      swap1\n      tag_27\n      jump\t// in\n    tag_67:\n      tag_68\n      jump\t// in\n    tag_66:\n      mload(0x40)\n      tag_69\n      swap2\n      swap1\n      tag_30\n      jump\t// in\n    tag_69:\n      mload(0x40)\n      dup1\n      swap2\n      sub\n      swap1\n      return\n        /* \"mintable-token/@openzeppelin/contracts/token/ERC20/ERC20.sol\":5004:5193  function transfer(address to, uint256 amount) public virtual override returns (bool) {... */\n    tag_15:\n      tag_70\n      0x04\n      dup1\n      calldatasize\n      sub\n      dup2\n      add\n      swap1\n      tag_71\n      swap2\n      swap1\n      tag_27\n      jump\t// in\n    tag_71:\n      tag_72\n      jump\t// in\n    tag_70:\n      mload(0x40)\n      tag_73\n      swap2\n      swap1\n      tag_30\n      jump\t// in\n    tag_73:\n      mload(0x40)\n      dup1\n      swap2\n      sub\n      swap1\n      return\n        /* \"mintable-token/@openzeppelin/contracts/token/ERC20/ERC20.sol\":5251:5400  function allowance(address owner, address spender) public view virtual override returns (uint256) {... */\n    tag_16:\n      tag_74\n      0x04\n      dup1\n      calldatasize\n      sub\n      dup2\n      add\n      swap1\n      tag_75\n      swap2\n      swap1\n      tag_76\n      jump\t// in\n    tag_75:\n      tag_77\n      jump\t// in\n    tag_74:\n      mload(0x40)\n      tag_78\n      swap2\n      swap1\n      tag_34\n      jump\t// in\n    tag_78:\n      mload(0x40)\n      dup1\n      swap2\n      sub\n      swap1\n      return\n        /* \"mintable-token/@openzeppelin/contracts/access/Ownable.sol\":3356:3554  function transferOwnership(address newOwner) public virtual onlyOwner {... */\n    tag_17:\n      tag_79\n      0x04\n      dup1\n      calldatasize\n      sub\n      dup2\n      add\n      swap1\n      tag_80\n      swap2\n      swap1\n      tag_50\n      jump\t// in\n    tag_80:\n      tag_81\n      jump\t// in\n    tag_79:\n      stop\n        /* \"mintable-token/@openzeppelin/contracts/token/ERC20/ERC20.sol\":3431:3529  function name() public view virtual override returns (string memory) {... */\n    tag_22:\n        /* \"mintable-token/@openzeppelin/contracts/token/ERC20/ERC20.sol\":3485:3498  string memory */\n      0x60\n        /* \"mintable-token/@openzeppelin/contracts/token/ERC20/ERC20.sol\":3517:3522  _name */\n      0x03\n        /* \"mintable-token/@openzeppelin/contracts/token/ERC20/ERC20.sol\":3510:3522  return _name */\n      dup1\n      sload\n      tag_83\n      swap1\n      tag_84\n      jump\t// in\n    tag_83:\n      dup1\n      0x1f\n      add\n      0x20\n      dup1\n      swap2\n      div\n      mul\n      0x20\n      add\n      mload(0x40)\n      swap1\n      dup2\n      add\n      0x40\n      mstore\n      dup1\n      swap3\n      swap2\n      swap1\n      dup2\n      dup2\n      mstore\n      0x20\n      add\n      dup3\n      dup1\n      sload\n      tag_85\n      swap1\n      tag_84\n      jump\t// in\n    tag_85:\n      dup1\n      iszero\n      tag_86\n      jumpi\n      dup1\n      0x1f\n      lt\n      tag_87\n      jumpi\n      0x0100\n      dup1\n      dup4\n      sload\n      div\n      mul\n      dup4\n      mstore\n      swap2\n      0x20\n      add\n      swap2\n      jump(tag_86)\n    tag_87:\n      dup3\n      add\n      swap2\n      swap1\n      0x00\n      mstore\n      keccak256(0x00, 0x20)\n      swap1\n    tag_88:\n      dup2\n      sload\n      dup2\n      mstore\n      swap1\n      0x01\n      add\n      swap1\n      0x20\n      add\n      dup1\n      dup4\n      gt\n      tag_88\n      jumpi\n      dup3\n      swap1\n      sub\n      0x1f\n      and\n      dup3\n      add\n      swap2\n    tag_86:\n      pop\n      pop\n      pop\n      pop\n      pop\n      swap1\n      pop\n        /* \"mintable-token/@openzeppelin/contracts/token/ERC20/ERC20.sol\":3431:3529  function name() public view virtual override returns (string memory) {... */\n      swap1\n      jump\t// out\n        /* \"mintable-token/@openzeppelin/contracts/token/ERC20/ERC20.sol\":5708:5905  function approve(address spender, uint256 amount) public virtual override returns (bool) {... */\n    tag_28:\n        /* \"mintable-token/@openzeppelin/contracts/token/ERC20/ERC20.sol\":5791:5795  bool */\n      0x00\n        /* \"mintable-token/@openzeppelin/contracts/token/ERC20/ERC20.sol\":5807:5820  address owner */\n      dup1\n        /* \"mintable-token/@openzeppelin/contracts/token/ERC20/ERC20.sol\":5823:5835  _msgSender() */\n      tag_90\n        /* \"mintable-token/@openzeppelin/contracts/token/ERC20/ERC20.sol\":5823:5833  _msgSender */\n      tag_91\n        /* \"mintable-token/@openzeppelin/contracts/token/ERC20/ERC20.sol\":5823:5835  _msgSender() */\n      jump\t// in\n    tag_90:\n        /* \"mintable-token/@openzeppelin/contracts/token/ERC20/ERC20.sol\":5807:5835  address owner = _msgSender() */\n      swap1\n      pop\n        /* \"mintable-token/@openzeppelin/contracts/token/ERC20/ERC20.sol\":5845:5877  _approve(owner, spender, amount) */\n      tag_92\n        /* \"mintable-token/@openzeppelin/contracts/token/ERC20/ERC20.sol\":5854:5859  owner */\n      dup2\n        /* \"mintable-token/@openzeppelin/contracts/token/ERC20/ERC20.sol\":5861:5868  spender */\n      dup6\n        /* \"mintable-token/@openzeppelin/contracts/token/ERC20/ERC20.sol\":5870:5876  amount */\n      dup6\n        /* \"mintable-token/@openzeppelin/contracts/token/ERC20/ERC20.sol\":5845:5853  _approve */\n      tag_93\n        /* \"mintable-token/@openzeppelin/contracts/token/ERC20/ERC20.sol\":5845:5877  _approve(owner, spender, amount) */\n      jump\t// in\n    tag_92:\n        /* \"mintable-token/@openzeppelin/contracts/token/ERC20/ERC20.sol\":5894:5898  true */\n      0x01\n        /* \"mintable-token/@openzeppelin/contracts/token/ERC20/ERC20.sol\":5887:5898  return true */\n      swap2\n      pop\n      pop\n        /* \"mintable-token/@openzeppelin/contracts/token/ERC20/ERC20.sol\":5708:5905  function approve(address spender, uint256 amount) public virtual override returns (bool) {... */\n      swap3\n      swap2\n      pop\n      pop\n      jump\t// out\n        /* \"mintable-token/@openzeppelin/contracts/token/ERC20/ERC20.sol\":4519:4625  function totalSupply() public view virtual override returns (uint256) {... */\n    tag_32:\n        /* \"mintable-token/@openzeppelin/contracts/token/ERC20/ERC20.sol\":4580:4587  uint256 */\n      0x00\n        /* \"mintable-token/@openzeppelin/contracts/token/ERC20/ERC20.sol\":4606:4618  _totalSupply */\n      sload(0x02)\n        /* \"mintable-token/@openzeppelin/contracts/token/ERC20/ERC20.sol\":4599:4618  return _totalSupply */\n      swap1\n      pop\n        /* \"mintable-token/@openzeppelin/contracts/token/ERC20/ERC20.sol\":4519:4625  function totalSupply() public view virtual override returns (uint256) {... */\n      swap1\n      jump\t// out\n        /* \"mintable-token/@openzeppelin/contracts/token/ERC20/ERC20.sol\":6467:6753  function transferFrom(... */\n    tag_38:\n        /* \"mintable-token/@openzeppelin/contracts/token/ERC20/ERC20.sol\":6594:6598  bool */\n      0x00\n        /* \"mintable-token/@openzeppelin/contracts/token/ERC20/ERC20.sol\":6610:6625  address spender */\n      dup1\n        /* \"mintable-token/@openzeppelin/contracts/token/ERC20/ERC20.sol\":6628:6640  _msgSender() */\n      tag_96\n        /* \"mintable-token/@openzeppelin/contracts/token/ERC20/ERC20.sol\":6628:6638  _msgSender */\n      tag_91\n        /* \"mintable-token/@openzeppelin/contracts/token/ERC20/ERC20.sol\":6628:6640  _msgSender() */\n      jump\t// in\n    tag_96:\n        /* \"mintable-token/@openzeppelin/contracts/token/ERC20/ERC20.sol\":6610:6640  address spender = _msgSender() */\n      swap1\n      pop\n        /* \"mintable-token/@openzeppelin/contracts/token/ERC20/ERC20.sol\":6650:6688  _spendAllowance(from, spender, amount) */\n      tag_97\n        /* \"mintable-token/@openzeppelin/contracts/token/ERC20/ERC20.sol\":6666:6670  from */\n      dup6\n        /* \"mintable-token/@openzeppelin/contracts/token/ERC20/ERC20.sol\":6672:6679  spender */\n      dup3\n        /* \"mintable-token/@openzeppelin/contracts/token/ERC20/ERC20.sol\":6681:6687  amount */\n      dup6\n        /* \"mintable-token/@openzeppelin/contracts/token/ERC20/ERC20.sol\":6650:6665  _spendAllowance */\n      tag_98\n        /* \"mintable-token/@openzeppelin/contracts/token/ERC20/ERC20.sol\":6650:6688  _spendAllowance(from, spender, amount) */\n      jump\t// in\n    tag_97:\n        /* \"mintable-token/@openzeppelin/contracts/token/ERC20/ERC20.sol\":6698:6725  _transfer(from, to, amount) */\n      tag_99\n        /* \"mintable-token/@openzeppelin/contracts/token/ERC20/ERC20.sol\":6708:6712  from */\n      dup6\n        /* \"mintable-token/@openzeppelin/contracts/token/ERC20/ERC20.sol\":6714:6716  to */\n      dup6\n        /* \"mintable-token/@openzeppelin/contracts/token/ERC20/ERC20.sol\":6718:6724  amount */\n      dup6\n        /* \"mintable-token/@openzeppelin/contracts/token/ERC20/ERC20.sol\":6698:6707  _transfer */\n      tag_100\n        /* \"mintable-token/@openzeppelin/contracts/token/ERC20/ERC20.sol\":6698:6725  _transfer(from, to, amount) */\n      jump\t// in\n    tag_99:\n        /* \"mintable-token/@openzeppelin/contracts/token/ERC20/ERC20.sol\":6742:6746  true */\n      0x01\n        /* \"mintable-token/@openzeppelin/contracts/token/ERC20/ERC20.sol\":6735:6746  return true */\n      swap2\n      pop\n      pop\n        /* \"mintable-token/@openzeppelin/contracts/token/ERC20/ERC20.sol\":6467:6753  function transferFrom(... */\n      swap4\n      swap3\n      pop\n      pop\n      pop\n      jump\t// out\n        /* \"mintable-token/@openzeppelin/contracts/token/ERC20/ERC20.sol\":4368:4459  function decimals() public view virtual override returns (uint8) {... */\n    tag_41:\n        /* \"mintable-token/@openzeppelin/contracts/token/ERC20/ERC20.sol\":4426:4431  uint8 */\n      0x00\n        /* \"mintable-token/@openzeppelin/contracts/token/ERC20/ERC20.sol\":4450:4452  18 */\n      0x12\n        /* \"mintable-token/@openzeppelin/contracts/token/ERC20/ERC20.sol\":4443:4452  return 18 */\n      swap1\n      pop\n        /* \"mintable-token/@openzeppelin/contracts/token/ERC20/ERC20.sol\":4368:4459  function decimals() public view virtual override returns (uint8) {... */\n      swap1\n      jump\t// out\n        /* \"mintable-token/@openzeppelin/contracts/token/ERC20/ERC20.sol\":7148:7382  function increaseAllowance(address spender, uint256 addedValue) public virtual returns (bool) {... */\n    tag_46:\n        /* \"mintable-token/@openzeppelin/contracts/token/ERC20/ERC20.sol\":7236:7240  bool */\n      0x00\n        /* \"mintable-token/@openzeppelin/contracts/token/ERC20/ERC20.sol\":7252:7265  address owner */\n      dup1\n        /* \"mintable-token/@openzeppelin/contracts/token/ERC20/ERC20.sol\":7268:7280  _msgSender() */\n      tag_103\n        /* \"mintable-token/@openzeppelin/contracts/token/ERC20/ERC20.sol\":7268:7278  _msgSender */\n      tag_91\n        /* \"mintable-token/@openzeppelin/contracts/token/ERC20/ERC20.sol\":7268:7280  _msgSender() */\n      jump\t// in\n    tag_103:\n        /* \"mintable-token/@openzeppelin/contracts/token/ERC20/ERC20.sol\":7252:7280  address owner = _msgSender() */\n      swap1\n      pop\n        /* \"mintable-token/@openzeppelin/contracts/token/ERC20/ERC20.sol\":7290:7354  _approve(owner, spender, allowance(owner, spender) + addedValue) */\n      tag_104\n        /* \"mintable-token/@openzeppelin/contracts/token/ERC20/ERC20.sol\":7299:7304  owner */\n      dup2\n        /* \"mintable-token/@openzeppelin/contracts/token/ERC20/ERC20.sol\":7306:7313  spender */\n      dup6\n        /* \"mintable-token/@openzeppelin/contracts/token/ERC20/ERC20.sol\":7343:7353  addedValue */\n      dup6\n        /* \"mintable-token/@openzeppelin/contracts/token/ERC20/ERC20.sol\":7315:7340  allowance(owner, spender) */\n      tag_105\n        /* \"mintable-token/@openzeppelin/contracts/token/ERC20/ERC20.sol\":7325:7330  owner */\n      dup6\n        /* \"mintable-token/@openzeppelin/contracts/token/ERC20/ERC20.sol\":7332:7339  spender */\n      dup10\n        /* \"mintable-token/@openzeppelin/contracts/token/ERC20/ERC20.sol\":7315:7324  allowance */\n      tag_77\n        /* \"mintable-token/@openzeppelin/contracts/token/ERC20/ERC20.sol\":7315:7340  allowance(owner, spender) */\n      jump\t// in\n    tag_105:\n        /* \"mintable-token/@openzeppelin/contracts/token/ERC20/ERC20.sol\":7315:7353  allowance(owner, spender) + addedValue */\n      tag_106\n      swap2\n      swap1\n      tag_107\n      jump\t// in\n    tag_106:\n        /* \"mintable-token/@openzeppelin/contracts/token/ERC20/ERC20.sol\":7290:7298  _approve */\n      tag_93\n        /* \"mintable-token/@openzeppelin/contracts/token/ERC20/ERC20.sol\":7290:7354  _approve(owner, spender, allowance(owner, spender) + addedValue) */\n      jump\t// in\n    tag_104:\n        /* \"mintable-token/@openzeppelin/contracts/token/ERC20/ERC20.sol\":7371:7375  true */\n      0x01\n        /* \"mintable-token/@openzeppelin/contracts/token/ERC20/ERC20.sol\":7364:7375  return true */\n      swap2\n      pop\n      pop\n        /* \"mintable-token/@openzeppelin/contracts/token/ERC20/ERC20.sol\":7148:7382  function increaseAllowance(address spender, uint256 addedValue) public virtual returns (bool) {... */\n      swap3\n      swap2\n      pop\n      pop\n      jump\t// out\n        /* \"mintable-token/@openzeppelin/contracts/token/ERC20/ERC20.sol\":4683:4808  function balanceOf(address account) public view virtual override returns (uint256) {... */\n    tag_51:\n        /* \"mintable-token/@openzeppelin/contracts/token/ERC20/ERC20.sol\":4757:4764  uint256 */\n      0x00\n        /* \"mintable-token/@openzeppelin/contracts/token/ERC20/ERC20.sol\":4783:4792  _balances */\n      dup1\n        /* \"mintable-token/@openzeppelin/contracts/token/ERC20/ERC20.sol\":4783:4801  _balances[account] */\n      0x00\n        /* \"mintable-token/@openzeppelin/contracts/token/ERC20/ERC20.sol\":4793:4800  account */\n      dup4\n        /* \"mintable-token/@openzeppelin/contracts/token/ERC20/ERC20.sol\":4783:4801  _balances[account] */\n      0xffffffffffffffffffffffffffffffffffffffff\n      and\n      0xffffffffffffffffffffffffffffffffffffffff\n      and\n      dup2\n      mstore\n      0x20\n      add\n      swap1\n      dup2\n      mstore\n      0x20\n      add\n      0x00\n      keccak256\n      sload\n        /* \"mintable-token/@openzeppelin/contracts/token/ERC20/ERC20.sol\":4776:4801  return _balances[account] */\n      swap1\n      pop\n        /* \"mintable-token/@openzeppelin/contracts/token/ERC20/ERC20.sol\":4683:4808  function balanceOf(address account) public view virtual override returns (uint256) {... */\n      swap2\n      swap1\n      pop\n      jump\t// out\n        /* \"mintable-token/@openzeppelin/contracts/access/Ownable.sol\":3106:3207  function renounceOwnership() public virtual onlyOwner {... */\n    tag_54:\n        /* \"mintable-token/@openzeppelin/contracts/access/Ownable.sol\":2369:2382  _checkOwner() */\n      tag_110\n        /* \"mintable-token/@openzeppelin/contracts/access/Ownable.sol\":2369:2380  _checkOwner */\n      tag_111\n        /* \"mintable-token/@openzeppelin/contracts/access/Ownable.sol\":2369:2382  _checkOwner() */\n      jump\t// in\n    tag_110:\n        /* \"mintable-token/@openzeppelin/contracts/access/Ownable.sol\":3170:3200  _transferOwnership(address(0)) */\n      tag_113\n        /* \"mintable-token/@openzeppelin/contracts/access/Ownable.sol\":3197:3198  0 */\n      0x00\n        /* \"mintable-token/@openzeppelin/contracts/access/Ownable.sol\":3170:3188  _transferOwnership */\n      tag_114\n        /* \"mintable-token/@openzeppelin/contracts/access/Ownable.sol\":3170:3200  _transferOwnership(address(0)) */\n      jump\t// in\n    tag_113:\n        /* \"mintable-token/@openzeppelin/contracts/access/Ownable.sol\":3106:3207  function renounceOwnership() public virtual onlyOwner {... */\n      jump\t// out\n        /* \"mintable-token/@openzeppelin/contracts/access/Ownable.sol\":2476:2561  function owner() public view virtual returns (address) {... */\n    tag_56:\n        /* \"mintable-token/@openzeppelin/contracts/access/Ownable.sol\":2522:2529  address */\n      0x00\n        /* \"mintable-token/@openzeppelin/contracts/access/Ownable.sol\":2548:2554  _owner */\n      0x05\n      0x00\n      swap1\n      sload\n      swap1\n      0x0100\n      exp\n      swap1\n      div\n      0xffffffffffffffffffffffffffffffffffffffff\n      and\n        /* \"mintable-token/@openzeppelin/contracts/access/Ownable.sol\":2541:2554  return _owner */\n      swap1\n      pop\n        /* \"mintable-token/@openzeppelin/contracts/access/Ownable.sol\":2476:2561  function owner() public view virtual returns (address) {... */\n      swap1\n      jump\t// out\n        /* \"mintable-token/mintable-token.sol\":2459:2554  function mint(uint256 amount, address to) external onlyOwner {... */\n    tag_62:\n        /* \"mintable-token/@openzeppelin/contracts/access/Ownable.sol\":2369:2382  _checkOwner() */\n      tag_117\n        /* \"mintable-token/@openzeppelin/contracts/access/Ownable.sol\":2369:2380  _checkOwner */\n      tag_111\n        /* \"mintable-token/@openzeppelin/contracts/access/Ownable.sol\":2369:2382  _checkOwner() */\n      jump\t// in\n    tag_117:\n        /* \"mintable-token/mintable-token.sol\":2530:2547  _mint(to, amount) */\n      tag_119\n        /* \"mintable-token/mintable-token.sol\":2536:2538  to */\n      dup2\n        /* \"mintable-token/mintable-token.sol\":2540:2546  amount */\n      dup4\n        /* \"mintable-token/mintable-token.sol\":2530:2535  _mint */\n      tag_120\n        /* \"mintable-token/mintable-token.sol\":2530:2547  _mint(to, amount) */\n      jump\t// in\n    tag_119:\n        /* \"mintable-token/mintable-token.sol\":2459:2554  function mint(uint256 amount, address to) external onlyOwner {... */\n      pop\n      pop\n      jump\t// out\n        /* \"mintable-token/@openzeppelin/contracts/token/ERC20/ERC20.sol\":3642:3744  function symbol() public view virtual override returns (string memory) {... */\n    tag_64:\n        /* \"mintable-token/@openzeppelin/contracts/token/ERC20/ERC20.sol\":3698:3711  string memory */\n      0x60\n        /* \"mintable-token/@openzeppelin/contracts/token/ERC20/ERC20.sol\":3730:3737  _symbol */\n      0x04\n        /* \"mintable-token/@openzeppelin/contracts/token/ERC20/ERC20.sol\":3723:3737  return _symbol */\n      dup1\n      sload\n      tag_122\n      swap1\n      tag_84\n      jump\t// in\n    tag_122:\n      dup1\n      0x1f\n      add\n      0x20\n      dup1\n      swap2\n      div\n      mul\n      0x20\n      add\n      mload(0x40)\n      swap1\n      dup2\n      add\n      0x40\n      mstore\n      dup1\n      swap3\n      swap2\n      swap1\n      dup2\n      dup2\n      mstore\n      0x20\n      add\n      dup3\n      dup1\n      sload\n      tag_123\n      swap1\n      tag_84\n      jump\t// in\n    tag_123:\n      dup1\n      iszero\n      tag_124\n      jumpi\n      dup1\n      0x1f\n      lt\n      tag_125\n      jumpi\n      0x0100\n      dup1\n      dup4\n      sload\n      div\n      mul\n      dup4\n      mstore\n      swap2\n      0x20\n      add\n      swap2\n      jump(tag_124)\n    tag_125:\n      dup3\n      add\n      swap2\n      swap1\n      0x00\n      mstore\n      keccak256(0x00, 0x20)\n      swap1\n    tag_126:\n      dup2\n      sload\n      dup2\n      mstore\n      swap1\n      0x01\n      add\n      swap1\n      0x20\n      add\n      dup1\n      dup4\n      gt\n      tag_126\n      jumpi\n      dup3\n      swap1\n      sub\n      0x1f\n      and\n      dup3\n      add\n      swap2\n    tag_124:\n      pop\n      pop\n      pop\n      pop\n      pop\n      swap1\n      pop\n        /* \"mintable-token/@openzeppelin/contracts/token/ERC20/ERC20.sol\":3642:3744  function symbol() public view virtual override returns (string memory) {... */\n      swap1\n      jump\t// out\n        /* \"mintable-token/@openzeppelin/contracts/token/ERC20/ERC20.sol\":7869:8296  function decreaseAllowance(address spender, uint256 subtractedValue) public virtual returns (bool) {... */\n    tag_68:\n        /* \"mintable-token/@openzeppelin/contracts/token/ERC20/ERC20.sol\":7962:7966  bool */\n      0x00\n        /* \"mintable-token/@openzeppelin/contracts/token/ERC20/ERC20.sol\":7978:7991  address owner */\n      dup1\n        /* \"mintable-token/@openzeppelin/contracts/token/ERC20/ERC20.sol\":7994:8006  _msgSender() */\n      tag_128\n        /* \"mintable-token/@openzeppelin/contracts/token/ERC20/ERC20.sol\":7994:8004  _msgSender */\n      tag_91\n        /* \"mintable-token/@openzeppelin/contracts/token/ERC20/ERC20.sol\":7994:8006  _msgSender() */\n      jump\t// in\n    tag_128:\n        /* \"mintable-token/@openzeppelin/contracts/token/ERC20/ERC20.sol\":7978:8006  address owner = _msgSender() */\n      swap1\n      pop\n        /* \"mintable-token/@openzeppelin/contracts/token/ERC20/ERC20.sol\":8016:8040  uint256 currentAllowance */\n      0x00\n        /* \"mintable-token/@openzeppelin/contracts/token/ERC20/ERC20.sol\":8043:8068  allowance(owner, spender) */\n      tag_129\n        /* \"mintable-token/@openzeppelin/contracts/token/ERC20/ERC20.sol\":8053:8058  owner */\n      dup3\n        /* \"mintable-token/@openzeppelin/contracts/token/ERC20/ERC20.sol\":8060:8067  spender */\n      dup7\n        /* \"mintable-token/@openzeppelin/contracts/token/ERC20/ERC20.sol\":8043:8052  allowance */\n      tag_77\n        /* \"mintable-token/@openzeppelin/contracts/token/ERC20/ERC20.sol\":8043:8068  allowance(owner, spender) */\n      jump\t// in\n    tag_129:\n        /* \"mintable-token/@openzeppelin/contracts/token/ERC20/ERC20.sol\":8016:8068  uint256 currentAllowance = allowance(owner, spender) */\n      swap1\n      pop\n        /* \"mintable-token/@openzeppelin/contracts/token/ERC20/ERC20.sol\":8106:8121  subtractedValue */\n      dup4\n        /* \"mintable-token/@openzeppelin/contracts/token/ERC20/ERC20.sol\":8086:8102  currentAllowance */\n      dup2\n        /* \"mintable-token/@openzeppelin/contracts/token/ERC20/ERC20.sol\":8086:8121  currentAllowance >= subtractedValue */\n      lt\n      iszero\n        /* \"mintable-token/@openzeppelin/contracts/token/ERC20/ERC20.sol\":8078:8163  require(currentAllowance >= subtractedValue, \"ERC20: decreased allowance below zero\") */\n      tag_130\n      jumpi\n      mload(0x40)\n      0x08c379a000000000000000000000000000000000000000000000000000000000\n      dup2\n      mstore\n      0x04\n      add\n      tag_131\n      swap1\n      tag_132\n      jump\t// in\n    tag_131:\n      mload(0x40)\n      dup1\n      swap2\n      sub\n      swap1\n      revert\n    tag_130:\n        /* \"mintable-token/@openzeppelin/contracts/token/ERC20/ERC20.sol\":8197:8257  _approve(owner, spender, currentAllowance - subtractedValue) */\n      tag_133\n        /* \"mintable-token/@openzeppelin/contracts/token/ERC20/ERC20.sol\":8206:8211  owner */\n      dup3\n        /* \"mintable-token/@openzeppelin/contracts/token/ERC20/ERC20.sol\":8213:8220  spender */\n      dup7\n        /* \"mintable-token/@openzeppelin/contracts/token/ERC20/ERC20.sol\":8241:8256  subtractedValue */\n      dup7\n        /* \"mintable-token/@openzeppelin/contracts/token/ERC20/ERC20.sol\":8222:8238  currentAllowance */\n      dup5\n        /* \"mintable-token/@openzeppelin/contracts/token/ERC20/ERC20.sol\":8222:8256  currentAllowance - subtractedValue */\n      sub\n        /* \"mintable-token/@openzeppelin/contracts/token/ERC20/ERC20.sol\":8197:8205  _approve */\n      tag_93\n        /* \"mintable-token/@openzeppelin/contracts/token/ERC20/ERC20.sol\":8197:8257  _approve(owner, spender, currentAllowance - subtractedValue) */\n      jump\t// in\n    tag_133:\n        /* \"mintable-token/@openzeppelin/contracts/token/ERC20/ERC20.sol\":8285:8289  true */\n      0x01\n        /* \"mintable-token/@openzeppelin/contracts/token/ERC20/ERC20.sol\":8278:8289  return true */\n      swap3\n      pop\n      pop\n      pop\n        /* \"mintable-token/@openzeppelin/contracts/token/ERC20/ERC20.sol\":7869:8296  function decreaseAllowance(address spender, uint256 subtractedValue) public virtual returns (bool) {... */\n      swap3\n      swap2\n      pop\n      pop\n      jump\t// out\n        /* \"mintable-token/@openzeppelin/contracts/token/ERC20/ERC20.sol\":5004:5193  function transfer(address to, uint256 amount) public virtual override returns (bool) {... */\n    tag_72:\n        /* \"mintable-token/@openzeppelin/contracts/token/ERC20/ERC20.sol\":5083:5087  bool */\n      0x00\n        /* \"mintable-token/@openzeppelin/contracts/token/ERC20/ERC20.sol\":5099:5112  address owner */\n      dup1\n        /* \"mintable-token/@openzeppelin/contracts/token/ERC20/ERC20.sol\":5115:5127  _msgSender() */\n      tag_135\n        /* \"mintable-token/@openzeppelin/contracts/token/ERC20/ERC20.sol\":5115:5125  _msgSender */\n      tag_91\n        /* \"mintable-token/@openzeppelin/contracts/token/ERC20/ERC20.sol\":5115:5127  _msgSender() */\n      jump\t// in\n    tag_135:\n        /* \"mintable-token/@openzeppelin/contracts/token/ERC20/ERC20.sol\":5099:5127  address owner = _msgSender() */\n      swap1\n      pop\n        /* \"mintable-token/@openzeppelin/contracts/token/ERC20/ERC20.sol\":5137:5165  _transfer(owner, to, amount) */\n      tag_136\n        /* \"mintable-token/@openzeppelin/contracts/token/ERC20/ERC20.sol\":5147:5152  owner */\n      dup2\n        /* \"mintable-token/@openzeppelin/contracts/token/ERC20/ERC20.sol\":5154:5156  to */\n      dup6\n        /* \"mintable-token/@openzeppelin/contracts/token/ERC20/ERC20.sol\":5158:5164  amount */\n      dup6\n        /* \"mintable-token/@openzeppelin/contracts/token/ERC20/ERC20.sol\":5137:5146  _transfer */\n      tag_100\n        /* \"mintable-token/@openzeppelin/contracts/token/ERC20/ERC20.sol\":5137:5165  _transfer(owner, to, amount) */\n      jump\t// in\n    tag_136:\n        /* \"mintable-token/@openzeppelin/contracts/token/ERC20/ERC20.sol\":5182:5186  true */\n      0x01\n        /* \"mintable-token/@openzeppelin/contracts/token/ERC20/ERC20.sol\":5175:5186  return true */\n      swap2\n      pop\n      pop\n        /* \"mintable-token/@openzeppelin/contracts/token/ERC20/ERC20.sol\":5004:5193  function transfer(address to, uint256 amount) public virtual override returns (bool) {... */\n      swap3\n      swap2\n      pop\n      pop\n      jump\t// out\n        /* \"mintable-token/@openzeppelin/contracts/token/ERC20/ERC20.sol\":5251:5400  function allowance(address owner, address spender) public view virtual override returns (uint256) {... */\n    tag_77:\n        /* \"mintable-token/@openzeppelin/contracts/token/ERC20/ERC20.sol\":5340:5347  uint256 */\n      0x00\n        /* \"mintable-token/@openzeppelin/contracts/token/ERC20/ERC20.sol\":5366:5377  _allowances */\n      0x01\n        /* \"mintable-token/@openzeppelin/contracts/token/ERC20/ERC20.sol\":5366:5384  _allowances[owner] */\n      0x00\n        /* \"mintable-token/@openzeppelin/contracts/token/ERC20/ERC20.sol\":5378:5383  owner */\n      dup5\n        /* \"mintable-token/@openzeppelin/contracts/token/ERC20/ERC20.sol\":5366:5384  _allowances[owner] */\n      0xffffffffffffffffffffffffffffffffffffffff\n      and\n      0xffffffffffffffffffffffffffffffffffffffff\n      and\n      dup2\n      mstore\n      0x20\n      add\n      swap1\n      dup2\n      mstore\n      0x20\n      add\n      0x00\n      keccak256\n        /* \"mintable-token/@openzeppelin/contracts/token/ERC20/ERC20.sol\":5366:5393  _allowances[owner][spender] */\n      0x00\n        /* \"mintable-token/@openzeppelin/contracts/token/ERC20/ERC20.sol\":5385:5392  spender */\n      dup4\n        /* \"mintable-token/@openzeppelin/contracts/token/ERC20/ERC20.sol\":5366:5393  _allowances[owner][spender] */\n      0xffffffffffffffffffffffffffffffffffffffff\n      and\n      0xffffffffffffffffffffffffffffffffffffffff\n      and\n      dup2\n      mstore\n      0x20\n      add\n      swap1\n      dup2\n      mstore\n      0x20\n      add\n      0x00\n      keccak256\n      sload\n        /* \"mintable-token/@openzeppelin/contracts/token/ERC20/ERC20.sol\":5359:5393  return _allowances[owner][spender] */\n      swap1\n      pop\n        /* \"mintable-token/@openzeppelin/contracts/token/ERC20/ERC20.sol\":5251:5400  function allowance(address owner, address spender) public view virtual override returns (uint256) {... */\n      swap3\n      swap2\n      pop\n      pop\n      jump\t// out\n        /* \"mintable-token/@openzeppelin/contracts/access/Ownable.sol\":3356:3554  function transferOwnership(address newOwner) public virtual onlyOwner {... */\n    tag_81:\n        /* \"mintable-token/@openzeppelin/contracts/access/Ownable.sol\":2369:2382  _checkOwner() */\n      tag_139\n        /* \"mintable-token/@openzeppelin/contracts/access/Ownable.sol\":2369:2380  _checkOwner */\n      tag_111\n        /* \"mintable-token/@openzeppelin/contracts/access/Ownable.sol\":2369:2382  _checkOwner() */\n      jump\t// in\n    tag_139:\n        /* \"mintable-token/@openzeppelin/contracts/access/Ownable.sol\":3464:3465  0 */\n      0x00\n        /* \"mintable-token/@openzeppelin/contracts/access/Ownable.sol\":3444:3466  newOwner != address(0) */\n      0xffffffffffffffffffffffffffffffffffffffff\n      and\n        /* \"mintable-token/@openzeppelin/contracts/access/Ownable.sol\":3444:3452  newOwner */\n      dup2\n        /* \"mintable-token/@openzeppelin/contracts/access/Ownable.sol\":3444:3466  newOwner != address(0) */\n      0xffffffffffffffffffffffffffffffffffffffff\n      and\n      sub\n        /* \"mintable-token/@openzeppelin/contracts/access/Ownable.sol\":3436:3509  require(newOwner != address(0), \"Ownable: new owner is the zero address\") */\n      tag_141\n      jumpi\n      mload(0x40)\n      0x08c379a000000000000000000000000000000000000000000000000000000000\n      dup2\n      mstore\n      0x04\n      add\n      tag_142\n      swap1\n      tag_143\n      jump\t// in\n    tag_142:\n      mload(0x40)\n      dup1\n      swap2\n      sub\n      swap1\n      revert\n    tag_141:\n        /* \"mintable-token/@openzeppelin/contracts/access/Ownable.sol\":3519:3547  _transferOwnership(newOwner) */\n      tag_144\n        /* \"mintable-token/@openzeppelin/contracts/access/Ownable.sol\":3538:3546  newOwner */\n      dup2\n        /* \"mintable-token/@openzeppelin/contracts/access/Ownable.sol\":3519:3537  _transferOwnership */\n      tag_114\n        /* \"mintable-token/@openzeppelin/contracts/access/Ownable.sol\":3519:3547  _transferOwnership(newOwner) */\n      jump\t// in\n    tag_144:\n        /* \"mintable-token/@openzeppelin/contracts/access/Ownable.sol\":3356:3554  function transferOwnership(address newOwner) public virtual onlyOwner {... */\n      pop\n      jump\t// out\n        /* \"mintable-token/@openzeppelin/contracts/utils/Context.sol\":1915:2011  function _msgSender() internal view virtual returns (address) {... */\n    tag_91:\n        /* \"mintable-token/@openzeppelin/contracts/utils/Context.sol\":1968:1975  address */\n      0x00\n        /* \"mintable-token/@openzeppelin/contracts/utils/Context.sol\":1994:2004  msg.sender */\n      caller\n        /* \"mintable-token/@openzeppelin/contracts/utils/Context.sol\":1987:2004  return msg.sender */\n      swap1\n      pop\n        /* \"mintable-token/@openzeppelin/contracts/utils/Context.sol\":1915:2011  function _msgSender() internal view virtual returns (address) {... */\n      swap1\n      jump\t// out\n        /* \"mintable-token/@openzeppelin/contracts/token/ERC20/ERC20.sol\":11385:11755  function _approve(... */\n    tag_93:\n        /* \"mintable-token/@openzeppelin/contracts/token/ERC20/ERC20.sol\":11533:11534  0 */\n      0x00\n        /* \"mintable-token/@openzeppelin/contracts/token/ERC20/ERC20.sol\":11516:11535  owner != address(0) */\n      0xffffffffffffffffffffffffffffffffffffffff\n      and\n        /* \"mintable-token/@openzeppelin/contracts/token/ERC20/ERC20.sol\":11516:11521  owner */\n      dup4\n        /* \"mintable-token/@openzeppelin/contracts/token/ERC20/ERC20.sol\":11516:11535  owner != address(0) */\n      0xffffffffffffffffffffffffffffffffffffffff\n      and\n      sub\n        /* \"mintable-token/@openzeppelin/contracts/token/ERC20/ERC20.sol\":11508:11576  require(owner != address(0), \"ERC20: approve from the zero address\") */\n      tag_147\n      jumpi\n      mload(0x40)\n      0x08c379a000000000000000000000000000000000000000000000000000000000\n      dup2\n      mstore\n      0x04\n      add\n      tag_148\n      swap1\n      tag_149\n      jump\t// in\n    tag_148:\n      mload(0x40)\n      dup1\n      swap2\n      sub\n      swap1\n      revert\n    tag_147:\n        /* \"mintable-token/@openzeppelin/contracts/token/ERC20/ERC20.sol\":11613:11614  0 */\n      0x00\n        /* \"mintable-token/@openzeppelin/contracts/token/ERC20/ERC20.sol\":11594:11615  spender != address(0) */\n      0xffffffffffffffffffffffffffffffffffffffff\n      and\n        /* \"mintable-token/@openzeppelin/contracts/token/ERC20/ERC20.sol\":11594:11601  spender */\n      dup3\n        /* \"mintable-token/@openzeppelin/contracts/token/ERC20/ERC20.sol\":11594:11615  spender != address(0) */\n      0xffffffffffffffffffffffffffffffffffffffff\n      and\n      sub\n        /* \"mintable-token/@openzeppelin/contracts/token/ERC20/ERC20.sol\":11586:11654  require(spender != address(0), \"ERC20: approve to the zero address\") */\n      tag_150\n      jumpi\n      mload(0x40)\n      0x08c379a000000000000000000000000000000000000000000000000000000000\n      dup2\n      mstore\n      0x04\n      add\n      tag_151\n      swap1\n      tag_152\n      jump\t// in\n    tag_151:\n      mload(0x40)\n      dup1\n      swap2\n      sub\n      swap1\n      revert\n    tag_150:\n        /* \"mintable-token/@openzeppelin/contracts/token/ERC20/ERC20.sol\":11695:11701  amount */\n      dup1\n        /* \"mintable-token/@openzeppelin/contracts/token/ERC20/ERC20.sol\":11665:11676  _allowances */\n      0x01\n        /* \"mintable-token/@openzeppelin/contracts/token/ERC20/ERC20.sol\":11665:11683  _allowances[owner] */\n      0x00\n        /* \"mintable-token/@openzeppelin/contracts/token/ERC20/ERC20.sol\":11677:11682  owner */\n      dup6\n        /* \"mintable-token/@openzeppelin/contracts/token/ERC20/ERC20.sol\":11665:11683  _allowances[owner] */\n      0xffffffffffffffffffffffffffffffffffffffff\n      and\n      0xffffffffffffffffffffffffffffffffffffffff\n      and\n      dup2\n      mstore\n      0x20\n      add\n      swap1\n      dup2\n      mstore\n      0x20\n      add\n      0x00\n      keccak256\n        /* \"mintable-token/@openzeppelin/contracts/token/ERC20/ERC20.sol\":11665:11692  _allowances[owner][spender] */\n      0x00\n        /* \"mintable-token/@openzeppelin/contracts/token/ERC20/ERC20.sol\":11684:11691  spender */\n      dup5\n        /* \"mintable-token/@openzeppelin/contracts/token/ERC20/ERC20.sol\":11665:11692  _allowances[owner][spender] */\n      0xffffffffffffffffffffffffffffffffffffffff\n      and\n      0xffffffffffffffffffffffffffffffffffffffff\n      and\n      dup2\n      mstore\n      0x20\n      add\n      swap1\n      dup2\n      mstore\n      0x20\n      add\n      0x00\n      keccak256\n        /* \"mintable-token/@openzeppelin/contracts/token/ERC20/ERC20.sol\":11665:11701  _allowances[owner][spender] = amount */\n      dup2\n      swap1\n      sstore\n      pop\n        /* \"mintable-token/@openzeppelin/contracts/token/ERC20/ERC20.sol\":11732:11739  spender */\n      dup2\n        /* \"mintable-token/@openzeppelin/contracts/token/ERC20/ERC20.sol\":11716:11748  Approval(owner, spender, amount) */\n      0xffffffffffffffffffffffffffffffffffffffff\n      and\n        /* \"mintable-token/@openzeppelin/contracts/token/ERC20/ERC20.sol\":11725:11730  owner */\n      dup4\n        /* \"mintable-token/@openzeppelin/contracts/token/ERC20/ERC20.sol\":11716:11748  Approval(owner, spender, amount) */\n      0xffffffffffffffffffffffffffffffffffffffff\n      and\n      0x8c5be1e5ebec7d5bd14f71427d1e84f3dd0314c0f7b2291e5b200ac8c7c3b925\n        /* \"mintable-token/@openzeppelin/contracts/token/ERC20/ERC20.sol\":11741:11747  amount */\n      dup4\n        /* \"mintable-token/@openzeppelin/contracts/token/ERC20/ERC20.sol\":11716:11748  Approval(owner, spender, amount) */\n      mload(0x40)\n      tag_153\n      swap2\n      swap1\n      tag_34\n      jump\t// in\n    tag_153:\n      mload(0x40)\n      dup1\n      swap2\n      sub\n      swap1\n      log3\n        /* \"mintable-token/@openzeppelin/contracts/token/ERC20/ERC20.sol\":11385:11755  function _approve(... */\n      pop\n      pop\n      pop\n      jump\t// out\n        /* \"mintable-token/@openzeppelin/contracts/token/ERC20/ERC20.sol\":12036:12477  function _spendAllowance(... */\n    tag_98:\n        /* \"mintable-token/@openzeppelin/contracts/token/ERC20/ERC20.sol\":12166:12190  uint256 currentAllowance */\n      0x00\n        /* \"mintable-token/@openzeppelin/contracts/token/ERC20/ERC20.sol\":12193:12218  allowance(owner, spender) */\n      tag_155\n        /* \"mintable-token/@openzeppelin/contracts/token/ERC20/ERC20.sol\":12203:12208  owner */\n      dup5\n        /* \"mintable-token/@openzeppelin/contracts/token/ERC20/ERC20.sol\":12210:12217  spender */\n      dup5\n        /* \"mintable-token/@openzeppelin/contracts/token/ERC20/ERC20.sol\":12193:12202  allowance */\n      tag_77\n        /* \"mintable-token/@openzeppelin/contracts/token/ERC20/ERC20.sol\":12193:12218  allowance(owner, spender) */\n      jump\t// in\n    tag_155:\n        /* \"mintable-token/@openzeppelin/contracts/token/ERC20/ERC20.sol\":12166:12218  uint256 currentAllowance = allowance(owner, spender) */\n      swap1\n      pop\n        /* \"mintable-token/@openzeppelin/contracts/token/ERC20/ERC20.sol\":12252:12269  type(uint256).max */\n      0xffffffffffffffffffffffffffffffffffffffffffffffffffffffffffffffff\n        /* \"mintable-token/@openzeppelin/contracts/token/ERC20/ERC20.sol\":12232:12248  currentAllowance */\n      dup2\n        /* \"mintable-token/@openzeppelin/contracts/token/ERC20/ERC20.sol\":12232:12269  currentAllowance != type(uint256).max */\n      eq\n        /* \"mintable-token/@openzeppelin/contracts/token/ERC20/ERC20.sol\":12228:12471  if (currentAllowance != type(uint256).max) {... */\n      tag_156\n      jumpi\n        /* \"mintable-token/@openzeppelin/contracts/token/ERC20/ERC20.sol\":12313:12319  amount */\n      dup2\n        /* \"mintable-token/@openzeppelin/contracts/token/ERC20/ERC20.sol\":12293:12309  currentAllowance */\n      dup2\n        /* \"mintable-token/@openzeppelin/contracts/token/ERC20/ERC20.sol\":12293:12319  currentAllowance >= amount */\n      lt\n      iszero\n        /* \"mintable-token/@openzeppelin/contracts/token/ERC20/ERC20.sol\":12285:12353  require(currentAllowance >= amount, \"ERC20: insufficient allowance\") */\n      tag_157\n      jumpi\n      mload(0x40)\n      0x08c379a000000000000000000000000000000000000000000000000000000000\n      dup2\n      mstore\n      0x04\n      add\n      tag_158\n      swap1\n      tag_159\n      jump\t// in\n    tag_158:\n      mload(0x40)\n      dup1\n      swap2\n      sub\n      swap1\n      revert\n    tag_157:\n        /* \"mintable-token/@openzeppelin/contracts/token/ERC20/ERC20.sol\":12395:12446  _approve(owner, spender, currentAllowance - amount) */\n      tag_160\n        /* \"mintable-token/@openzeppelin/contracts/token/ERC20/ERC20.sol\":12404:12409  owner */\n      dup5\n        /* \"mintable-token/@openzeppelin/contracts/token/ERC20/ERC20.sol\":12411:12418  spender */\n      dup5\n        /* \"mintable-token/@openzeppelin/contracts/token/ERC20/ERC20.sol\":12439:12445  amount */\n      dup5\n        /* \"mintable-token/@openzeppelin/contracts/token/ERC20/ERC20.sol\":12420:12436  currentAllowance */\n      dup5\n        /* \"mintable-token/@openzeppelin/contracts/token/ERC20/ERC20.sol\":12420:12445  currentAllowance - amount */\n      sub\n        /* \"mintable-token/@openzeppelin/contracts/token/ERC20/ERC20.sol\":12395:12403  _approve */\n      tag_93\n        /* \"mintable-token/@openzeppelin/contracts/token/ERC20/ERC20.sol\":12395:12446  _approve(owner, spender, currentAllowance - amount) */\n      jump\t// in\n    tag_160:\n        /* \"mintable-token/@openzeppelin/contracts/token/ERC20/ERC20.sol\":12228:12471  if (currentAllowance != type(uint256).max) {... */\n    tag_156:\n        /* \"mintable-token/@openzeppelin/contracts/token/ERC20/ERC20.sol\":12156:12477  {... */\n      pop\n        /* \"mintable-token/@openzeppelin/contracts/token/ERC20/ERC20.sol\":12036:12477  function _spendAllowance(... */\n      pop\n      pop\n      pop\n      jump\t// out\n        /* \"mintable-token/@openzeppelin/contracts/token/ERC20/ERC20.sol\":8750:9401  function _transfer(... */\n    tag_100:\n        /* \"mintable-token/@openzeppelin/contracts/token/ERC20/ERC20.sol\":8892:8893  0 */\n      0x00\n        /* \"mintable-token/@openzeppelin/contracts/token/ERC20/ERC20.sol\":8876:8894  from != address(0) */\n      0xffffffffffffffffffffffffffffffffffffffff\n      and\n        /* \"mintable-token/@openzeppelin/contracts/token/ERC20/ERC20.sol\":8876:8880  from */\n      dup4\n        /* \"mintable-token/@openzeppelin/contracts/token/ERC20/ERC20.sol\":8876:8894  from != address(0) */\n      0xffffffffffffffffffffffffffffffffffffffff\n      and\n      sub\n        /* \"mintable-token/@openzeppelin/contracts/token/ERC20/ERC20.sol\":8868:8936  require(from != address(0), \"ERC20: transfer from the zero address\") */\n      tag_162\n      jumpi\n      mload(0x40)\n      0x08c379a000000000000000000000000000000000000000000000000000000000\n      dup2\n      mstore\n      0x04\n      add\n      tag_163\n      swap1\n      tag_164\n      jump\t// in\n    tag_163:\n      mload(0x40)\n      dup1\n      swap2\n      sub\n      swap1\n      revert\n    tag_162:\n        /* \"mintable-token/@openzeppelin/contracts/token/ERC20/ERC20.sol\":8968:8969  0 */\n      0x00\n        /* \"mintable-token/@openzeppelin/contracts/token/ERC20/ERC20.sol\":8954:8970  to != address(0) */\n      0xffffffffffffffffffffffffffffffffffffffff\n      and\n        /* \"mintable-token/@openzeppelin/contracts/token/ERC20/ERC20.sol\":8954:8956  to */\n      dup3\n        /* \"mintable-token/@openzeppelin/contracts/token/ERC20/ERC20.sol\":8954:8970  to != address(0) */\n      0xffffffffffffffffffffffffffffffffffffffff\n      and\n      sub\n        /* \"mintable-token/@openzeppelin/contracts/token/ERC20/ERC20.sol\":8946:9010  require(to != address(0), \"ERC20: transfer to the zero address\") */\n      tag_165\n      jumpi\n      mload(0x40)\n      0x08c379a000000000000000000000000000000000000000000000000000000000\n      dup2\n      mstore\n      0x04\n      add\n      tag_166\n      swap1\n      tag_167\n      jump\t// in\n    tag_166:\n      mload(0x40)\n      dup1\n      swap2\n      sub\n      swap1\n      revert\n    tag_165:\n        /* \"mintable-token/@openzeppelin/contracts/token/ERC20/ERC20.sol\":9021:9059  _beforeTokenTransfer(from, to, amount) */\n      tag_168\n        /* \"mintable-token/@openzeppelin/contracts/token/ERC20/ERC20.sol\":9042:9046  from */\n      dup4\n        /* \"mintable-token/@openzeppelin/contracts/token/ERC20/ERC20.sol\":9048:9050  to */\n      dup4\n        /* \"mintable-token/@openzeppelin/contracts/token/ERC20/ERC20.sol\":9052:9058  amount */\n      dup4\n        /* \"mintable-token/@openzeppelin/contracts/token/ERC20/ERC20.sol\":9021:9041  _beforeTokenTransfer */\n      tag_169\n        /* \"mintable-token/@openzeppelin/contracts/token/ERC20/ERC20.sol\":9021:9059  _beforeTokenTransfer(from, to, amount) */\n      jump\t// in\n    tag_168:\n        /* \"mintable-token/@openzeppelin/contracts/token/ERC20/ERC20.sol\":9070:9089  uint256 fromBalance */\n      0x00\n        /* \"mintable-token/@openzeppelin/contracts/token/ERC20/ERC20.sol\":9092:9101  _balances */\n      dup1\n        /* \"mintable-token/@openzeppelin/contracts/token/ERC20/ERC20.sol\":9092:9107  _balances[from] */\n      0x00\n        /* \"mintable-token/@openzeppelin/contracts/token/ERC20/ERC20.sol\":9102:9106  from */\n      dup6\n        /* \"mintable-token/@openzeppelin/contracts/token/ERC20/ERC20.sol\":9092:9107  _balances[from] */\n      0xffffffffffffffffffffffffffffffffffffffff\n      and\n      0xffffffffffffffffffffffffffffffffffffffff\n      and\n      dup2\n      mstore\n      0x20\n      add\n      swap1\n      dup2\n      mstore\n      0x20\n      add\n      0x00\n      keccak256\n      sload\n        /* \"mintable-token/@openzeppelin/contracts/token/ERC20/ERC20.sol\":9070:9107  uint256 fromBalance = _balances[from] */\n      swap1\n      pop\n        /* \"mintable-token/@openzeppelin/contracts/token/ERC20/ERC20.sol\":9140:9146  amount */\n      dup2\n        /* \"mintable-token/@openzeppelin/contracts/token/ERC20/ERC20.sol\":9125:9136  fromBalance */\n      dup2\n        /* \"mintable-token/@openzeppelin/contracts/token/ERC20/ERC20.sol\":9125:9146  fromBalance >= amount */\n      lt\n      iszero\n        /* \"mintable-token/@openzeppelin/contracts/token/ERC20/ERC20.sol\":9117:9189  require(fromBalance >= amount, \"ERC20: transfer amount exceeds balance\") */\n      tag_170\n      jumpi\n      mload(0x40)\n      0x08c379a000000000000000000000000000000000000000000000000000000000\n      dup2\n      mstore\n      0x04\n      add\n      tag_171\n      swap1\n      tag_172\n      jump\t// in\n    tag_171:\n      mload(0x40)\n      dup1\n      swap2\n      sub\n      swap1\n      revert\n    tag_170:\n        /* \"mintable-token/@openzeppelin/contracts/token/ERC20/ERC20.sol\":9255:9261  amount */\n      dup2\n        /* \"mintable-token/@openzeppelin/contracts/token/ERC20/ERC20.sol\":9241:9252  fromBalance */\n      dup2\n        /* \"mintable-token/@openzeppelin/contracts/token/ERC20/ERC20.sol\":9241:9261  fromBalance - amount */\n      sub\n        /* \"mintable-token/@openzeppelin/contracts/token/ERC20/ERC20.sol\":9223:9232  _balances */\n      0x00\n        /* \"mintable-token/@openzeppelin/contracts/token/ERC20/ERC20.sol\":9223:9238  _balances[from] */\n      dup1\n        /* \"mintable-token/@openzeppelin/contracts/token/ERC20/ERC20.sol\":9233:9237  from */\n      dup7\n        /* \"mintable-token/@openzeppelin/contracts/token/ERC20/ERC20.sol\":9223:9238  _balances[from] */\n      0xffffffffffffffffffffffffffffffffffffffff\n      and\n      0xffffffffffffffffffffffffffffffffffffffff\n      and\n      dup2\n      mstore\n      0x20\n      add\n      swap1\n      dup2\n      mstore\n      0x20\n      add\n      0x00\n      keccak256\n        /* \"mintable-token/@openzeppelin/contracts/token/ERC20/ERC20.sol\":9223:9261  _balances[from] = fromBalance - amount */\n      dup2\n      swap1\n      sstore\n      pop\n        /* \"mintable-token/@openzeppelin/contracts/token/ERC20/ERC20.sol\":9298:9304  amount */\n      dup2\n        /* \"mintable-token/@openzeppelin/contracts/token/ERC20/ERC20.sol\":9281:9290  _balances */\n      0x00\n        /* \"mintable-token/@openzeppelin/contracts/token/ERC20/ERC20.sol\":9281:9294  _balances[to] */\n      dup1\n        /* \"mintable-token/@openzeppelin/contracts/token/ERC20/ERC20.sol\":9291:9293  to */\n      dup6\n        /* \"mintable-token/@openzeppelin/contracts/token/ERC20/ERC20.sol\":9281:9294  _balances[to] */\n      0xffffffffffffffffffffffffffffffffffffffff\n      and\n      0xffffffffffffffffffffffffffffffffffffffff\n      and\n      dup2\n      mstore\n      0x20\n      add\n      swap1\n      dup2\n      mstore\n      0x20\n      add\n      0x00\n      keccak256\n      0x00\n        /* \"mintable-token/@openzeppelin/contracts/token/ERC20/ERC20.sol\":9281:9304  _balances[to] += amount */\n      dup3\n      dup3\n      sload\n      tag_173\n      swap2\n      swap1\n      tag_107\n      jump\t// in\n    tag_173:\n      swap3\n      pop\n      pop\n      dup2\n      swap1\n      sstore\n      pop\n        /* \"mintable-token/@openzeppelin/contracts/token/ERC20/ERC20.sol\":9335:9337  to */\n      dup3\n        /* \"mintable-token/@openzeppelin/contracts/token/ERC20/ERC20.sol\":9320:9346  Transfer(from, to, amount) */\n      0xffffffffffffffffffffffffffffffffffffffff\n      and\n        /* \"mintable-token/@openzeppelin/contracts/token/ERC20/ERC20.sol\":9329:9333  from */\n      dup5\n        /* \"mintable-token/@openzeppelin/contracts/token/ERC20/ERC20.sol\":9320:9346  Transfer(from, to, amount) */\n      0xffffffffffffffffffffffffffffffffffffffff\n      and\n      0xddf252ad1be2c89b69c2b068fc378daa952ba7f163c4a11628f55a4df523b3ef\n        /* \"mintable-token/@openzeppelin/contracts/token/ERC20/ERC20.sol\":9339:9345  amount */\n      dup5\n        /* \"mintable-token/@openzeppelin/contracts/token/ERC20/ERC20.sol\":9320:9346  Transfer(from, to, amount) */\n      mload(0x40)\n      tag_174\n      swap2\n      swap1\n      tag_34\n      jump\t// in\n    tag_174:\n      mload(0x40)\n      dup1\n      swap2\n      sub\n      swap1\n      log3\n        /* \"mintable-token/@openzeppelin/contracts/token/ERC20/ERC20.sol\":9357:9394  _afterTokenTransfer(from, to, amount) */\n      tag_175\n        /* \"mintable-token/@openzeppelin/contracts/token/ERC20/ERC20.sol\":9377:9381  from */\n      dup5\n        /* \"mintable-token/@openzeppelin/contracts/token/ERC20/ERC20.sol\":9383:9385  to */\n      dup5\n        /* \"mintable-token/@openzeppelin/contracts/token/ERC20/ERC20.sol\":9387:9393  amount */\n      dup5\n        /* \"mintable-token/@openzeppelin/contracts/token/ERC20/ERC20.sol\":9357:9376  _afterTokenTransfer */\n      tag_176\n        /* \"mintable-token/@openzeppelin/contracts/token/ERC20/ERC20.sol\":9357:9394  _afterTokenTransfer(from, to, amount) */\n      jump\t// in\n    tag_175:\n        /* \"mintable-token/@openzeppelin/contracts/token/ERC20/ERC20.sol\":8858:9401  {... */\n      pop\n        /* \"mintable-token/@openzeppelin/contracts/token/ERC20/ERC20.sol\":8750:9401  function _transfer(... */\n      pop\n      pop\n      pop\n      jump\t// out\n        /* \"mintable-token/@openzeppelin/contracts/access/Ownable.sol\":2634:2764  function _checkOwner() internal view virtual {... */\n    tag_111:\n        /* \"mintable-token/@openzeppelin/contracts/access/Ownable.sol\":2708:2720  _msgSender() */\n      tag_178\n        /* \"mintable-token/@openzeppelin/contracts/access/Ownable.sol\":2708:2718  _msgSender */\n      tag_91\n        /* \"mintable-token/@openzeppelin/contracts/access/Ownable.sol\":2708:2720  _msgSender() */\n      jump\t// in\n    tag_178:\n        /* \"mintable-token/@openzeppelin/contracts/access/Ownable.sol\":2697:2720  owner() == _msgSender() */\n      0xffffffffffffffffffffffffffffffffffffffff\n      and\n        /* \"mintable-token/@openzeppelin/contracts/access/Ownable.sol\":2697:2704  owner() */\n      tag_179\n        /* \"mintable-token/@openzeppelin/contracts/access/Ownable.sol\":2697:2702  owner */\n      tag_56\n        /* \"mintable-token/@openzeppelin/contracts/access/Ownable.sol\":2697:2704  owner() */\n      jump\t// in\n    tag_179:\n        /* \"mintable-token/@openzeppelin/contracts/access/Ownable.sol\":2697:2720  owner() == _msgSender() */\n      0xffffffffffffffffffffffffffffffffffffffff\n      and\n      eq\n        /* \"mintable-token/@openzeppelin/contracts/access/Ownable.sol\":2689:2757  require(owner() == _msgSender(), \"Ownable: caller is not the owner\") */\n      tag_180\n      jumpi\n      mload(0x40)\n      0x08c379a000000000000000000000000000000000000000000000000000000000\n      dup2\n      mstore\n      0x04\n      add\n      tag_181\n      swap1\n      tag_182\n      jump\t// in\n    tag_181:\n      mload(0x40)\n      dup1\n      swap2\n      sub\n      swap1\n      revert\n    tag_180:\n        /* \"mintable-token/@openzeppelin/contracts/access/Ownable.sol\":2634:2764  function _checkOwner() internal view virtual {... */\n      jump\t// out\n        /* \"mintable-token/@openzeppelin/contracts/access/Ownable.sol\":3708:3895  function _transferOwnership(address newOwner) internal virtual {... */\n    tag_114:\n        /* \"mintable-token/@openzeppelin/contracts/access/Ownable.sol\":3781:3797  address oldOwner */\n      0x00\n        /* \"mintable-token/@openzeppelin/contracts/access/Ownable.sol\":3800:3806  _owner */\n      0x05\n      0x00\n      swap1\n      sload\n      swap1\n      0x0100\n      exp\n      swap1\n      div\n      0xffffffffffffffffffffffffffffffffffffffff\n      and\n        /* \"mintable-token/@openzeppelin/contracts/access/Ownable.sol\":3781:3806  address oldOwner = _owner */\n      swap1\n      pop\n        /* \"mintable-token/@openzeppelin/contracts/access/Ownable.sol\":3825:3833  newOwner */\n      dup2\n        /* \"mintable-token/@openzeppelin/contracts/access/Ownable.sol\":3816:3822  _owner */\n      0x05\n      0x00\n        /* \"mintable-token/@openzeppelin/contracts/access/Ownable.sol\":3816:3833  _owner = newOwner */\n      0x0100\n      exp\n      dup2\n      sload\n      dup2\n      0xffffffffffffffffffffffffffffffffffffffff\n      mul\n      not\n      and\n      swap1\n      dup4\n      0xffffffffffffffffffffffffffffffffffffffff\n      and\n      mul\n      or\n      swap1\n      sstore\n      pop\n        /* \"mintable-token/@openzeppelin/contracts/access/Ownable.sol\":3879:3887  newOwner */\n      dup2\n        /* \"mintable-token/@openzeppelin/contracts/access/Ownable.sol\":3848:3888  OwnershipTransferred(oldOwner, newOwner) */\n      0xffffffffffffffffffffffffffffffffffffffff\n      and\n        /* \"mintable-token/@openzeppelin/contracts/access/Ownable.sol\":3869:3877  oldOwner */\n      dup2\n        /* \"mintable-token/@openzeppelin/contracts/access/Ownable.sol\":3848:3888  OwnershipTransferred(oldOwner, newOwner) */\n      0xffffffffffffffffffffffffffffffffffffffff\n      and\n      0x8be0079c531659141344cd1fd0a4f28419497f9722a3daafe3b4186f6b6457e0\n      mload(0x40)\n      mload(0x40)\n      dup1\n      swap2\n      sub\n      swap1\n      log3\n        /* \"mintable-token/@openzeppelin/contracts/access/Ownable.sol\":3771:3895  {... */\n      pop\n        /* \"mintable-token/@openzeppelin/contracts/access/Ownable.sol\":3708:3895  function _transferOwnership(address newOwner) internal virtual {... */\n      pop\n      jump\t// out\n        /* \"mintable-token/@openzeppelin/contracts/token/ERC20/ERC20.sol\":9677:10066  function _mint(address account, uint256 amount) internal virtual {... */\n    tag_120:\n        /* \"mintable-token/@openzeppelin/contracts/token/ERC20/ERC20.sol\":9779:9780  0 */\n      0x00\n        /* \"mintable-token/@openzeppelin/contracts/token/ERC20/ERC20.sol\":9760:9781  account != address(0) */\n      0xffffffffffffffffffffffffffffffffffffffff\n      and\n        /* \"mintable-token/@openzeppelin/contracts/token/ERC20/ERC20.sol\":9760:9767  account */\n      dup3\n        /* \"mintable-token/@openzeppelin/contracts/token/ERC20/ERC20.sol\":9760:9781  account != address(0) */\n      0xffffffffffffffffffffffffffffffffffffffff\n      and\n      sub\n        /* \"mintable-token/@openzeppelin/contracts/token/ERC20/ERC20.sol\":9752:9817  require(account != address(0), \"ERC20: mint to the zero address\") */\n      tag_185\n      jumpi\n      mload(0x40)\n      0x08c379a000000000000000000000000000000000000000000000000000000000\n      dup2\n      mstore\n      0x04\n      add\n      tag_186\n      swap1\n      tag_187\n      jump\t// in\n    tag_186:\n      mload(0x40)\n      dup1\n      swap2\n      sub\n      swap1\n      revert\n    tag_185:\n        /* \"mintable-token/@openzeppelin/contracts/token/ERC20/ERC20.sol\":9828:9877  _beforeTokenTransfer(address(0), account, amount) */\n      tag_188\n        /* \"mintable-token/@openzeppelin/contracts/token/ERC20/ERC20.sol\":9857:9858  0 */\n      0x00\n        /* \"mintable-token/@openzeppelin/contracts/token/ERC20/ERC20.sol\":9861:9868  account */\n      dup4\n        /* \"mintable-token/@openzeppelin/contracts/token/ERC20/ERC20.sol\":9870:9876  amount */\n      dup4\n        /* \"mintable-token/@openzeppelin/contracts/token/ERC20/ERC20.sol\":9828:9848  _beforeTokenTransfer */\n      tag_169\n        /* \"mintable-token/@openzeppelin/contracts/token/ERC20/ERC20.sol\":9828:9877  _beforeTokenTransfer(address(0), account, amount) */\n      jump\t// in\n    tag_188:\n        /* \"mintable-token/@openzeppelin/contracts/token/ERC20/ERC20.sol\":9904:9910  amount */\n      dup1\n        /* \"mintable-token/@openzeppelin/contracts/token/ERC20/ERC20.sol\":9888:9900  _totalSupply */\n      0x02\n      0x00\n        /* \"mintable-token/@openzeppelin/contracts/token/ERC20/ERC20.sol\":9888:9910  _totalSupply += amount */\n      dup3\n      dup3\n      sload\n      tag_189\n      swap2\n      swap1\n      tag_107\n      jump\t// in\n    tag_189:\n      swap3\n      pop\n      pop\n      dup2\n      swap1\n      sstore\n      pop\n        /* \"mintable-token/@openzeppelin/contracts/token/ERC20/ERC20.sol\":9942:9948  amount */\n      dup1\n        /* \"mintable-token/@openzeppelin/contracts/token/ERC20/ERC20.sol\":9920:9929  _balances */\n      0x00\n        /* \"mintable-token/@openzeppelin/contracts/token/ERC20/ERC20.sol\":9920:9938  _balances[account] */\n      dup1\n        /* \"mintable-token/@openzeppelin/contracts/token/ERC20/ERC20.sol\":9930:9937  account */\n      dup5\n        /* \"mintable-token/@openzeppelin/contracts/token/ERC20/ERC20.sol\":9920:9938  _balances[account] */\n      0xffffffffffffffffffffffffffffffffffffffff\n      and\n      0xffffffffffffffffffffffffffffffffffffffff\n      and\n      dup2\n      mstore\n      0x20\n      add\n      swap1\n      dup2\n      mstore\n      0x20\n      add\n      0x00\n      keccak256\n      0x00\n        /* \"mintable-token/@openzeppelin/contracts/token/ERC20/ERC20.sol\":9920:9948  _balances[account] += amount */\n      dup3\n      dup3\n      sload\n      tag_190\n      swap2\n      swap1\n      tag_107\n      jump\t// in\n    tag_190:\n      swap3\n      pop\n      pop\n      dup2\n      swap1\n      sstore\n      pop\n        /* \"mintable-token/@openzeppelin/contracts/token/ERC20/ERC20.sol\":9984:9991  account */\n      dup2\n        /* \"mintable-token/@openzeppelin/contracts/token/ERC20/ERC20.sol\":9963:10000  Transfer(address(0), account, amount) */\n      0xffffffffffffffffffffffffffffffffffffffff\n      and\n        /* \"mintable-token/@openzeppelin/contracts/token/ERC20/ERC20.sol\":9980:9981  0 */\n      0x00\n        /* \"mintable-token/@openzeppelin/contracts/token/ERC20/ERC20.sol\":9963:10000  Transfer(address(0), account, amount) */\n      0xffffffffffffffffffffffffffffffffffffffff\n      and\n      0xddf252ad1be2c89b69c2b068fc378daa952ba7f163c4a11628f55a4df523b3ef\n        /* \"mintable-token/@openzeppelin/contracts/token/ERC20/ERC20.sol\":9993:9999  amount */\n      dup4\n        /* \"mintable-token/@openzeppelin/contracts/token/ERC20/ERC20.sol\":9963:10000  Transfer(address(0), account, amount) */\n      mload(0x40)\n      tag_191\n      swap2\n      swap1\n      tag_34\n      jump\t// in\n    tag_191:\n      mload(0x40)\n      dup1\n      swap2\n      sub\n      swap1\n      log3\n        /* \"mintable-token/@openzeppelin/contracts/token/ERC20/ERC20.sol\":10011:10059  _afterTokenTransfer(address(0), account, amount) */\n      tag_192\n        /* \"mintable-token/@openzeppelin/contracts/token/ERC20/ERC20.sol\":10039:10040  0 */\n      0x00\n        /* \"mintable-token/@openzeppelin/contracts/token/ERC20/ERC20.sol\":10043:10050  account */\n      dup4\n        /* \"mintable-token/@openzeppelin/contracts/token/ERC20/ERC20.sol\":10052:10058  amount */\n      dup4\n        /* \"mintable-token/@openzeppelin/contracts/token/ERC20/ERC20.sol\":10011:10030  _afterTokenTransfer */\n      tag_176\n        /* \"mintable-token/@openzeppelin/contracts/token/ERC20/ERC20.sol\":10011:10059  _afterTokenTransfer(address(0), account, amount) */\n      jump\t// in\n    tag_192:\n        /* \"mintable-token/@openzeppelin/contracts/token/ERC20/ERC20.sol\":9677:10066  function _mint(address account, uint256 amount) internal virtual {... */\n      pop\n      pop\n      jump\t// out\n        /* \"mintable-token/@openzeppelin/contracts/token/ERC20/ERC20.sol\":13061:13182  function _beforeTokenTransfer(... */\n    tag_169:\n      pop\n      pop\n      pop\n      jump\t// out\n        /* \"mintable-token/@openzeppelin/contracts/token/ERC20/ERC20.sol\":13770:13890  function _afterTokenTransfer(... */\n    tag_176:\n      pop\n      pop\n      pop\n      jump\t// out\n        /* \"#utility.yul\":7:106   */\n    tag_195:\n        /* \"#utility.yul\":59:65   */\n      0x00\n        /* \"#utility.yul\":93:98   */\n      dup2\n        /* \"#utility.yul\":87:99   */\n      mload\n        /* \"#utility.yul\":77:99   */\n      swap1\n      pop\n        /* \"#utility.yul\":7:106   */\n      swap2\n      swap1\n      pop\n      jump\t// out\n        /* \"#utility.yul\":112:281   */\n    tag_196:\n        /* \"#utility.yul\":196:207   */\n      0x00\n        /* \"#utility.yul\":230:236   */\n      dup3\n        /* \"#utility.yul\":225:228   */\n      dup3\n        /* \"#utility.yul\":218:237   */\n      mstore\n        /* \"#utility.yul\":270:274   */\n      0x20\n        /* \"#utility.yul\":265:268   */\n      dup3\n        /* \"#utility.yul\":261:275   */\n      add\n        /* \"#utility.yul\":246:275   */\n      swap1\n      pop\n        /* \"#utility.yul\":112:281   */\n      swap3\n      swap2\n      pop\n      pop\n      jump\t// out\n        /* \"#utility.yul\":287:426   */\n    tag_197:\n        /* \"#utility.yul\":376:382   */\n      dup3\n        /* \"#utility.yul\":371:374   */\n      dup2\n        /* \"#utility.yul\":366:369   */\n      dup4\n        /* \"#utility.yul\":360:383   */\n      mcopy\n        /* \"#utility.yul\":417:418   */\n      0x00\n        /* \"#utility.yul\":408:414   */\n      dup4\n        /* \"#utility.yul\":403:406   */\n      dup4\n        /* \"#utility.yul\":399:415   */\n      add\n        /* \"#utility.yul\":392:419   */\n      mstore\n        /* \"#utility.yul\":287:426   */\n      pop\n      pop\n      pop\n      jump\t// out\n        /* \"#utility.yul\":432:534   */\n    tag_198:\n        /* \"#utility.yul\":473:479   */\n      0x00\n        /* \"#utility.yul\":524:526   */\n      0x1f\n        /* \"#utility.yul\":520:527   */\n      not\n        /* \"#utility.yul\":515:517   */\n      0x1f\n        /* \"#utility.yul\":508:513   */\n      dup4\n        /* \"#utility.yul\":504:518   */\n      add\n        /* \"#utility.yul\":500:528   */\n      and\n        /* \"#utility.yul\":490:528   */\n      swap1\n      pop\n        /* \"#utility.yul\":432:534   */\n      swap2\n      swap1\n      pop\n      jump\t// out\n        /* \"#utility.yul\":540:917   */\n    tag_199:\n        /* \"#utility.yul\":628:631   */\n      0x00\n        /* \"#utility.yul\":656:695   */\n      tag_244\n        /* \"#utility.yul\":689:694   */\n      dup3\n        /* \"#utility.yul\":656:695   */\n      tag_195\n      jump\t// in\n    tag_244:\n        /* \"#utility.yul\":711:782   */\n      tag_245\n        /* \"#utility.yul\":775:781   */\n      dup2\n        /* \"#utility.yul\":770:773   */\n      dup6\n        /* \"#utility.yul\":711:782   */\n      tag_196\n      jump\t// in\n    tag_245:\n        /* \"#utility.yul\":704:782   */\n      swap4\n      pop\n        /* \"#utility.yul\":791:856   */\n      tag_246\n        /* \"#utility.yul\":849:855   */\n      dup2\n        /* \"#utility.yul\":844:847   */\n      dup6\n        /* \"#utility.yul\":837:841   */\n      0x20\n        /* \"#utility.yul\":830:835   */\n      dup7\n        /* \"#utility.yul\":826:842   */\n      add\n        /* \"#utility.yul\":791:856   */\n      tag_197\n      jump\t// in\n    tag_246:\n        /* \"#utility.yul\":881:910   */\n      tag_247\n        /* \"#utility.yul\":903:909   */\n      dup2\n        /* \"#utility.yul\":881:910   */\n      tag_198\n      jump\t// in\n    tag_247:\n        /* \"#utility.yul\":876:879   */\n      dup5\n        /* \"#utility.yul\":872:911   */\n      add\n        /* \"#utility.yul\":865:911   */\n      swap2\n      pop\n        /* \"#utility.yul\":632:917   */\n      pop\n        /* \"#utility.yul\":540:917   */\n      swap3\n      swap2\n      pop\n      pop\n      jump\t// out\n        /* \"#utility.yul\":923:1236   */\n    tag_24:\n        /* \"#utility.yul\":1036:1040   */\n      0x00\n        /* \"#utility.yul\":1074:1076   */\n      0x20\n        /* \"#utility.yul\":1063:1072   */\n      dup3\n        /* \"#utility.yul\":1059:1077   */\n      add\n        /* \"#utility.yul\":1051:1077   */\n      swap1\n      pop\n        /* \"#utility.yul\":1123:1132   */\n      dup2\n        /* \"#utility.yul\":1117:1121   */\n      dup2\n        /* \"#utility.yul\":1113:1133   */\n      sub\n        /* \"#utility.yul\":1109:1110   */\n      0x00\n        /* \"#utility.yul\":1098:1107   */\n      dup4\n        /* \"#utility.yul\":1094:1111   */\n      add\n        /* \"#utility.yul\":1087:1134   */\n      mstore\n        /* \"#utility.yul\":1151:1229   */\n      tag_249\n        /* \"#utility.yul\":1224:1228   */\n      dup2\n        /* \"#utility.yul\":1215:1221   */\n      dup5\n        /* \"#utility.yul\":1151:1229   */\n      tag_199\n      jump\t// in\n    tag_249:\n        /* \"#utility.yul\":1143:1229   */\n      swap1\n      pop\n        /* \"#utility.yul\":923:1236   */\n      swap3\n      swap2\n      pop\n      pop\n      jump\t// out\n        /* \"#utility.yul\":1323:1440   */\n    tag_201:\n        /* \"#utility.yul\":1432:1433   */\n      0x00\n        /* \"#utility.yul\":1429:1430   */\n      dup1\n        /* \"#utility.yul\":1422:1434   */\n      revert\n        /* \"#utility.yul\":1569:1695   */\n    tag_203:\n        /* \"#utility.yul\":1606:1613   */\n      0x00\n        /* \"#utility.yul\":1646:1688   */\n      0xffffffffffffffffffffffffffffffffffffffff\n        /* \"#utility.yul\":1639:1644   */\n      dup3\n        /* \"#utility.yul\":1635:1689   */\n      and\n        /* \"#utility.yul\":1624:1689   */\n      swap1\n      pop\n        /* \"#utility.yul\":1569:1695   */\n      swap2\n      swap1\n      pop\n      jump\t// out\n        /* \"#utility.yul\":1701:1797   */\n    tag_204:\n        /* \"#utility.yul\":1738:1745   */\n      0x00\n        /* \"#utility.yul\":1767:1791   */\n      tag_255\n        /* \"#utility.yul\":1785:1790   */\n      dup3\n        /* \"#utility.yul\":1767:1791   */\n      tag_203\n      jump\t// in\n    tag_255:\n        /* \"#utility.yul\":1756:1791   */\n      swap1\n      pop\n        /* \"#utility.yul\":1701:1797   */\n      swap2\n      swap1\n      pop\n      jump\t// out\n        /* \"#utility.yul\":1803:1925   */\n    tag_205:\n        /* \"#utility.yul\":1876:1900   */\n      tag_257\n        /* \"#utility.yul\":1894:1899   */\n      dup2\n        /* \"#utility.yul\":1876:1900   */\n      tag_204\n      jump\t// in\n    tag_257:\n        /* \"#utility.yul\":1869:1874   */\n      dup2\n        /* \"#utility.yul\":1866:1901   */\n      eq\n        /* \"#utility.yul\":1856:1919   */\n      tag_258\n      jumpi\n        /* \"#utility.yul\":1915:1916   */\n      0x00\n        /* \"#utility.yul\":1912:1913   */\n      dup1\n        /* \"#utility.yul\":1905:1917   */\n      revert\n        /* \"#utility.yul\":1856:1919   */\n    tag_258:\n        /* \"#utility.yul\":1803:1925   */\n      pop\n      jump\t// out\n        /* \"#utility.yul\":1931:2070   */\n    tag_206:\n        /* \"#utility.yul\":1977:1982   */\n      0x00\n        /* \"#utility.yul\":2015:2021   */\n      dup2\n        /* \"#utility.yul\":2002:2022   */\n      calldataload\n        /* \"#utility.yul\":1993:2022   */\n      swap1\n      pop\n        /* \"#utility.yul\":2031:2064   */\n      tag_260\n        /* \"#utility.yul\":2058:2063   */\n      dup2\n        /* \"#utility.yul\":2031:2064   */\n      tag_205\n      jump\t// in\n    tag_260:\n        /* \"#utility.yul\":1931:2070   */\n      swap3\n      swap2\n      pop\n      pop\n      jump\t// out\n        /* \"#utility.yul\":2076:2153   */\n    tag_207:\n        /* \"#utility.yul\":2113:2120   */\n      0x00\n        /* \"#utility.yul\":2142:2147   */\n      dup2\n        /* \"#utility.yul\":2131:2147   */\n      swap1\n      pop\n        /* \"#utility.yul\":2076:2153   */\n      swap2\n      swap1\n      pop\n      jump\t// out\n        /* \"#utility.yul\":2159:2281   */\n    tag_208:\n        /* \"#utility.yul\":2232:2256   */\n      tag_263\n        /* \"#utility.yul\":2250:2255   */\n      dup2\n        /* \"#utility.yul\":2232:2256   */\n      tag_207\n      jump\t// in\n    tag_263:\n        /* \"#utility.yul\":2225:2230   */\n      dup2\n        /* \"#utility.yul\":2222:2257   */\n      eq\n        /* \"#utility.yul\":2212:2275   */\n      tag_264\n      jumpi\n        /* \"#utility.yul\":2271:2272   */\n      0x00\n        /* \"#utility.yul\":2268:2269   */\n      dup1\n        /* \"#utility.yul\":2261:2273   */\n      revert\n        /* \"#utility.yul\":2212:2275   */\n    tag_264:\n        /* \"#utility.yul\":2159:2281   */\n      pop\n      jump\t// out\n        /* \"#utility.yul\":2287:2426   */\n    tag_209:\n        /* \"#utility.yul\":2333:2338   */\n      0x00\n        /* \"#utility.yul\":2371:2377   */\n      dup2\n        /* \"#utility.yul\":2358:2378   */\n      calldataload\n        /* \"#utility.yul\":2349:2378   */\n      swap1\n      pop\n        /* \"#utility.yul\":2387:2420   */\n      tag_266\n        /* \"#utility.yul\":2414:2419   */\n      dup2\n        /* \"#utility.yul\":2387:2420   */\n      tag_208\n      jump\t// in\n    tag_266:\n        /* \"#utility.yul\":2287:2426   */\n      swap3\n      swap2\n      pop\n      pop\n      jump\t// out\n        /* \"#utility.yul\":2432:2906   */\n    tag_27:\n        /* \"#utility.yul\":2500:2506   */\n      0x00\n        /* \"#utility.yul\":2508:2514   */\n      dup1\n        /* \"#utility.yul\":2557:2559   */\n      0x40\n        /* \"#utility.yul\":2545:2554   */\n      dup4\n        /* \"#utility.yul\":2536:2543   */\n      dup6\n        /* \"#utility.yul\":2532:2555   */\n      sub\n        /* \"#utility.yul\":2528:2560   */\n      slt\n        /* \"#utility.yul\":2525:2644   */\n      iszero\n      tag_268\n      jumpi\n        /* \"#utility.yul\":2563:2642   */\n      tag_269\n      tag_201\n      jump\t// in\n    tag_269:\n        /* \"#utility.yul\":2525:2644   */\n    tag_268:\n        /* \"#utility.yul\":2683:2684   */\n      0x00\n        /* \"#utility.yul\":2708:2761   */\n      tag_270\n        /* \"#utility.yul\":2753:2760   */\n      dup6\n        /* \"#utility.yul\":2744:2750   */\n      dup3\n        /* \"#utility.yul\":2733:2742   */\n      dup7\n        /* \"#utility.yul\":2729:2751   */\n      add\n        /* \"#utility.yul\":2708:2761   */\n      tag_206\n      jump\t// in\n    tag_270:\n        /* \"#utility.yul\":2698:2761   */\n      swap3\n      pop\n        /* \"#utility.yul\":2654:2771   */\n      pop\n        /* \"#utility.yul\":2810:2812   */\n      0x20\n        /* \"#utility.yul\":2836:2889   */\n      tag_271\n        /* \"#utility.yul\":2881:2888   */\n      dup6\n        /* \"#utility.yul\":2872:2878   */\n      dup3\n        /* \"#utility.yul\":2861:2870   */\n      dup7\n        /* \"#utility.yul\":2857:2879   */\n      add\n        /* \"#utility.yul\":2836:2889   */\n      tag_209\n      jump\t// in\n    tag_271:\n        /* \"#utility.yul\":2826:2889   */\n      swap2\n      pop\n        /* \"#utility.yul\":2781:2899   */\n      pop\n        /* \"#utility.yul\":2432:2906   */\n      swap3\n      pop\n      swap3\n      swap1\n      pop\n      jump\t// out\n        /* \"#utility.yul\":2912:3002   */\n    tag_210:\n        /* \"#utility.yul\":2946:2953   */\n      0x00\n        /* \"#utility.yul\":2989:2994   */\n      dup2\n        /* \"#utility.yul\":2982:2995   */\n      iszero\n        /* \"#utility.yul\":2975:2996   */\n      iszero\n        /* \"#utility.yul\":2964:2996   */\n      swap1\n      pop\n        /* \"#utility.yul\":2912:3002   */\n      swap2\n      swap1\n      pop\n      jump\t// out\n        /* \"#utility.yul\":3008:3117   */\n    tag_211:\n        /* \"#utility.yul\":3089:3110   */\n      tag_274\n        /* \"#utility.yul\":3104:3109   */\n      dup2\n        /* \"#utility.yul\":3089:3110   */\n      tag_210\n      jump\t// in\n    tag_274:\n        /* \"#utility.yul\":3084:3087   */\n      dup3\n        /* \"#utility.yul\":3077:3111   */\n      mstore\n        /* \"#utility.yul\":3008:3117   */\n      pop\n      pop\n      jump\t// out\n        /* \"#utility.yul\":3123:3333   */\n    tag_30:\n        /* \"#utility.yul\":3210:3214   */\n      0x00\n        /* \"#utility.yul\":3248:3250   */\n      0x20\n        /* \"#utility.yul\":3237:3246   */\n      dup3\n        /* \"#utility.yul\":3233:3251   */\n      add\n        /* \"#utility.yul\":3225:3251   */\n      swap1\n      pop\n        /* \"#utility.yul\":3261:3326   */\n      tag_276\n        /* \"#utility.yul\":3323:3324   */\n      0x00\n        /* \"#utility.yul\":3312:3321   */\n      dup4\n        /* \"#utility.yul\":3308:3325   */\n      add\n        /* \"#utility.yul\":3299:3305   */\n      dup5\n        /* \"#utility.yul\":3261:3326   */\n      tag_211\n      jump\t// in\n    tag_276:\n        /* \"#utility.yul\":3123:3333   */\n      swap3\n      swap2\n      pop\n      pop\n      jump\t// out\n        /* \"#utility.yul\":3339:3457   */\n    tag_212:\n        /* \"#utility.yul\":3426:3450   */\n      tag_278\n        /* \"#utility.yul\":3444:3449   */\n      dup2\n        /* \"#utility.yul\":3426:3450   */\n      tag_207\n      jump\t// in\n    tag_278:\n        /* \"#utility.yul\":3421:3424   */\n      dup3\n        /* \"#utility.yul\":3414:3451   */\n      mstore\n        /* \"#utility.yul\":3339:3457   */\n      pop\n      pop\n      jump\t// out\n        /* \"#utility.yul\":3463:3685   */\n    tag_34:\n        /* \"#utility.yul\":3556:3560   */\n      0x00\n        /* \"#utility.yul\":3594:3596   */\n      0x20\n        /* \"#utility.yul\":3583:3592   */\n      dup3\n        /* \"#utility.yul\":3579:3597   */\n      add\n        /* \"#utility.yul\":3571:3597   */\n      swap1\n      pop\n        /* \"#utility.yul\":3607:3678   */\n      tag_280\n        /* \"#utility.yul\":3675:3676   */\n      0x00\n        /* \"#utility.yul\":3664:3673   */\n      dup4\n        /* \"#utility.yul\":3660:3677   */\n      add\n        /* \"#utility.yul\":3651:3657   */\n      dup5\n        /* \"#utility.yul\":3607:3678   */\n      tag_212\n      jump\t// in\n    tag_280:\n        /* \"#utility.yul\":3463:3685   */\n      swap3\n      swap2\n      pop\n      pop\n      jump\t// out\n        /* \"#utility.yul\":3691:4310   */\n    tag_37:\n        /* \"#utility.yul\":3768:3774   */\n      0x00\n        /* \"#utility.yul\":3776:3782   */\n      dup1\n        /* \"#utility.yul\":3784:3790   */\n      0x00\n        /* \"#utility.yul\":3833:3835   */\n      0x60\n        /* \"#utility.yul\":3821:3830   */\n      dup5\n        /* \"#utility.yul\":3812:3819   */\n      dup7\n        /* \"#utility.yul\":3808:3831   */\n      sub\n        /* \"#utility.yul\":3804:3836   */\n      slt\n        /* \"#utility.yul\":3801:3920   */\n      iszero\n      tag_282\n      jumpi\n        /* \"#utility.yul\":3839:3918   */\n      tag_283\n      tag_201\n      jump\t// in\n    tag_283:\n        /* \"#utility.yul\":3801:3920   */\n    tag_282:\n        /* \"#utility.yul\":3959:3960   */\n      0x00\n        /* \"#utility.yul\":3984:4037   */\n      tag_284\n        /* \"#utility.yul\":4029:4036   */\n      dup7\n        /* \"#utility.yul\":4020:4026   */\n      dup3\n        /* \"#utility.yul\":4009:4018   */\n      dup8\n        /* \"#utility.yul\":4005:4027   */\n      add\n        /* \"#utility.yul\":3984:4037   */\n      tag_206\n      jump\t// in\n    tag_284:\n        /* \"#utility.yul\":3974:4037   */\n      swap4\n      pop\n        /* \"#utility.yul\":3930:4047   */\n      pop\n        /* \"#utility.yul\":4086:4088   */\n      0x20\n        /* \"#utility.yul\":4112:4165   */\n      tag_285\n        /* \"#utility.yul\":4157:4164   */\n      dup7\n        /* \"#utility.yul\":4148:4154   */\n      dup3\n        /* \"#utility.yul\":4137:4146   */\n      dup8\n        /* \"#utility.yul\":4133:4155   */\n      add\n        /* \"#utility.yul\":4112:4165   */\n      tag_206\n      jump\t// in\n    tag_285:\n        /* \"#utility.yul\":4102:4165   */\n      swap3\n      pop\n        /* \"#utility.yul\":4057:4175   */\n      pop\n        /* \"#utility.yul\":4214:4216   */\n      0x40\n        /* \"#utility.yul\":4240:4293   */\n      tag_286\n        /* \"#utility.yul\":4285:4292   */\n      dup7\n        /* \"#utility.yul\":4276:4282   */\n      dup3\n        /* \"#utility.yul\":4265:4274   */\n      dup8\n        /* \"#utility.yul\":4261:4283   */\n      add\n        /* \"#utility.yul\":4240:4293   */\n      tag_209\n      jump\t// in\n    tag_286:\n        /* \"#utility.yul\":4230:4293   */\n      swap2\n      pop\n        /* \"#utility.yul\":4185:4303   */\n      pop\n        /* \"#utility.yul\":3691:4310   */\n      swap3\n      pop\n      swap3\n      pop\n      swap3\n      jump\t// out\n        /* \"#utility.yul\":4316:4402   */\n    tag_213:\n        /* \"#utility.yul\":4351:4358   */\n      0x00\n        /* \"#utility.yul\":4391:4395   */\n      0xff\n        /* \"#utility.yul\":4384:4389   */\n      dup3\n        /* \"#utility.yul\":4380:4396   */\n      and\n        /* \"#utility.yul\":4369:4396   */\n      swap1\n      pop\n        /* \"#utility.yul\":4316:4402   */\n      swap2\n      swap1\n      pop\n      jump\t// out\n        /* \"#utility.yul\":4408:4520   */\n    tag_214:\n        /* \"#utility.yul\":4491:4513   */\n      tag_289\n        /* \"#utility.yul\":4507:4512   */\n      dup2\n        /* \"#utility.yul\":4491:4513   */\n      tag_213\n      jump\t// in\n    tag_289:\n        /* \"#utility.yul\":4486:4489   */\n      dup3\n        /* \"#utility.yul\":4479:4514   */\n      mstore\n        /* \"#utility.yul\":4408:4520   */\n      pop\n      pop\n      jump\t// out\n        /* \"#utility.yul\":4526:4740   */\n    tag_43:\n        /* \"#utility.yul\":4615:4619   */\n      0x00\n        /* \"#utility.yul\":4653:4655   */\n      0x20\n        /* \"#utility.yul\":4642:4651   */\n      dup3\n        /* \"#utility.yul\":4638:4656   */\n      add\n        /* \"#utility.yul\":4630:4656   */\n      swap1\n      pop\n        /* \"#utility.yul\":4666:4733   */\n      tag_291\n        /* \"#utility.yul\":4730:4731   */\n      0x00\n        /* \"#utility.yul\":4719:4728   */\n      dup4\n        /* \"#utility.yul\":4715:4732   */\n      add\n        /* \"#utility.yul\":4706:4712   */\n      dup5\n        /* \"#utility.yul\":4666:4733   */\n      tag_214\n      jump\t// in\n    tag_291:\n        /* \"#utility.yul\":4526:4740   */\n      swap3\n      swap2\n      pop\n      pop\n      jump\t// out\n        /* \"#utility.yul\":4746:5075   */\n    tag_50:\n        /* \"#utility.yul\":4805:4811   */\n      0x00\n        /* \"#utility.yul\":4854:4856   */\n      0x20\n        /* \"#utility.yul\":4842:4851   */\n      dup3\n        /* \"#utility.yul\":4833:4840   */\n      dup5\n        /* \"#utility.yul\":4829:4852   */\n      sub\n        /* \"#utility.yul\":4825:4857   */\n      slt\n        /* \"#utility.yul\":4822:4941   */\n      iszero\n      tag_293\n      jumpi\n        /* \"#utility.yul\":4860:4939   */\n      tag_294\n      tag_201\n      jump\t// in\n    tag_294:\n        /* \"#utility.yul\":4822:4941   */\n    tag_293:\n        /* \"#utility.yul\":4980:4981   */\n      0x00\n        /* \"#utility.yul\":5005:5058   */\n      tag_295\n        /* \"#utility.yul\":5050:5057   */\n      dup5\n        /* \"#utility.yul\":5041:5047   */\n      dup3\n        /* \"#utility.yul\":5030:5039   */\n      dup6\n        /* \"#utility.yul\":5026:5048   */\n      add\n        /* \"#utility.yul\":5005:5058   */\n      tag_206\n      jump\t// in\n    tag_295:\n        /* \"#utility.yul\":4995:5058   */\n      swap2\n      pop\n        /* \"#utility.yul\":4951:5068   */\n      pop\n        /* \"#utility.yul\":4746:5075   */\n      swap3\n      swap2\n      pop\n      pop\n      jump\t// out\n        /* \"#utility.yul\":5081:5199   */\n    tag_215:\n        /* \"#utility.yul\":5168:5192   */\n      tag_297\n        /* \"#utility.yul\":5186:5191   */\n      dup2\n        /* \"#utility.yul\":5168:5192   */\n      tag_204\n      jump\t// in\n    tag_297:\n        /* \"#utility.yul\":5163:5166   */\n      dup3\n        /* \"#utility.yul\":5156:5193   */\n      mstore\n        /* \"#utility.yul\":5081:5199   */\n      pop\n      pop\n      jump\t// out\n        /* \"#utility.yul\":5205:5427   */\n    tag_58:\n        /* \"#utility.yul\":5298:5302   */\n      0x00\n        /* \"#utility.yul\":5336:5338   */\n      0x20\n        /* \"#utility.yul\":5325:5334   */\n      dup3\n        /* \"#utility.yul\":5321:5339   */\n      add\n        /* \"#utility.yul\":5313:5339   */\n      swap1\n      pop\n        /* \"#utility.yul\":5349:5420   */\n      tag_299\n        /* \"#utility.yul\":5417:5418   */\n      0x00\n        /* \"#utility.yul\":5406:5415   */\n      dup4\n        /* \"#utility.yul\":5402:5419   */\n      add\n        /* \"#utility.yul\":5393:5399   */\n      dup5\n        /* \"#utility.yul\":5349:5420   */\n      tag_215\n      jump\t// in\n    tag_299:\n        /* \"#utility.yul\":5205:5427   */\n      swap3\n      swap2\n      pop\n      pop\n      jump\t// out\n        /* \"#utility.yul\":5433:5907   */\n    tag_61:\n        /* \"#utility.yul\":5501:5507   */\n      0x00\n        /* \"#utility.yul\":5509:5515   */\n      dup1\n        /* \"#utility.yul\":5558:5560   */\n      0x40\n        /* \"#utility.yul\":5546:5555   */\n      dup4\n        /* \"#utility.yul\":5537:5544   */\n      dup6\n        /* \"#utility.yul\":5533:5556   */\n      sub\n        /* \"#utility.yul\":5529:5561   */\n      slt\n        /* \"#utility.yul\":5526:5645   */\n      iszero\n      tag_301\n      jumpi\n        /* \"#utility.yul\":5564:5643   */\n      tag_302\n      tag_201\n      jump\t// in\n    tag_302:\n        /* \"#utility.yul\":5526:5645   */\n    tag_301:\n        /* \"#utility.yul\":5684:5685   */\n      0x00\n        /* \"#utility.yul\":5709:5762   */\n      tag_303\n        /* \"#utility.yul\":5754:5761   */\n      dup6\n        /* \"#utility.yul\":5745:5751   */\n      dup3\n        /* \"#utility.yul\":5734:5743   */\n      dup7\n        /* \"#utility.yul\":5730:5752   */\n      add\n        /* \"#utility.yul\":5709:5762   */\n      tag_209\n      jump\t// in\n    tag_303:\n        /* \"#utility.yul\":5699:5762   */\n      swap3\n      pop\n        /* \"#utility.yul\":5655:5772   */\n      pop\n        /* \"#utility.yul\":5811:5813   */\n      0x20\n        /* \"#utility.yul\":5837:5890   */\n      tag_304\n        /* \"#utility.yul\":5882:5889   */\n      dup6\n        /* \"#utility.yul\":5873:5879   */\n      dup3\n        /* \"#utility.yul\":5862:5871   */\n      dup7\n        /* \"#utility.yul\":5858:5880   */\n      add\n        /* \"#utility.yul\":5837:5890   */\n      tag_206\n      jump\t// in\n    tag_304:\n        /* \"#utility.yul\":5827:5890   */\n      swap2\n      pop\n        /* \"#utility.yul\":5782:5900   */\n      pop\n        /* \"#utility.yul\":5433:5907   */\n      swap3\n      pop\n      swap3\n      swap1\n      pop\n      jump\t// out\n        /* \"#utility.yul\":5913:6387   */\n    tag_76:\n        /* \"#utility.yul\":5981:5987   */\n      0x00\n        /* \"#utility.yul\":5989:5995   */\n      dup1\n        /* \"#utility.yul\":6038:6040   */\n      0x40\n        /* \"#utility.yul\":6026:6035   */\n      dup4\n        /* \"#utility.yul\":6017:6024   */\n      dup6\n        /* \"#utility.yul\":6013:6036   */\n      sub\n        /* \"#utility.yul\":6009:6041   */\n      slt\n        /* \"#utility.yul\":6006:6125   */\n      iszero\n      tag_306\n      jumpi\n        /* \"#utility.yul\":6044:6123   */\n      tag_307\n      tag_201\n      jump\t// in\n    tag_307:\n        /* \"#utility.yul\":6006:6125   */\n    tag_306:\n        /* \"#utility.yul\":6164:6165   */\n      0x00\n        /* \"#utility.yul\":6189:6242   */\n      tag_308\n        /* \"#utility.yul\":6234:6241   */\n      dup6\n        /* \"#utility.yul\":6225:6231   */\n      dup3\n        /* \"#utility.yul\":6214:6223   */\n      dup7\n        /* \"#utility.yul\":6210:6232   */\n      add\n        /* \"#utility.yul\":6189:6242   */\n      tag_206\n      jump\t// in\n    tag_308:\n        /* \"#utility.yul\":6179:6242   */\n      swap3\n      pop\n        /* \"#utility.yul\":6135:6252   */\n      pop\n        /* \"#utility.yul\":6291:6293   */\n      0x20\n        /* \"#utility.yul\":6317:6370   */\n      tag_309\n        /* \"#utility.yul\":6362:6369   */\n      dup6\n        /* \"#utility.yul\":6353:6359   */\n      dup3\n        /* \"#utility.yul\":6342:6351   */\n      dup7\n        /* \"#utility.yul\":6338:6360   */\n      add\n        /* \"#utility.yul\":6317:6370   */\n      tag_206\n      jump\t// in\n    tag_309:\n        /* \"#utility.yul\":6307:6370   */\n      swap2\n      pop\n        /* \"#utility.yul\":6262:6380   */\n      pop\n        /* \"#utility.yul\":5913:6387   */\n      swap3\n      pop\n      swap3\n      swap1\n      pop\n      jump\t// out\n        /* \"#utility.yul\":6393:6573   */\n    tag_216:\n        /* \"#utility.yul\":6441:6518   */\n      0x4e487b7100000000000000000000000000000000000000000000000000000000\n        /* \"#utility.yul\":6438:6439   */\n      0x00\n        /* \"#utility.yul\":6431:6519   */\n      mstore\n        /* \"#utility.yul\":6538:6542   */\n      0x22\n        /* \"#utility.yul\":6535:6536   */\n      0x04\n        /* \"#utility.yul\":6528:6543   */\n      mstore\n        /* \"#utility.yul\":6562:6566   */\n      0x24\n        /* \"#utility.yul\":6559:6560   */\n      0x00\n        /* \"#utility.yul\":6552:6567   */\n      revert\n        /* \"#utility.yul\":6579:6899   */\n    tag_84:\n        /* \"#utility.yul\":6623:6629   */\n      0x00\n        /* \"#utility.yul\":6660:6661   */\n      0x02\n        /* \"#utility.yul\":6654:6658   */\n      dup3\n        /* \"#utility.yul\":6650:6662   */\n      div\n        /* \"#utility.yul\":6640:6662   */\n      swap1\n      pop\n        /* \"#utility.yul\":6707:6708   */\n      0x01\n        /* \"#utility.yul\":6701:6705   */\n      dup3\n        /* \"#utility.yul\":6697:6709   */\n      and\n        /* \"#utility.yul\":6728:6746   */\n      dup1\n        /* \"#utility.yul\":6718:6799   */\n      tag_312\n      jumpi\n        /* \"#utility.yul\":6784:6788   */\n      0x7f\n        /* \"#utility.yul\":6776:6782   */\n      dup3\n        /* \"#utility.yul\":6772:6789   */\n      and\n        /* \"#utility.yul\":6762:6789   */\n      swap2\n      pop\n        /* \"#utility.yul\":6718:6799   */\n    tag_312:\n        /* \"#utility.yul\":6846:6848   */\n      0x20\n        /* \"#utility.yul\":6838:6844   */\n      dup3\n        /* \"#utility.yul\":6835:6849   */\n      lt\n        /* \"#utility.yul\":6815:6833   */\n      dup2\n        /* \"#utility.yul\":6812:6850   */\n      sub\n        /* \"#utility.yul\":6809:6893   */\n      tag_313\n      jumpi\n        /* \"#utility.yul\":6865:6883   */\n      tag_314\n      tag_216\n      jump\t// in\n    tag_314:\n        /* \"#utility.yul\":6809:6893   */\n    tag_313:\n        /* \"#utility.yul\":6630:6899   */\n      pop\n        /* \"#utility.yul\":6579:6899   */\n      swap2\n      swap1\n      pop\n      jump\t// out\n        /* \"#utility.yul\":6905:7085   */\n    tag_217:\n        /* \"#utility.yul\":6953:7030   */\n      0x4e487b7100000000000000000000000000000000000000000000000000000000\n        /* \"#utility.yul\":6950:6951   */\n      0x00\n        /* \"#utility.yul\":6943:7031   */\n      mstore\n        /* \"#utility.yul\":7050:7054   */\n      0x11\n        /* \"#utility.yul\":7047:7048   */\n      0x04\n        /* \"#utility.yul\":7040:7055   */\n      mstore\n        /* \"#utility.yul\":7074:7078   */\n      0x24\n        /* \"#utility.yul\":7071:7072   */\n      0x00\n        /* \"#utility.yul\":7064:7079   */\n      revert\n        /* \"#utility.yul\":7091:7282   */\n    tag_107:\n        /* \"#utility.yul\":7131:7134   */\n      0x00\n        /* \"#utility.yul\":7150:7170   */\n      tag_317\n        /* \"#utility.yul\":7168:7169   */\n      dup3\n        /* \"#utility.yul\":7150:7170   */\n      tag_207\n      jump\t// in\n    tag_317:\n        /* \"#utility.yul\":7145:7170   */\n      swap2\n      pop\n        /* \"#utility.yul\":7184:7204   */\n      tag_318\n        /* \"#utility.yul\":7202:7203   */\n      dup4\n        /* \"#utility.yul\":7184:7204   */\n      tag_207\n      jump\t// in\n    tag_318:\n        /* \"#utility.yul\":7179:7204   */\n      swap3\n      pop\n        /* \"#utility.yul\":7227:7228   */\n      dup3\n        /* \"#utility.yul\":7224:7225   */\n      dup3\n        /* \"#utility.yul\":7220:7229   */\n      add\n        /* \"#utility.yul\":7213:7229   */\n      swap1\n      pop\n        /* \"#utility.yul\":7248:7251   */\n      dup1\n        /* \"#utility.yul\":7245:7246   */\n      dup3\n        /* \"#utility.yul\":7242:7252   */\n      gt\n        /* \"#utility.yul\":7239:7275   */\n      iszero\n      tag_319\n      jumpi\n        /* \"#utility.yul\":7255:7273   */\n      tag_320\n      tag_217\n      jump\t// in\n    tag_320:\n        /* \"#utility.yul\":7239:7275   */\n    tag_319:\n        /* \"#utility.yul\":7091:7282   */\n      swap3\n      swap2\n      pop\n      pop\n      jump\t// out\n        /* \"#utility.yul\":7288:7512   */\n    tag_218:\n        /* \"#utility.yul\":7428:7462   */\n      0x45524332303a2064656372656173656420616c6c6f77616e63652062656c6f77\n        /* \"#utility.yul\":7424:7425   */\n      0x00\n        /* \"#utility.yul\":7416:7422   */\n      dup3\n        /* \"#utility.yul\":7412:7426   */\n      add\n        /* \"#utility.yul\":7405:7463   */\n      mstore\n        /* \"#utility.yul\":7497:7504   */\n      0x207a65726f000000000000000000000000000000000000000000000000000000\n        /* \"#utility.yul\":7492:7494   */\n      0x20\n        /* \"#utility.yul\":7484:7490   */\n      dup3\n        /* \"#utility.yul\":7480:7495   */\n      add\n        /* \"#utility.yul\":7473:7505   */\n      mstore\n        /* \"#utility.yul\":7288:7512   */\n      pop\n      jump\t// out\n        /* \"#utility.yul\":7518:7884   */\n    tag_219:\n        /* \"#utility.yul\":7660:7663   */\n      0x00\n        /* \"#utility.yul\":7681:7748   */\n      tag_323\n        /* \"#utility.yul\":7745:7747   */\n      0x25\n        /* \"#utility.yul\":7740:7743   */\n      dup4\n        /* \"#utility.yul\":7681:7748   */\n      tag_196\n      jump\t// in\n    tag_323:\n        /* \"#utility.yul\":7674:7748   */\n      swap2\n      pop\n        /* \"#utility.yul\":7757:7850   */\n      tag_324\n        /* \"#utility.yul\":7846:7849   */\n      dup3\n        /* \"#utility.yul\":7757:7850   */\n      tag_218\n      jump\t// in\n    tag_324:\n        /* \"#utility.yul\":7875:7877   */\n      0x40\n        /* \"#utility.yul\":7870:7873   */\n      dup3\n        /* \"#utility.yul\":7866:7878   */\n      add\n        /* \"#utility.yul\":7859:7878   */\n      swap1\n      pop\n        /* \"#utility.yul\":7518:7884   */\n      swap2\n      swap1\n      pop\n      jump\t// out\n        /* \"#utility.yul\":7890:8309   */\n    tag_132:\n        /* \"#utility.yul\":8056:8060   */\n      0x00\n        /* \"#utility.yul\":8094:8096   */\n      0x20\n        /* \"#utility.yul\":8083:8092   */\n      dup3\n        /* \"#utility.yul\":8079:8097   */\n      add\n        /* \"#utility.yul\":8071:8097   */\n      swap1\n      pop\n        /* \"#utility.yul\":8143:8152   */\n      dup2\n        /* \"#utility.yul\":8137:8141   */\n      dup2\n        /* \"#utility.yul\":8133:8153   */\n      sub\n        /* \"#utility.yul\":8129:8130   */\n      0x00\n        /* \"#utility.yul\":8118:8127   */\n      dup4\n        /* \"#utility.yul\":8114:8131   */\n      add\n        /* \"#utility.yul\":8107:8154   */\n      mstore\n        /* \"#utility.yul\":8171:8302   */\n      tag_326\n        /* \"#utility.yul\":8297:8301   */\n      dup2\n        /* \"#utility.yul\":8171:8302   */\n      tag_219\n      jump\t// in\n    tag_326:\n        /* \"#utility.yul\":8163:8302   */\n      swap1\n      pop\n        /* \"#utility.yul\":7890:8309   */\n      swap2\n      swap1\n      pop\n      jump\t// out\n        /* \"#utility.yul\":8315:8540   */\n    tag_220:\n        /* \"#utility.yul\":8455:8489   */\n      0x4f776e61626c653a206e6577206f776e657220697320746865207a65726f2061\n        /* \"#utility.yul\":8451:8452   */\n      0x00\n        /* \"#utility.yul\":8443:8449   */\n      dup3\n        /* \"#utility.yul\":8439:8453   */\n      add\n        /* \"#utility.yul\":8432:8490   */\n      mstore\n        /* \"#utility.yul\":8524:8532   */\n      0x6464726573730000000000000000000000000000000000000000000000000000\n        /* \"#utility.yul\":8519:8521   */\n      0x20\n        /* \"#utility.yul\":8511:8517   */\n      dup3\n        /* \"#utility.yul\":8507:8522   */\n      add\n        /* \"#utility.yul\":8500:8533   */\n      mstore\n        /* \"#utility.yul\":8315:8540   */\n      pop\n      jump\t// out\n        /* \"#utility.yul\":8546:8912   */\n    tag_221:\n        /* \"#utility.yul\":8688:8691   */\n      0x00\n        /* \"#utility.yul\":8709:8776   */\n      tag_329\n        /* \"#utility.yul\":8773:8775   */\n      0x26\n        /* \"#utility.yul\":8768:8771   */\n      dup4\n        /* \"#utility.yul\":8709:8776   */\n      tag_196\n      jump\t// in\n    tag_329:\n        /* \"#utility.yul\":8702:8776   */\n      swap2\n      pop\n        /* \"#utility.yul\":8785:8878   */\n      tag_330\n        /* \"#utility.yul\":8874:8877   */\n      dup3\n        /* \"#utility.yul\":8785:8878   */\n      tag_220\n      jump\t// in\n    tag_330:\n        /* \"#utility.yul\":8903:8905   */\n      0x40\n        /* \"#utility.yul\":8898:8901   */\n      dup3\n        /* \"#utility.yul\":8894:8906   */\n      add\n        /* \"#utility.yul\":8887:8906   */\n      swap1\n      pop\n        /* \"#utility.yul\":8546:8912   */\n      swap2\n      swap1\n      pop\n      jump\t// out\n        /* \"#utility.yul\":8918:9337   */\n    tag_143:\n        /* \"#utility.yul\":9084:9088   */\n      0x00\n        /* \"#utility.yul\":9122:9124   */\n      0x20\n        /* \"#utility.yul\":9111:9120   */\n      dup3\n        /* \"#utility.yul\":9107:9125   */\n      add\n        /* \"#utility.yul\":9099:9125   */\n      swap1\n      pop\n        /* \"#utility.yul\":9171:9180   */\n      dup2\n        /* \"#utility.yul\":9165:9169   */\n      dup2\n        /* \"#utility.yul\":9161:9181   */\n      sub\n        /* \"#utility.yul\":9157:9158   */\n      0x00\n        /* \"#utility.yul\":9146:9155   */\n      dup4\n        /* \"#utility.yul\":9142:9159   */\n      add\n        /* \"#utility.yul\":9135:9182   */\n      mstore\n        /* \"#utility.yul\":9199:9330   */\n      tag_332\n        /* \"#utility.yul\":9325:9329   */\n      dup2\n        /* \"#utility.yul\":9199:9330   */\n      tag_221\n      jump\t// in\n    tag_332:\n        /* \"#utility.yul\":9191:9330   */\n      swap1\n      pop\n        /* \"#utility.yul\":8918:9337   */\n      swap2\n      swap1\n      pop\n      jump\t// out\n        /* \"#utility.yul\":9343:9566   */\n    tag_222:\n        /* \"#utility.yul\":9483:9517   */\n      0x45524332303a20617070726f76652066726f6d20746865207a65726f20616464\n        /* \"#utility.yul\":9479:9480   */\n      0x00\n        /* \"#utility.yul\":9471:9477   */\n      dup3\n        /* \"#utility.yul\":9467:9481   */\n      add\n        /* \"#utility.yul\":9460:9518   */\n      mstore\n        /* \"#utility.yul\":9552:9558   */\n      0x7265737300000000000000000000000000000000000000000000000000000000\n        /* \"#utility.yul\":9547:9549   */\n      0x20\n        /* \"#utility.yul\":9539:9545   */\n      dup3\n        /* \"#utility.yul\":9535:9550   */\n      add\n        /* \"#utility.yul\":9528:9559   */\n      mstore\n        /* \"#utility.yul\":9343:9566   */\n      pop\n      jump\t// out\n        /* \"#utility.yul\":9572:9938   */\n    tag_223:\n        /* \"#utility.yul\":9714:9717   */\n      0x00\n        /* \"#utility.yul\":9735:9802   */\n      tag_335\n        /* \"#utility.yul\":9799:9801   */\n      0x24\n        /* \"#utility.yul\":9794:9797   */\n      dup4\n        /* \"#utility.yul\":9735:9802   */\n      tag_196\n      jump\t// in\n    tag_335:\n        /* \"#utility.yul\":9728:9802   */\n      swap2\n      pop\n        /* \"#utility.yul\":9811:9904   */\n      tag_336\n        /* \"#utility.yul\":9900:9903   */\n      dup3\n        /* \"#utility.yul\":9811:9904   */\n      tag_222\n      jump\t// in\n    tag_336:\n        /* \"#utility.yul\":9929:9931   */\n      0x40\n        /* \"#utility.yul\":9924:9927   */\n      dup3\n        /* \"#utility.yul\":9920:9932   */\n      add\n        /* \"#utility.yul\":9913:9932   */\n      swap1\n      pop\n        /* \"#utility.yul\":9572:9938   */\n      swap2\n      swap1\n      pop\n      jump\t// out\n        /* \"#utility.yul\":9944:10363   */\n    tag_149:\n        /* \"#utility.yul\":10110:10114   */\n      0x00\n        /* \"#utility.yul\":10148:10150   */\n      0x20\n        /* \"#utility.yul\":10137:10146   */\n      dup3\n        /* \"#utility.yul\":10133:10151   */\n      add\n        /* \"#utility.yul\":10125:10151   */\n      swap1\n      pop\n        /* \"#utility.yul\":10197:10206   */\n      dup2\n        /* \"#utility.yul\":10191:10195   */\n      dup2\n        /* \"#utility.yul\":10187:10207   */\n      sub\n        /* \"#utility.yul\":10183:10184   */\n      0x00\n        /* \"#utility.yul\":10172:10181   */\n      dup4\n        /* \"#utility.yul\":10168:10185   */\n      add\n        /* \"#utility.yul\":10161:10208   */\n      mstore\n        /* \"#utility.yul\":10225:10356   */\n      tag_338\n        /* \"#utility.yul\":10351:10355   */\n      dup2\n        /* \"#utility.yul\":10225:10356   */\n      tag_223\n      jump\t// in\n    tag_338:\n        /* \"#utility.yul\":10217:10356   */\n      swap1\n      pop\n        /* \"#utility.yul\":9944:10363   */\n      swap2\n      swap1\n      pop\n      jump\t// out\n        /* \"#utility.yul\":10369:10590   */\n    tag_224:\n        /* \"#utility.yul\":10509:10543   */\n      0x45524332303a20617070726f766520746f20746865207a65726f206164647265\n        /* \"#utility.yul\":10505:10506   */\n      0x00\n        /* \"#utility.yul\":10497:10503   */\n      dup3\n        /* \"#utility.yul\":10493:10507   */\n      add\n        /* \"#utility.yul\":10486:10544   */\n      mstore\n        /* \"#utility.yul\":10578:10582   */\n      0x7373000000000000000000000000000000000000000000000000000000000000\n        /* \"#utility.yul\":10573:10575   */\n      0x20\n        /* \"#utility.yul\":10565:10571   */\n      dup3\n        /* \"#utility.yul\":10561:10576   */\n      add\n        /* \"#utility.yul\":10554:10583   */\n      mstore\n        /* \"#utility.yul\":10369:10590   */\n      pop\n      jump\t// out\n        /* \"#utility.yul\":10596:10962   */\n    tag_225:\n        /* \"#utility.yul\":10738:10741   */\n      0x00\n        /* \"#utility.yul\":10759:10826   */\n      tag_341\n        /* \"#utility.yul\":10823:10825   */\n      0x22\n        /* \"#utility.yul\":10818:10821   */\n      dup4\n        /* \"#utility.yul\":10759:10826   */\n      tag_196\n      jump\t// in\n    tag_341:\n        /* \"#utility.yul\":10752:10826   */\n      swap2\n      pop\n        /* \"#utility.yul\":10835:10928   */\n      tag_342\n        /* \"#utility.yul\":10924:10927   */\n      dup3\n        /* \"#utility.yul\":10835:10928   */\n      tag_224\n      jump\t// in\n    tag_342:\n        /* \"#utility.yul\":10953:10955   */\n      0x40\n        /* \"#utility.yul\":10948:10951   */\n      dup3\n        /* \"#utility.yul\":10944:10956   */\n      add\n        /* \"#utility.yul\":10937:10956   */\n      swap1\n      pop\n        /* \"#utility.yul\":10596:10962   */\n      swap2\n      swap1\n      pop\n      jump\t// out\n        /* \"#utility.yul\":10968:11387   */\n    tag_152:\n        /* \"#utility.yul\":11134:11138   */\n      0x00\n        /* \"#utility.yul\":11172:11174   */\n      0x20\n        /* \"#utility.yul\":11161:11170   */\n      dup3\n        /* \"#utility.yul\":11157:11175   */\n      add\n        /* \"#utility.yul\":11149:11175   */\n      swap1\n      pop\n        /* \"#utility.yul\":11221:11230   */\n      dup2\n        /* \"#utility.yul\":11215:11219   */\n      dup2\n        /* \"#utility.yul\":11211:11231   */\n      sub\n        /* \"#utility.yul\":11207:11208   */\n      0x00\n        /* \"#utility.yul\":11196:11205   */\n      dup4\n        /* \"#utility.yul\":11192:11209   */\n      add\n        /* \"#utility.yul\":11185:11232   */\n      mstore\n        /* \"#utility.yul\":11249:11380   */\n      tag_344\n        /* \"#utility.yul\":11375:11379   */\n      dup2\n        /* \"#utility.yul\":11249:11380   */\n      tag_225\n      jump\t// in\n    tag_344:\n        /* \"#utility.yul\":11241:11380   */\n      swap1\n      pop\n        /* \"#utility.yul\":10968:11387   */\n      swap2\n      swap1\n      pop\n      jump\t// out\n        /* \"#utility.yul\":11393:11572   */\n    tag_226:\n        /* \"#utility.yul\":11533:11564   */\n      0x45524332303a20696e73756666696369656e7420616c6c6f77616e6365000000\n        /* \"#utility.yul\":11529:11530   */\n      0x00\n        /* \"#utility.yul\":11521:11527   */\n      dup3\n        /* \"#utility.yul\":11517:11531   */\n      add\n        /* \"#utility.yul\":11510:11565   */\n      mstore\n        /* \"#utility.yul\":11393:11572   */\n      pop\n      jump\t// out\n        /* \"#utility.yul\":11578:11944   */\n    tag_227:\n        /* \"#utility.yul\":11720:11723   */\n      0x00\n        /* \"#utility.yul\":11741:11808   */\n      tag_347\n        /* \"#utility.yul\":11805:11807   */\n      0x1d\n        /* \"#utility.yul\":11800:11803   */\n      dup4\n        /* \"#utility.yul\":11741:11808   */\n      tag_196\n      jump\t// in\n    tag_347:\n        /* \"#utility.yul\":11734:11808   */\n      swap2\n      pop\n        /* \"#utility.yul\":11817:11910   */\n      tag_348\n        /* \"#utility.yul\":11906:11909   */\n      dup3\n        /* \"#utility.yul\":11817:11910   */\n      tag_226\n      jump\t// in\n    tag_348:\n        /* \"#utility.yul\":11935:11937   */\n      0x20\n        /* \"#utility.yul\":11930:11933   */\n      dup3\n        /* \"#utility.yul\":11926:11938   */\n      add\n        /* \"#utility.yul\":11919:11938   */\n      swap1\n      pop\n        /* \"#utility.yul\":11578:11944   */\n      swap2\n      swap1\n      pop\n      jump\t// out\n        /* \"#utility.yul\":11950:12369   */\n    tag_159:\n        /* \"#utility.yul\":12116:12120   */\n      0x00\n        /* \"#utility.yul\":12154:12156   */\n      0x20\n        /* \"#utility.yul\":12143:12152   */\n      dup3\n        /* \"#utility.yul\":12139:12157   */\n      add\n        /* \"#utility.yul\":12131:12157   */\n      swap1\n      pop\n        /* \"#utility.yul\":12203:12212   */\n      dup2\n        /* \"#utility.yul\":12197:12201   */\n      dup2\n        /* \"#utility.yul\":12193:12213   */\n      sub\n        /* \"#utility.yul\":12189:12190   */\n      0x00\n        /* \"#utility.yul\":12178:12187   */\n      dup4\n        /* \"#utility.yul\":12174:12191   */\n      add\n        /* \"#utility.yul\":12167:12214   */\n      mstore\n        /* \"#utility.yul\":12231:12362   */\n      tag_350\n        /* \"#utility.yul\":12357:12361   */\n      dup2\n        /* \"#utility.yul\":12231:12362   */\n      tag_227\n      jump\t// in\n    tag_350:\n        /* \"#utility.yul\":12223:12362   */\n      swap1\n      pop\n        /* \"#utility.yul\":11950:12369   */\n      swap2\n      swap1\n      pop\n      jump\t// out\n        /* \"#utility.yul\":12375:12599   */\n    tag_228:\n        /* \"#utility.yul\":12515:12549   */\n      0x45524332303a207472616e736665722066726f6d20746865207a65726f206164\n        /* \"#utility.yul\":12511:12512   */\n      0x00\n        /* \"#utility.yul\":12503:12509   */\n      dup3\n        /* \"#utility.yul\":12499:12513   */\n      add\n        /* \"#utility.yul\":12492:12550   */\n      mstore\n        /* \"#utility.yul\":12584:12591   */\n      0x6472657373000000000000000000000000000000000000000000000000000000\n        /* \"#utility.yul\":12579:12581   */\n      0x20\n        /* \"#utility.yul\":12571:12577   */\n      dup3\n        /* \"#utility.yul\":12567:12582   */\n      add\n        /* \"#utility.yul\":12560:12592   */\n      mstore\n        /* \"#utility.yul\":12375:12599   */\n      pop\n      jump\t// out\n        /* \"#utility.yul\":12605:12971   */\n    tag_229:\n        /* \"#utility.yul\":12747:12750   */\n      0x00\n        /* \"#utility.yul\":12768:12835   */\n      tag_353\n        /* \"#utility.yul\":12832:12834   */\n      0x25\n        /* \"#utility.yul\":12827:12830   */\n      dup4\n        /* \"#utility.yul\":12768:12835   */\n      tag_196\n      jump\t// in\n    tag_353:\n        /* \"#utility.yul\":12761:12835   */\n      swap2\n      pop\n        /* \"#utility.yul\":12844:12937   */\n      tag_354\n        /* \"#utility.yul\":12933:12936   */\n      dup3\n        /* \"#utility.yul\":12844:12937   */\n      tag_228\n      jump\t// in\n    tag_354:\n        /* \"#utility.yul\":12962:12964   */\n      0x40\n        /* \"#utility.yul\":12957:12960   */\n      dup3\n        /* \"#utility.yul\":12953:12965   */\n      add\n        /* \"#utility.yul\":12946:12965   */\n      swap1\n      pop\n        /* \"#utility.yul\":12605:12971   */\n      swap2\n      swap1\n      pop\n      jump\t// out\n        /* \"#utility.yul\":12977:13396   */\n    tag_164:\n        /* \"#utility.yul\":13143:13147   */\n      0x00\n        /* \"#utility.yul\":13181:13183   */\n      0x20\n        /* \"#utility.yul\":13170:13179   */\n      dup3\n        /* \"#utility.yul\":13166:13184   */\n      add\n        /* \"#utility.yul\":13158:13184   */\n      swap1\n      pop\n        /* \"#utility.yul\":13230:13239   */\n      dup2\n        /* \"#utility.yul\":13224:13228   */\n      dup2\n        /* \"#utility.yul\":13220:13240   */\n      sub\n        /* \"#utility.yul\":13216:13217   */\n      0x00\n        /* \"#utility.yul\":13205:13214   */\n      dup4\n        /* \"#utility.yul\":13201:13218   */\n      add\n        /* \"#utility.yul\":13194:13241   */\n      mstore\n        /* \"#utility.yul\":13258:13389   */\n      tag_356\n        /* \"#utility.yul\":13384:13388   */\n      dup2\n        /* \"#utility.yul\":13258:13389   */\n      tag_229\n      jump\t// in\n    tag_356:\n        /* \"#utility.yul\":13250:13389   */\n      swap1\n      pop\n        /* \"#utility.yul\":12977:13396   */\n      swap2\n      swap1\n      pop\n      jump\t// out\n        /* \"#utility.yul\":13402:13624   */\n    tag_230:\n        /* \"#utility.yul\":13542:13576   */\n      0x45524332303a207472616e7366657220746f20746865207a65726f2061646472\n        /* \"#utility.yul\":13538:13539   */\n      0x00\n        /* \"#utility.yul\":13530:13536   */\n      dup3\n        /* \"#utility.yul\":13526:13540   */\n      add\n        /* \"#utility.yul\":13519:13577   */\n      mstore\n        /* \"#utility.yul\":13611:13616   */\n      0x6573730000000000000000000000000000000000000000000000000000000000\n        /* \"#utility.yul\":13606:13608   */\n      0x20\n        /* \"#utility.yul\":13598:13604   */\n      dup3\n        /* \"#utility.yul\":13594:13609   */\n      add\n        /* \"#utility.yul\":13587:13617   */\n      mstore\n        /* \"#utility.yul\":13402:13624   */\n      pop\n      jump\t// out\n        /* \"#utility.yul\":13630:13996   */\n    tag_231:\n        /* \"#utility.yul\":13772:13775   */\n      0x00\n        /* \"#utility.yul\":13793:13860   */\n      tag_359\n        /* \"#utility.yul\":13857:13859   */\n      0x23\n        /* \"#utility.yul\":13852:13855   */\n      dup4\n        /* \"#utility.yul\":13793:13860   */\n      tag_196\n      jump\t// in\n    tag_359:\n        /* \"#utility.yul\":13786:13860   */\n      swap2\n      pop\n        /* \"#utility.yul\":13869:13962   */\n      tag_360\n        /* \"#utility.yul\":13958:13961   */\n      dup3\n        /* \"#utility.yul\":13869:13962   */\n      tag_230\n      jump\t// in\n    tag_360:\n        /* \"#utility.yul\":13987:13989   */\n      0x40\n        /* \"#utility.yul\":13982:13985   */\n      dup3\n        /* \"#utility.yul\":13978:13990   */\n      add\n        /* \"#utility.yul\":13971:13990   */\n      swap1\n      pop\n        /* \"#utility.yul\":13630:13996   */\n      swap2\n      swap1\n      pop\n      jump\t// out\n        /* \"#utility.yul\":14002:14421   */\n    tag_167:\n        /* \"#utility.yul\":14168:14172   */\n      0x00\n        /* \"#utility.yul\":14206:14208   */\n      0x20\n        /* \"#utility.yul\":14195:14204   */\n      dup3\n        /* \"#utility.yul\":14191:14209   */\n      add\n        /* \"#utility.yul\":14183:14209   */\n      swap1\n      pop\n        /* \"#utility.yul\":14255:14264   */\n      dup2\n        /* \"#utility.yul\":14249:14253   */\n      dup2\n        /* \"#utility.yul\":14245:14265   */\n      sub\n        /* \"#utility.yul\":14241:14242   */\n      0x00\n        /* \"#utility.yul\":14230:14239   */\n      dup4\n        /* \"#utility.yul\":14226:14243   */\n      add\n        /* \"#utility.yul\":14219:14266   */\n      mstore\n        /* \"#utility.yul\":14283:14414   */\n      tag_362\n        /* \"#utility.yul\":14409:14413   */\n      dup2\n        /* \"#utility.yul\":14283:14414   */\n      tag_231\n      jump\t// in\n    tag_362:\n        /* \"#utility.yul\":14275:14414   */\n      swap1\n      pop\n        /* \"#utility.yul\":14002:14421   */\n      swap2\n      swap1\n      pop\n      jump\t// out\n        /* \"#utility.yul\":14427:14652   */\n    tag_232:\n        /* \"#utility.yul\":14567:14601   */\n      0x45524332303a207472616e7366657220616d6f756e7420657863656564732062\n        /* \"#utility.yul\":14563:14564   */\n      0x00\n        /* \"#utility.yul\":14555:14561   */\n      dup3\n        /* \"#utility.yul\":14551:14565   */\n      add\n        /* \"#utility.yul\":14544:14602   */\n      mstore\n        /* \"#utility.yul\":14636:14644   */\n      0x616c616e63650000000000000000000000000000000000000000000000000000\n        /* \"#utility.yul\":14631:14633   */\n      0x20\n        /* \"#utility.yul\":14623:14629   */\n      dup3\n        /* \"#utility.yul\":14619:14634   */\n      add\n        /* \"#utility.yul\":14612:14645   */\n      mstore\n        /* \"#utility.yul\":14427:14652   */\n      pop\n      jump\t// out\n        /* \"#utility.yul\":14658:15024   */\n    tag_233:\n        /* \"#utility.yul\":14800:14803   */\n      0x00\n        /* \"#utility.yul\":14821:14888   */\n      tag_365\n        /* \"#utility.yul\":14885:14887   */\n      0x26\n        /* \"#utility.yul\":14880:14883   */\n      dup4\n        /* \"#utility.yul\":14821:14888   */\n      tag_196\n      jump\t// in\n    tag_365:\n        /* \"#utility.yul\":14814:14888   */\n      swap2\n      pop\n        /* \"#utility.yul\":14897:14990   */\n      tag_366\n        /* \"#utility.yul\":14986:14989   */\n      dup3\n        /* \"#utility.yul\":14897:14990   */\n      tag_232\n      jump\t// in\n    tag_366:\n        /* \"#utility.yul\":15015:15017   */\n      0x40\n        /* \"#utility.yul\":15010:15013   */\n      dup3\n        /* \"#utility.yul\":15006:15018   */\n      add\n        /* \"#utility.yul\":14999:15018   */\n      swap1\n      pop\n        /* \"#utility.yul\":14658:15024   */\n      swap2\n      swap1\n      pop\n      jump\t// out\n        /* \"#utility.yul\":15030:15449   */\n    tag_172:\n        /* \"#utility.yul\":15196:15200   */\n      0x00\n        /* \"#utility.yul\":15234:15236   */\n      0x20\n        /* \"#utility.yul\":15223:15232   */\n      dup3\n        /* \"#utility.yul\":15219:15237   */\n      add\n        /* \"#utility.yul\":15211:15237   */\n      swap1\n      pop\n        /* \"#utility.yul\":15283:15292   */\n      dup2\n        /* \"#utility.yul\":15277:15281   */\n      dup2\n        /* \"#utility.yul\":15273:15293   */\n      sub\n        /* \"#utility.yul\":15269:15270   */\n      0x00\n        /* \"#utility.yul\":15258:15267   */\n      dup4\n        /* \"#utility.yul\":15254:15271   */\n      add\n        /* \"#utility.yul\":15247:15294   */\n      mstore\n        /* \"#utility.yul\":15311:15442   */\n      tag_368\n        /* \"#utility.yul\":15437:15441   */\n      dup2\n        /* \"#utility.yul\":15311:15442   */\n      tag_233\n      jump\t// in\n    tag_368:\n        /* \"#utility.yul\":15303:15442   */\n      swap1\n      pop\n        /* \"#utility.yul\":15030:15449   */\n      swap2\n      swap1\n      pop\n      jump\t// out\n        /* \"#utility.yul\":15455:15637   */\n    tag_234:\n        /* \"#utility.yul\":15595:15629   */\n      0x4f776e61626c653a2063616c6c6572206973206e6f7420746865206f776e6572\n        /* \"#utility.yul\":15591:15592   */\n      0x00\n        /* \"#utility.yul\":15583:15589   */\n      dup3\n        /* \"#utility.yul\":15579:15593   */\n      add\n        /* \"#utility.yul\":15572:15630   */\n      mstore\n        /* \"#utility.yul\":15455:15637   */\n      pop\n      jump\t// out\n        /* \"#utility.yul\":15643:16009   */\n    tag_235:\n        /* \"#utility.yul\":15785:15788   */\n      0x00\n        /* \"#utility.yul\":15806:15873   */\n      tag_371\n        /* \"#utility.yul\":15870:15872   */\n      0x20\n        /* \"#utility.yul\":15865:15868   */\n      dup4\n        /* \"#utility.yul\":15806:15873   */\n      tag_196\n      jump\t// in\n    tag_371:\n        /* \"#utility.yul\":15799:15873   */\n      swap2\n      pop\n        /* \"#utility.yul\":15882:15975   */\n      tag_372\n        /* \"#utility.yul\":15971:15974   */\n      dup3\n        /* \"#utility.yul\":15882:15975   */\n      tag_234\n      jump\t// in\n    tag_372:\n        /* \"#utility.yul\":16000:16002   */\n      0x20\n        /* \"#utility.yul\":15995:15998   */\n      dup3\n        /* \"#utility.yul\":15991:16003   */\n      add\n        /* \"#utility.yul\":15984:16003   */\n      swap1\n      pop\n        /* \"#utility.yul\":15643:16009   */\n      swap2\n      swap1\n      pop\n      jump\t// out\n        /* \"#utility.yul\":16015:16434   */\n    tag_182:\n        /* \"#utility.yul\":16181:16185   */\n      0x00\n        /* \"#utility.yul\":16219:16221   */\n      0x20\n        /* \"#utility.yul\":16208:16217   */\n      dup3\n        /* \"#utility.yul\":16204:16222   */\n      add\n        /* \"#utility.yul\":16196:16222   */\n      swap1\n      pop\n        /* \"#utility.yul\":16268:16277   */\n      dup2\n        /* \"#utility.yul\":16262:16266   */\n      dup2\n        /* \"#utility.yul\":16258:16278   */\n      sub\n        /* \"#utility.yul\":16254:16255   */\n      0x00\n        /* \"#utility.yul\":16243:16252   */\n      dup4\n        /* \"#utility.yul\":16239:16256   */\n      add\n        /* \"#utility.yul\":16232:16279   */\n      mstore\n        /* \"#utility.yul\":16296:16427   */\n      tag_374\n        /* \"#utility.yul\":16422:16426   */\n      dup2\n        /* \"#utility.yul\":16296:16427   */\n      tag_235\n      jump\t// in\n    tag_374:\n        /* \"#utility.yul\":16288:16427   */\n      swap1\n      pop\n        /* \"#utility.yul\":16015:16434   */\n      swap2\n      swap1\n      pop\n      jump\t// out\n        /* \"#utility.yul\":16440:16621   */\n    tag_236:\n        /* \"#utility.yul\":16580:16613   */\n      0x45524332303a206d696e7420746f20746865207a65726f206164647265737300\n        /* \"#utility.yul\":16576:16577   */\n      0x00\n        /* \"#utility.yul\":16568:16574   */\n      dup3\n        /* \"#utility.yul\":16564:16578   */\n      add\n        /* \"#utility.yul\":16557:16614   */\n      mstore\n        /* \"#utility.yul\":16440:16621   */\n      pop\n      jump\t// out\n        /* \"#utility.yul\":16627:16993   */\n    tag_237:\n        /* \"#utility.yul\":16769:16772   */\n      0x00\n        /* \"#utility.yul\":16790:16857   */\n      tag_377\n        /* \"#utility.yul\":16854:16856   */\n      0x1f\n        /* \"#utility.yul\":16849:16852   */\n      dup4\n        /* \"#utility.yul\":16790:16857   */\n      tag_196\n      jump\t// in\n    tag_377:\n        /* \"#utility.yul\":16783:16857   */\n      swap2\n      pop\n        /* \"#utility.yul\":16866:16959   */\n      tag_378\n        /* \"#utility.yul\":16955:16958   */\n      dup3\n        /* \"#utility.yul\":16866:16959   */\n      tag_236\n      jump\t// in\n    tag_378:\n        /* \"#utility.yul\":16984:16986   */\n      0x20\n        /* \"#utility.yul\":16979:16982   */\n      dup3\n        /* \"#utility.yul\":16975:16987   */\n      add\n        /* \"#utility.yul\":16968:16987   */\n      swap1\n      pop\n        /* \"#utility.yul\":16627:16993   */\n      swap2\n      swap1\n      pop\n      jump\t// out\n        /* \"#utility.yul\":16999:17418   */\n    tag_187:\n        /* \"#utility.yul\":17165:17169   */\n      0x00\n        /* \"#utility.yul\":17203:17205   */\n      0x20\n        /* \"#utility.yul\":17192:17201   */\n      dup3\n        /* \"#utility.yul\":17188:17206   */\n      add\n        /* \"#utility.yul\":17180:17206   */\n      swap1\n      pop\n        /* \"#utility.yul\":17252:17261   */\n      dup2\n        /* \"#utility.yul\":17246:17250   */\n      dup2\n        /* \"#utility.yul\":17242:17262   */\n      sub\n        /* \"#utility.yul\":17238:17239   */\n      0x00\n        /* \"#utility.yul\":17227:17236   */\n      dup4\n        /* \"#utility.yul\":17223:17240   */\n      add\n        /* \"#utility.yul\":17216:17263   */\n      mstore\n        /* \"#utility.yul\":17280:17411   */\n      tag_380\n        /* \"#utility.yul\":17406:17410   */\n      dup2\n        /* \"#utility.yul\":17280:17411   */\n      tag_237\n      jump\t// in\n    tag_380:\n        /* \"#utility.yul\":17272:17411   */\n      swap1\n      pop\n        /* \"#utility.yul\":16999:17418   */\n      swap2\n      swap1\n      pop\n      jump\t// out\n\n    auxdata: 0xa26469706673582212203c2499d592904ccbe76227d42d42e285fcd5abb745b650ec0aaea4530916939464736f6c634300081a0033\n}\n",
				"bytecode": {
					"linkReferences": {},
					"object": "608060405260405161202938038061202983398181016040528101906100259190610434565b8282816003908161003691906106c0565b50806004908161004691906106c0565b50505061006561005a61007d60201b60201c565b61008460201b60201c565b610075338261014760201b60201c565b50505061088f565b5f33905090565b5f60055f9054906101000a900473ffffffffffffffffffffffffffffffffffffffff1690508160055f6101000a81548173ffffffffffffffffffffffffffffffffffffffff021916908373ffffffffffffffffffffffffffffffffffffffff1602179055508173ffffffffffffffffffffffffffffffffffffffff168173ffffffffffffffffffffffffffffffffffffffff167f8be0079c531659141344cd1fd0a4f28419497f9722a3daafe3b4186f6b6457e060405160405180910390a35050565b5f73ffffffffffffffffffffffffffffffffffffffff168273ffffffffffffffffffffffffffffffffffffffff16036101b5576040517f08c379a00000000000000000000000000000000000000000000000000000000081526004016101ac906107e9565b60405180910390fd5b6101c65f83836102aa60201b60201c565b8060025f8282546101d79190610834565b92505081905550805f808473ffffffffffffffffffffffffffffffffffffffff1673ffffffffffffffffffffffffffffffffffffffff1681526020019081526020015f205f8282546102299190610834565b925050819055508173ffffffffffffffffffffffffffffffffffffffff165f73ffffffffffffffffffffffffffffffffffffffff167fddf252ad1be2c89b69c2b068fc378daa952ba7f163c4a11628f55a4df523b3ef8360405161028d9190610876565b60405180910390a36102a65f83836102af60201b60201c565b5050565b505050565b505050565b5f604051905090565b5f80fd5b5f80fd5b5f80fd5b5f80fd5b5f601f19601f8301169050919050565b7f4e487b71000000000000000000000000000000000000000000000000000000005f52604160045260245ffd5b610313826102cd565b810181811067ffffffffffffffff82111715610332576103316102dd565b5b80604052505050565b5f6103446102b4565b9050610350828261030a565b919050565b5f67ffffffffffffffff82111561036f5761036e6102dd565b5b610378826102cd565b9050602081019050919050565b8281835e5f83830152505050565b5f6103a56103a084610355565b61033b565b9050828152602081018484840111156103c1576103c06102c9565b5b6103cc848285610385565b509392505050565b5f82601f8301126103e8576103e76102c5565b5b81516103f8848260208601610393565b91505092915050565b5f819050919050565b61041381610401565b811461041d575f80fd5b50565b5f8151905061042e8161040a565b92915050565b5f805f6060848603121561044b5761044a6102bd565b5b5f84015167ffffffffffffffff811115610468576104676102c1565b5b610474868287016103d4565b935050602084015167ffffffffffffffff811115610495576104946102c1565b5b6104a1868287016103d4565b92505060406104b286828701610420565b9150509250925092565b5f81519050919050565b7f4e487b71000000000000000000000000000000000000000000000000000000005f52602260045260245ffd5b5f600282049050600182168061050a57607f821691505b60208210810361051d5761051c6104c6565b5b50919050565b5f819050815f5260205f209050919050565b5f6020601f8301049050919050565b5f82821b905092915050565b5f6008830261057f7fffffffffffffffffffffffffffffffffffffffffffffffffffffffffffffffff82610544565b6105898683610544565b95508019841693508086168417925050509392505050565b5f819050919050565b5f6105c46105bf6105ba84610401565b6105a1565b610401565b9050919050565b5f819050919050565b6105dd836105aa565b6105f16105e9826105cb565b848454610550565b825550505050565b5f90565b6106056105f9565b6106108184846105d4565b505050565b5b81811015610633576106285f826105fd565b600181019050610616565b5050565b601f8211156106785761064981610523565b61065284610535565b81016020851015610661578190505b61067561066d85610535565b830182610615565b50505b505050565b5f82821c905092915050565b5f6106985f198460080261067d565b1980831691505092915050565b5f6106b08383610689565b9150826002028217905092915050565b6106c9826104bc565b67ffffffffffffffff8111156106e2576106e16102dd565b5b6106ec82546104f3565b6106f7828285610637565b5f60209050601f831160018114610728575f8415610716578287015190505b61072085826106a5565b865550610787565b601f19841661073686610523565b5f5b8281101561075d57848901518255600182019150602085019450602081019050610738565b8683101561077a5784890151610776601f891682610689565b8355505b6001600288020188555050505b505050505050565b5f82825260208201905092915050565b7f45524332303a206d696e7420746f20746865207a65726f2061646472657373005f82015250565b5f6107d3601f8361078f565b91506107de8261079f565b602082019050919050565b5f6020820190508181035f830152610800816107c7565b9050919050565b7f4e487b71000000000000000000000000000000000000000000000000000000005f52601160045260245ffd5b5f61083e82610401565b915061084983610401565b925082820190508082111561086157610860610807565b5b92915050565b61087081610401565b82525050565b5f6020820190506108895f830184610867565b92915050565b61178d8061089c5f395ff3fe608060405234801561000f575f80fd5b50600436106100f3575f3560e01c8063715018a611610095578063a457c2d711610064578063a457c2d714610273578063a9059cbb146102a3578063dd62ed3e146102d3578063f2fde38b14610303576100f3565b8063715018a6146102115780638da5cb5b1461021b57806394bf804d1461023957806395d89b4114610255576100f3565b806323b872dd116100d157806323b872dd14610163578063313ce5671461019357806339509351146101b157806370a08231146101e1576100f3565b806306fdde03146100f7578063095ea7b31461011557806318160ddd14610145575b5f80fd5b6100ff61031f565b60405161010c9190610ee3565b60405180910390f35b61012f600480360381019061012a9190610f94565b6103af565b60405161013c9190610fec565b60405180910390f35b61014d6103d1565b60405161015a9190611014565b60405180910390f35b61017d6004803603810190610178919061102d565b6103da565b60405161018a9190610fec565b60405180910390f35b61019b610408565b6040516101a89190611098565b60405180910390f35b6101cb60048036038101906101c69190610f94565b610410565b6040516101d89190610fec565b60405180910390f35b6101fb60048036038101906101f691906110b1565b610446565b6040516102089190611014565b60405180910390f35b61021961048b565b005b61022361049e565b60405161023091906110eb565b60405180910390f35b610253600480360381019061024e9190611104565b6104c6565b005b61025d6104dc565b60405161026a9190610ee3565b60405180910390f35b61028d60048036038101906102889190610f94565b61056c565b60405161029a9190610fec565b60405180910390f35b6102bd60048036038101906102b89190610f94565b6105e1565b6040516102ca9190610fec565b60405180910390f35b6102ed60048036038101906102e89190611142565b610603565b6040516102fa9190611014565b60405180910390f35b61031d600480360381019061031891906110b1565b610685565b005b60606003805461032e906111ad565b80601f016020809104026020016040519081016040528092919081815260200182805461035a906111ad565b80156103a55780601f1061037c576101008083540402835291602001916103a5565b820191905f5260205f20905b81548152906001019060200180831161038857829003601f168201915b5050505050905090565b5f806103b9610707565b90506103c681858561070e565b600191505092915050565b5f600254905090565b5f806103e4610707565b90506103f18582856108d1565b6103fc85858561095c565b60019150509392505050565b5f6012905090565b5f8061041a610707565b905061043b81858561042c8589610603565b610436919061120a565b61070e565b600191505092915050565b5f805f8373ffffffffffffffffffffffffffffffffffffffff1673ffffffffffffffffffffffffffffffffffffffff1681526020019081526020015f20549050919050565b610493610bd1565b61049c5f610c4f565b565b5f60055f9054906101000a900473ffffffffffffffffffffffffffffffffffffffff16905090565b6104ce610bd1565b6104d88183610d12565b5050565b6060600480546104eb906111ad565b80601f0160208091040260200160405190810160405280929190818152602001828054610517906111ad565b80156105625780601f1061053957610100808354040283529160200191610562565b820191905f5260205f20905b81548152906001019060200180831161054557829003601f168201915b5050505050905090565b5f80610576610707565b90505f6105838286610603565b9050838110156105c8576040517f08c379a00000000000000000000000000000000000000000000000000000000081526004016105bf906112ad565b60405180910390fd5b6105d5828686840361070e565b60019250505092915050565b5f806105eb610707565b90506105f881858561095c565b600191505092915050565b5f60015f8473ffffffffffffffffffffffffffffffffffffffff1673ffffffffffffffffffffffffffffffffffffffff1681526020019081526020015f205f8373ffffffffffffffffffffffffffffffffffffffff1673ffffffffffffffffffffffffffffffffffffffff1681526020019081526020015f2054905092915050565b61068d610bd1565b5f73ffffffffffffffffffffffffffffffffffffffff168173ffffffffffffffffffffffffffffffffffffffff16036106fb576040517f08c379a00000000000000000000000000000000000000000000000000000000081526004016106f29061133b565b60405180910390fd5b61070481610c4f565b50565b5f33905090565b5f73ffffffffffffffffffffffffffffffffffffffff168373ffffffffffffffffffffffffffffffffffffffff160361077c576040517f08c379a0000000000000000000000000000000000000000000000000000000008152600401610773906113c9565b60405180910390fd5b5f73ffffffffffffffffffffffffffffffffffffffff168273ffffffffffffffffffffffffffffffffffffffff16036107ea576040517f08c379a00000000000000000000000000000000000000000000000000000000081526004016107e190611457565b60405180910390fd5b8060015f8573ffffffffffffffffffffffffffffffffffffffff1673ffffffffffffffffffffffffffffffffffffffff1681526020019081526020015f205f8473ffffffffffffffffffffffffffffffffffffffff1673ffffffffffffffffffffffffffffffffffffffff1681526020019081526020015f20819055508173ffffffffffffffffffffffffffffffffffffffff168373ffffffffffffffffffffffffffffffffffffffff167f8c5be1e5ebec7d5bd14f71427d1e84f3dd0314c0f7b2291e5b200ac8c7c3b925836040516108c49190611014565b60405180910390a3505050565b5f6108dc8484610603565b90507fffffffffffffffffffffffffffffffffffffffffffffffffffffffffffffffff81146109565781811015610948576040517f08c379a000000000000000000000000000000000000000000000000000000000815260040161093f906114bf565b60405180910390fd5b610955848484840361070e565b5b50505050565b5f73ffffffffffffffffffffffffffffffffffffffff168373ffffffffffffffffffffffffffffffffffffffff16036109ca576040517f08c379a00000000000000000000000000000000000000000000000000000000081526004016109c19061154d565b60405180910390fd5b5f73ffffffffffffffffffffffffffffffffffffffff168273ffffffffffffffffffffffffffffffffffffffff1603610a38576040517f08c379a0000000000000000000000000000000000000000000000000000000008152600401610a2f906115db565b60405180910390fd5b610a43838383610e69565b5f805f8573ffffffffffffffffffffffffffffffffffffffff1673ffffffffffffffffffffffffffffffffffffffff1681526020019081526020015f2054905081811015610ac6576040517f08c379a0000000000000000000000000000000000000000000000000000000008152600401610abd90611669565b60405180910390fd5b8181035f808673ffffffffffffffffffffffffffffffffffffffff1673ffffffffffffffffffffffffffffffffffffffff1681526020019081526020015f2081905550815f808573ffffffffffffffffffffffffffffffffffffffff1673ffffffffffffffffffffffffffffffffffffffff1681526020019081526020015f205f828254610b54919061120a565b925050819055508273ffffffffffffffffffffffffffffffffffffffff168473ffffffffffffffffffffffffffffffffffffffff167fddf252ad1be2c89b69c2b068fc378daa952ba7f163c4a11628f55a4df523b3ef84604051610bb89190611014565b60405180910390a3610bcb848484610e6e565b50505050565b610bd9610707565b73ffffffffffffffffffffffffffffffffffffffff16610bf761049e565b73ffffffffffffffffffffffffffffffffffffffff1614610c4d576040517f08c379a0000000000000000000000000000000000000000000000000000000008152600401610c44906116d1565b60405180910390fd5b565b5f60055f9054906101000a900473ffffffffffffffffffffffffffffffffffffffff1690508160055f6101000a81548173ffffffffffffffffffffffffffffffffffffffff021916908373ffffffffffffffffffffffffffffffffffffffff1602179055508173ffffffffffffffffffffffffffffffffffffffff168173ffffffffffffffffffffffffffffffffffffffff167f8be0079c531659141344cd1fd0a4f28419497f9722a3daafe3b4186f6b6457e060405160405180910390a35050565b5f73ffffffffffffffffffffffffffffffffffffffff168273ffffffffffffffffffffffffffffffffffffffff1603610d80576040517f08c379a0000000000000000000000000000000000000000000000000000000008152600401610d7790611739565b60405180910390fd5b610d8b5f8383610e69565b8060025f828254610d9c919061120a565b92505081905550805f808473ffffffffffffffffffffffffffffffffffffffff1673ffffffffffffffffffffffffffffffffffffffff1681526020019081526020015f205f828254610dee919061120a565b925050819055508173ffffffffffffffffffffffffffffffffffffffff165f73ffffffffffffffffffffffffffffffffffffffff167fddf252ad1be2c89b69c2b068fc378daa952ba7f163c4a11628f55a4df523b3ef83604051610e529190611014565b60405180910390a3610e655f8383610e6e565b5050565b505050565b505050565b5f81519050919050565b5f82825260208201905092915050565b8281835e5f83830152505050565b5f601f19601f8301169050919050565b5f610eb582610e73565b610ebf8185610e7d565b9350610ecf818560208601610e8d565b610ed881610e9b565b840191505092915050565b5f6020820190508181035f830152610efb8184610eab565b905092915050565b5f80fd5b5f73ffffffffffffffffffffffffffffffffffffffff82169050919050565b5f610f3082610f07565b9050919050565b610f4081610f26565b8114610f4a575f80fd5b50565b5f81359050610f5b81610f37565b92915050565b5f819050919050565b610f7381610f61565b8114610f7d575f80fd5b50565b5f81359050610f8e81610f6a565b92915050565b5f8060408385031215610faa57610fa9610f03565b5b5f610fb785828601610f4d565b9250506020610fc885828601610f80565b9150509250929050565b5f8115159050919050565b610fe681610fd2565b82525050565b5f602082019050610fff5f830184610fdd565b92915050565b61100e81610f61565b82525050565b5f6020820190506110275f830184611005565b92915050565b5f805f6060848603121561104457611043610f03565b5b5f61105186828701610f4d565b935050602061106286828701610f4d565b925050604061107386828701610f80565b9150509250925092565b5f60ff82169050919050565b6110928161107d565b82525050565b5f6020820190506110ab5f830184611089565b92915050565b5f602082840312156110c6576110c5610f03565b5b5f6110d384828501610f4d565b91505092915050565b6110e581610f26565b82525050565b5f6020820190506110fe5f8301846110dc565b92915050565b5f806040838503121561111a57611119610f03565b5b5f61112785828601610f80565b925050602061113885828601610f4d565b9150509250929050565b5f806040838503121561115857611157610f03565b5b5f61116585828601610f4d565b925050602061117685828601610f4d565b9150509250929050565b7f4e487b71000000000000000000000000000000000000000000000000000000005f52602260045260245ffd5b5f60028204905060018216806111c457607f821691505b6020821081036111d7576111d6611180565b5b50919050565b7f4e487b71000000000000000000000000000000000000000000000000000000005f52601160045260245ffd5b5f61121482610f61565b915061121f83610f61565b9250828201905080821115611237576112366111dd565b5b92915050565b7f45524332303a2064656372656173656420616c6c6f77616e63652062656c6f775f8201527f207a65726f000000000000000000000000000000000000000000000000000000602082015250565b5f611297602583610e7d565b91506112a28261123d565b604082019050919050565b5f6020820190508181035f8301526112c48161128b565b9050919050565b7f4f776e61626c653a206e6577206f776e657220697320746865207a65726f20615f8201527f6464726573730000000000000000000000000000000000000000000000000000602082015250565b5f611325602683610e7d565b9150611330826112cb565b604082019050919050565b5f6020820190508181035f83015261135281611319565b9050919050565b7f45524332303a20617070726f76652066726f6d20746865207a65726f206164645f8201527f7265737300000000000000000000000000000000000000000000000000000000602082015250565b5f6113b3602483610e7d565b91506113be82611359565b604082019050919050565b5f6020820190508181035f8301526113e0816113a7565b9050919050565b7f45524332303a20617070726f766520746f20746865207a65726f2061646472655f8201527f7373000000000000000000000000000000000000000000000000000000000000602082015250565b5f611441602283610e7d565b915061144c826113e7565b604082019050919050565b5f6020820190508181035f83015261146e81611435565b9050919050565b7f45524332303a20696e73756666696369656e7420616c6c6f77616e63650000005f82015250565b5f6114a9601d83610e7d565b91506114b482611475565b602082019050919050565b5f6020820190508181035f8301526114d68161149d565b9050919050565b7f45524332303a207472616e736665722066726f6d20746865207a65726f2061645f8201527f6472657373000000000000000000000000000000000000000000000000000000602082015250565b5f611537602583610e7d565b9150611542826114dd565b604082019050919050565b5f6020820190508181035f8301526115648161152b565b9050919050565b7f45524332303a207472616e7366657220746f20746865207a65726f20616464725f8201527f6573730000000000000000000000000000000000000000000000000000000000602082015250565b5f6115c5602383610e7d565b91506115d08261156b565b604082019050919050565b5f6020820190508181035f8301526115f2816115b9565b9050919050565b7f45524332303a207472616e7366657220616d6f756e74206578636565647320625f8201527f616c616e63650000000000000000000000000000000000000000000000000000602082015250565b5f611653602683610e7d565b915061165e826115f9565b604082019050919050565b5f6020820190508181035f83015261168081611647565b9050919050565b7f4f776e61626c653a2063616c6c6572206973206e6f7420746865206f776e65725f82015250565b5f6116bb602083610e7d565b91506116c682611687565b602082019050919050565b5f6020820190508181035f8301526116e8816116af565b9050919050565b7f45524332303a206d696e7420746f20746865207a65726f2061646472657373005f82015250565b5f611723601f83610e7d565b915061172e826116ef565b602082019050919050565b5f6020820190508181035f83015261175081611717565b905091905056fea26469706673582212203c2499d592904ccbe76227d42d42e285fcd5abb745b650ec0aaea4530916939464736f6c634300081a0033",
					"opcodes": "PUSH1 0x80 PUSH1 0x40 MSTORE PUSH1 0x40 MLOAD PUSH2 0x2029 CODESIZE SUB DUP1 PUSH2 0x2029 DUP4 CODECOPY DUP2 DUP2 ADD PUSH1 0x40 MSTORE DUP2 ADD SWAP1 PUSH2 0x25 SWAP2 SWAP1 PUSH2 0x434 JUMP JUMPDEST DUP3 DUP3 DUP2 PUSH1 0x3 SWAP1 DUP2 PUSH2 0x36 SWAP2 SWAP1 PUSH2 0x6C0 JUMP JUMPDEST POP DUP1 PUSH1 0x4 SWAP1 DUP2 PUSH2 0x46 SWAP2 SWAP1 PUSH2 0x6C0 JUMP JUMPDEST POP POP POP PUSH2 0x65 PUSH2 0x5A PUSH2 0x7D PUSH1 0x20 SHL PUSH1 0x20 SHR JUMP JUMPDEST PUSH2 0x84 PUSH1 0x20 SHL PUSH1 0x20 SHR JUMP JUMPDEST PUSH2 0x75 CALLER DUP3 PUSH2 0x147 PUSH1 0x20 SHL PUSH1 0x20 SHR JUMP JUMPDEST POP POP POP PUSH2 0x88F JUMP JUMPDEST PUSH0 CALLER SWAP1 POP SWAP1 JUMP JUMPDEST PUSH0 PUSH1 0x5 PUSH0 SWAP1 SLOAD SWAP1 PUSH2 0x100 EXP SWAP1 DIV PUSH20 0xFFFFFFFFFFFFFFFFFFFFFFFFFFFFFFFFFFFFFFFF AND SWAP1 POP DUP2 PUSH1 0x5 PUSH0 PUSH2 0x100 EXP DUP2 SLOAD DUP2 PUSH20 0xFFFFFFFFFFFFFFFFFFFFFFFFFFFFFFFFFFFFFFFF MUL NOT AND SWAP1 DUP4 PUSH20 0xFFFFFFFFFFFFFFFFFFFFFFFFFFFFFFFFFFFFFFFF AND MUL OR SWAP1 SSTORE POP DUP2 PUSH20 0xFFFFFFFFFFFFFFFFFFFFFFFFFFFFFFFFFFFFFFFF AND DUP2 PUSH20 0xFFFFFFFFFFFFFFFFFFFFFFFFFFFFFFFFFFFFFFFF AND PUSH32 0x8BE0079C531659141344CD1FD0A4F28419497F9722A3DAAFE3B4186F6B6457E0 PUSH1 0x40 MLOAD PUSH1 0x40 MLOAD DUP1 SWAP2 SUB SWAP1 LOG3 POP POP JUMP JUMPDEST PUSH0 PUSH20 0xFFFFFFFFFFFFFFFFFFFFFFFFFFFFFFFFFFFFFFFF AND DUP3 PUSH20 0xFFFFFFFFFFFFFFFFFFFFFFFFFFFFFFFFFFFFFFFF AND SUB PUSH2 0x1B5 JUMPI PUSH1 0x40 MLOAD PUSH32 0x8C379A000000000000000000000000000000000000000000000000000000000 DUP2 MSTORE PUSH1 0x4 ADD PUSH2 0x1AC SWAP1 PUSH2 0x7E9 JUMP JUMPDEST PUSH1 0x40 MLOAD DUP1 SWAP2 SUB SWAP1 REVERT JUMPDEST PUSH2 0x1C6 PUSH0 DUP4 DUP4 PUSH2 0x2AA PUSH1 0x20 SHL PUSH1 0x20 SHR JUMP JUMPDEST DUP1 PUSH1 0x2 PUSH0 DUP3 DUP3 SLOAD PUSH2 0x1D7 SWAP2 SWAP1 PUSH2 0x834 JUMP JUMPDEST SWAP3 POP POP DUP2 SWAP1 SSTORE POP DUP1 PUSH0 DUP1 DUP5 PUSH20 0xFFFFFFFFFFFFFFFFFFFFFFFFFFFFFFFFFFFFFFFF AND PUSH20 0xFFFFFFFFFFFFFFFFFFFFFFFFFFFFFFFFFFFFFFFF AND DUP2 MSTORE PUSH1 0x20 ADD SWAP1 DUP2 MSTORE PUSH1 0x20 ADD PUSH0 KECCAK256 PUSH0 DUP3 DUP3 SLOAD PUSH2 0x229 SWAP2 SWAP1 PUSH2 0x834 JUMP JUMPDEST SWAP3 POP POP DUP2 SWAP1 SSTORE POP DUP2 PUSH20 0xFFFFFFFFFFFFFFFFFFFFFFFFFFFFFFFFFFFFFFFF AND PUSH0 PUSH20 0xFFFFFFFFFFFFFFFFFFFFFFFFFFFFFFFFFFFFFFFF AND PUSH32 0xDDF252AD1BE2C89B69C2B068FC378DAA952BA7F163C4A11628F55A4DF523B3EF DUP4 PUSH1 0x40 MLOAD PUSH2 0x28D SWAP2 SWAP1 PUSH2 0x876 JUMP JUMPDEST PUSH1 0x40 MLOAD DUP1 SWAP2 SUB SWAP1 LOG3 PUSH2 0x2A6 PUSH0 DUP4 DUP4 PUSH2 0x2AF PUSH1 0x20 SHL PUSH1 0x20 SHR JUMP JUMPDEST POP POP JUMP JUMPDEST POP POP POP JUMP JUMPDEST POP POP POP JUMP JUMPDEST PUSH0 PUSH1 0x40 MLOAD SWAP1 POP SWAP1 JUMP JUMPDEST PUSH0 DUP1 REVERT JUMPDEST PUSH0 DUP1 REVERT JUMPDEST PUSH0 DUP1 REVERT JUMPDEST PUSH0 DUP1 REVERT JUMPDEST PUSH0 PUSH1 0x1F NOT PUSH1 0x1F DUP4 ADD AND SWAP1 POP SWAP2 SWAP1 POP JUMP JUMPDEST PUSH32 0x4E487B7100000000000000000000000000000000000000000000000000000000 PUSH0 MSTORE PUSH1 0x41 PUSH1 0x4 MSTORE PUSH1 0x24 PUSH0 REVERT JUMPDEST PUSH2 0x313 DUP3 PUSH2 0x2CD JUMP JUMPDEST DUP2 ADD DUP2 DUP2 LT PUSH8 0xFFFFFFFFFFFFFFFF DUP3 GT OR ISZERO PUSH2 0x332 JUMPI PUSH2 0x331 PUSH2 0x2DD JUMP JUMPDEST JUMPDEST DUP1 PUSH1 0x40 MSTORE POP POP POP JUMP JUMPDEST PUSH0 PUSH2 0x344 PUSH2 0x2B4 JUMP JUMPDEST SWAP1 POP PUSH2 0x350 DUP3 DUP3 PUSH2 0x30A JUMP JUMPDEST SWAP2 SWAP1 POP JUMP JUMPDEST PUSH0 PUSH8 0xFFFFFFFFFFFFFFFF DUP3 GT ISZERO PUSH2 0x36F JUMPI PUSH2 0x36E PUSH2 0x2DD JUMP JUMPDEST JUMPDEST PUSH2 0x378 DUP3 PUSH2 0x2CD JUMP JUMPDEST SWAP1 POP PUSH1 0x20 DUP2 ADD SWAP1 POP SWAP2 SWAP1 POP JUMP JUMPDEST DUP3 DUP2 DUP4 MCOPY PUSH0 DUP4 DUP4 ADD MSTORE POP POP POP JUMP JUMPDEST PUSH0 PUSH2 0x3A5 PUSH2 0x3A0 DUP5 PUSH2 0x355 JUMP JUMPDEST PUSH2 0x33B JUMP JUMPDEST SWAP1 POP DUP3 DUP2 MSTORE PUSH1 0x20 DUP2 ADD DUP5 DUP5 DUP5 ADD GT ISZERO PUSH2 0x3C1 JUMPI PUSH2 0x3C0 PUSH2 0x2C9 JUMP JUMPDEST JUMPDEST PUSH2 0x3CC DUP5 DUP3 DUP6 PUSH2 0x385 JUMP JUMPDEST POP SWAP4 SWAP3 POP POP POP JUMP JUMPDEST PUSH0 DUP3 PUSH1 0x1F DUP4 ADD SLT PUSH2 0x3E8 JUMPI PUSH2 0x3E7 PUSH2 0x2C5 JUMP JUMPDEST JUMPDEST DUP2 MLOAD PUSH2 0x3F8 DUP5 DUP3 PUSH1 0x20 DUP7 ADD PUSH2 0x393 JUMP JUMPDEST SWAP2 POP POP SWAP3 SWAP2 POP POP JUMP JUMPDEST PUSH0 DUP2 SWAP1 POP SWAP2 SWAP1 POP JUMP JUMPDEST PUSH2 0x413 DUP2 PUSH2 0x401 JUMP JUMPDEST DUP2 EQ PUSH2 0x41D JUMPI PUSH0 DUP1 REVERT JUMPDEST POP JUMP JUMPDEST PUSH0 DUP2 MLOAD SWAP1 POP PUSH2 0x42E DUP2 PUSH2 0x40A JUMP JUMPDEST SWAP3 SWAP2 POP POP JUMP JUMPDEST PUSH0 DUP1 PUSH0 PUSH1 0x60 DUP5 DUP7 SUB SLT ISZERO PUSH2 0x44B JUMPI PUSH2 0x44A PUSH2 0x2BD JUMP JUMPDEST JUMPDEST PUSH0 DUP5 ADD MLOAD PUSH8 0xFFFFFFFFFFFFFFFF DUP2 GT ISZERO PUSH2 0x468 JUMPI PUSH2 0x467 PUSH2 0x2C1 JUMP JUMPDEST JUMPDEST PUSH2 0x474 DUP7 DUP3 DUP8 ADD PUSH2 0x3D4 JUMP JUMPDEST SWAP4 POP POP PUSH1 0x20 DUP5 ADD MLOAD PUSH8 0xFFFFFFFFFFFFFFFF DUP2 GT ISZERO PUSH2 0x495 JUMPI PUSH2 0x494 PUSH2 0x2C1 JUMP JUMPDEST JUMPDEST PUSH2 0x4A1 DUP7 DUP3 DUP8 ADD PUSH2 0x3D4 JUMP JUMPDEST SWAP3 POP POP PUSH1 0x40 PUSH2 0x4B2 DUP7 DUP3 DUP8 ADD PUSH2 0x420 JUMP JUMPDEST SWAP2 POP POP SWAP3 POP SWAP3 POP SWAP3 JUMP JUMPDEST PUSH0 DUP2 MLOAD SWAP1 POP SWAP2 SWAP1 POP JUMP JUMPDEST PUSH32 0x4E487B7100000000000000000000000000000000000000000000000000000000 PUSH0 MSTORE PUSH1 0x22 PUSH1 0x4 MSTORE PUSH1 0x24 PUSH0 REVERT JUMPDEST PUSH0 PUSH1 0x2 DUP3 DIV SWAP1 POP PUSH1 0x1 DUP3 AND DUP1 PUSH2 0x50A JUMPI PUSH1 0x7F DUP3 AND SWAP2 POP JUMPDEST PUSH1 0x20 DUP3 LT DUP2 SUB PUSH2 0x51D JUMPI PUSH2 0x51C PUSH2 0x4C6 JUMP JUMPDEST JUMPDEST POP SWAP2 SWAP1 POP JUMP JUMPDEST PUSH0 DUP2 SWAP1 POP DUP2 PUSH0 MSTORE PUSH1 0x20 PUSH0 KECCAK256 SWAP1 POP SWAP2 SWAP1 POP JUMP JUMPDEST PUSH0 PUSH1 0x20 PUSH1 0x1F DUP4 ADD DIV SWAP1 POP SWAP2 SWAP1 POP JUMP JUMPDEST PUSH0 DUP3 DUP3 SHL SWAP1 POP SWAP3 SWAP2 POP POP JUMP JUMPDEST PUSH0 PUSH1 0x8 DUP4 MUL PUSH2 0x57F PUSH32 0xFFFFFFFFFFFFFFFFFFFFFFFFFFFFFFFFFFFFFFFFFFFFFFFFFFFFFFFFFFFFFFFF DUP3 PUSH2 0x544 JUMP JUMPDEST PUSH2 0x589 DUP7 DUP4 PUSH2 0x544 JUMP JUMPDEST SWAP6 POP DUP1 NOT DUP5 AND SWAP4 POP DUP1 DUP7 AND DUP5 OR SWAP3 POP POP POP SWAP4 SWAP3 POP POP POP JUMP JUMPDEST PUSH0 DUP2 SWAP1 POP SWAP2 SWAP1 POP JUMP JUMPDEST PUSH0 PUSH2 0x5C4 PUSH2 0x5BF PUSH2 0x5BA DUP5 PUSH2 0x401 JUMP JUMPDEST PUSH2 0x5A1 JUMP JUMPDEST PUSH2 0x401 JUMP JUMPDEST SWAP1 POP SWAP2 SWAP1 POP JUMP JUMPDEST PUSH0 DUP2 SWAP1 POP SWAP2 SWAP1 POP JUMP JUMPDEST PUSH2 0x5DD DUP4 PUSH2 0x5AA JUMP JUMPDEST PUSH2 0x5F1 PUSH2 0x5E9 DUP3 PUSH2 0x5CB JUMP JUMPDEST DUP5 DUP5 SLOAD PUSH2 0x550 JUMP JUMPDEST DUP3 SSTORE POP POP POP POP JUMP JUMPDEST PUSH0 SWAP1 JUMP JUMPDEST PUSH2 0x605 PUSH2 0x5F9 JUMP JUMPDEST PUSH2 0x610 DUP2 DUP5 DUP5 PUSH2 0x5D4 JUMP JUMPDEST POP POP POP JUMP JUMPDEST JUMPDEST DUP2 DUP2 LT ISZERO PUSH2 0x633 JUMPI PUSH2 0x628 PUSH0 DUP3 PUSH2 0x5FD JUMP JUMPDEST PUSH1 0x1 DUP2 ADD SWAP1 POP PUSH2 0x616 JUMP JUMPDEST POP POP JUMP JUMPDEST PUSH1 0x1F DUP3 GT ISZERO PUSH2 0x678 JUMPI PUSH2 0x649 DUP2 PUSH2 0x523 JUMP JUMPDEST PUSH2 0x652 DUP5 PUSH2 0x535 JUMP JUMPDEST DUP2 ADD PUSH1 0x20 DUP6 LT ISZERO PUSH2 0x661 JUMPI DUP2 SWAP1 POP JUMPDEST PUSH2 0x675 PUSH2 0x66D DUP6 PUSH2 0x535 JUMP JUMPDEST DUP4 ADD DUP3 PUSH2 0x615 JUMP JUMPDEST POP POP JUMPDEST POP POP POP JUMP JUMPDEST PUSH0 DUP3 DUP3 SHR SWAP1 POP SWAP3 SWAP2 POP POP JUMP JUMPDEST PUSH0 PUSH2 0x698 PUSH0 NOT DUP5 PUSH1 0x8 MUL PUSH2 0x67D JUMP JUMPDEST NOT DUP1 DUP4 AND SWAP2 POP POP SWAP3 SWAP2 POP POP JUMP JUMPDEST PUSH0 PUSH2 0x6B0 DUP4 DUP4 PUSH2 0x689 JUMP JUMPDEST SWAP2 POP DUP3 PUSH1 0x2 MUL DUP3 OR SWAP1 POP SWAP3 SWAP2 POP POP JUMP JUMPDEST PUSH2 0x6C9 DUP3 PUSH2 0x4BC JUMP JUMPDEST PUSH8 0xFFFFFFFFFFFFFFFF DUP2 GT ISZERO PUSH2 0x6E2 JUMPI PUSH2 0x6E1 PUSH2 0x2DD JUMP JUMPDEST JUMPDEST PUSH2 0x6EC DUP3 SLOAD PUSH2 0x4F3 JUMP JUMPDEST PUSH2 0x6F7 DUP3 DUP3 DUP6 PUSH2 0x637 JUMP JUMPDEST PUSH0 PUSH1 0x20 SWAP1 POP PUSH1 0x1F DUP4 GT PUSH1 0x1 DUP2 EQ PUSH2 0x728 JUMPI PUSH0 DUP5 ISZERO PUSH2 0x716 JUMPI DUP3 DUP8 ADD MLOAD SWAP1 POP JUMPDEST PUSH2 0x720 DUP6 DUP3 PUSH2 0x6A5 JUMP JUMPDEST DUP7 SSTORE POP PUSH2 0x787 JUMP JUMPDEST PUSH1 0x1F NOT DUP5 AND PUSH2 0x736 DUP7 PUSH2 0x523 JUMP JUMPDEST PUSH0 JUMPDEST DUP3 DUP2 LT ISZERO PUSH2 0x75D JUMPI DUP5 DUP10 ADD MLOAD DUP3 SSTORE PUSH1 0x1 DUP3 ADD SWAP2 POP PUSH1 0x20 DUP6 ADD SWAP5 POP PUSH1 0x20 DUP2 ADD SWAP1 POP PUSH2 0x738 JUMP JUMPDEST DUP7 DUP4 LT ISZERO PUSH2 0x77A JUMPI DUP5 DUP10 ADD MLOAD PUSH2 0x776 PUSH1 0x1F DUP10 AND DUP3 PUSH2 0x689 JUMP JUMPDEST DUP4 SSTORE POP JUMPDEST PUSH1 0x1 PUSH1 0x2 DUP9 MUL ADD DUP9 SSTORE POP POP POP JUMPDEST POP POP POP POP POP POP JUMP JUMPDEST PUSH0 DUP3 DUP3 MSTORE PUSH1 0x20 DUP3 ADD SWAP1 POP SWAP3 SWAP2 POP POP JUMP JUMPDEST PUSH32 0x45524332303A206D696E7420746F20746865207A65726F206164647265737300 PUSH0 DUP3 ADD MSTORE POP JUMP JUMPDEST PUSH0 PUSH2 0x7D3 PUSH1 0x1F DUP4 PUSH2 0x78F JUMP JUMPDEST SWAP2 POP PUSH2 0x7DE DUP3 PUSH2 0x79F JUMP JUMPDEST PUSH1 0x20 DUP3 ADD SWAP1 POP SWAP2 SWAP1 POP JUMP JUMPDEST PUSH0 PUSH1 0x20 DUP3 ADD SWAP1 POP DUP2 DUP2 SUB PUSH0 DUP4 ADD MSTORE PUSH2 0x800 DUP2 PUSH2 0x7C7 JUMP JUMPDEST SWAP1 POP SWAP2 SWAP1 POP JUMP JUMPDEST PUSH32 0x4E487B7100000000000000000000000000000000000000000000000000000000 PUSH0 MSTORE PUSH1 0x11 PUSH1 0x4 MSTORE PUSH1 0x24 PUSH0 REVERT JUMPDEST PUSH0 PUSH2 0x83E DUP3 PUSH2 0x401 JUMP JUMPDEST SWAP2 POP PUSH2 0x849 DUP4 PUSH2 0x401 JUMP JUMPDEST SWAP3 POP DUP3 DUP3 ADD SWAP1 POP DUP1 DUP3 GT ISZERO PUSH2 0x861 JUMPI PUSH2 0x860 PUSH2 0x807 JUMP JUMPDEST JUMPDEST SWAP3 SWAP2 POP POP JUMP JUMPDEST PUSH2 0x870 DUP2 PUSH2 0x401 JUMP JUMPDEST DUP3 MSTORE POP POP JUMP JUMPDEST PUSH0 PUSH1 0x20 DUP3 ADD SWAP1 POP PUSH2 0x889 PUSH0 DUP4 ADD DUP5 PUSH2 0x867 JUMP JUMPDEST SWAP3 SWAP2 POP POP JUMP JUMPDEST PUSH2 0x178D DUP1 PUSH2 0x89C PUSH0 CODECOPY PUSH0 RETURN INVALID PUSH1 0x80 PUSH1 0x40 MSTORE CALLVALUE DUP1 ISZERO PUSH2 0xF JUMPI PUSH0 DUP1 REVERT JUMPDEST POP PUSH1 0x4 CALLDATASIZE LT PUSH2 0xF3 JUMPI PUSH0 CALLDATALOAD PUSH1 0xE0 SHR DUP1 PUSH4 0x715018A6 GT PUSH2 0x95 JUMPI DUP1 PUSH4 0xA457C2D7 GT PUSH2 0x64 JUMPI DUP1 PUSH4 0xA457C2D7 EQ PUSH2 0x273 JUMPI DUP1 PUSH4 0xA9059CBB EQ PUSH2 0x2A3 JUMPI DUP1 PUSH4 0xDD62ED3E EQ PUSH2 0x2D3 JUMPI DUP1 PUSH4 0xF2FDE38B EQ PUSH2 0x303 JUMPI PUSH2 0xF3 JUMP JUMPDEST DUP1 PUSH4 0x715018A6 EQ PUSH2 0x211 JUMPI DUP1 PUSH4 0x8DA5CB5B EQ PUSH2 0x21B JUMPI DUP1 PUSH4 0x94BF804D EQ PUSH2 0x239 JUMPI DUP1 PUSH4 0x95D89B41 EQ PUSH2 0x255 JUMPI PUSH2 0xF3 JUMP JUMPDEST DUP1 PUSH4 0x23B872DD GT PUSH2 0xD1 JUMPI DUP1 PUSH4 0x23B872DD EQ PUSH2 0x163 JUMPI DUP1 PUSH4 0x313CE567 EQ PUSH2 0x193 JUMPI DUP1 PUSH4 0x39509351 EQ PUSH2 0x1B1 JUMPI DUP1 PUSH4 0x70A08231 EQ PUSH2 0x1E1 JUMPI PUSH2 0xF3 JUMP JUMPDEST DUP1 PUSH4 0x6FDDE03 EQ PUSH2 0xF7 JUMPI DUP1 PUSH4 0x95EA7B3 EQ PUSH2 0x115 JUMPI DUP1 PUSH4 0x18160DDD EQ PUSH2 0x145 JUMPI JUMPDEST PUSH0 DUP1 REVERT JUMPDEST PUSH2 0xFF PUSH2 0x31F JUMP JUMPDEST PUSH1 0x40 MLOAD PUSH2 0x10C SWAP2 SWAP1 PUSH2 0xEE3 JUMP JUMPDEST PUSH1 0x40 MLOAD DUP1 SWAP2 SUB SWAP1 RETURN JUMPDEST PUSH2 0x12F PUSH1 0x4 DUP1 CALLDATASIZE SUB DUP2 ADD SWAP1 PUSH2 0x12A SWAP2 SWAP1 PUSH2 0xF94 JUMP JUMPDEST PUSH2 0x3AF JUMP JUMPDEST PUSH1 0x40 MLOAD PUSH2 0x13C SWAP2 SWAP1 PUSH2 0xFEC JUMP JUMPDEST PUSH1 0x40 MLOAD DUP1 SWAP2 SUB SWAP1 RETURN JUMPDEST PUSH2 0x14D PUSH2 0x3D1 JUMP JUMPDEST PUSH1 0x40 MLOAD PUSH2 0x15A SWAP2 SWAP1 PUSH2 0x1014 JUMP JUMPDEST PUSH1 0x40 MLOAD DUP1 SWAP2 SUB SWAP1 RETURN JUMPDEST PUSH2 0x17D PUSH1 0x4 DUP1 CALLDATASIZE SUB DUP2 ADD SWAP1 PUSH2 0x178 SWAP2 SWAP1 PUSH2 0x102D JUMP JUMPDEST PUSH2 0x3DA JUMP JUMPDEST PUSH1 0x40 MLOAD PUSH2 0x18A SWAP2 SWAP1 PUSH2 0xFEC JUMP JUMPDEST PUSH1 0x40 MLOAD DUP1 SWAP2 SUB SWAP1 RETURN JUMPDEST PUSH2 0x19B PUSH2 0x408 JUMP JUMPDEST PUSH1 0x40 MLOAD PUSH2 0x1A8 SWAP2 SWAP1 PUSH2 0x1098 JUMP JUMPDEST PUSH1 0x40 MLOAD DUP1 SWAP2 SUB SWAP1 RETURN JUMPDEST PUSH2 0x1CB PUSH1 0x4 DUP1 CALLDATASIZE SUB DUP2 ADD SWAP1 PUSH2 0x1C6 SWAP2 SWAP1 PUSH2 0xF94 JUMP JUMPDEST PUSH2 0x410 JUMP JUMPDEST PUSH1 0x40 MLOAD PUSH2 0x1D8 SWAP2 SWAP1 PUSH2 0xFEC JUMP JUMPDEST PUSH1 0x40 MLOAD DUP1 SWAP2 SUB SWAP1 RETURN JUMPDEST PUSH2 0x1FB PUSH1 0x4 DUP1 CALLDATASIZE SUB DUP2 ADD SWAP1 PUSH2 0x1F6 SWAP2 SWAP1 PUSH2 0x10B1 JUMP JUMPDEST PUSH2 0x446 JUMP JUMPDEST PUSH1 0x40 MLOAD PUSH2 0x208 SWAP2 SWAP1 PUSH2 0x1014 JUMP JUMPDEST PUSH1 0x40 MLOAD DUP1 SWAP2 SUB SWAP1 RETURN JUMPDEST PUSH2 0x219 PUSH2 0x48B JUMP JUMPDEST STOP JUMPDEST PUSH2 0x223 PUSH2 0x49E JUMP JUMPDEST PUSH1 0x40 MLOAD PUSH2 0x230 SWAP2 SWAP1 PUSH2 0x10EB JUMP JUMPDEST PUSH1 0x40 MLOAD DUP1 SWAP2 SUB SWAP1 RETURN JUMPDEST PUSH2 0x253 PUSH1 0x4 DUP1 CALLDATASIZE SUB DUP2 ADD SWAP1 PUSH2 0x24E SWAP2 SWAP1 PUSH2 0x1104 JUMP JUMPDEST PUSH2 0x4C6 JUMP JUMPDEST STOP JUMPDEST PUSH2 0x25D PUSH2 0x4DC JUMP JUMPDEST PUSH1 0x40 MLOAD PUSH2 0x26A SWAP2 SWAP1 PUSH2 0xEE3 JUMP JUMPDEST PUSH1 0x40 MLOAD DUP1 SWAP2 SUB SWAP1 RETURN JUMPDEST PUSH2 0x28D PUSH1 0x4 DUP1 CALLDATASIZE SUB DUP2 ADD SWAP1 PUSH2 0x288 SWAP2 SWAP1 PUSH2 0xF94 JUMP JUMPDEST PUSH2 0x56C JUMP JUMPDEST PUSH1 0x40 MLOAD PUSH2 0x29A SWAP2 SWAP1 PUSH2 0xFEC JUMP JUMPDEST PUSH1 0x40 MLOAD DUP1 SWAP2 SUB SWAP1 RETURN JUMPDEST PUSH2 0x2BD PUSH1 0x4 DUP1 CALLDATASIZE SUB DUP2 ADD SWAP1 PUSH2 0x2B8 SWAP2 SWAP1 PUSH2 0xF94 JUMP JUMPDEST PUSH2 0x5E1 JUMP JUMPDEST PUSH1 0x40 MLOAD PUSH2 0x2CA SWAP2 SWAP1 PUSH2 0xFEC JUMP JUMPDEST PUSH1 0x40 MLOAD DUP1 SWAP2 SUB SWAP1 RETURN JUMPDEST PUSH2 0x2ED PUSH1 0x4 DUP1 CALLDATASIZE SUB DUP2 ADD SWAP1 PUSH2 0x2E8 SWAP2 SWAP1 PUSH2 0x1142 JUMP JUMPDEST PUSH2 0x603 JUMP JUMPDEST PUSH1 0x40 MLOAD PUSH2 0x2FA SWAP2 SWAP1 PUSH2 0x1014 JUMP JUMPDEST PUSH1 0x40 MLOAD DUP1 SWAP2 SUB SWAP1 RETURN JUMPDEST PUSH2 0x31D PUSH1 0x4 DUP1 CALLDATASIZE SUB DUP2 ADD SWAP1 PUSH2 0x318 SWAP2 SWAP1 PUSH2 0x10B1 JUMP JUMPDEST PUSH2 0x685 JUMP JUMPDEST STOP JUMPDEST PUSH1 0x60 PUSH1 0x3 DUP1 SLOAD PUSH2 0x32E SWAP1 PUSH2 0x11AD JUMP JUMPDEST DUP1 PUSH1 0x1F ADD PUSH1 0x20 DUP1 SWAP2 DIV MUL PUSH1 0x20 ADD PUSH1 0x40 MLOAD SWAP1 DUP2 ADD PUSH1 0x40 MSTORE DUP1 SWAP3 SWAP2 SWAP1 DUP2 DUP2 MSTORE PUSH1 0x20 ADD DUP3 DUP1 SLOAD PUSH2 0x35A SWAP1 PUSH2 0x11AD JUMP JUMPDEST DUP1 ISZERO PUSH2 0x3A5 JUMPI DUP1 PUSH1 0x1F LT PUSH2 0x37C JUMPI PUSH2 0x100 DUP1 DUP4 SLOAD DIV MUL DUP4 MSTORE SWAP2 PUSH1 0x20 ADD SWAP2 PUSH2 0x3A5 JUMP JUMPDEST DUP3 ADD SWAP2 SWAP1 PUSH0 MSTORE PUSH1 0x20 PUSH0 KECCAK256 SWAP1 JUMPDEST DUP2 SLOAD DUP2 MSTORE SWAP1 PUSH1 0x1 ADD SWAP1 PUSH1 0x20 ADD DUP1 DUP4 GT PUSH2 0x388 JUMPI DUP3 SWAP1 SUB PUSH1 0x1F AND DUP3 ADD SWAP2 JUMPDEST POP POP POP POP POP SWAP1 POP SWAP1 JUMP JUMPDEST PUSH0 DUP1 PUSH2 0x3B9 PUSH2 0x707 JUMP JUMPDEST SWAP1 POP PUSH2 0x3C6 DUP2 DUP6 DUP6 PUSH2 0x70E JUMP JUMPDEST PUSH1 0x1 SWAP2 POP POP SWAP3 SWAP2 POP POP JUMP JUMPDEST PUSH0 PUSH1 0x2 SLOAD SWAP1 POP SWAP1 JUMP JUMPDEST PUSH0 DUP1 PUSH2 0x3E4 PUSH2 0x707 JUMP JUMPDEST SWAP1 POP PUSH2 0x3F1 DUP6 DUP3 DUP6 PUSH2 0x8D1 JUMP JUMPDEST PUSH2 0x3FC DUP6 DUP6 DUP6 PUSH2 0x95C JUMP JUMPDEST PUSH1 0x1 SWAP2 POP POP SWAP4 SWAP3 POP POP POP JUMP JUMPDEST PUSH0 PUSH1 0x12 SWAP1 POP SWAP1 JUMP JUMPDEST PUSH0 DUP1 PUSH2 0x41A PUSH2 0x707 JUMP JUMPDEST SWAP1 POP PUSH2 0x43B DUP2 DUP6 DUP6 PUSH2 0x42C DUP6 DUP10 PUSH2 0x603 JUMP JUMPDEST PUSH2 0x436 SWAP2 SWAP1 PUSH2 0x120A JUMP JUMPDEST PUSH2 0x70E JUMP JUMPDEST PUSH1 0x1 SWAP2 POP POP SWAP3 SWAP2 POP POP JUMP JUMPDEST PUSH0 DUP1 PUSH0 DUP4 PUSH20 0xFFFFFFFFFFFFFFFFFFFFFFFFFFFFFFFFFFFFFFFF AND PUSH20 0xFFFFFFFFFFFFFFFFFFFFFFFFFFFFFFFFFFFFFFFF AND DUP2 MSTORE PUSH1 0x20 ADD SWAP1 DUP2 MSTORE PUSH1 0x20 ADD PUSH0 KECCAK256 SLOAD SWAP1 POP SWAP2 SWAP1 POP JUMP JUMPDEST PUSH2 0x493 PUSH2 0xBD1 JUMP JUMPDEST PUSH2 0x49C PUSH0 PUSH2 0xC4F JUMP JUMPDEST JUMP JUMPDEST PUSH0 PUSH1 0x5 PUSH0 SWAP1 SLOAD SWAP1 PUSH2 0x100 EXP SWAP1 DIV PUSH20 0xFFFFFFFFFFFFFFFFFFFFFFFFFFFFFFFFFFFFFFFF AND SWAP1 POP SWAP1 JUMP JUMPDEST PUSH2 0x4CE PUSH2 0xBD1 JUMP JUMPDEST PUSH2 0x4D8 DUP2 DUP4 PUSH2 0xD12 JUMP JUMPDEST POP POP JUMP JUMPDEST PUSH1 0x60 PUSH1 0x4 DUP1 SLOAD PUSH2 0x4EB SWAP1 PUSH2 0x11AD JUMP JUMPDEST DUP1 PUSH1 0x1F ADD PUSH1 0x20 DUP1 SWAP2 DIV MUL PUSH1 0x20 ADD PUSH1 0x40 MLOAD SWAP1 DUP2 ADD PUSH1 0x40 MSTORE DUP1 SWAP3 SWAP2 SWAP1 DUP2 DUP2 MSTORE PUSH1 0x20 ADD DUP3 DUP1 SLOAD PUSH2 0x517 SWAP1 PUSH2 0x11AD JUMP JUMPDEST DUP1 ISZERO PUSH2 0x562 JUMPI DUP1 PUSH1 0x1F LT PUSH2 0x539 JUMPI PUSH2 0x100 DUP1 DUP4 SLOAD DIV MUL DUP4 MSTORE SWAP2 PUSH1 0x20 ADD SWAP2 PUSH2 0x562 JUMP JUMPDEST DUP3 ADD SWAP2 SWAP1 PUSH0 MSTORE PUSH1 0x20 PUSH0 KECCAK256 SWAP1 JUMPDEST DUP2 SLOAD DUP2 MSTORE SWAP1 PUSH1 0x1 ADD SWAP1 PUSH1 0x20 ADD DUP1 DUP4 GT PUSH2 0x545 JUMPI DUP3 SWAP1 SUB PUSH1 0x1F AND DUP3 ADD SWAP2 JUMPDEST POP POP POP POP POP SWAP1 POP SWAP1 JUMP JUMPDEST PUSH0 DUP1 PUSH2 0x576 PUSH2 0x707 JUMP JUMPDEST SWAP1 POP PUSH0 PUSH2 0x583 DUP3 DUP7 PUSH2 0x603 JUMP JUMPDEST SWAP1 POP DUP4 DUP2 LT ISZERO PUSH2 0x5C8 JUMPI PUSH1 0x40 MLOAD PUSH32 0x8C379A000000000000000000000000000000000000000000000000000000000 DUP2 MSTORE PUSH1 0x4 ADD PUSH2 0x5BF SWAP1 PUSH2 0x12AD JUMP JUMPDEST PUSH1 0x40 MLOAD DUP1 SWAP2 SUB SWAP1 REVERT JUMPDEST PUSH2 0x5D5 DUP3 DUP7 DUP7 DUP5 SUB PUSH2 0x70E JUMP JUMPDEST PUSH1 0x1 SWAP3 POP POP POP SWAP3 SWAP2 POP POP JUMP JUMPDEST PUSH0 DUP1 PUSH2 0x5EB PUSH2 0x707 JUMP JUMPDEST SWAP1 POP PUSH2 0x5F8 DUP2 DUP6 DUP6 PUSH2 0x95C JUMP JUMPDEST PUSH1 0x1 SWAP2 POP POP SWAP3 SWAP2 POP POP JUMP JUMPDEST PUSH0 PUSH1 0x1 PUSH0 DUP5 PUSH20 0xFFFFFFFFFFFFFFFFFFFFFFFFFFFFFFFFFFFFFFFF AND PUSH20 0xFFFFFFFFFFFFFFFFFFFFFFFFFFFFFFFFFFFFFFFF AND DUP2 MSTORE PUSH1 0x20 ADD SWAP1 DUP2 MSTORE PUSH1 0x20 ADD PUSH0 KECCAK256 PUSH0 DUP4 PUSH20 0xFFFFFFFFFFFFFFFFFFFFFFFFFFFFFFFFFFFFFFFF AND PUSH20 0xFFFFFFFFFFFFFFFFFFFFFFFFFFFFFFFFFFFFFFFF AND DUP2 MSTORE PUSH1 0x20 ADD SWAP1 DUP2 MSTORE PUSH1 0x20 ADD PUSH0 KECCAK256 SLOAD SWAP1 POP SWAP3 SWAP2 POP POP JUMP JUMPDEST PUSH2 0x68D PUSH2 0xBD1 JUMP JUMPDEST PUSH0 PUSH20 0xFFFFFFFFFFFFFFFFFFFFFFFFFFFFFFFFFFFFFFFF AND DUP2 PUSH20 0xFFFFFFFFFFFFFFFFFFFFFFFFFFFFFFFFFFFFFFFF AND SUB PUSH2 0x6FB JUMPI PUSH1 0x40 MLOAD PUSH32 0x8C379A000000000000000000000000000000000000000000000000000000000 DUP2 MSTORE PUSH1 0x4 ADD PUSH2 0x6F2 SWAP1 PUSH2 0x133B JUMP JUMPDEST PUSH1 0x40 MLOAD DUP1 SWAP2 SUB SWAP1 REVERT JUMPDEST PUSH2 0x704 DUP2 PUSH2 0xC4F JUMP JUMPDEST POP JUMP JUMPDEST PUSH0 CALLER SWAP1 POP SWAP1 JUMP JUMPDEST PUSH0 PUSH20 0xFFFFFFFFFFFFFFFFFFFFFFFFFFFFFFFFFFFFFFFF AND DUP4 PUSH20 0xFFFFFFFFFFFFFFFFFFFFFFFFFFFFFFFFFFFFFFFF AND SUB PUSH2 0x77C JUMPI PUSH1 0x40 MLOAD PUSH32 0x8C379A000000000000000000000000000000000000000000000000000000000 DUP2 MSTORE PUSH1 0x4 ADD PUSH2 0x773 SWAP1 PUSH2 0x13C9 JUMP JUMPDEST PUSH1 0x40 MLOAD DUP1 SWAP2 SUB SWAP1 REVERT JUMPDEST PUSH0 PUSH20 0xFFFFFFFFFFFFFFFFFFFFFFFFFFFFFFFFFFFFFFFF AND DUP3 PUSH20 0xFFFFFFFFFFFFFFFFFFFFFFFFFFFFFFFFFFFFFFFF AND SUB PUSH2 0x7EA JUMPI PUSH1 0x40 MLOAD PUSH32 0x8C379A000000000000000000000000000000000000000000000000000000000 DUP2 MSTORE PUSH1 0x4 ADD PUSH2 0x7E1 SWAP1 PUSH2 0x1457 JUMP JUMPDEST PUSH1 0x40 MLOAD DUP1 SWAP2 SUB SWAP1 REVERT JUMPDEST DUP1 PUSH1 0x1 PUSH0 DUP6 PUSH20 0xFFFFFFFFFFFFFFFFFFFFFFFFFFFFFFFFFFFFFFFF AND PUSH20 0xFFFFFFFFFFFFFFFFFFFFFFFFFFFFFFFFFFFFFFFF AND DUP2 MSTORE PUSH1 0x20 ADD SWAP1 DUP2 MSTORE PUSH1 0x20 ADD PUSH0 KECCAK256 PUSH0 DUP5 PUSH20 0xFFFFFFFFFFFFFFFFFFFFFFFFFFFFFFFFFFFFFFFF AND PUSH20 0xFFFFFFFFFFFFFFFFFFFFFFFFFFFFFFFFFFFFFFFF AND DUP2 MSTORE PUSH1 0x20 ADD SWAP1 DUP2 MSTORE PUSH1 0x20 ADD PUSH0 KECCAK256 DUP2 SWAP1 SSTORE POP DUP2 PUSH20 0xFFFFFFFFFFFFFFFFFFFFFFFFFFFFFFFFFFFFFFFF AND DUP4 PUSH20 0xFFFFFFFFFFFFFFFFFFFFFFFFFFFFFFFFFFFFFFFF AND PUSH32 0x8C5BE1E5EBEC7D5BD14F71427D1E84F3DD0314C0F7B2291E5B200AC8C7C3B925 DUP4 PUSH1 0x40 MLOAD PUSH2 0x8C4 SWAP2 SWAP1 PUSH2 0x1014 JUMP JUMPDEST PUSH1 0x40 MLOAD DUP1 SWAP2 SUB SWAP1 LOG3 POP POP POP JUMP JUMPDEST PUSH0 PUSH2 0x8DC DUP5 DUP5 PUSH2 0x603 JUMP JUMPDEST SWAP1 POP PUSH32 0xFFFFFFFFFFFFFFFFFFFFFFFFFFFFFFFFFFFFFFFFFFFFFFFFFFFFFFFFFFFFFFFF DUP2 EQ PUSH2 0x956 JUMPI DUP2 DUP2 LT ISZERO PUSH2 0x948 JUMPI PUSH1 0x40 MLOAD PUSH32 0x8C379A000000000000000000000000000000000000000000000000000000000 DUP2 MSTORE PUSH1 0x4 ADD PUSH2 0x93F SWAP1 PUSH2 0x14BF JUMP JUMPDEST PUSH1 0x40 MLOAD DUP1 SWAP2 SUB SWAP1 REVERT JUMPDEST PUSH2 0x955 DUP5 DUP5 DUP5 DUP5 SUB PUSH2 0x70E JUMP JUMPDEST JUMPDEST POP POP POP POP JUMP JUMPDEST PUSH0 PUSH20 0xFFFFFFFFFFFFFFFFFFFFFFFFFFFFFFFFFFFFFFFF AND DUP4 PUSH20 0xFFFFFFFFFFFFFFFFFFFFFFFFFFFFFFFFFFFFFFFF AND SUB PUSH2 0x9CA JUMPI PUSH1 0x40 MLOAD PUSH32 0x8C379A000000000000000000000000000000000000000000000000000000000 DUP2 MSTORE PUSH1 0x4 ADD PUSH2 0x9C1 SWAP1 PUSH2 0x154D JUMP JUMPDEST PUSH1 0x40 MLOAD DUP1 SWAP2 SUB SWAP1 REVERT JUMPDEST PUSH0 PUSH20 0xFFFFFFFFFFFFFFFFFFFFFFFFFFFFFFFFFFFFFFFF AND DUP3 PUSH20 0xFFFFFFFFFFFFFFFFFFFFFFFFFFFFFFFFFFFFFFFF AND SUB PUSH2 0xA38 JUMPI PUSH1 0x40 MLOAD PUSH32 0x8C379A000000000000000000000000000000000000000000000000000000000 DUP2 MSTORE PUSH1 0x4 ADD PUSH2 0xA2F SWAP1 PUSH2 0x15DB JUMP JUMPDEST PUSH1 0x40 MLOAD DUP1 SWAP2 SUB SWAP1 REVERT JUMPDEST PUSH2 0xA43 DUP4 DUP4 DUP4 PUSH2 0xE69 JUMP JUMPDEST PUSH0 DUP1 PUSH0 DUP6 PUSH20 0xFFFFFFFFFFFFFFFFFFFFFFFFFFFFFFFFFFFFFFFF AND PUSH20 0xFFFFFFFFFFFFFFFFFFFFFFFFFFFFFFFFFFFFFFFF AND DUP2 MSTORE PUSH1 0x20 ADD SWAP1 DUP2 MSTORE PUSH1 0x20 ADD PUSH0 KECCAK256 SLOAD SWAP1 POP DUP2 DUP2 LT ISZERO PUSH2 0xAC6 JUMPI PUSH1 0x40 MLOAD PUSH32 0x8C379A000000000000000000000000000000000000000000000000000000000 DUP2 MSTORE PUSH1 0x4 ADD PUSH2 0xABD SWAP1 PUSH2 0x1669 JUMP JUMPDEST PUSH1 0x40 MLOAD DUP1 SWAP2 SUB SWAP1 REVERT JUMPDEST DUP2 DUP2 SUB PUSH0 DUP1 DUP7 PUSH20 0xFFFFFFFFFFFFFFFFFFFFFFFFFFFFFFFFFFFFFFFF AND PUSH20 0xFFFFFFFFFFFFFFFFFFFFFFFFFFFFFFFFFFFFFFFF AND DUP2 MSTORE PUSH1 0x20 ADD SWAP1 DUP2 MSTORE PUSH1 0x20 ADD PUSH0 KECCAK256 DUP2 SWAP1 SSTORE POP DUP2 PUSH0 DUP1 DUP6 PUSH20 0xFFFFFFFFFFFFFFFFFFFFFFFFFFFFFFFFFFFFFFFF AND PUSH20 0xFFFFFFFFFFFFFFFFFFFFFFFFFFFFFFFFFFFFFFFF AND DUP2 MSTORE PUSH1 0x20 ADD SWAP1 DUP2 MSTORE PUSH1 0x20 ADD PUSH0 KECCAK256 PUSH0 DUP3 DUP3 SLOAD PUSH2 0xB54 SWAP2 SWAP1 PUSH2 0x120A JUMP JUMPDEST SWAP3 POP POP DUP2 SWAP1 SSTORE POP DUP3 PUSH20 0xFFFFFFFFFFFFFFFFFFFFFFFFFFFFFFFFFFFFFFFF AND DUP5 PUSH20 0xFFFFFFFFFFFFFFFFFFFFFFFFFFFFFFFFFFFFFFFF AND PUSH32 0xDDF252AD1BE2C89B69C2B068FC378DAA952BA7F163C4A11628F55A4DF523B3EF DUP5 PUSH1 0x40 MLOAD PUSH2 0xBB8 SWAP2 SWAP1 PUSH2 0x1014 JUMP JUMPDEST PUSH1 0x40 MLOAD DUP1 SWAP2 SUB SWAP1 LOG3 PUSH2 0xBCB DUP5 DUP5 DUP5 PUSH2 0xE6E JUMP JUMPDEST POP POP POP POP JUMP JUMPDEST PUSH2 0xBD9 PUSH2 0x707 JUMP JUMPDEST PUSH20 0xFFFFFFFFFFFFFFFFFFFFFFFFFFFFFFFFFFFFFFFF AND PUSH2 0xBF7 PUSH2 0x49E JUMP JUMPDEST PUSH20 0xFFFFFFFFFFFFFFFFFFFFFFFFFFFFFFFFFFFFFFFF AND EQ PUSH2 0xC4D JUMPI PUSH1 0x40 MLOAD PUSH32 0x8C379A000000000000000000000000000000000000000000000000000000000 DUP2 MSTORE PUSH1 0x4 ADD PUSH2 0xC44 SWAP1 PUSH2 0x16D1 JUMP JUMPDEST PUSH1 0x40 MLOAD DUP1 SWAP2 SUB SWAP1 REVERT JUMPDEST JUMP JUMPDEST PUSH0 PUSH1 0x5 PUSH0 SWAP1 SLOAD SWAP1 PUSH2 0x100 EXP SWAP1 DIV PUSH20 0xFFFFFFFFFFFFFFFFFFFFFFFFFFFFFFFFFFFFFFFF AND SWAP1 POP DUP2 PUSH1 0x5 PUSH0 PUSH2 0x100 EXP DUP2 SLOAD DUP2 PUSH20 0xFFFFFFFFFFFFFFFFFFFFFFFFFFFFFFFFFFFFFFFF MUL NOT AND SWAP1 DUP4 PUSH20 0xFFFFFFFFFFFFFFFFFFFFFFFFFFFFFFFFFFFFFFFF AND MUL OR SWAP1 SSTORE POP DUP2 PUSH20 0xFFFFFFFFFFFFFFFFFFFFFFFFFFFFFFFFFFFFFFFF AND DUP2 PUSH20 0xFFFFFFFFFFFFFFFFFFFFFFFFFFFFFFFFFFFFFFFF AND PUSH32 0x8BE0079C531659141344CD1FD0A4F28419497F9722A3DAAFE3B4186F6B6457E0 PUSH1 0x40 MLOAD PUSH1 0x40 MLOAD DUP1 SWAP2 SUB SWAP1 LOG3 POP POP JUMP JUMPDEST PUSH0 PUSH20 0xFFFFFFFFFFFFFFFFFFFFFFFFFFFFFFFFFFFFFFFF AND DUP3 PUSH20 0xFFFFFFFFFFFFFFFFFFFFFFFFFFFFFFFFFFFFFFFF AND SUB PUSH2 0xD80 JUMPI PUSH1 0x40 MLOAD PUSH32 0x8C379A000000000000000000000000000000000000000000000000000000000 DUP2 MSTORE PUSH1 0x4 ADD PUSH2 0xD77 SWAP1 PUSH2 0x1739 JUMP JUMPDEST PUSH1 0x40 MLOAD DUP1 SWAP2 SUB SWAP1 REVERT JUMPDEST PUSH2 0xD8B PUSH0 DUP4 DUP4 PUSH2 0xE69 JUMP JUMPDEST DUP1 PUSH1 0x2 PUSH0 DUP3 DUP3 SLOAD PUSH2 0xD9C SWAP2 SWAP1 PUSH2 0x120A JUMP JUMPDEST SWAP3 POP POP DUP2 SWAP1 SSTORE POP DUP1 PUSH0 DUP1 DUP5 PUSH20 0xFFFFFFFFFFFFFFFFFFFFFFFFFFFFFFFFFFFFFFFF AND PUSH20 0xFFFFFFFFFFFFFFFFFFFFFFFFFFFFFFFFFFFFFFFF AND DUP2 MSTORE PUSH1 0x20 ADD SWAP1 DUP2 MSTORE PUSH1 0x20 ADD PUSH0 KECCAK256 PUSH0 DUP3 DUP3 SLOAD PUSH2 0xDEE SWAP2 SWAP1 PUSH2 0x120A JUMP JUMPDEST SWAP3 POP POP DUP2 SWAP1 SSTORE POP DUP2 PUSH20 0xFFFFFFFFFFFFFFFFFFFFFFFFFFFFFFFFFFFFFFFF AND PUSH0 PUSH20 0xFFFFFFFFFFFFFFFFFFFFFFFFFFFFFFFFFFFFFFFF AND PUSH32 0xDDF252AD1BE2C89B69C2B068FC378DAA952BA7F163C4A11628F55A4DF523B3EF DUP4 PUSH1 0x40 MLOAD PUSH2 0xE52 SWAP2 SWAP1 PUSH2 0x1014 JUMP JUMPDEST PUSH1 0x40 MLOAD DUP1 SWAP2 SUB SWAP1 LOG3 PUSH2 0xE65 PUSH0 DUP4 DUP4 PUSH2 0xE6E JUMP JUMPDEST POP POP JUMP JUMPDEST POP POP POP JUMP JUMPDEST POP POP POP JUMP JUMPDEST PUSH0 DUP2 MLOAD SWAP1 POP SWAP2 SWAP1 POP JUMP JUMPDEST PUSH0 DUP3 DUP3 MSTORE PUSH1 0x20 DUP3 ADD SWAP1 POP SWAP3 SWAP2 POP POP JUMP JUMPDEST DUP3 DUP2 DUP4 MCOPY PUSH0 DUP4 DUP4 ADD MSTORE POP POP POP JUMP JUMPDEST PUSH0 PUSH1 0x1F NOT PUSH1 0x1F DUP4 ADD AND SWAP1 POP SWAP2 SWAP1 POP JUMP JUMPDEST PUSH0 PUSH2 0xEB5 DUP3 PUSH2 0xE73 JUMP JUMPDEST PUSH2 0xEBF DUP2 DUP6 PUSH2 0xE7D JUMP JUMPDEST SWAP4 POP PUSH2 0xECF DUP2 DUP6 PUSH1 0x20 DUP7 ADD PUSH2 0xE8D JUMP JUMPDEST PUSH2 0xED8 DUP2 PUSH2 0xE9B JUMP JUMPDEST DUP5 ADD SWAP2 POP POP SWAP3 SWAP2 POP POP JUMP JUMPDEST PUSH0 PUSH1 0x20 DUP3 ADD SWAP1 POP DUP2 DUP2 SUB PUSH0 DUP4 ADD MSTORE PUSH2 0xEFB DUP2 DUP5 PUSH2 0xEAB JUMP JUMPDEST SWAP1 POP SWAP3 SWAP2 POP POP JUMP JUMPDEST PUSH0 DUP1 REVERT JUMPDEST PUSH0 PUSH20 0xFFFFFFFFFFFFFFFFFFFFFFFFFFFFFFFFFFFFFFFF DUP3 AND SWAP1 POP SWAP2 SWAP1 POP JUMP JUMPDEST PUSH0 PUSH2 0xF30 DUP3 PUSH2 0xF07 JUMP JUMPDEST SWAP1 POP SWAP2 SWAP1 POP JUMP JUMPDEST PUSH2 0xF40 DUP2 PUSH2 0xF26 JUMP JUMPDEST DUP2 EQ PUSH2 0xF4A JUMPI PUSH0 DUP1 REVERT JUMPDEST POP JUMP JUMPDEST PUSH0 DUP2 CALLDATALOAD SWAP1 POP PUSH2 0xF5B DUP2 PUSH2 0xF37 JUMP JUMPDEST SWAP3 SWAP2 POP POP JUMP JUMPDEST PUSH0 DUP2 SWAP1 POP SWAP2 SWAP1 POP JUMP JUMPDEST PUSH2 0xF73 DUP2 PUSH2 0xF61 JUMP JUMPDEST DUP2 EQ PUSH2 0xF7D JUMPI PUSH0 DUP1 REVERT JUMPDEST POP JUMP JUMPDEST PUSH0 DUP2 CALLDATALOAD SWAP1 POP PUSH2 0xF8E DUP2 PUSH2 0xF6A JUMP JUMPDEST SWAP3 SWAP2 POP POP JUMP JUMPDEST PUSH0 DUP1 PUSH1 0x40 DUP4 DUP6 SUB SLT ISZERO PUSH2 0xFAA JUMPI PUSH2 0xFA9 PUSH2 0xF03 JUMP JUMPDEST JUMPDEST PUSH0 PUSH2 0xFB7 DUP6 DUP3 DUP7 ADD PUSH2 0xF4D JUMP JUMPDEST SWAP3 POP POP PUSH1 0x20 PUSH2 0xFC8 DUP6 DUP3 DUP7 ADD PUSH2 0xF80 JUMP JUMPDEST SWAP2 POP POP SWAP3 POP SWAP3 SWAP1 POP JUMP JUMPDEST PUSH0 DUP2 ISZERO ISZERO SWAP1 POP SWAP2 SWAP1 POP JUMP JUMPDEST PUSH2 0xFE6 DUP2 PUSH2 0xFD2 JUMP JUMPDEST DUP3 MSTORE POP POP JUMP JUMPDEST PUSH0 PUSH1 0x20 DUP3 ADD SWAP1 POP PUSH2 0xFFF PUSH0 DUP4 ADD DUP5 PUSH2 0xFDD JUMP JUMPDEST SWAP3 SWAP2 POP POP JUMP JUMPDEST PUSH2 0x100E DUP2 PUSH2 0xF61 JUMP JUMPDEST DUP3 MSTORE POP POP JUMP JUMPDEST PUSH0 PUSH1 0x20 DUP3 ADD SWAP1 POP PUSH2 0x1027 PUSH0 DUP4 ADD DUP5 PUSH2 0x1005 JUMP JUMPDEST SWAP3 SWAP2 POP POP JUMP JUMPDEST PUSH0 DUP1 PUSH0 PUSH1 0x60 DUP5 DUP7 SUB SLT ISZERO PUSH2 0x1044 JUMPI PUSH2 0x1043 PUSH2 0xF03 JUMP JUMPDEST JUMPDEST PUSH0 PUSH2 0x1051 DUP7 DUP3 DUP8 ADD PUSH2 0xF4D JUMP JUMPDEST SWAP4 POP POP PUSH1 0x20 PUSH2 0x1062 DUP7 DUP3 DUP8 ADD PUSH2 0xF4D JUMP JUMPDEST SWAP3 POP POP PUSH1 0x40 PUSH2 0x1073 DUP7 DUP3 DUP8 ADD PUSH2 0xF80 JUMP JUMPDEST SWAP2 POP POP SWAP3 POP SWAP3 POP SWAP3 JUMP JUMPDEST PUSH0 PUSH1 0xFF DUP3 AND SWAP1 POP SWAP2 SWAP1 POP JUMP JUMPDEST PUSH2 0x1092 DUP2 PUSH2 0x107D JUMP JUMPDEST DUP3 MSTORE POP POP JUMP JUMPDEST PUSH0 PUSH1 0x20 DUP3 ADD SWAP1 POP PUSH2 0x10AB PUSH0 DUP4 ADD DUP5 PUSH2 0x1089 JUMP JUMPDEST SWAP3 SWAP2 POP POP JUMP JUMPDEST PUSH0 PUSH1 0x20 DUP3 DUP5 SUB SLT ISZERO PUSH2 0x10C6 JUMPI PUSH2 0x10C5 PUSH2 0xF03 JUMP JUMPDEST JUMPDEST PUSH0 PUSH2 0x10D3 DUP5 DUP3 DUP6 ADD PUSH2 0xF4D JUMP JUMPDEST SWAP2 POP POP SWAP3 SWAP2 POP POP JUMP JUMPDEST PUSH2 0x10E5 DUP2 PUSH2 0xF26 JUMP JUMPDEST DUP3 MSTORE POP POP JUMP JUMPDEST PUSH0 PUSH1 0x20 DUP3 ADD SWAP1 POP PUSH2 0x10FE PUSH0 DUP4 ADD DUP5 PUSH2 0x10DC JUMP JUMPDEST SWAP3 SWAP2 POP POP JUMP JUMPDEST PUSH0 DUP1 PUSH1 0x40 DUP4 DUP6 SUB SLT ISZERO PUSH2 0x111A JUMPI PUSH2 0x1119 PUSH2 0xF03 JUMP JUMPDEST JUMPDEST PUSH0 PUSH2 0x1127 DUP6 DUP3 DUP7 ADD PUSH2 0xF80 JUMP JUMPDEST SWAP3 POP POP PUSH1 0x20 PUSH2 0x1138 DUP6 DUP3 DUP7 ADD PUSH2 0xF4D JUMP JUMPDEST SWAP2 POP POP SWAP3 POP SWAP3 SWAP1 POP JUMP JUMPDEST PUSH0 DUP1 PUSH1 0x40 DUP4 DUP6 SUB SLT ISZERO PUSH2 0x1158 JUMPI PUSH2 0x1157 PUSH2 0xF03 JUMP JUMPDEST JUMPDEST PUSH0 PUSH2 0x1165 DUP6 DUP3 DUP7 ADD PUSH2 0xF4D JUMP JUMPDEST SWAP3 POP POP PUSH1 0x20 PUSH2 0x1176 DUP6 DUP3 DUP7 ADD PUSH2 0xF4D JUMP JUMPDEST SWAP2 POP POP SWAP3 POP SWAP3 SWAP1 POP JUMP JUMPDEST PUSH32 0x4E487B7100000000000000000000000000000000000000000000000000000000 PUSH0 MSTORE PUSH1 0x22 PUSH1 0x4 MSTORE PUSH1 0x24 PUSH0 REVERT JUMPDEST PUSH0 PUSH1 0x2 DUP3 DIV SWAP1 POP PUSH1 0x1 DUP3 AND DUP1 PUSH2 0x11C4 JUMPI PUSH1 0x7F DUP3 AND SWAP2 POP JUMPDEST PUSH1 0x20 DUP3 LT DUP2 SUB PUSH2 0x11D7 JUMPI PUSH2 0x11D6 PUSH2 0x1180 JUMP JUMPDEST JUMPDEST POP SWAP2 SWAP1 POP JUMP JUMPDEST PUSH32 0x4E487B7100000000000000000000000000000000000000000000000000000000 PUSH0 MSTORE PUSH1 0x11 PUSH1 0x4 MSTORE PUSH1 0x24 PUSH0 REVERT JUMPDEST PUSH0 PUSH2 0x1214 DUP3 PUSH2 0xF61 JUMP JUMPDEST SWAP2 POP PUSH2 0x121F DUP4 PUSH2 0xF61 JUMP JUMPDEST SWAP3 POP DUP3 DUP3 ADD SWAP1 POP DUP1 DUP3 GT ISZERO PUSH2 0x1237 JUMPI PUSH2 0x1236 PUSH2 0x11DD JUMP JUMPDEST JUMPDEST SWAP3 SWAP2 POP POP JUMP JUMPDEST PUSH32 0x45524332303A2064656372656173656420616C6C6F77616E63652062656C6F77 PUSH0 DUP3 ADD MSTORE PUSH32 0x207A65726F000000000000000000000000000000000000000000000000000000 PUSH1 0x20 DUP3 ADD MSTORE POP JUMP JUMPDEST PUSH0 PUSH2 0x1297 PUSH1 0x25 DUP4 PUSH2 0xE7D JUMP JUMPDEST SWAP2 POP PUSH2 0x12A2 DUP3 PUSH2 0x123D JUMP JUMPDEST PUSH1 0x40 DUP3 ADD SWAP1 POP SWAP2 SWAP1 POP JUMP JUMPDEST PUSH0 PUSH1 0x20 DUP3 ADD SWAP1 POP DUP2 DUP2 SUB PUSH0 DUP4 ADD MSTORE PUSH2 0x12C4 DUP2 PUSH2 0x128B JUMP JUMPDEST SWAP1 POP SWAP2 SWAP1 POP JUMP JUMPDEST PUSH32 0x4F776E61626C653A206E6577206F776E657220697320746865207A65726F2061 PUSH0 DUP3 ADD MSTORE PUSH32 0x6464726573730000000000000000000000000000000000000000000000000000 PUSH1 0x20 DUP3 ADD MSTORE POP JUMP JUMPDEST PUSH0 PUSH2 0x1325 PUSH1 0x26 DUP4 PUSH2 0xE7D JUMP JUMPDEST SWAP2 POP PUSH2 0x1330 DUP3 PUSH2 0x12CB JUMP JUMPDEST PUSH1 0x40 DUP3 ADD SWAP1 POP SWAP2 SWAP1 POP JUMP JUMPDEST PUSH0 PUSH1 0x20 DUP3 ADD SWAP1 POP DUP2 DUP2 SUB PUSH0 DUP4 ADD MSTORE PUSH2 0x1352 DUP2 PUSH2 0x1319 JUMP JUMPDEST SWAP1 POP SWAP2 SWAP1 POP JUMP JUMPDEST PUSH32 0x45524332303A20617070726F76652066726F6D20746865207A65726F20616464 PUSH0 DUP3 ADD MSTORE PUSH32 0x7265737300000000000000000000000000000000000000000000000000000000 PUSH1 0x20 DUP3 ADD MSTORE POP JUMP JUMPDEST PUSH0 PUSH2 0x13B3 PUSH1 0x24 DUP4 PUSH2 0xE7D JUMP JUMPDEST SWAP2 POP PUSH2 0x13BE DUP3 PUSH2 0x1359 JUMP JUMPDEST PUSH1 0x40 DUP3 ADD SWAP1 POP SWAP2 SWAP1 POP JUMP JUMPDEST PUSH0 PUSH1 0x20 DUP3 ADD SWAP1 POP DUP2 DUP2 SUB PUSH0 DUP4 ADD MSTORE PUSH2 0x13E0 DUP2 PUSH2 0x13A7 JUMP JUMPDEST SWAP1 POP SWAP2 SWAP1 POP JUMP JUMPDEST PUSH32 0x45524332303A20617070726F766520746F20746865207A65726F206164647265 PUSH0 DUP3 ADD MSTORE PUSH32 0x7373000000000000000000000000000000000000000000000000000000000000 PUSH1 0x20 DUP3 ADD MSTORE POP JUMP JUMPDEST PUSH0 PUSH2 0x1441 PUSH1 0x22 DUP4 PUSH2 0xE7D JUMP JUMPDEST SWAP2 POP PUSH2 0x144C DUP3 PUSH2 0x13E7 JUMP JUMPDEST PUSH1 0x40 DUP3 ADD SWAP1 POP SWAP2 SWAP1 POP JUMP JUMPDEST PUSH0 PUSH1 0x20 DUP3 ADD SWAP1 POP DUP2 DUP2 SUB PUSH0 DUP4 ADD MSTORE PUSH2 0x146E DUP2 PUSH2 0x1435 JUMP JUMPDEST SWAP1 POP SWAP2 SWAP1 POP JUMP JUMPDEST PUSH32 0x45524332303A20696E73756666696369656E7420616C6C6F77616E6365000000 PUSH0 DUP3 ADD MSTORE POP JUMP JUMPDEST PUSH0 PUSH2 0x14A9 PUSH1 0x1D DUP4 PUSH2 0xE7D JUMP JUMPDEST SWAP2 POP PUSH2 0x14B4 DUP3 PUSH2 0x1475 JUMP JUMPDEST PUSH1 0x20 DUP3 ADD SWAP1 POP SWAP2 SWAP1 POP JUMP JUMPDEST PUSH0 PUSH1 0x20 DUP3 ADD SWAP1 POP DUP2 DUP2 SUB PUSH0 DUP4 ADD MSTORE PUSH2 0x14D6 DUP2 PUSH2 0x149D JUMP JUMPDEST SWAP1 POP SWAP2 SWAP1 POP JUMP JUMPDEST PUSH32 0x45524332303A207472616E736665722066726F6D20746865207A65726F206164 PUSH0 DUP3 ADD MSTORE PUSH32 0x6472657373000000000000000000000000000000000000000000000000000000 PUSH1 0x20 DUP3 ADD MSTORE POP JUMP JUMPDEST PUSH0 PUSH2 0x1537 PUSH1 0x25 DUP4 PUSH2 0xE7D JUMP JUMPDEST SWAP2 POP PUSH2 0x1542 DUP3 PUSH2 0x14DD JUMP JUMPDEST PUSH1 0x40 DUP3 ADD SWAP1 POP SWAP2 SWAP1 POP JUMP JUMPDEST PUSH0 PUSH1 0x20 DUP3 ADD SWAP1 POP DUP2 DUP2 SUB PUSH0 DUP4 ADD MSTORE PUSH2 0x1564 DUP2 PUSH2 0x152B JUMP JUMPDEST SWAP1 POP SWAP2 SWAP1 POP JUMP JUMPDEST PUSH32 0x45524332303A207472616E7366657220746F20746865207A65726F2061646472 PUSH0 DUP3 ADD MSTORE PUSH32 0x6573730000000000000000000000000000000000000000000000000000000000 PUSH1 0x20 DUP3 ADD MSTORE POP JUMP JUMPDEST PUSH0 PUSH2 0x15C5 PUSH1 0x23 DUP4 PUSH2 0xE7D JUMP JUMPDEST SWAP2 POP PUSH2 0x15D0 DUP3 PUSH2 0x156B JUMP JUMPDEST PUSH1 0x40 DUP3 ADD SWAP1 POP SWAP2 SWAP1 POP JUMP JUMPDEST PUSH0 PUSH1 0x20 DUP3 ADD SWAP1 POP DUP2 DUP2 SUB PUSH0 DUP4 ADD MSTORE PUSH2 0x15F2 DUP2 PUSH2 0x15B9 JUMP JUMPDEST SWAP1 POP SWAP2 SWAP1 POP JUMP JUMPDEST PUSH32 0x45524332303A207472616E7366657220616D6F756E7420657863656564732062 PUSH0 DUP3 ADD MSTORE PUSH32 0x616C616E63650000000000000000000000000000000000000000000000000000 PUSH1 0x20 DUP3 ADD MSTORE POP JUMP JUMPDEST PUSH0 PUSH2 0x1653 PUSH1 0x26 DUP4 PUSH2 0xE7D JUMP JUMPDEST SWAP2 POP PUSH2 0x165E DUP3 PUSH2 0x15F9 JUMP JUMPDEST PUSH1 0x40 DUP3 ADD SWAP1 POP SWAP2 SWAP1 POP JUMP JUMPDEST PUSH0 PUSH1 0x20 DUP3 ADD SWAP1 POP DUP2 DUP2 SUB PUSH0 DUP4 ADD MSTORE PUSH2 0x1680 DUP2 PUSH2 0x1647 JUMP JUMPDEST SWAP1 POP SWAP2 SWAP1 POP JUMP JUMPDEST PUSH32 0x4F776E61626C653A2063616C6C6572206973206E6F7420746865206F776E6572 PUSH0 DUP3 ADD MSTORE POP JUMP JUMPDEST PUSH0 PUSH2 0x16BB PUSH1 0x20 DUP4 PUSH2 0xE7D JUMP JUMPDEST SWAP2 POP PUSH2 0x16C6 DUP3 PUSH2 0x1687 JUMP JUMPDEST PUSH1 0x20 DUP3 ADD SWAP1 POP SWAP2 SWAP1 POP JUMP JUMPDEST PUSH0 PUSH1 0x20 DUP3 ADD SWAP1 POP DUP2 DUP2 SUB PUSH0 DUP4 ADD MSTORE PUSH2 0x16E8 DUP2 PUSH2 0x16AF JUMP JUMPDEST SWAP1 POP SWAP2 SWAP1 POP JUMP JUMPDEST PUSH32 0x45524332303A206D696E7420746F20746865207A65726F206164647265737300 PUSH0 DUP3 ADD MSTORE POP JUMP JUMPDEST PUSH0 PUSH2 0x1723 PUSH1 0x1F DUP4 PUSH2 0xE7D JUMP JUMPDEST SWAP2 POP PUSH2 0x172E DUP3 PUSH2 0x16EF JUMP JUMPDEST PUSH1 0x20 DUP3 ADD SWAP1 POP SWAP2 SWAP1 POP JUMP JUMPDEST PUSH0 PUSH1 0x20 DUP3 ADD SWAP1 POP DUP2 DUP2 SUB PUSH0 DUP4 ADD MSTORE PUSH2 0x1750 DUP2 PUSH2 0x1717 JUMP JUMPDEST SWAP1 POP SWAP2 SWAP1 POP JUMP INVALID LOG2 PUSH5 0x6970667358 0x22 SLT KECCAK256 EXTCODECOPY 0x24 SWAP10 0xD5 SWAP3 SWAP1 0x4C 0xCB 0xE7 PUSH3 0x27D42D TIMESTAMP 0xE2 DUP6 0xFC 0xD5 0xAB 0xB7 GASLIMIT 0xB6 POP 0xEC EXP 0xAE LOG4 MSTORE8 MULMOD AND SWAP4 SWAP5 PUSH5 0x736F6C6343 STOP ADDMOD BYTE STOP CALLER "
				},
				"gasEstimates": {
					"creation": {
						"codeDepositCost": "1205800",
						"executionCost": "infinite",
						"totalCost": "infinite"
					},
					"external": {
						"allowance(address,address)": "infinite",
						"approve(address,uint256)": "infinite",
						"balanceOf(address)": "2918",
						"decimals()": "383",
						"decreaseAllowance(address,uint256)": "infinite",
						"increaseAllowance(address,uint256)": "infinite",
						"mint(uint256,address)": "infinite",
						"name()": "infinite",
						"owner()": "2560",
						"renounceOwnership()": "30413",
						"symbol()": "infinite",
						"totalSupply()": "2500",
						"transfer(address,uint256)": "infinite",
						"transferFrom(address,address,uint256)": "infinite",
						"transferOwnership(address)": "30819"
					}
				},
				"methodIdentifiers": {
					"allowance(address,address)": "dd62ed3e",
					"approve(address,uint256)": "095ea7b3",
					"balanceOf(address)": "70a08231",
					"decimals()": "313ce567",
					"decreaseAllowance(address,uint256)": "a457c2d7",
					"increaseAllowance(address,uint256)": "39509351",
					"mint(uint256,address)": "94bf804d",
					"name()": "06fdde03",
					"owner()": "8da5cb5b",
					"renounceOwnership()": "715018a6",
					"symbol()": "95d89b41",
					"totalSupply()": "18160ddd",
					"transfer(address,uint256)": "a9059cbb",
					"transferFrom(address,address,uint256)": "23b872dd",
					"transferOwnership(address)": "f2fde38b"
				}
			},
			"storageLayout": {
				"storage": [
					{
						"astId": 128,
						"contract": "mintable-token/mintable-token.sol:MintableToken",
						"label": "_balances",
						"offset": 0,
						"slot": "0",
						"type": "t_mapping(t_address,t_uint256)"
					},
					{
						"astId": 134,
						"contract": "mintable-token/mintable-token.sol:MintableToken",
						"label": "_allowances",
						"offset": 0,
						"slot": "1",
						"type": "t_mapping(t_address,t_mapping(t_address,t_uint256))"
					},
					{
						"astId": 136,
						"contract": "mintable-token/mintable-token.sol:MintableToken",
						"label": "_totalSupply",
						"offset": 0,
						"slot": "2",
						"type": "t_uint256"
					},
					{
						"astId": 138,
						"contract": "mintable-token/mintable-token.sol:MintableToken",
						"label": "_name",
						"offset": 0,
						"slot": "3",
						"type": "t_string_storage"
					},
					{
						"astId": 140,
						"contract": "mintable-token/mintable-token.sol:MintableToken",
						"label": "_symbol",
						"offset": 0,
						"slot": "4",
						"type": "t_string_storage"
					},
					{
						"astId": 7,
						"contract": "mintable-token/mintable-token.sol:MintableToken",
						"label": "_owner",
						"offset": 0,
						"slot": "5",
						"type": "t_address"
					}
				],
				"types": {
					"t_address": {
						"encoding": "inplace",
						"label": "address",
						"numberOfBytes": "20"
					},
					"t_mapping(t_address,t_mapping(t_address,t_uint256))": {
						"encoding": "mapping",
						"key": "t_address",
						"label": "mapping(address => mapping(address => uint256))",
						"numberOfBytes": "32",
						"value": "t_mapping(t_address,t_uint256)"
					},
					"t_mapping(t_address,t_uint256)": {
						"encoding": "mapping",
						"key": "t_address",
						"label": "mapping(address => uint256)",
						"numberOfBytes": "32",
						"value": "t_uint256"
					},
					"t_string_storage": {
						"encoding": "bytes",
						"label": "string",
						"numberOfBytes": "32"
					},
					"t_uint256": {
						"encoding": "inplace",
						"label": "uint256",
						"numberOfBytes": "32"
					}
				}
			},
			"userdoc": {
				"kind": "user",
				"methods": {},
				"notice": "Token, ERC20, Mintable",
				"version": 1
			}
		}
	}
}